:100000000C940F010C946F010C946F010C946F0110
:100010000C946F010C946F010C946F010C946F01A0
:100020000C946F010C946F010C946F010C946F0190
:100030000C946F010C946F010C946F010C946F0180
:100040000C946F010C946F010C946F010C946F0170
:100050000C946F010C946F010C946F010C946F0160
:100060000C946F010C946F010C946F010C946F0150
:100070000C946F010C946F010C946F010C946F0140
:100080000C94AE1E0C946F010C946F010C946F01D4
:100090000C946F010C946F010C946F010C946F0120
:1000A0000C946F010C946F010C946F010C946F0110
:1000B0000C946F010C946F010C946F010C946F0100
:1000C0000C946F010C946F010C946F010C946F01F0
:1000D0000C946F010C946F010C946F010C946F01E0
:1000E0000C946F010C946F010C94C1030C946F017C
:1000F0000C946F010C946F010C946F010C946F01C0
:100100000C946F010C946F010C946F010C946F01AF
:100110000C946F010C946F010C946F010C946F019F
:100120000C946F010C946F010C946F010C946F018F
:100130000C946F010C946F010C946F010C946F017F
:100140000C946F010C946F010C946F010C946F016F
:100150000C946F010C946F010C946F010C946F015F
:100160000C946F010C946F010C946F010C946F014F
:100170000C946F010C946F010C946F010C946F013F
:100180000C946F010C946F010C946F010C946F012F
:100190000C946F010C946F010C946F010C946F011F
:1001A0000C946F010C946F010C946F010C946F010F
:1001B0000C946F010C946F010C946F010C946F01FF
:1001C0000C946F010C946F010C946F010C946F01EF
:1001D0000C946F010C946F010C946F010C946F01DF
:1001E0000C946F010C946F010C946F010C946F01CF
:1001F0000C946F010C946F010C946F01244D4F44CB
:1002000024204842572D444556202000000000007D
:10021000010EB000770185019A19C61B2F1F11240A
:100220001FBECFEFCDBFDFE2DEBF80E08CBF84E238
:100230000E94AC1260E081E490E00E9488128091FC
:100240005000866080935000809151008670863007
:10025000D9F760914000687F616080E490E00E947F
:10026000881280914000809150008E7F80935000D2
:10027000809150008091600081608093600010E266
:10028000A0E0B0E2E2EBF5E402C005900D92A83BDD
:10029000B107D9F722E2A8EBB0E201C01D92AC3E53
:1002A000B207E1F7ECEEF2E288E49AE28193EC3EE9
:1002B000F907E0F383E590E38193E030F907E0F399
:1002C00011E0CFE0D1E004C02197FE010E94A021FF
:1002D000CA30D107C9F70E94EA020C94D7220C94C5
:1002E0000000FC0163817281818190810895E8EBB7
:1002F000F0E21082118212821382148280ED97E064
:100300008583968385E08783089580E098EE8093C7
:10031000C2209093C32080E094EF8093C0209093FC
:10032000C120089580E008950895CF93DF93EC01F4
:100330008B5A9F4F0E94BC1F811107C0CE01895963
:100340009F4F0E94BC1F91E0811190E0892FDF91A7
:10035000CF9108950F931F93CF93DF9300D000D0D8
:10036000CDB7DEB76115710509F453C0DB01182F55
:1003700060932322709324226093CC227093CD2229
:100380001296ED91FC911397178287E6868383E29C
:10039000858388E184831296ED91FC911397938174
:1003A0009F7C906193839091252291609093252268
:1003B000ED91FC910280F381E02DCB010995109322
:1003C00028228093262290932722FC018681978100
:1003D000A085B18589839A83AB83BC83CE010196C6
:1003E0000E9471018B019C011D532F48304600383B
:1003F00016492849310540F460930720709308207E
:100400008093092090930A20809125228260809316
:1004100025222496CDBFDEBFDF91CF911F910F9192
:100420000895CF93DF931F92CDB7DEB7DC0113960B
:100430006C93139717968D919C911897009779F06C
:1004400061110DC02FEC2983DC01ED91FC9101902D
:10045000F081E02DAE014F5F5F4F61E009950F9095
:10046000DF91CF9108950F931F93CF93DF9300D027
:100470001F92CDB7DEB7182F809100108F3F51F437
:100480001B8241E050E0BE016D5F7F4F80E090E154
:100490000E94761E113B09F062C08091001081110C
:1004A00030C083EB92E00E94821D8C0147E063E044
:1004B000CE0101960E94821F41E064E0CE010296C7
:1004C0000E94821F21E049816A81C8010E942D0596
:1004D0008DE190E2F8018083918381E08093820630
:1004E00080938106E1EDF0E2808D918DA191B19133
:1004F00017968D939C93189780E2E93EF807A1F731
:1005000060C0813009F05CC082EB92E00E94821DE5
:100510008C0141E06CE0CE0101960E94821F40E018
:100520006CE0CE0102960E94821F21E049816A811F
:10053000C8010E942D0589E290E2F8018083918331
:10054000E1EDF0E2808D918DA191B19117968D939F
:100550009C93189780E2E93EF807A1F732C0123B5E
:1005600009F58091001081112BC082EB92E00E946E
:10057000821D8C0141E06CE0CE0101960E94821F39
:1005800040E06CE0CE0102960E94821F20E049818B
:100590006A81C8010E942D0585E390E2F8018083FD
:1005A00091830FC0133B61F480910010811108C04A
:1005B00085EB90E00E94821D8C010E946B0401C0BB
:1005C000FFCFC8012396CDBFDEBFDF91CF911F9132
:1005D0000F910895CF93DF93CDB7DEB76897CDBF66
:1005E000DEBF60E074E082E00E94D6208091CF01FF
:1005F00087FDFCCF8091CC0188608093CC0128E1FD
:1006000030E0AE014F5F5F4F6CEF71E880E090E04B
:100610000E94C31E489711F080EB8F8B8F890E9438
:100620003302BC018F890E94AA018091A2008F7BB6
:100630009FB7F8941BBE28ED24BF8093A2009FBFF4
:100640008091A20087608093A20078940E946C1829
:10065000FDCFFF920F931F93CF93DF93CDB7DEB7FC
:100660002697CDBFDEBF2091C420261709F46BC0AA
:10067000F62E8C0181E0681741F1681758F082E08E
:10068000681709F443C085E068135BC086E0EDE0BD
:10069000F0E23FC01982AE014F5F5F4F61E0C801D9
:1006A000885C9E4F0E949708AE014F5F5F4F61E0EC
:1006B000C801815B9E4F0E949708F801E45BFF4FE1
:1006C00081E08383729683833CC084E68983AE0194
:1006D0004F5F5F4F61E0C801885C9E4F0E949708A2
:1006E000AE014F5F5F4F61E0C801815B9E4F0E948A
:1006F000970860E0C801845B9F4F0E94110260E090
:10070000C801825A9F4F0E9411021BC086E0E3E19C
:10071000F0E2DE01119601900D928A95E1F7AE01AB
:100720004F5F5F4F66E0C801885C9E4F0E9497084C
:10073000AE014F5F5F4F66E0C801815B9E4F0E9434
:100740009708F092C4202696CDBFDEBFDF91CF91EF
:100750001F910F91FF90089580E00895089521E47E
:1007600030E2FC0120833183E0E8F6E024E02283DC
:1007700028E02283218320EA3AE0FC0122833383AC
:1007800008951F920F920FB60F9211242F933F934B
:100790004F935F936F937F938F939F93AF93BF9389
:1007A000EF93FF938091A00A0E94CE19009739F130
:1007B0000E94C418811123C082E692E20E94E918C7
:1007C0009C01892BE1F080915F228830C1F09091EB
:1007D00061229F5F90936122909161229770909324
:1007E000612290915F229F5F90935F22E09161224E
:1007F000F0E0EE0FFF1FE15BFD4D20833183FF91A1
:10080000EF91BF91AF919F918F917F916F915F9188
:100810004F913F912F910F900FBE0F901F90189501
:10082000809108068295817091E08927089580E083
:1008300090E1089581E0662319F08093E50708951B
:100840008093E6070895CF93C62F8091C920811128
:100850000DC00E941C216093C5207093C620809318
:10086000C7209093C82081E08093C920C53050F400
:10087000C23078F4CC2349F0C13059F582E080933E
:10088000E50727C0C53079F024C082E08093E607F1
:1008900020C085EC90E20E943E21653F71408105B9
:1008A0009105B8F009C085EC90E20E943E21693CB8
:1008B00071058105910568F082E08093E7070E9449
:1008C0001C216093C5207093C6208093C72090930D
:1008D000C820CF910895EF92FF920F93CF93DF93AB
:1008E0001F92CDB7DEB77C010E94AF038DE490E28A
:1008F000F7018083918340E060E0CE0101960E9481
:10090000821F20E030E040E150E16981C701049698
:100910000E94281041E060E0CE0101960E94821FF3
:1009200020E030E042E150E16981C70146960E9433
:10093000281042E060E0CE0101960E94821F20E074
:1009400030E044E150E16981C70188960E94281097
:1009500043E060E0CE0101960E94821F20E030E07B
:1009600046E150E16981C701CA960E94281040E023
:1009700062E0CE0101960E94821F00EC20E048E276
:1009800050E16981C701845B9F4F0E94730941E078
:1009900062E0CE0101960E94821F20E04AE250E10F
:1009A0006981C7018D599F4F0E94730942E062E03F
:1009B000CE0101960E94821F20E04CE250E1698145
:1009C000C70186589F4F0E94730943E062E0CE0141
:1009D00001960E94821F20E04EE250E16981C7012A
:1009E0008F569F4F0E94730940E750E168E2C701AC
:1009F00088559F4F0E94201240E651E168E2C701EE
:100A000083559F4F0E944C11E0EEF7E081E0828316
:100A1000818382E08283818380E180930206E1EF1B
:100A2000F7E0808180648083E4E1F6E08081877C68
:100A300080838081886180830F90DF91CF910F91B7
:100A4000FF90EF90089580E090E108958F549D4FBE
:100A500061110C94411D0C942F1DCF92DF92EF92E7
:100A6000FF920F931F93CF93DF931F92CDB7DEB703
:100A70007C01D62EC42E122F0E94AF0389E590E28E
:100A8000F7018083918340E060E0CE0101960E94EF
:100A9000821F20E030E040E150E16981C701049607
:100AA0000E94281041E060E0CE0101960E94821F62
:100AB00020E030E042E150E16981C70146960E94A2
:100AC000281042E060E0CE0101960E94821F20E0E3
:100AD00030E044E150E16981C70188960E94281006
:100AE00043E060E0CE0101960E94821F20E030E0EA
:100AF00046E150E16981C701CA960E94281044E08E
:100B000060E0CE0101960E94821F20E030E048E1C3
:100B100050E16981C701845B9F4F0E94281045E026
:100B200060E0CE0101960E94821F20E030E04AE1A1
:100B300050E16981C701825A9F4F0E94281040E00E
:100B400061E0CE0101960E94821F20E030E04CE17E
:100B500050E16981C70180599F4F0E94281041E0F0
:100B600061E0CE0101960E94821F20E030E04EE15C
:100B700050E16981C7018E579F4F0E94281042E0C3
:100B800061E0CE0101960E94821F20E030E040E249
:100B900050E16981C7018C569F4F0E94281043E0A5
:100BA00061E0CE0101960E94821F20E030E042E227
:100BB00050E16981C7018A559F4F0E94281046E085
:100BC00062E0CE0101960E94821F20E030E044E204
:100BD00050E16981C70188549F4F0E94281047E067
:100BE00062E0CE0101960E94821F20E030E046E2E2
:100BF00050E16981C70186539F4F0E94281040E051
:100C000062E0CE0101960E94821F04E6212F48E295
:100C100050E16981C70184529F4F0E94730941E0EE
:100C200062E0CE0101960E94821F212F4AE250E12C
:100C30006981C7018D509F4F0E94730942E062E0B5
:100C4000CE0101960E94821F212F4CE250E1698162
:100C5000C701865F9E4F0E94730943E062E0CE01A8
:100C600001960E94821F212F4EE250E16981C70147
:100C70008F5D9E4F0E94730944E062E0CE010196B1
:100C80000E94821F212F40E350E16981C701885CE7
:100C90009E4F0E94730945E062E0CE0101960E94DA
:100CA000821F212F42E350E16981C701815B9E4F82
:100CB0000E94730940E063E0CE0101960E94821F0A
:100CC00020E044E350E16981C7018A599E4F0E94A8
:100CD000730941E063E0CE0101960E94821F20E08B
:100CE00046E350E16981C70183589E4F0E94730912
:100CF00042E063E0CE0101960E94821F20E048E3BB
:100D000050E16981C7018C569E4F0E94730943E0F0
:100D100063E0CE0101960E94821F20E04AE350E189
:100D20006981C70185559E4F0E94730944E063E0C5
:100D3000CE0101960E94821F20E04CE350E16981C0
:100D4000C7018E539E4F0E94730945E063E0CE01B8
:100D500001960E94821F20E04EE350E16981C701A5
:100D600087529E4F0E947309870100511E4F6C2DC0
:100D7000C8010E94D81B40E450E1B801C7018D5062
:100D80009E4F0E94D50A46E450E1B801C7018F5E2C
:100D90009D4F0E94D50A4CE450E1B801C701815D26
:100DA0009D4F0E94D50A42E550E1B801C701835B1F
:100DB0009D4F0E94D50A48E550E1B801C701855909
:100DC0009D4F0E94D50A4EE550E1B801C7018757F3
:100DD0009D4F0E94D50A40E750E168E2C70189555E
:100DE0009D4F0E94201240E651E168E2C701845500
:100DF0009D4F0E944C11FFE4EF1AFDEFFF0A4D2DAD
:100E00004F706D2D62956F70C7010E94821FF701B0
:100E10008081803E18F4C7010E94891FF7018081FC
:100E2000803E18F4C7010E949E1F0F90DF91CF9162
:100E30001F910F91FF90EF90DF90CF900895FC01EC
:100E40008781FB01808381E008950F931F93CF93E7
:100E5000DF931F92CDB7DEB78C01DC011396ED91C5
:100E6000FC91149791819150983C98F4D801139675
:100E7000ED91FC911497618170E0660F771FC801B6
:100E800005960E94AC200F90DF91CF911F910F919A
:100E90000895D80156968C91898341E050E0BE01B7
:100EA0006F5F7F4FCF0101960E94761EDFCFCF93F9
:100EB000DF93EC010E941C21688379838A839B83E2
:100EC000DF91CF9108952F923F924F925F926F9250
:100ED0007F928F929F92AF92BF92DF92EF92FF929A
:100EE0000F931F93CF93DF93CDB7DEB7CC55D109C6
:100EF000CDBFDEBF8C01D62EFC0181899289A389EA
:100F0000B489892B8A2B8B2B99F1C80141960E94B9
:100F10003E21672B682B692B59F17801B5E0EB0E68
:100F2000F11CC7010E943C20F8016085262F30E0AB
:100F30008217930709F0A5C0D8011B968C91B4E6DF
:100F40008B9FC0011124092E000CAA0BBB0BF801CA
:100F50004189528963897489840F951FA61FB71F21
:100F6000818B928BA38BB48B6185C7010E94722009
:100F7000F8018681811109C081899289A389B48988
:100F8000892B8A2B8B2B09F4B6C0F80185859685B1
:100F9000A785B089892B8A2B8B2B09F4B2C0C80195
:100FA0000D960E943E21672B682B692B09F4A9C07E
:100FB000D801ED91FC910280F381E02DBE01645ACD
:100FC0007F4FC8010995F82EE0912622F091272243
:100FD00082819381A481B5816C968CAF9DAFAEAFB9
:100FE000BFAF6C97CE01885A9F4F0E9471012B01B1
:100FF0003C018090072090900820A0900920B0909C
:101000000A20CE0102960E945707FE0131961F0169
:1010100087E5DF011D928A95E9F789E6888BD98AF1
:101020004F2D50E0BE01645A7F4FCE0142960E9480
:10103000C72288EF8A878B869C86AD86BE864E82C5
:101040005F8268867986F394F394FF86C1010E94DB
:101050002B19882371F0F80185859685A785B089BD
:1010600086509F4FAF4FBF4F85879687A787B08B1E
:1010700048C0D8011D961D921D921D921C9250973A
:1010800040C0D8011C968C911C97882329F11A9690
:101090008C91B4E68B9FC0011124092E000CAA0B81
:1010A000BB0BF8014188528863887488840D951DB4
:1010B000A61DB71D818B928BA38BB48BC7010E9499
:1010C0007220D8011C968C911C978F3F09F450CF49
:1010D00081501C968C934CCFF801118A128A138A86
:1010E000148A8781681711F08AEC01C089ECD80155
:1010F00055968C933DCF6781C80105960E9472205A
:1011000044CFC45ADF4FCDBFDEBFDF91CF911F91D7
:101110000F91FF90EF90DF90BF90AF909F908F90D6
:101120007F906F905F904F903F902F900895FF9227
:101130000F931F93CF93DF9300D000D0CDB7DEB7CE
:101140008C01FA018081893C90F4D80117968C9328
:10115000179751961D921D921D921C925497808153
:10116000811102C08AEC01C089ECF80151C08E3CAB
:1011700051F468ECC80105960E94722081E0D80104
:1011800016968C93A7C08F3C19F4F8011682A2C062
:10119000663008F45EC09181D80119969C93199726
:1011A000828118968C93189723811A962C931A97FC
:1011B00024811B962C931B9725811C962C93F080E1
:1011C000BCECFB120FC0CE0101960E94570789812B
:1011D0009A81AB81BC81F801818B928BA38BB48BFC
:1011E000F58A44C0FDECFF1220C0D80155968C91C1
:1011F0008C3C81F0CE0101960E94570789819A812B
:10120000AB81BC81F801818B928BA38BB48B8CEC6E
:10121000858B2CC0D80151961D921D921D921C9257
:1012200054978AEC55968C9321C0BBECFB121EC0E0
:10123000F80125892A3C21F097838AEC858B03C02D
:10124000878389EC858BF801118A128A138A148AA4
:101250000DC0D80117968C911797882319F017960F
:101260001C92F1CF88ECF8018783EDCFF8018585DA
:101270009685A785B089892B8A2B8B2B59F50380FE
:10128000F481E02D808180FF25C0CE0101960E946F
:10129000570749815A816B817C81D8011D964D93F6
:1012A0005D936D937C935097E0912622F0912722D5
:1012B0009181B4E69B9FC0011124092E000CAA0B5A
:1012C000BB0B840F951FA61FB71FF8018587968754
:1012D000A787B08B2496CDBFDEBFDF91CF911F9142
:1012E0000F91FF900895CF92DF92FF920F931F937B
:1012F000CF93DF93EC01162F6A01F22E0E94321277
:1013000085E690E288839983202F30E0220F331FF7
:10131000412F4F70612F62956F70CE0105960E942C
:10132000EF1FCE010D960E945707CE0141960E94F5
:1013300057070E8B82E08A83CB82DC828D81182F47
:101340001F7082958F700E94211F183060F44096A4
:10135000E12FF0E0E80FF91F8081FF2011F0806499
:1013600001C08F7B80831E828AEC8D8B1F8288EC6C
:10137000888719868AE08A878B878FEF8C871D86FE
:101380001E861F86188A198A1A8A1B8A1C8ADF9170
:10139000CF911F910F91FF90DF90CF900895FC01A6
:1013A0002389FB012083FC018289FB01818382E088
:1013B00008950F931F93CF93DF93CDB7DEB7279791
:1013C000CDBFDEBF8C01DC0115968D919C911697E7
:1013D000FC0121812B3F50F025E02F8341E050E0BC
:1013E000BE01695F7F4F01960E94761ED801159657
:1013F0008D919C911697FC01228133812115310535
:1014000029F0255031092C303E4060F5D801159661
:101410008D919C911697FC01248135812115310510
:1014200029F0255031092C303E4048F5D801159659
:10143000ED91FC91169784819581009729F0228186
:1014400033818217930740F1F801178284EF91E00E
:10145000808B918B2796CDBFDEBFDF91CF911F91FF
:101460000F9108952AE030E02D833E8342E050E062
:10147000BE016B5F7F4F02960E94761EC7CF26E9A2
:1014800030E02B833C8342E050E0BE016D5F7F4F34
:1014900004960E94761ECACF19821A8242E050E05A
:1014A000BE016F5F7F4FCF0104960E94761ECCCFA6
:1014B0004F925F926F927F928F929F92AF92BF9264
:1014C000CF92DF92EF92FF920F931F93CF93DF9310
:1014D000CDB7DEB7CB55D109CDBFDEBF882EF62EF6
:1014E0006A010115110521053105C1F4E09126229B
:1014F000F091272282819381A481B5816C968CAF73
:101500009DAFAEAFBFAF6C97CE01885A9F4F0E9480
:101510007101962EA72EB82EE92E04C0902EA12E72
:10152000B22EE32E409007205090082060900920B2
:1015300070900A20CE0102960E9457078E010F5F1D
:101540001F4F87E5F80111928A95E9F789E6888BA4
:10155000898A4F2D50E0B601CE0142960E94C722E3
:1015600088EF8A874B865C866D867E869E82AF82F8
:10157000B886E986F394F394FF86C8010E942B197C
:10158000C55ADF4FCDBFDEBFDF91CF911F910F91C5
:10159000FF90EF90DF90CF90BF90AF909F908F9093
:1015A0007F906F905F904F900895EF92FF920F930E
:1015B0001F93CF93DF93EC017B018A010E943212CB
:1015C00081E790E288839983EB82FC821F82CE01BF
:1015D00046960E945707CE014A960E94570783E01D
:1015E0008A830D831E8380ED97E0888B998B1E8AFA
:1015F0001F8A188E198EDF91CF911F910F91FF9046
:10160000EF900895982F81E0983221F0903111F0F9
:1016100080E0089508951F93CF93DF93EC01162F78
:101620008B819C810E94FE1B8B819C81DC01119629
:10163000ED91FC91129730852C912323E1F011114B
:1016400004C0AE01485F5F4F02C040E050E064E478
:101650000E94D61C8091062081110FC0EB81FC8175
:101660008081A181B28115968C9380810180F28165
:10167000E02D818302C081E001C080E0DF91CF9145
:101680001F910895FB0120813181DC0118968C9116
:10169000803161F42E7F43E0220F331F4A95E1F73A
:1016A0008681281B3109245F3F4F10C0883271F4B6
:1016B0008481982F9076903649F086FF02C02E7F65
:1016C00005C085FF02C02C7F01C0287FC90134E01E
:1016D000969587953A95E1F7B4E68B02C0011124FF
:1016E000322F23FDC29632FD499631FD0D9630FD15
:1016F00006960895AF92BF92CF92DF92EF92FF923B
:101700000F931F93CF93DF93CDB7DEB72997CDBF4C
:10171000DEBF8C01FC01838194810E94FE1BA80125
:10172000485F5F4F6EEBF801838194810E94D61C65
:10173000CE0101967C015E019AE0A90EB11C670101
:101740006FEFF801838194810E94631CF7018193FC
:101750007F01EA15FB05A1F740E069E070E0C601F2
:101760000E94061D811109C0B601C8010E94420BEA
:10177000F801828B938B80E001C083E02996CDBF76
:10178000DEBFDF91CF911F910F91FF90EF90DF901F
:10179000CF90BF90AF90089520911521E1EDF0E238
:1017A00090E0921781F0A191B19112963C9112971D
:1017B000333039F415960D90BC91A02D3C918317D0
:1017C00021F09F5FEECF80E0089581E008958F9231
:1017D0009F92AF92BF92CF92DF92EF92FF920F93C0
:1017E0001F93CF93DF93CDB7DEB72697CDBFDEBF74
:1017F000FC0180899189892B09F461C1A581B68199
:101800008C91811104C08781833009F058C1D62E94
:101810007F01CF0146960E943E21D70150962D911F
:101820003C915197890120E030E0601771078207F1
:10183000930708F444C1CE0101960E94570789819D
:101840009A81AB81BC81F701868B978BA08FB18F7A
:101850008781811151C08DE495E9828B938B0FEFC5
:101860006701F8E0CF0ED11C570120E1A20EB11C98
:10187000A601602FD70113968D919C9114970E9419
:101880007E1C082F82E0800F823070F1F60110E09C
:101890008191180FEA15FB05D9F7F70180850E94A1
:1018A000020B811103C00111E3CF1EC0D7011596B1
:1018B0008D909C901697F40180818F3F31F4812F99
:1018C0000E94CC0B882309F4F0C0D7011596ED9146
:1018D000FC91169780811813E6CF81E017968C93C0
:1018E000179784E690E0C1C088E893E1F701808B08
:1018F000918B83E08783E3C08130B9F461E0C70155
:101900000E940B0B81110BC088EE93E0D70150961B
:101910008D939C93519782E017968C93D0C08AEF59
:1019200090E0F701808B918BCAC0823009F0A2C091
:10193000C7010E947A0B11E0811110E0D7011596C2
:10194000ED91FC91169782819381892BC9F0C70193
:101950004A960E943E214B015C01D7011596ED91FC
:10196000FC91169722813381A8EEB3E00E94912169
:1019700021E086169706A806B90618F420E001C0F3
:1019800021E01223D7011596ED91FC9116978481E1
:101990009581892B49F4D7011596ED91FC91169705
:1019A0004181411119C02CC0C7014A960E943E21B5
:1019B0004B015C01D7011596ED91FC91169724819E
:1019C0003581A8EEB3E00E94912186169706A806FD
:1019D000B90608F321E015C0F701828993892489AB
:1019E0003589821B930B97FF03C0919581959109CF
:1019F000FAE04F9FA001112421E08417950708F415
:101A000020E0112359F1222349F1D701ED91FC91F6
:101A10000280F381E02DBE016B5F7F4FC701099506
:101A200000E010E09801AE014B5F5F4F682F8D2DF5
:101A30000E94580A811112C0F70182899389848B10
:101A4000958BCE0101960E94570789819A81AB81BF
:101A5000BC81F701828F938FA48FB58F81E0D7016E
:101A600017968C93179788E893E150968D939C93E3
:101A7000519725C0833019F50190F081E02D028047
:101A8000F381E02DBE016F5F7F4FC701099500E034
:101A900010E09801AE014F5F5F4F682F8D2D0E94BF
:101AA000580AF701108A118A0AC0198341E050E0F0
:101AB000BE016F5F7F4FC4010E94761E06CF26963F
:101AC000CDBFDEBFDF91CF911F910F91FF90EF90BF
:101AD000DF90CF90BF90AF909F908F900895CF935D
:101AE000DF93EC0101960E94570787E5FE011192F2
:101AF0008A95E9F7DF91CF9108954F925F926F92A7
:101B00007F92AF92BF92CF92DF92EF92FF920F93AC
:101B10001F93CF93DF93CDB7DEB7C755D109CDBFA4
:101B2000DEBF182FF62EE42E40900720509008209C
:101B30006090092070900A20CE0101960E946F0DDE
:101B40008BE4888B198B1A8AE11002C082E001C0F5
:101B500083E09F2D990F990F890F8B8B88EF8A87D0
:101B60004B865C866D867E868FEF9FEFDC018E83D1
:101B70009F83A887B98784E08F87CE0101960E9452
:101B80002B19082F80912B2290912C220097E1F5A0
:101B9000E0912622F09127220081B0902822C09067
:101BA0000720D0900820E0900920F0900A20CE0174
:101BB00001960E946F0DCB86DC86ED86FE868FEF48
:101BC0009FEFDC018E839F83A887B98788EF8A8780
:101BD00081E4888B198BBA8A0B8B81E08C8B8EE029
:101BE0008D8B88E48E8B82E48F8B87E5888F8E01C6
:101BF000005E1F4F5E0189E1A80EB11C8AE0482EED
:101C0000512C612C712C0DC0DC01ED91FC910190E7
:101C1000F081E02D2E2D4F2D612F09958823F1F0B5
:101C2000B7CFC701B601A30192010E946F21605D89
:101C3000F80162938F01C114D104E104F10459F455
:101C4000A016B10671F780E18F87CE0101960E9440
:101C50002B19082F03C069017A01F2CF802FC95ACE
:101C6000DF4FCDBFDEBFDF91CF911F910F91FF906E
:101C7000EF90DF90CF90BF90AF907F906F905F908C
:101C80004F900895FF920F931F93CF93DF9300D04F
:101C900000D0CDB7DEB78C01F62E09960E94BC1F8E
:101CA000F801882391F186859785A089B189892BD0
:101CB0008A2B8B2B99F040E064818F2D0E947D0D43
:101CC000882361F0D80114968C9114978F5F149635
:101CD0008C93F80116861786108A118AD8011A96F5
:101CE0001D921D921D921C921D9717968D919C918D
:101CF0001897009709F468C01596ED91FC91169716
:101D0000208127FF61C02FEC53C082859385A48575
:101D1000B585892B8A2B8B2B71F4CE0101960E94FD
:101D2000570789819A81AB81BC81F80182879387AB
:101D3000A487B5872EC0C8010A960E943E2164364A
:101D400071058105910528F1F80186859785A0899F
:101D5000B189892B8A2B8B2BE1F440E0F801648157
:101D60008F2D0E947D0D8823A1F0D80114968C91AF
:101D700014978F5F14968C93CE0101960E9457079B
:101D800089819A81AB81BC81F80186879787A08B76
:101D9000B18BD80117968D919C9118970097A1F05F
:101DA0001596ED91FC911697208127FF0DC02EEC22
:101DB0002983DC01ED91FC910190F081E02DAE01D1
:101DC0004F5F5F4F61E009952496CDBFDEBFDF9185
:101DD000CF911F910F91FF9008958F929F92AF9294
:101DE000BF92FF920F931F93CF93DF9300D000D049
:101DF000CDB7DEB78C01F62E09960E94BC1FD80124
:101E00001A964D915D916D917C911D97882379F182
:101E1000452B462B472B09F4A3C0C8010A960E9404
:101E20003E21623371058105910550F0F8018685E8
:101E30009785A089B189892B8A2B8B2B09F47BC0CC
:101E4000D8011A961D921D921D921C921D971796ED
:101E50008D919C911897009709F482C01596ED9189
:101E6000FC911697208127FF7BC02FEC6DC0452B7E
:101E7000462B472B09F442C0F80186859785A08937
:101E8000B189892B8A2B8B2B59F0C8010E960E94A1
:101E90003E216C3271408105910508F461C01BC080
:101EA000C8010A960E943E214B015C01D80115969B
:101EB000ED91FC911697218130E0A4E6B0E00E94FC
:101EC000912186169706A806B90608F449C0F801BC
:101ED00084818F5F8483CE0101960E945707898198
:101EE0009A81AB81BC81F80186879787A08BB18BE3
:101EF00041E064818F2D0E947D0D32C0CE0101969C
:101F00000E94570789819A81AB81BC81F801828741
:101F10009387A487B58716861786108A118A8781CA
:101F200090850097E9F00580F681E02D208127FF5C
:101F300017C02EEC09C0F80164816F5F648340E034
:101F40008F2D0E947D0D7CCF2983DC01ED91FC91CA
:101F50000190F081E02DAE014F5F5F4F61E0099588
:101F60002496CDBFDEBFDF91CF911F910F91FF90DF
:101F7000BF90AF909F908F900895FC01A581B6818E
:101F80009C9193FF0DC08381882351F0977019F4C1
:101F9000CF010C94ED0E913019F4CF010C94420E48
:101FA00008951F93CF93DF93EC01ED81FE81908123
:101FB0008985182F1F7082958F7094FF1EC00E9414
:101FC000211F183038F4FC017096E10FF11D80815B
:101FD0008F7B80838985182F1F7082958F700E9458
:101FE000211F183040F5FC017096E10FF11D808132
:101FF000877C8083808188611DC00E94211F1830EA
:1020000038F4FC017096E10FF11D808180648083BB
:102010008985182F1F7082958F700E94211F18309C
:1020200050F4FC017096E10FF11D8081877C808364
:102030008081806180831A861B861C861D861E8691
:102040001F86188A198A1C82DF91CF911F910895EB
:10205000CF92DF92EF92FF921F93CF93DF93EC0129
:10206000162F6A0179010E9432128DE790E288836F
:10207000998381E08B831C82CD82DE82EF82F88699
:102080007E0189E0E80EF11C412F4F70612F6295AF
:102090006F70C7010E94821F8985803E18F4C701B6
:1020A0000E94891FCE010A960E945707CE010E9604
:1020B0000E94570781E08A83CE01DF91CF911F9163
:1020C000FF90EF90DF90CF900C94D10F0F931F9360
:1020D000CF93DF931F92CDB7DEB78C01FC018081D7
:1020E000861749F0698341E050E0BE016F5F7F4F82
:1020F000C8010E94761EC8010F90DF91CF911F91F9
:102100000F910895CF93DF93EC01ED81FE819181D2
:1021100094509F3280F48D819E81FC016081262F36
:102120002770223018F0687F0E946610CE01DF9180
:10213000CF910C94D10F6AE0CF0101960E946610F6
:10214000EACF2F923F924F925F926F927F928F923F
:102150009F92AF92BF92CF92DF92EF92FF920F9336
:102160001F93CF93DF93CDB7DEB72697CDBFDEBFEA
:102170007C013B01342ED22E10E0CE0101965C0191
:1021800022242A948BECC82E9CEC592E2DEC422E46
:10219000D70112968C91181708F068C0B0E11B9F08
:1021A00040011124D7011396ED91FC911497E80D8D
:1021B000F91D8481831158C085818D1155C080819E
:1021C0009181A281B3818F3F9F4FAF4FBF4F09F4E1
:1021D0004BC0CF010E947101D3012D913D914D91D2
:1021E0005C916217730784079507F1F5F50126E006
:1021F00011922A95E9F72982D7011396ED91FC9166
:102200001497E80DF91D90859A8327812B83838588
:102210008C8384858D8385858E83002349F0928508
:102220009A8321852B83868186958695869501C024
:1022300086818770833081F030F4882351F08130BB
:1022400099F4998307C0843049F0853069F4498254
:1022500006C0298361E004C0C98201C0598266E0DA
:10226000A5018D2D0E942C151F5F92CF2696CDBF04
:10227000DEBFDF91CF911F910F91FF90EF90DF9024
:10228000CF90BF90AF909F908F907F906F905F9016
:102290004F903F902F900895FC01809329229093B6
:1022A0002A2289E890E28083918362834383548366
:1022B00008952F923F924F925F926F927F928F92EA
:1022C0009F92AF92BF92CF92DF92EF92FF920F93C5
:1022D0001F93CF93DF93CDB7DEB7CF55D109CDBFD5
:1022E000DEBF6E968EAF9FAF6E97162F6F962FAF95
:1022F0006F97440F440F222311F083E001C082E066
:10230000480FA0964FAFA097E12CF12CC12CD12CF7
:102310008BE09E012F5F3F4F19016E96AEADBFADB2
:102320006E9712962C91129730E0C216D3060CF0DD
:1023300070C01396ED91FC911497EE0DFF1D9081E6
:102340009F3F09F45FC091135DC0CF0101960E94C9
:1023500071012B013C016C966CAF7DAF8EAF9FAFCE
:102360006C978090072090900820A0900920B09052
:102370000A206E96EEADFFAD6E978381948148146E
:1023800059046A047B04D9F4DC01AE0DBF1D8091B1
:10239000292290912A220097A1F1FC01208131810C
:1023A000F901A080B1806F960FAD6F9715962C91B3
:1023B000412FBE01685A7F4FF501099522C0FC01EB
:1023C000EE0DFF1D05810E941C21D101E7E51D9244
:1023D000EA95E9F7FBE4F88B198B0A8BA0962FADF1
:1023E000A0972B8B38EF3A878B869C86AD86BE866E
:1023F0004E825F826886798684E08F87C1010E9461
:102400002B1980E09FEFC91AD90AA6E0EA0EF11C49
:1024100084CFC15ADF4FCDBFDEBFDF91CF911F9177
:102420000F91FF90EF90DF90CF90BF90AF909F9073
:102430008F907F906F905F904F903F902F90089576
:10244000FC0180932B2290932C228FE890E28083D2
:1024500091836283438354830895089580E00895AF
:102460000895089525E930E2FC0120833183E0914D
:10247000152121E02E0F20931521F0E0EE0FFF1F14
:10248000EF52FF4D80839183FC01128208958F9259
:102490009F92AF92BF92CF92DF92EF92FF920F93F3
:1024A0001F93CF93DF936B017C01FA0188E4808353
:1024B00082E4818387E582838A01065F1F4FEA01F8
:1024C00023968AE0882E912CA12CB12C0C171D0785
:1024D00091F0C701B601A50194010E946F21605DD2
:1024E000F80162938F01C114D104E104F10471F386
:1024F00069017A01EBCFDF91CF911F910F91FF908E
:10250000EF90DF90CF90BF90AF909F908F90089505
:10251000FC019FB7F8941BBE88ED84BF60839FBF0A
:102520000895FC01808180FF03C081E097859613A8
:1025300080E00895FC01818580FD07C0868582309A
:1025400020F081E09785993609F080E00895809128
:10255000CF0187FDFCCF0895682F636080E890E08D
:102560000E9488128091820080FDFCCF0895CF9256
:10257000DF92EF92FF920F931F93CF93DF93CDB72C
:10258000DEB7C755D109CDBFDEBF8091252281FFBF
:1025900046C087EC92E20E943E21683071058105B9
:1025A0009105E8F1E0912622F09127221081009117
:1025B0002822C0900720D0900820E0900920F090B9
:1025C0000A20CE0101960E946F0DCB86DC86ED8637
:1025D000FE868FEF9FEFDC018E839F83A887B987EC
:1025E00088EF8A8781E4888B198A0A8B1B8B81E0AC
:1025F0008C8B8EE08D8BAE014A5E5F4FC701B601BA
:102600000E94471280E18F87CE0101960E942B190C
:10261000811105C0809125228D7F80932522C95A82
:10262000DF4FCDBFDEBFDF91CF911F910F91FF90A4
:10263000EF90DF90CF900895CF92DF92EF92FF92CC
:102640000F931F93CF93DF93CDB7DEB72597CDBF01
:10265000DEBFE0912622F09127221081C680D7802C
:10266000E084F1840091CC010E94A7128091CC01FA
:10267000877F8093CC018FEF0E94BB1D0E94A71221
:1026800080E30E94841D03FF07C00E94A71280916F
:10269000CC0188608093CC018091262290912722E2
:1026A0001D8341E050E0BE016B5F7F4F0E94761EAC
:1026B0008091262290912722C982DA82EB82FC82C5
:1026C00044E050E0BE016F5F7F4F06960E94761E89
:1026D000809125228460809325222596CDBFDEBF80
:1026E000DF91CF911F910F91FF90EF90DF90CF90EE
:1026F00008951F93CF93DF9300D000D0CDB7DEB7FE
:102700008091232290912422892B09F4BAC08091D0
:102710001B22811107C087E192E20E94570781E0E6
:1027200080931B228091232290912422DC01ED9141
:10273000FC910480F581E02D0995182F80911622D7
:10274000823009F441C028F4882361F0813001F11E
:102750008BC0843009F46AC008F451C0853009F494
:102760007DC082C0112319F081E080931622CE0132
:1027700001960E94570789819A81AB81BC81809321
:10278000172290931822A0931922B0931A226CC09A
:1027900087E192E2112351F00E943E216938734192
:1027A0008105910508F460C082E055C00E943E2179
:1027B000653671058105910508F454C08091252284
:1027C0008260809325224EC011114EC083E0809319
:1027D0001622CE0101960E94570789819A81AB810A
:1027E000BC818093172290931822A0931922B09352
:1027F0001A228091252280618093252235C087E1AD
:1028000092E20E943E21643671058105910560F1D6
:10281000112311F084E0A9CF87E192E20E943E21CA
:102820006938734181059105E8F41EC087E192E2A1
:102830000E943E216436710581059105A8F011239F
:1028400089F087E192E20E943E21693B7B4081054D
:10285000910550F085E08093162206C0111104C046
:102860000E941C1310921622809123229091242200
:10287000DC01ED91FC910680F781E02D609116223C
:1028800009952496CDBFDEBFDF91CF911F910895AA
:102890000F931F93CF93DF9300D000D0CDB7DEB757
:1028A000E0912622F091272286819781A085B1852B
:1028B00089839A83AB83BC83CE0101960E94710108
:1028C00000910720109108202091092030910A20C2
:1028D0006017710782079307B9F08B019C011D53A4
:1028E0002F483046003816492849310540F4609396
:1028F0000720709308208093092090930A208091EC
:102900002522826080932522E0912622F0912722C1
:1029100091819253993CB0F410E0809115211817E1
:10292000E8F4E12FF0E0EE0FFF1FEF52FF4D808142
:102930009181DC01ED91FC910680F781E02D0995F4
:102940001F5FEBCF82E3898341E050E0BE016F5F00
:102950007F4FCF0101960E94761EDECF2496CDBF19
:10296000DEBFDF91CF911F910F910895CF92DF923B
:10297000EF92FF92CF93DF93CDB7DEB7C755D10962
:10298000CDBFDEBF8091252280FF07C00E94481482
:10299000809125228E7F809325228091252283FF9E
:1029A00005C061E089E790E00E94881280912522AD
:1029B00082FF05C0A89588E10E94AC12FFCF84FF7A
:1029C00027C0C0900720D0900820E0900920F09008
:1029D0000A20CE0101960E946F0DCB86DC86ED8623
:1029E000FE8682E090E0A0E0B0E08E839F83A8871F
:1029F000B98788EF8A8783E2888B81E08F87CE0151
:102A000001960E942B19809125228F7E809325228A
:102A10000E94B712C95ADF4FCDBFDEBFDF91CF9101
:102A2000FF90EF90DF90CF90089590911521891736
:102A300078F4E82FF0E0EE0FFF1FEF52FF4D80819A
:102A40009181DC01ED91FC910280F381E02D0994EC
:102A5000DB011C9281E0089590911521891778F48B
:102A6000E82FF0E0EE0FFF1FEF52FF4D80819181C4
:102A7000DC01ED91FC910190F081E02D0994089525
:102A80008F929F92AF92BF92CF92DF92EF92FF927E
:102A90000F931F93CF93DF93EC010E948F18182F91
:102AA000882309F49FC1898580FD9CC163E4CE0120
:102AB0000E949112882321F0809125228160E4C038
:102AC00067E7CE010E949112882389F18E858730B5
:102AD00008F488C18A899B899827892798276C01DF
:102AE000092E000CEE08FF080C899927402F50E0B2
:102AF000BE016B5E7F4F8A5E9E4D0E94C722D7014A
:102B0000C601800F911DA11DB11D8111BFC0C7015C
:102B1000B60166278827992720E031E046E151E297
:102B20000E94F01E8115914009F05CC1AFC065E7BD
:102B3000CE010E949112882321F080912522886085
:102B4000A3C066E7CE010E949112882321F081E0A4
:102B50008F878EE00EC068E6CE010E949112882316
:102B600059F0E0912622F09127228081909128222D
:102B70009F87888B82E00BC162E5CE010E94911293
:102B8000882399F08E85843009F02CC10A89402F62
:102B900050E0688979897627672776277061CE01AA
:102BA0000F960E94C7220E87F3C065E4CE010E94F3
:102BB0009112882309F451C0FA880B89802F8695D9
:102BC00086958695902F977011F48C5F01C08B5F6E
:102BD0008E8785E68F874E8550E04450510960E02E
:102BE00070E0CE0143960E94D0224F2D50E060E06D
:102BF00070E180E090E0202F30E0812C912C540196
:102C00008394281739070CF4C3C0DB01E0E0F0E03F
:102C1000E417F507F4F40D910F3FC9F0FC01A3E0B0
:102C2000F595E795AA95E1F73496EC0FFD1FDC01C9
:102C3000A770BB277501640104C0CC0CDD1CEE1C21
:102C4000FF1CAA95D2F7A785CA2AC78602C031966B
:102C5000DFCF0196640F751FD4CF6BE4CE010E94C5
:102C60009112811115C06BECCE010E94911281115D
:102C70000FC026C061E2CE010E949112882309F4A0
:102C800063C08091252284608093252281E081C0E9
:102C90008091292290912A220097C1F301E02A898C
:102CA000211101C000E0DC01ED91FC910190F08167
:102CB000E02D29894889BE01665F7F4F0995E6CFDF
:102CC00063E5CE010E949112882321F0BE016F5E60
:102CD0007F4F57C067E5CE010E9491128823F1F023
:102CE0004A892E8530E0842F90E004962817390712
:102CF00009F078C088899989982789279827BE0183
:102D0000009719F06D5E7F4F05C06C5E7F4F41509C
:102D100081E090E050E00E94761EB8CF6EE6CE01D2
:102D20000E949112882309F4A5CF60910720709129
:102D300008208091092090910A20AE01415F5F4FE9
:102D40000E9447128AE023C069E6CE010E949112D8
:102D500081119CCF63E7CE010E949112811106C0C0
:102D600068E7CE010E9491128823E1F16E856250DE
:102D70007E01B1E1EB0EF11CA70188890E942C15A0
:102D8000B70188890E94151599E69F878E5F8E8707
:102D900080E04A855B856C857D854D835E836F838E
:102DA0007887409107205091082060910920709108
:102DB0000A204A875B876C877D87998596959370F3
:102DC000882321F089E189871E8602C088E98987E6
:102DD0009370892F8295880F807E99859F79982B93
:102DE000998701C010E0812FDF91CF911F910F9142
:102DF000FF90EF90DF90CF90BF90AF909F908F901B
:102E000008950F931F93CF93DF93DC0190E090968A
:102E10002C919097921740F5FD01E90FF11DE90FF4
:102E2000F11DEB01088119814081518104171507BB
:102E3000C9F4892F422F50E041505109E82FF0E0AA
:102E4000E417F50754F4EE0FFF1FEA0FFB1FC281D2
:102E5000D381C083D1838F5FF1CF91502150909661
:102E60002C9390979F5FD3CFDF91CF911F910F91BC
:102E700008951F93CF93DF9300D0CDB7DEB710E056
:102E800080914E221817A0F5E12FF0E0EE0FFF1F02
:102E9000E25DFD4D8081918189839A83FC014181AE
:102EA000528163817481452B462B472BF9F00196A3
:102EB0000E943E21672B682B692BC1F089819A8182
:102EC0000E942B19E981FA8180818C708C3081F409
:102ED000BE016F5F7F4F8EE292E20E94011767E5AD
:102EE00070E089819A810E94DA1802C01F5FC8CF02
:102EF0000F900F90DF91CF911F9108958F929F9225
:102F0000AF92BF92DF92EF92FF920F931F93CF93F6
:102F1000DF9300D0CDB7DEB77C01D12C80914E225B
:102F2000D81608F060C0ED2DF0E0EE0FFF1FE25D57
:102F3000FD4D0081118109831A83F801818580FD8F
:102F400050C0F70181858770813071F0F801868566
:102F5000843009F046C087858B3409F042C0C70130
:102F60000E949A128823E9F191E0F8018284938407
:102F7000A484B584F70145815681678170858416E4
:102F80009506A606B70609F090E081E0F801858075
:102F90009680A780B084F701428553856485758546
:102FA00084169506A606B70609F080E08923C9F0C5
:102FB000F801918596959370F701818582958695A4
:102FC000837098130EC0BE016F5F7F4F8EE292E256
:102FD0000E94011767E570E089819A810E94DA18E2
:102FE00002C0D3949BCF0F900F90DF91CF911F9190
:102FF0000F91FF90EF90DF90BF90AF909F908F90D8
:1030000008950F931F93CF93DF93CDB7DEB7C755C6
:10301000D109CDBFDEBF80915F22882309F453C060
:103020009FB7F89480915F228823C1F0E0916022DD
:1030300081E08E0F80936022F0E0EE0FFF1FE15BD6
:10304000FD4D008111818091602287708093602204
:1030500080915F22815080935F2202C000E010E0E7
:103060009FBF0115110579F1C8010E94AE18882390
:1030700051F0F80181858770813009F1C8010E9403
:103080009A1281111CC0F80181858770813089F006
:1030900087E5DE01119601900D928A95E1F7CE0148
:1030A00001960E944015882321F0CE0101960E94CE
:1030B0002B1967E570E0C8010E94DA1804C0C80146
:1030C0000E947E17E0CFC95ADF4FCDBFDEBFDF9130
:1030D000CF911F910F910895CF93C0E0809115215A
:1030E000C817B0F4EC2FF0E0EE0FFF1FEF52FF4DCA
:1030F00080819181DC01ED91FC910480F581E02DCE
:103100006C2F09950E9401180E943917CF5FE6CFF6
:103110000E94B6140E947913A895CF910895FC01DE
:10312000208120FF17C0458156816781708580917D
:10313000072090910820A0910920B0910A204817FB
:1031400059076A077B0741F081E04F3F5F4F6F4FA0
:103150007F4F19F080E0089581E0089521E0FC019F
:103160004581568167817085809107209091082064
:10317000A0910920B0910A20481759076A077B07D8
:1031800009F020E0822F089521E0FC01428553855B
:10319000648575858091072090910820A091092071
:1031A000B0910A20481759076A077B0709F020E009
:1031B000822F0895CF93CFB7F8940E94631D80911A
:1031C0002D22882319F0815080932D22CFBFCF91DB
:1031D0000895DF92EF92FF920F931F93CF93DF93A7
:1031E0007C01DFB6F894FC01C685C15FD0E0CE015A
:1031F0000796887F0E94651D8C01009749F0AE01FB
:10320000B7010E94C72280912D228F5F80932D22CB
:10321000DFBEC801DF91CF911F910F91FF90EF901A
:10322000DF900895FB0198E0408151819A01220FBF
:10323000331F87FD21602083318357FF08C0208121
:10324000318142E0242740E1342720833183880FF5
:10325000915051F708951F93CF93DF93EC010E9493
:103260002F1B182F888181FF13C0CE0105960E9465
:1032700071016D837E838F839887CE010A960E94A9
:1032800071016A877B878C879D8788818D7F888382
:103290008881982F969596959F5F9370990F990FB7
:1032A000837F892B88830E941C21DC01CB018A56F5
:1032B0009F4FAF4FBF4F89839A83AB83BC83898570
:1032C00080FD33C08D819E81AF81B8858F3F9F4F38
:1032D000AF4FBF4F51F188818695869583708130BD
:1032E00021F580914E22803100F5CE010E94E9182F
:1032F0000097D9F0E0914E22AEE2B2E220E0E21770
:1033000039F04D915D918417950779F02F5FF7CFD4
:10331000E03158F421E02E0F20934E22F0E0EE0F22
:10332000FF1FE25DFD4D80839183812FDF91CF915F
:103330001F910895CF93DF93CDB7DEB76397CDBFCD
:10334000DEBFEFE4F2E28FEF828B118A108A8B8B63
:103350001A8A198A10924E226396CDBFDEBFDF9182
:10336000CF910895CF93DF93FC01208121FF13C0FB
:10337000EC0105960E9471016D837E838F8398878F
:10338000CE010A960E9471016A877B878C879D8790
:1033900088818D7F8883DF91CF910895CF93C82F47
:1033A0000E941C216093C7227093C8228093C92277
:1033B0009093CA228091BF22CC3F21F481608093F8
:1033C000BF2279C0CD3FD1F482608E7F8093BF222F
:1033D0001092BD228FEF9FEF8093BB229093BC226F
:1033E000809162228E7F826080936222109270228E
:1033F0006BEB72E28DEF0E9412195DC081FF5BC022
:1034000080FF04C0C0688E7F8093BF226BEB72E2A6
:103410008C2F0E9412194091BD22E42FF0E0E9594F
:10342000FD4DC083443049F480916B22982F9770F2
:103430009330C9F183FF37C039C080917022493081
:1034400041F4893498F18091BF228D7F8093BF220F
:103450002DC050E060E070E090E0A0E0B0E00996A0
:10346000A11DB11D481759076A077B07F9F4809120
:10347000BB229091BC22892BC9F482E692E20E9481
:10348000B219809170228250809370228091BF2265
:103490008D7F8093BF22809162228160809362221F
:1034A00082E692E20AC088E08093BD228091BD222C
:1034B0008F5F8093BD2280E090E0CF910895EF92DE
:1034C000FF920F931F93CF93DF93C091C022D091AF
:1034D000C122209709F4B6C08C019091C42280913A
:1034E000C622911129C081FD27C082608093C62227
:1034F0008FEF9FEF8093C2229093C322888181FD3A
:1035000013C0CE0105960E9471016D837E838F8367
:103510009887CE010A960E9471016A877B878C8703
:103520009D878881826088838DEFF801808362ECBB
:1035300072E20E94121981C081FF81C07E01F5E014
:10354000EF0EF11CF701E90FF11D8081F801808376
:103550004091C422443049F48985982F9770933064
:1035600009F472C083FF70C016C0493021F48E5F29
:10357000F801808310C050E060E070E08E8590E03C
:10358000A0E0B0E00B96A11DB11D84179507A6071A
:10359000B70708F457C08091C62280FD40C062EC96
:1035A00072E2F80180810E9412194091C42250E019
:1035B00060E070E08E8590E0A0E0B0E00996A11D8B
:1035C000B11D481759076A077B07E1F462EC72E204
:1035D00080E00E94121962EC72E280E00E941219EF
:1035E0008091C4228F5FF701E80FF11D8091C32203
:1035F00080838091C4228E5FF701E80FF11D8091D6
:10360000C2228083F80180818C5F833088F48091AE
:10361000C62281608093C6228CEF80830EC0F801A1
:1036200080818F7780838091C6228E7F8093C6228F
:103630008091C4228F5F8093C42281E009C0CE01B3
:103640000E94B21980E004C088E08093C422A3CF16
:10365000DF91CF911F910F91FF90EF900895EF921E
:10366000FF921F93CF93DF931F92CDB7DEB77C01FC
:103670008091CC229091CD22892B81F087EC92E22F
:103680000E943E21683071058105910548F4D701FB
:1036900019968C918770813089F702C081E06FC0E4
:1036A000E092C022F092C1221092C4228091C622E0
:1036B0008D7F8093C622D70119968C9180FD06C01C
:1036C000F7019081969596959370B1F18091CC22F7
:1036D0009091CD22DC01ED91FC910190F081E02DE3
:1036E00061E0099510E0CE0101960E945F1AA09159
:1036F000CC22B091CD22882389F089811296ED9158
:10370000FC911397948193FD05C012E0ECCF948156
:1037100093FF1BC0918195FFFACF17C01296ED91D0
:10372000FC911397818180648183818186FD0FC024
:10373000848183FF0CC0F9CF9091CB229370990FB5
:10374000897F892BF7018187C1CF8083CCCFED9111
:10375000FC9111970190F081E02D60E0CD01099579
:1037600011110AC0F701818580FD08C08091CB222C
:103770008F5F8093CB2202C0812F01C080E00F9029
:10378000DF91CF911F91FF90EF9008951092C72283
:103790001092C8221092C9221092CA220E941C21A3
:1037A00087E5E2E6F2E2DF011D928A95E9F70895E6
:1037B0000F931F93CF93DF931F92CDB7DEB78C018A
:1037C0006983CE0101960E94B31FF801808389812D
:1037D00082958F700E94211FF8018183928330812E
:1037E0002FB7F8943093B00038E1FC01308B2FBF35
:1037F0000F90DF91CF911F910F910895FC0180816F
:10380000A181B28116968C938081A181B28111969B
:103810008C938FEB92E10197F1F700C000002FB776
:10382000F8948081A181B28112968C93AFE0B2E0CE
:103830001197F1F700C000008081A181B281189634
:103840003C91AFEEBCE01197F1F700C00000A18100
:10385000B28118964C919081942311F0832301C07A
:1038600081E02FBF0895FC01862F2FB7F894908137
:10387000A181B28111969C9395E19A95F1F7000090
:10388000662329F09081A181B28112969C93A0E8D1
:10389000AA95F1F7A181B28118963C91908193236A
:1038A00009F480E0A7E6B1E01197F1F700C000004D
:1038B00090810180F281E02D9283BAE6BA95F1F70A
:1038C00000C02FBF08950F931F93CF93DF938C01F8
:1038D000C62FD8E06C2F6170C8010E94331C2C2FBA
:1038E00030E035952795C22F8111C068D15091F7EE
:1038F0008C2FDF91CF911F910F910895BF92CF929E
:10390000DF92EF92FF920F931F93CF93DF937C018F
:10391000C62E8A010E94FE1B81113BC060EFC701C9
:103920000E94631CD0E0C0E498EFB92EBC0E61E0A9
:10393000C7010E94331CD82E61E0C7010E94331CCE
:10394000882319F0DD2071F026C0D1100BC0CC15F2
:1039500030F0F801808180FF05C0CC1519F0DC2F14
:10396000DD24D3946D2DC7010E94331CF801208102
:1039700030E035952795DD2011F02068F80120838F
:10398000C150CB11D4CF0F5F1F4FC111CDCF8D2FA1
:1039900003C08FEF01C08EEFDF91CF911F910F9188
:1039A000FF90EF90DF90CF90BF900895CF92DF927D
:1039B000FF920F931F93CF93DF93EC01F62E8A01B2
:1039C0000E94FE1B0115110591F065E5CE010E94D4
:1039D000631C680188E0C80ED11CF80161918F0159
:1039E000CE010E94631C0C151D05B9F704C06CECD8
:1039F000CE010E94631C6F2DCE01DF91CF911F91EC
:103A00000F91FF90DF90CF900C94631CCF93FC013B
:103A1000680F791F2CEB31E652ECADE9B3E2C6E456
:103A20008CE8E617F707B9F09191942790FF02C050
:103A30004EE501C040E091FD422792FD432793FDF2
:103A4000452794FD4A2795FD4B2796FD4C2797FF68
:103A5000E8CF4827E6CF842FCF91089508951F938C
:103A6000CF93DF93EC010E94B31F182F88818295BA
:103A70008F700E94211FFC011683DF91CF911F914F
:103A800008951F93CF93DF93EC010E94B31F182F6B
:103A9000888182958F700E94211FFC011583DF9120
:103AA000CF911F910895009769F020910B203091DC
:103AB0000C2042E28C3E9407E0F382179307C8F78C
:103AC0000C943E2208950C94531DCF93DF93EC0188
:103AD0000E94A62120910B2030910C2042E28C3EC6
:103AE0009407E0F382179307C8F72197C80FD91FEF
:103AF00042E2CC3ED407E0F3C217D307C8F7DF9108
:103B0000CF9108950C94651DCF93DF93E0ECF1E025
:103B100032852FB7F8948287A8E4B0E05C919C913D
:103B20008C91809589238C93C0EAD0E048819A815A
:103B30008A81887F84608A838C9181608C9385855B
:103B400068ED64BF61E0638763E06587789488957A
:103B50005C9348839A83858732872FBFDF91CF910B
:103B600008950E94A7128091CF0181FF03C086E3D0
:103B70000C94841D0895CF93DF93D82FC091CA0170
:103B80000E94B11D0E94A71283E38093CA01109284
:103B9000C2011092C10180E08093C001D093C401A2
:103BA0008F5F8032C9F7C093CA01DF91CF9108952A
:103BB0006F927F928F929F92AF92BF92CF92DF923D
:103BC000EF92FF920F931F93CF93DF938C016B01C2
:103BD0007A0190518115944018F080E090E032C055
:103BE000CA019051800F911F81159440B0F7612E4A
:103BF000812C912C902F9F7180E2782E791AA72C1E
:103C0000B12CE114F104E9F0C72DEA14FB0408F427
:103C1000CE2D0E94B11DD0E0AE01B601C8010E94B8
:103C2000C7221092C2016092C1010093C00185E3D6
:103C30000E94841DCC0EDD1EEC1AFD0A8C0E9D1E0A
:103C4000E0CFC401DF91CF911F910F91FF90EF90D2
:103C5000DF90CF90BF90AF909F908F907F906F90AC
:103C60000895FF920F931F93CF93DF931F92CDB7C9
:103C7000DEB78C0169838091CC0183FF11C00115EF
:103C800080E1180708F4105F41E050E0BE016F5F6B
:103C90007F4FC8010E94D81D21E0892BF9F404C090
:103CA000011584E0180710F020E018C0F090CA0158
:103CB0000E94B11D0E94A71283E38093CA01109253
:103CC000C2011093C1010093C00189818093C40196
:103CD00085E30E94841DF092CA0121E0822F0F909B
:103CE000DF91CF911F910F91FF900895EF92FF9276
:103CF0000F931F93CF93DF938A012091CC0123FF71
:103D00000EC0811520E1920708F4905FA801DF91B1
:103D1000CF911F910F91FF90EF900C94D81D7B01D4
:103D2000EC01C61BD70BCE018E0D9F1D0115110591
:103D300051F0F70161917F010E94311E882331F01B
:103D400001501109F0CF80E090E001C0C801DF917F
:103D5000CF911F910F91FF90EF9008951F920F92B6
:103D60000FB60F9211248F93EF93FF93E0ECF1E0E5
:103D700085858C7F8587FF91EF918F910F900FBE86
:103D80000F901F901895CF92DF92EF92FF926B01E8
:103D90007C01C20ED31EE11CF11CC114E0E9DE0659
:103DA000E104F104A0F4DA01420F531FA417B50790
:103DB00089F06B017C01EFEFCE1ADE0AEE0AFE0AF3
:103DC0008BBFFB0167916D93C701B601EFCF80E018
:103DD00090E001C0C901FF90EF90DF90CF9008956F
:103DE000CF92DF92EF92FF92CF93DF9361110DC0DC
:103DF0006B017C01C20ED31EE11CF11CE1E0CE166A
:103E0000E0E9DE06E104F10418F080E090E012C081
:103E1000E9016B017C01CA010E94331F8091CF012F
:103E200087FDFCCF45E2C701B6010E94DC47109236
:103E3000CA01CE01DF91CF91FF90EF90DF90CF903C
:103E400008958D3048F4E82FF0E0EE0FFF1FE356A1
:103E5000FF4D8081918108958EEC92E208958FEF5D
:103E60008093D6220895CF92DF92EF92FF92CF9364
:103E7000DF937C010E94A71246E260E070E0CB0174
:103E80000E94DC47E701C12CD12C76018881498151
:103E900050E0542F4427480F511DC701B6010E941E
:103EA000EB47229682E0C80ED11CE11CF11CC11424
:103EB00081E0D806E104F10449F7DF91CF91FF904A
:103EC000EF90DF90CF900895833029F0843051F047
:103ED000823029F003C080E099E00895FFCF80E0B0
:103EE00098E0089580E09AE00895823041F08330B0
:103EF00019F480E499E0089580E090E0089580E46A
:103F000098E008956295607F4F70642BFC01608398
:103F10000895CF93DF93FC018081982F9F70C1E0BB
:103F2000D0E001C0CC0F9A95EAF782958F700E947D
:103F3000211FFC01C283DF91CF910895CF93DF93BE
:103F4000FC018081982F9F70C1E0D0E001C0CC0FB0
:103F50009A95EAF782958F700E94211FFC01C18318
:103F6000DF91CF910895FC0190819F7081E001C0A5
:103F7000880F9A95EAF70895CF93DF93EC01888133
:103F800082958F700E94211FFC01308528812F703F
:103F900081E090E001C0880F2A95EAF78323DF9142
:103FA000CF910895FC018081282F2F7030E02430BC
:103FB000310524F482958F700C94641F80E090E0AA
:103FC0000895FC0180819CE0980F9F70923020F44E
:103FD00082958F700C94751F80E090E00895CF92C9
:103FE000DF92EF92FF921F93CF93DF936C01142F18
:103FF00079010E94821FC6010E949E1FC6010E9475
:10400000D21FEC01C6010E94E11FFC012097B1F014
:104010008881807F846088838981887F83608983A9
:10402000EEA2FFA229811C5F81E090E001C0880F11
:104030001A95EAF7807F822B898316C0892BA1F01D
:104040008081807F846080838181887F8360818399
:10405000E6A2F7A2218181E090E001C0880F1A95C5
:10406000EAF78073822B8183DF91CF911F91FF90BC
:10407000EF90DF90CF9008950F931F93CF93DF932E
:104080008C010E94D21FEC01C8010E94E11F209701
:10409000A1F0F80180818F7019F488A599A51DC041
:1040A000813019F48AA59BA518C0823019F48CA51B
:1040B0009DA513C08EA59FA510C0009761F0F801C3
:1040C00020812F70FC01243019F480A591A505C032
:1040D00082A593A502C080E090E0DF91CF911F916F
:1040E0000F910895EF92FF921F93CF93DF937C017E
:1040F000162F0E94D21FEC01C7010E94E11F2097DA
:10410000B1F0F70180818F70612F70E019F468AF12
:1041100079AF1CC0813019F46AAF7BAF17C0823011
:1041200019F46CAF7DAF12C06EAF7FAF0FC00097B8
:1041300069F0F70120812F70612F70E0FC012430BD
:1041400019F460AF71AF02C062AF73AFDF91CF916E
:104150001F91FF90EF900895EF92FF920F931F939E
:10416000CF93DF937C01EB010E94D21F8C01C7012A
:104170000E94E11F0115110511F0F80103C000971D
:1041800019F0FC01C6A3D7A3DF91CF911F910F9126
:10419000FF90EF9008959091010490FDFCCF9091D5
:1041A0000004987F892B8093000408951F93CF9378
:1041B000DF93182FEB0180E00E94CB208091430019
:1041C0008E7F80934300153031F4C115D04219F42D
:1041D00083E09EE002C081E094E020914300217FD3
:1041E0002160922B909343002091080430910904A0
:1041F0003C5F40910804509109049091010490FDA6
:10420000FCCF6FEF7FEF60930A0470930B049091E3
:10421000010490FDFCCF4093080450930904909151
:10422000010490FDFCCF20930C0430930D04DF912A
:10423000CF911F910C94CB2031E02FB7F89440918F
:10424000030440FF0CC04091E6225091E7224F5FEB
:104250005F4F4093E6225093E7223093030440914E
:10426000080450910904BA012FBF2091030420FDD6
:10427000E4CF8091E6229091E7220895CF92DF92D9
:10428000EF92FF920F931F93CF93DF93EC010E9465
:104290001C21088119812A813B816B017C01C01A94
:1042A000D10AE20AF30A601771078207930760F4E4
:1042B000C701B601615071098109910997FF06C0D4
:1042C00060E070E0CB0102C0C701B601DF91CF9181
:1042D0001F910F91FF90EF90DF90CF900895A1E292
:1042E0001A2EAA1BBB1BFD010DC0AA1FBB1FEE1F70
:1042F000FF1FA217B307E407F50720F0A21BB30BBB
:10430000E40BF50B661F771F881F991F1A9469F736
:1043100060957095809590959B01AC01BD01CF0192
:104320000895A29FB001B39FC001A39F700D811D8E
:104330001124911DB29F700D811D1124911D0895AE
:10434000EE0FFF1F0590F491E02D09940F931F933A
:10435000CF93DF938230910510F482E090E0E091FA
:10436000EA22F091EB2220E030E0A0E0B0E03097CC
:1043700019F1408151810281138148175907C8F012
:104380008417950769F4109731F012960C931297E1
:1043900013961C9327C00093EA221093EB2222C0AD
:1043A0002115310519F04217530718F49A01BD0180
:1043B000EF01DF01F801DBCF21153105F9F0281BF2
:1043C000390B2430310580F48A819B816115710598
:1043D00021F0FB018283938304C08093EA229093AF
:1043E000EB22FE01329644C0FE01E20FF31F8193DF
:1043F000919322503109288339833AC02091E822D1
:104400003091E922232B41F42091022030910320A6
:104410002093E8223093E92220910020309101205E
:104420002115310541F42DB73EB74091042050913C
:104430000520241B350BE091E822F091E922E217D8
:10444000F307A0F42E1B3F0B2817390778F0AC01B7
:104450004E5F5F4F2417350748F04E0F5F1F4093A4
:10446000E8225093E9228193919302C0E0E0F0E0CA
:10447000CF01DF91CF911F910F910895CF93DF93DB
:10448000009709F481C0FC01329712821382A09137
:10449000EA22B091EB22109781F420813181820FC2
:1044A000931F2091E8223091E9222817390751F50E
:1044B000E093E822F093E92267C0ED0120E030E0CC
:1044C000CE17DF0740F44A815B819E0141155105FB
:1044D000F1F0EA01F5CFC283D38340815181840F8B
:1044E000951FC817D90759F488819981840F951FA2
:1044F0000296808391838A819B8182839383211595
:10450000310529F4E093EA22F093EB223DC0E90162
:10451000EA83FB8349915991C40FD51FEC17FD071E
:1045200061F480819181840F951F0296E90188834F
:104530009983828193818A839B83E0E0F0E01296E5
:104540008D919C911397009719F0FD01DC01F7CF35
:104550008D919C9111979D012E5F3F4F820F931F6C
:104560002091E8223091E9222817390769F4309721
:1045700029F41092EA221092EB2202C012821382D6
:10458000A093E822B093E922DF91CF910895FB0137
:10459000DC0102C001900D9241505040D8F70895BF
:1045A000DC0101C06D9341505040E0F70895F8944C
:0245B000FFCF3B
:1045B2000000EC22200001003D8F60EC2ACC00C8F4
:1045C2000202FFCC00C80505FF00000000260523FB
:1045D2000595012903000000002605230595012900
:1045E200030000000026052305920194010000004B
:1045F200002E1D2E1DAC03AE03000000001A04178E
:104602000410042304000000002605230595012957
:10461200030000000097081F07630725070000003A
:10462200002D12CF09E70BD909000000002D122E30
:1046320012BD0F821000000000A1100000000059FE
:1046420011000000002D122E12301231120006202D
:1046520006400660068006CE22CE22CE22CE22CE92
:0846620022CE22CE22E0070067
:00000001FF
