:200000000C9411010C9477010C9477010C9477010C9477010C9477010C9477010C94770186
:200020000C9477010C9477010C9477010C9477010C9477010C9477010C9477010C94770100
:200040000C9477010C9477010C9477010C9477010C9477010C9477010C9477010C947701E0
:200060000C9477010C9477010C9477010C9477010C9477010C9477010C9477010C947701C0
:200080000C9435230C9477010C9477010C9477010C9477010C9477010C9477010C947701C0
:2000A0000C9477010C9477010C9477010C94BF020C9477010C9477010C9477010C94770137
:2000C0000C9477010C9477010C9477010C9477010C9477010C9477010C9477010C94770160
:2000E0000C9477010C9477010C946B020C9477010C9477010C9477010C9477010C9477014B
:200100000C9477010C9477010C9477010C9477010C9477010C9477010C9477010C9477011F
:200120000C9477010C9477010C9477010C9477010C9477010C9477010C9477010C947701FF
:200140000C9477010C9477010C9477010C9477010C9477010C9477010C9477010C947701DF
:200160000C9477010C9477010C9477010C9477010C9477010C9477010C9477010C947701BF
:200180000C9477010C9477010C9477010C9477010C9477010C9477010C9477010C9477019F
:2001A0000C9477010C9477010C9477010C9477010C9477010C9477010C9477010C9477017F
:2001C0000C9477010C9477010C9477010C9477010C9477010C9477010C9477010C9477015F
:2001E0000C9477010C9477010C9477010C9477010C9477010C9477010C947701244D4F4453
:2002000024204842572D444556202000A04F00000203B0A803027F018D01F0020B1E4F2084
:20022000582311241FBECFEFCDBFDFE2DEBF80E08CBF67E280E890E00E944C02809182003A
:2002400080FDFCCF60E081E490E00E944C0280915000866080935000809151008670863099
:20026000D9F760914000687F616080E490E00E944C0280914000809150008E7F80935000EF
:20028000809150008091600081608093600010E2A0E0B0E2E8EDFEE402C005900D92A83CA3
:2002A000B107D9F722E2A8ECB0E201C01D92A830B207E1F7E8E0F2E288E49AE28193E83003
:2002C000F907E0F383E590E38193E030F907E0F311E0C1E1D1E004C02197FE010E94B02543
:2002E000CB30D107C9F70E9401020C946A270C940000FC0163817281818190810895E8EC9D
:20030000F0E21082118212821382148280ED97E08583968385E08783089580E098EE80931D
:20032000D2209093D32080E094EF8093D0209093D12008950F931F93CF93DF9300D000D056
:20034000CDB7DEB76115710509F453C0DB01182F60933F21709340216093E8217093E921A5
:200360001296ED91FC911397178287E6868383E2858388E184831296ED91FC9113979381C3
:200380009F7C9061938390914121916090934121ED91FC910280F381E02DCB010995109327
:2003A00044218093422190934321FC0186819781A085B18589839A83AB83BC83CE01019668
:2003C0000E9479018B019C011D532F483046003816492849310540F460930B2070930C20BC
:2003E00080930D2090930E20809141218260809341212496CDBFDEBFDF91CF911F910F919F
:200400000895CF93DF93CDB7DEB76897CDBFDEBF60E074E082E00E94C7248091CF0187FD42
:20042000FCCF8091CC0188608093CC0148E150E0BE016F5F7F4F80E090E00E945C234897C7
:2004400011F080EB8F8B8F890E949B078C01BC018F890E949A01D801ED91FC910280F38141
:20046000E02DC8010995FC01868197810E9428278091A2008F7B9FB7F8941BBE28ED24BF8B
:200480008093A2009FBF8091A20087608093A20078940E94251CFDCFFC019FB7F8941BBE87
:2004A00088ED84BF60839FBF089580E00895089521E230E2FC012083318320EA3AE02283DA
:2004C0003383E0E8F6E081858C7F8160818782858460828708951F920F920FB60F92112450
:2004E0002F933F934F935F936F937F938F939F93AF93BF93EF93FF938091A00A0E943F1ECA
:20050000009761F10E94351D811123C08EE791E20E945A1D9C01892BE1F080917B21883001
:20052000C1F090917D219F5F90937D2190917D21977090937D2190917B219F5F90937B218B
:20054000E0917D21F0E0EE0FFF1FE559FE4D2083318380918A06846080938A06FF91EF9189
:20056000BF91AF919F918F917F916F915F914F913F912F910F900FBE0F901F9018951F9213
:200580000F920FB60F9211242F933F934F935F936F937F938F939F93AF93BF93EF93FF93A7
:2005A0000E940D256093E3217093E4218093E5219093E621E0E8F6E082858B7F8287FF91DD
:2005C000EF91BF91AF919F918F917F916F915F914F913F912F910F900FBE0F901F901895E4
:2005E000E0E8F6E084E0828388E0828381830895809108068295817091E08927089580E0A1
:2006000090E1089581E0662319F08093E50708958093E6070895CF93C62F8091D8208111AE
:200620000DC00E940D256093D4207093D5208093D6209093D72081E08093D820C53050F472
:20064000C23078F4CC2349F0C13059F582E08093E50727C0C53079F024C082E08093E607E9
:2006600020C084ED90E20E942F25653F714081059105B8F009C084ED90E20E942F25693C61
:2006800071058105910568F082E08093E7070E940D256093D4207093D5208093D62090932E
:2006A000D720CF910895EF92FF920F93CF93DF931F92CDB7DEB77C010E9458028DE290E29A
:2006C000F7018083918340E060E0CE0101960E94B32320E030E040E150E16981C70104961F
:2006E0000E94B11141E060E0CE0101960E94B32320E030E042E150E16981C70148960E94C1
:20070000B11142E060E0CE0101960E94B32320E030E044E150E16981C7018C960E94B11139
:2007200043E060E0CE0101960E94B32320E030E046E150E16981C701805C9F4F0E94B11130
:2007400040E062E0CE0101960E94B32300E420E048E250E16981C7018C5A9F4F0E943912A7
:2007600041E062E0CE0101960E94B32320E04AE250E16981C70184599F4F0E94391242E04F
:2007800062E0CE0101960E94B32320E04CE250E16981C7018C579F4F0E94391243E062E005
:2007A000CE0101960E94B32320E04EE250E16981C70184569F4F0E94391240E750E168E2F1
:2007C000C7018C549F4F0E94A51540E651E168E2C70187549F4F0E94F31CE0EEF7E081E03D
:2007E0008283818382E08283818380E180930206E1EFF7E0808180648083E4E1F6E08081DE
:20080000877C80838081886180830F90DF91CF910F91FF90EF90089580E090E108958F5ED0
:200820009C4F61110C94CA210C94B821CF93DF93EC01815A9F4F0E94ED23811107C0CE01F3
:200840008D589F4F0E94ED2391E0811190E0892FDF91CF910895CF93DF931F92CDB7DEB7DD
:20086000DC0114966C93149719968D919C911A97009779F061110DC02FEC2983DC01ED913B
:20088000FC910190F081E02DAE014F5F5F4F61E009950F90DF91CF910895BF92CF92DF92A3
:2008A000EF92FF920F931F93CF93DF931F92CDB7DEB77C01D62EC42E122F0E94580289E318
:2008C00090E2F7018083918340E060E0CE0101960E94B32320E030E040E150E16981C70145
:2008E00004960E94B11141E060E0CE0101960E94B32320E030E042E150E16981C7014896C7
:200900000E94B11142E060E0CE0101960E94B32320E030E044E150E16981C7018C960E9457
:20092000B11143E060E0CE0101960E94B32320E030E046E150E16981C701805C9F4F0E942E
:20094000B11144E060E0CE0101960E94B32320E030E048E150E16981C7018C5A9F4F0E9401
:20096000B11145E060E0CE0101960E94B32320E030E04AE150E16981C70188599F4F0E94E3
:20098000B11140E061E0CE0101960E94B32320E030E04CE150E16981C70184589F4F0E94CA
:2009A000B11141E061E0CE0101960E94B32320E030E04EE150E16981C70180579F4F0E94AC
:2009C000B11142E061E0CE0101960E94B32320E030E040E250E16981C7018C559F4F0E948E
:2009E000B11143E061E0CE0101960E94B32320E030E042E250E16981C70188549F4F0E9470
:200A0000B11146E062E0CE0101960E94B32320E030E044E250E16981C70184539F4F0E944E
:200A2000B11147E062E0CE0101960E94B32320E030E046E250E16981C70180529F4F0E9430
:200A4000B11140E062E0CE0101960E94B32304E6212F48E250E16981C7018C509F4F0E94E1
:200A6000391241E062E0CE0101960E94B323212F4AE250E16981C701845F9E4F0E943912CE
:200A800042E062E0CE0101960E94B323212F4CE250E16981C7018C5D9E4F0E94391243E0CD
:200AA00062E0CE0101960E94B323212F4EE250E16981C701845C9E4F0E94391244E062E093
:200AC000CE0101960E94B323212F40E350E16981C7018C5A9E4F0E94391245E062E0CE01EC
:200AE00001960E94B323212F42E350E16981C70184599E4F0E94391240E063E0CE0101960F
:200B00000E94B32320E044E350E16981C7018C579E4F0E94391241E063E0CE0101960E942A
:200B2000B32320E046E350E16981C70184569E4F0E94391242E063E0CE0101960E94B323DC
:200B400020E048E350E16981C7018C549E4F0E94391243E063E0CE0101960E94B32320E089
:200B60004AE350E16981C70184539E4F0E94391244E063E0CE0101960E94B32320E04CE340
:200B800050E16981C7018C519E4F0E94391245E063E0CE0101960E94B32320E04EE350E113
:200BA0006981C70184509E4F0E94391287010C5E1D4F6C2DC8010E94612040E450E1B801E4
:200BC000C701895E9D4F0E943B0C46E450E1B801C7018A5C9D4F0E943B0C4CE450E1B801E0
:200BE000C7018B5A9D4F0E943B0C42E550E1B801C7018C589D4F0E943B0C48E550E1B801CA
:200C0000C7018D569D4F0E943B0C4EE550E1B801C7018E549D4F0E943B0C60E084E00E9472
:200C20009423B82EC92E46E060E0CE0101960E94B32304E610E12B2D3C2D40E06981C7016E
:200C40008F529D4F0E94C00A60E084E00E949423B82EC92E47E060E0CE0101960E94B3233C
:200C60000AE610E12B2D3C2D41E06981C70184519D4F0E94C00A40E750E168E2C701895F80
:200C80009C4F0E94A51540E651E168E2C701845F9C4F0E94F31CFFEEEF1AFCEFFF0A4D2DC0
:200CA0004F706D2D62956F70C7010E94B323F7018081803E18F4C7010E94BA23F7018081C2
:200CC000803E18F4C7010E94CF2386E58093800187E08093880197E590938101809389012E
:200CE00060E084E00E949423FC018181887F81838FEF9FEF86A397A38081807F8760808394
:200D000083818071886283830F90DF91CF911F910F91FF90EF90DF90CF90BF900895FF92D6
:200D20000F931F93CF93DF93CDB7DEB72697CDBFDEBF2091E020261709F46BC0F62E8C01C5
:200D400081E0681741F1681758F082E0681709F443C085E068135BC086E0E1E1F0E23FC0E5
:200D60001982AE014F5F5F4F61E0C8018C5A9E4F0E94AF12AE014F5F5F4F61E0C80184599B
:200D80009E4F0E94AF12F801EC5AFF4F81E08483749684833CC084E68983AE014F5F5F4F80
:200DA00061E0C8018C5A9E4F0E94AF12AE014F5F5F4F61E0C80184599E4F0E94AF1260E071
:200DC000C8018C5A9F4F0E942B0460E0C80188599F4F0E942B041BC086E0E7E1F0E2DE0142
:200DE000119601900D928A95E1F7AE014F5F5F4F66E0C8018C5A9E4F0E94AF12AE014F5F78
:200E00005F4F66E0C80184599E4F0E94AF12F092E0202696CDBFDEBFDF91CF911F910F9161
:200E2000FF900895809108068095881F8827881F0895CF93C62F8091E12081110DC00E944E
:200E40000D256093E9207093EA208093EB209093EC2081E08093E120C53050F4C23078F4FE
:200E6000CC2349F0C13059F580E48093050627C0C53079F024C080E48093060620C089EE86
:200E800090E20E942F25653F714081059105B8F009C089EE90E20E942F25693C7105810588
:200EA000910568F080E4809307060E940D256093E9207093EA208093EB209093EC20CF9136
:200EC00008950F931F93CF93DF9300D0CDB7DEB78C0141E06CE0CE0101960E94B32340E06C
:200EE0006CE0CE0102960E94B32320E049816A81C8010E944D048DE590E2F8018083918362
:200F0000E0E0F6E080E48283818380E88283E6E1F6E0808180648083E7E1F6E08081877C3A
:200F200080838081886180830F900F90DF91CF911F910F9108950F931F93CF93DF9300D0CE
:200F40001F92CDB7DEB7182F809100108F3F51F41B8241E050E0BE016D5F7F4F80E090E134
:200F60000E94FD22113B09F07AC080910010811148C083E193E00E940B228C0147E063E0D9
:200F8000CE0101960E94B32341E064E0CE0102960E94B32321E049816A81C8010E944D04BD
:200FA00085E490E2F8018083918381E08093820680938106EDEEF0E2808D918DA191B19164
:200FC00019968D939C931A9781E2E530F807A1F781E0F8018187858F81ABEB5BFF4F80831A
:200FE000749680837496808374968083749680837496808374968083749680837496808389
:201000004BC0813009F047C082E193E00E940B228C0141E06CE0CE0101960E94B32340E077
:201020006CE0CE0102960E94B32321E049816A81C8010E944D0481E590E2F801808391832B
:20104000EDEEF0E2808D918DA191B19119968D939C931A9781E2E530F807A1F71DC0123B5C
:2010600061F4809100108230B0F484E193E00E940B228C010E9461070FC0133B61F48091E3
:201080000010811108C081EC90E00E940B228C010E94530301C0FFCFC8012396CDBFDEBF7B
:2010A000DF91CF911F910F910895FC012089FB012083FC018785FB01818382E008950F9384
:2010C0001F93CF93DF93CDB7DEB72797CDBFDEBF8C01DC0119968D919C911A97FC012181D6
:2010E0002B3F50F025E02F8341E050E0BE01695F7F4F01960E94FD22D80119968D919C91BE
:201100001A97FC01228133812115310529F0255031092C303E4050F5D80119968D919C91A4
:201120001A97FC01248135812115310529F0255031092C303E4038F5D8011996ED91FC91D8
:201140001A9784819581009759F1228133818217930730F519821A8242E050E0BE016F5F1D
:201160007F4FCF0104960E94FD221AC02AE030E02D833E8342E050E0BE016B5F7F4F0296D0
:201180000E94FD22C9CF26E930E02B833C8342E050E0BE016D5F7F4F04960E94FD22CCCFC9
:2011A0002796CDBFDEBFDF91CF911F910F910895CF93DF93EC010E940D25688379838A8303
:2011C0009B83DF91CF9108954F925F926F927F928F929F92AF92BF92CF92DF92EF92FF92D8
:2011E0000F931F93CF93DF93CDB7DEB7CD55D109CDBFDEBFDC011996ED91FC911A9721819F
:20120000211109C022813381232B29F424813581232B09F4A0C1F62E8C0143960E942F258A
:20122000F801438554854A01A12CB12C681579058A059B0508F48FC1F8012085211140C0D9
:20124000EFB6F894D8010580F681E02D80E190E09C0117960C90179702C0220F331F0A9433
:20126000E2F724871596ED91FC91169720A131A11D962D933C931E97218117960C9002C050
:20128000880F991F0A94E2F7822B8183C80104960E94BA238AE090E0F80183879487CE012E
:2012A00001960E94D80889819A81AB81BC81F801838B948BA58BB68B81E08087EFBE4CC0CF
:2012C000213009F049C0CA010A96838794879781A581B6811C962C911C97E92FF0E040E18B
:2012E00050E0BA0102C0660F771F9A95E2F7CB01262391F1EE0FFF1F9D01285D3F4FE20FDA
:20130000F31F20813181F80145855685241B350B43E0369527954A95E1F72130F0E13F0782
:2013200020F0F8011786108A08C040E050E1BA01621B730BF8016787708B11969C91119740
:201340008095892311968C93C80104960E94CF2382E0D80118968C93F80183859485813D2F
:201360009740C0F0D8011596ED91FC911697218180E190E017960C9002C0880F991F0A943F
:20138000E2F7809582238183C80104960E94CF23F8011086D80118968C911897823009F032
:2013A000DAC01996ED91FC911A9782819381892BD1F0C80147960E942F254B015C01D8017E
:2013C0001996ED91FC911A9722813381A8EEB3E00E949625EE24E39486169706A806B90696
:2013E00020F4E12C02C0EE24E394D8011996ED91FC911A9784819581892B49F4D8011996A9
:20140000ED91FC911A974181411119C029C0C80147960E942F254B015C01D8011996ED91EF
:20142000FC911A9724813581A8EEB3E00E94962586169706A806B90608F321E012C0F80120
:201440008785908921893289821B930B97FF03C091958195910950E021E08417950708F434
:2014600020E0EE2009F467C0222309F464C0D801ED91FC910280F381E02DBE01645A7F4FA2
:20148000C8010995E82EE0914221F091432182819381A481B5816C968CAF9DAFAEAFBFAF50
:2014A0006C97CE01885A9F4F0E9479014B015C0140900B2050900C2060900D2070900E2073
:2014C000CE0102960E94D808FE0131966F0187E5DF011D928A95E9F789E6888BF98A4E2D73
:2014E00050E0BE01645A7F4FCE0142960E94332788EF8A874B865C866D867E868E829F826B
:20150000A886B986E394E394EF86C6010E949C1D811111C0F80187859089818B928BC60168
:201520000E94D80889819A81AB81BC81F801878B908FA18FB28FD8011B968D919C911C9778
:20154000883E934028F488EE93E0F80183879487D80118961C92C35ADF4FCDBFDEBFDF91B6
:20156000CF911F910F91FF90EF90DF90CF90BF90AF909F908F907F906F905F904F9008958A
:201580006F927F928F92DF92EF92FF920F931F93CF93DF93EC01D62E3901842E0E94B71522
:2015A00089E690E2888399837E0184E0E80EF11C4D2D4F706D2D62956F70C7010E94B32354
:2015C0008C81803E18F4C7010E94BA238C81803E18F4C7010E94CF236D827E828F8218861C
:2015E00009871A8780ED97E08B879C871D861E861F86188A198A1A8ACE0143960E94D808A2
:20160000CE0147960E94D8081B8A1C8A1D8A1E8A1F8A188E198E1A8EC701DF91CF911F911C
:201620000F91FF90EF90DF908F907F906F900C94CA210F931F93CF93DF931F92CDB7DEB7E3
:201640008C01FC018081861749F0698341E050E0BE016F5F7F4FC8010E94FD22C8010F909F
:20166000DF91CF911F910F910895FC012489FB012083FC018389FB01818382E008950F93BA
:201680001F93CF93DF93CDB7DEB72797CDBFDEBF8C01DC0116968D919C911797FC01218116
:2016A0002B3F50F025E02F8341E050E0BE01695F7F4F01960E94FD22D80116968D919C91FB
:2016C0001797FC01228133812115310529F0255031092C303E4060F5D80116968D919C91D5
:2016E0001797FC01248135812115310529F0255031092C303E4048F5D8011696ED91FC9109
:20170000179784819581009729F0228133818217930740F1F801108684EF91E0818B928BF9
:201720002796CDBFDEBFDF91CF911F910F9108952AE030E02D833E8342E050E0BE016B5FA0
:201740007F4F02960E94FD22C7CF26E930E02B833C8342E050E0BE016D5F7F4F04960E9459
:20176000FD22CACF19821A8242E050E0BE016F5F7F4FCF0104960E94FD22CCCF4F925F9235
:201780006F927F928F929F92AF92BF92CF92DF92EF92FF920F931F93CF93DF93CDB7DEB72E
:2017A000CB55D109CDBFDEBF882EF62E6A010115110521053105C1F4E0914221F0914321CB
:2017C00082819381A481B5816C968CAF9DAFAEAFBFAF6C97CE01885A9F4F0E947901962EC1
:2017E000A72EB82EE92E04C0902EA12EB22EE32E40900B2050900C2060900D2070900E2083
:20180000CE0102960E94D8088E010F5F1F4F87E5F80111928A95E9F789E6888B898A4F2D5C
:2018200050E0B601CE0142960E94332788EF8A874B865C866D867E869E82AF82B886E986EE
:20184000F394F394FF86C8010E949C1DC55ADF4FCDBFDEBFDF91CF911F910F91FF90EF902D
:20186000DF90CF90BF90AF909F908F907F906F905F904F900895EF92FF920F931F93CF937D
:20188000DF93EC017B018A010E94B71585E790E288839983EC82FD821886CE0147960E9496
:2018A000D808CE014B960E94D80884E08A830E831F8380ED97E0898B9A8B1F8A188E198E5F
:2018C0001A8EDF91CF911F910F91FF90EF900895982F81E0983221F0903111F080E00895D3
:2018E00008951F93CF93DF93EC01162F8C819D810E9487208C819D81DC011196ED91FC9165
:20190000129730852C912323E1F0111104C0AE01475F5F4F02C040E050E064E40E945F2130
:2019200080910A2081110FC0EC81FD818081A181B28115968C9380810180F281E02D8183FA
:2019400002C081E001C080E0DF91CF911F910895FB0120813181DC0119968C91803161F428
:201960002E7F43E0220F331F4A95E1F78681281B3109245F3F4F10C0883271F48481982F0D
:201980009076903649F086FF02C02E7F05C085FF02C02C7F01C0287FC90134E0969587950B
:2019A0003A95E1F7B4E68B02C0011124322F23FDC29632FD499631FD0D9630FD0696089545
:2019C000AF92BF92CF92DF92EF92FF920F931F93CF93DF93CDB7DEB72997CDBFDEBF8C01DA
:2019E000FC01848195810E948720A801475F5F4F6EEBF801848195810E945F21CE01019694
:201A00007C015E019AE0A90EB11C67016FEFF801848195810E94EC20F70181937F01EA15D9
:201A2000FB05A1F740E069E070E0C6010E948F21811109C0B601C8010E94A80CF801838B04
:201A4000948B80E001C083E02996CDBFDEBFDF91CF911F910F91FF90EF90DF90CF90BF90B0
:201A6000AF90089520913121EDEEF0E290E0921781F0A191B19112963C911297343039F42D
:201A800016960D90BC91A02D3C91831721F09F5FEECF80E0089581E008958F929F92AF9222
:201AA000BF92CF92DF92EF92FF920F931F93CF93DF93CDB7DEB72697CDBFDEBFFC018189C3
:201AC0009289892B09F461C1A681B7818C91811104C08085833009F058C1D62E7F01CF0128
:201AE00047960E942F25D70151962D913C915297890120E030E0601771078207930708F438
:201B000044C1CE0101960E94D80889819A81AB81BC81F701878B908FA18FB28F8085811119
:201B200051C08DE495E9838B948B0FEF6701F9E0CF0ED11C570121E1A20EB11CA601602F62
:201B4000D70114968D919C9115970E940721082F82E0800F823070F1F60110E08191180FE7
:201B6000EA15FB05D9F7F70181850E94680C811103C00111E3CF1EC0D70116968D909C90BE
:201B80001797F40180818F3F31F4812F0E94320D882309F4F0C0D7011696ED91FC91179788
:201BA00080811813E6CF81E018968C93189784E690E0C1C088E893E1F701818B928B83E0A4
:201BC0008087E3C08130B9F461E0C7010E94710C81110BC088EE93E0D70151968D939C9381
:201BE000529782E018968C93D0C08AEF90E0F701818B928BCAC0823009F0A2C0C7010E9432
:201C0000E00C11E0811110E0D7011696ED91FC91179782819381892BC9F0C7014B960E9459
:201C20002F254B015C01D7011696ED91FC91179722813381A8EEB3E00E94962521E08616F0
:201C40009706A806B90618F420E001C021E01223D7011696ED91FC91179784819581892B6B
:201C600049F4D7011696ED91FC9117974181411119C02CC0C7014B960E942F254B015C01C9
:201C8000D7011696ED91FC91179724813581A8EEB3E00E94962586169706A806B90608F385
:201CA00021E015C0F7018389948925893689821B930B97FF03C0919581959109FAE04F9F8E
:201CC000A001112421E08417950708F420E0112359F1222349F1D701ED91FC910280F38124
:201CE000E02DBE016B5F7F4FC701099500E010E09801AE014B5F5F4F682F8D2D0E94BE0BEE
:201D0000811112C0F70183899489858B968BCE0101960E94D80889819A81AB81BC81F7019F
:201D2000838F948FA58FB68F81E0D70118968C93189788E893E151968D939C93529725C058
:201D4000833019F50190F081E02D0280F381E02DBE016F5F7F4FC701099500E010E0980186
:201D6000AE014F5F5F4F682F8D2D0E94BE0BF701118A128A0AC0198341E050E0BE016F5F29
:201D80007F4FC4010E94FD2206CF2696CDBFDEBFDF91CF911F910F91FF90EF90DF90CF9039
:201DA000BF90AF909F908F900895CF93FC018081C82FCF7082958F700E944A23C83050F4B3
:201DC000FC017096EC0FF11D8081877C8083808188618083CF910895CF93DF93EC010196AE
:201DE0000E94D80887E5FE0111928A95E9F7DF91CF9108954F925F926F927F92AF92BF9271
:201E0000CF92DF92EF92FF920F931F93CF93DF93CDB7DEB7C755D109CDBFDEBF182FF62E13
:201E2000E42E40900B2050900C2060900D2070900E20CE0101960E94EC0E8BE4888B198B16
:201E40001A8AE11002C082E001C083E09F2D990F990F890F8B8B88EF8A874B865C866D86AD
:201E60007E868FEF9FEFDC018E839F83A887B98784E08F87CE0101960E949C1D082F809150
:201E80004721909148210097E1F5E0914221F09143210081B0904421C0900B20D0900C20FD
:201EA000E0900D20F0900E20CE0101960E94EC0ECB86DC86ED86FE868FEF9FEFDC018E8331
:201EC0009F83A887B98788EF8A8781E4888B198BBA8A0B8B82E08C8B83E08D8B88E48E8B7A
:201EE00082E48F8B87E5888F8E01005E1F4F5E0189E1A80EB11C8AE0482E512C612C712CB1
:201F00000DC0DC01ED91FC910190F081E02D2E2D4F2D612F09958823F1F0B7CFC701B60167
:201F2000A30192010E947425605DF80162938F01C114D104E104F10459F4A016B10671F74E
:201F400080E18F87CE0101960E949C1D082F03C069017A01F2CF802FC95ADF4FCDBFDEBF80
:201F6000DF91CF911F910F91FF90EF90DF90CF90BF90AF907F906F905F904F900895FF92CD
:201F80000F931F93CF93DF9300D000D0CDB7DEB78C01F62E0B960E94ED23F801882391F136
:201FA00080899189A289B389892B8A2B8B2B99F040E066818F2D0E94FA0E81110CC0D8014B
:201FC00016968C9116978F5F16968C93F801108A118A128A138AD8011C961D921D921D92D3
:201FE0001C921F9719968D919C911A97009709F468C01796ED91FC911897208127FF61C0C7
:202000002FEC53C084859585A685B785892B8A2B8B2B71F4CE0101960E94D80889819A8177
:20202000AB81BC81F80184879587A687B7872EC0C8010C960E942F25643671058105910531
:2020400028F1F80180899189A289B389892B8A2B8B2BE1F440E0F80166818F2D0E94FA0E8A
:20206000811114C0D80116968C9116978F5F16968C93CE0101960E94D80889819A81AB81B9
:20208000BC81F801808B918BA28BB38BD80119968D919C911A970097A1F01796ED91FC9114
:2020A0001897208127FF0DC02EEC2983DC01ED91FC910190F081E02DAE014F5F5F4F61E0D4
:2020C00009952496CDBFDEBFDF91CF911F910F91FF9008958F929F92AF92BF92FF920F931C
:2020E0001F93CF93DF9300D000D0CDB7DEB78C01F62E0B960E94ED23D8011C964D915D9146
:202100006D917C911F97882379F1452B462B472B09F4ABC0C8010C960E942F2562337105C2
:202120008105910550F0F80180899189A289B389892B8A2B8B2B09F470C0D8011C961D923A
:202140001D921D921C921F9719968D919C911A97009709F48AC01796ED91FC91189720812C
:2021600027FF83C02FEC75C0452B462B472BC1F1F80180899189A289B389892B8A2B8B2BFF
:2021800099F0C80140960E942F256C3271408105910508F46AC0D8011796ED91FC91189750
:2021A000808186FD43C061C0C8010C960E942F254B015C01D8011796ED91FC91189721818B
:2021C00030E0A4E6B0E00E94962586169706A806B90608F44AC0F80186818F5F868326C0EF
:2021E000CE0101960E94D80889819A81AB81BC81F80184879587A687B787108A118A128A0D
:20220000138A81859285009781F10780F085E02D208127FF2AC02EEC1CC0F80166816F5F9D
:20222000668340E08F2D0E94FA0E87CFCE0101960E94D80889819A81AB81BC81F801808B5F
:20224000918BA28BB38B41E066818F2D0E94FA0E0CC02983DC01ED91FC910190F081E02D1A
:20226000AE014F5F5F4F61E009952496CDBFDEBFDF91CF911F910F91FF90BF90AF909F9025
:202280008F900895FC01A781B0859C9193FF0DC08481882351F0977019F4CF010C946A10AD
:2022A000913019F4CF010C94BF0F0895FF920F931F93CF93DF93EC01EF81F88590818B85C1
:2022C00094FF16C08E01055F1F4F282F2F70F22E82958F700E944A2327E02F1538F0FC0189
:2022E0007096EF0DF11D80818F7B8083C80128C0182F1F7082958F700E944A23183038F4A0
:20230000FC017096E10FF11D8081806480838D818823A1F08B85182F1F7082958F700E94EC
:202320004A23183078F4FC017096E10FF11D8081877C808380818061808304C0CE010B965B
:202340000E94D50E1C861D861E861F86188A198A1A8A1B8A1E82DF91CF911F910F91FF908D
:202360000895CF92DF92EF92FF921F93CF93DF93EC01162F6A0179010E94B71581E890E2F6
:202380008883998381E08C831D821E82CF82D886E986FA867E018BE0E80EF11C412F4F70AD
:2023A000612F62956F70C7010E94B3238B85803E18F4C7010E94BA23CE010C960E94D80863
:2023C000CE0140960E94D80881E08A83CE01DF91CF911F91FF90EF90DF90CF900C94561136
:2023E000CF93DF93EC01EF81F885918194509F3280F48F819885FC016081262F27702230AB
:2024000018F0687F0E94190BCE01DF91CF910C94561164E0CF0101960E94190BEACFFC013A
:202420008085FB01808381E00895CF93DF931F92CDB7DEB7DC011496ED91FC91159730810D
:20244000232F2F77253688F057969C919F77232F2078922B391749F0998341E050E0BE0125
:202460006F5F7F4FCF010E94FD220F90DF91CF910895CF92DF92FF920F931F93CF93DF9398
:20248000EC01162F6A01F22E0E94B7158DE890E288839983412F4F70612F62956F7024EC5E
:2024A00039E0CE0106960E941824CE010E960E94D808CE0142960E94D8080F8B82E08A8393
:2024C000CC82DD828E81182F1F7082958F700E944A23183060F44096E12FF0E0E80FF91FE4
:2024E0008081FF2011F0806401C08F7B80831F828AEC8E8B188688EC89871A868AE08B879B
:202500008C878FEF8D871E861F86188A198A1A8A1B8A1C8A1D8ADF91CF911F910F91FF9043
:20252000DF90CF900895DC011496ED91FC91159720812F770696222349F0629FB0011124AA
:2025400023E0759567952A95E1F707C0611103C060E070E002C064EC79E00C946E24FF9221
:202560000F931F93CF93DF9300D000D0CDB7DEB78C01FA018081893C90F4D80118968C9302
:20258000189752961D921D921D921C9255978081811102C08AEC01C089ECF80150C08E3C29
:2025A00049F468ECC8010E94931281E0D80117968C93A7C08F3C19F4F8011782A2C06630AB
:2025C00008F45EC09181D8011A969C931A97828119968C93199723811B962C931B9724817A
:2025E0001C962C931C9725811D962C93F080BCECFB120FC0CE0101960E94D80889819A819E
:20260000AB81BC81F801828B938BA48BB58BF68A44C0FDECFF1220C0D80156968C918C3CB6
:2026200081F0CE0101960E94D80889819A81AB81BC81F801828B938BA48BB58B8CEC868B97
:202640002CC0D80152961D921D921D921C9255978AEC56968C9321C0BBECFB121EC0F80139
:2026600026892A3C21F090878AEC868B03C0808789EC868BF801128A138A148A158A0DC00A
:20268000D80118968C911897882319F018961C92F1CF88ECF8018087EDCFF80186859785C7
:2026A000A089B189892B8A2B8B2B59F50480F581E02D808187FF25C0CE0101960E94D808EF
:2026C00049815A816B817C81D8011E964D935D936D937C935197E0914221F091432191814D
:2026E000B4E69B9FC0011124092E000CAA0BBB0B840F951FA61FB71FF80186879787A08B21
:20270000B18B2496CDBFDEBFDF91CF911F910F91FF9008950F931F93CF938C01DC01149684
:20272000ED91FC911597C081CF770696CC2399F00E94522423E0880F991F2A95E1F7D8016D
:202740001496ED91FC91159760816F7770E00E946025C62F05C00E945224892B09F0C8ECA7
:202760008C2FCF911F910F9108954F925F926F927F928F929F92AF92BF92CF92DF92EF9236
:20278000FF920F931F93CF93DF93CDB7DEB7CC55D109CDBFDEBF8C01F62EFC01828993896E
:2027A000A489B589892B8A2B8B2B59F1C80142960E942F25672B682B692B19F1C8010E9480
:2027C0008A13F80161858613A5C0D8011C968C91B4E68B9FC0011124092E000CAA0BBB0B5F
:2027E000F8014289538964897589840F951FA61FB71F828B938BA48BB58B6285C8010E9480
:202800009312F8018781811109C082899389A489B589892B8A2B8B2B09F4B6C0F80186858F
:202820009785A089B189892B8A2B8B2B09F4B1C0C8010E960E942F25672B682B692B09F473
:20284000A8C0D801ED91FC910280F381E02DBE01645A7F4FC8010995E82EE0914221F0910C
:20286000432182819381A481B5816C968CAF9DAFAEAFBFAF6C97CE01885A9F4F0E94790170
:202880004B015C0140900B2050900C2060900D2070900E20CE0102960E94D808FE0131968E
:2028A0006F0187E5DF011D928A95E9F789E6888BF98A4E2D50E0BE01645A7F4FCE0142960C
:2028C0000E94332788EF8A874B865C866D867E868E829F82A886B986E394E394EF86C60102
:2028E0000E949C1D882371F0F80186859785A089B18986509F4FAF4FBF4F86879787A08BC8
:20290000B18B47C0D8011E961D921D921D921C9251973FC0D8011D968C911D97882329F123
:202920001B968C91B4E68B9FC0011124092E000CAA0BBB0BF80182889388A488B588880D35
:20294000991DAA1DBB1D828B938BA48BB58BC8010E949312D8011D968C911D978F3F09F450
:2029600050CF81501D968C934CCFF801128A138A148A158A8085681711F08AEC01C089ECDA
:20298000D80156968C933DCF6085C8010E94931245CFC45ADF4FCDBFDEBFDF91CF911F9149
:2029A0000F91FF90EF90DF90CF90BF90AF909F908F907F906F905F904F9008952F923F92B4
:2029C0004F925F926F927F928F929F92AF92BF92CF92DF92EF92FF920F931F93CF93DF9323
:2029E000CDB7DEB7CF55D109CDBFDEBF6E968EAF9FAF6E97162F6F962FAF6F97440F440F2F
:202A0000222311F083E001C082E0480FA0964FAFA097E12CF12CC12CD12C8BE09E012F5F7C
:202A20003F4F19016E96AEADBFAD6E9712962C91129730E0C216D3060CF070C01396ED91FC
:202A4000FC911497EE0DFF1D90819F3F09F45FC091135DC0CF0101960E9479012B013C016F
:202A60006C966CAF7DAF8EAF9FAF6C9780900B2090900C20A0900D20B0900E206E96EEAD8E
:202A8000FFAD6E9783819481481459046A047B04D9F4DC01AE0DBF1D809145219091462186
:202AA0000097A1F1FC0120813181F901A080B1806F960FAD6F9715962C91412FBE01685A32
:202AC0007F4FF501099522C0FC01EE0DFF1D05810E940D25D101E7E51D92EA95E9F7FBE4B9
:202AE000F88B198B0A8BA0962FADA0972B8B38EF3A878B869C86AD86BE864E825F826886EA
:202B0000798684E08F87C1010E949C1D80E09FEFC91AD90AA6E0EA0EF11C84CFC15ADF4F44
:202B2000CDBFDEBFDF91CF911F910F91FF90EF90DF90CF90BF90AF909F908F907F906F9086
:202B40005F904F903F902F900895FC01809347219093482189E990E28083918362834383D2
:202B600054830895089580E0089508950895DC018FE990E28D939C93119712961C92129750
:202B8000E09131211396EC93139781E08E0F80933121F0E0EE0FFF1FE351FF4DA083B1837B
:202BA00008958F929F92AF92BF92CF92DF92EF92FF920F931F93CF93DF936B017C01FA01A4
:202BC00088E4808382E4818387E582838A01065F1F4FEA0123968AE0882E912CA12CB12C22
:202BE0000C171D0791F0C701B601A50194010E947425605DF80162938F01C114D104E1044E
:202C0000F10471F369017A01EBCFDF91CF911F910F91FF90EF90DF90CF90BF90AF909F9003
:202C20008F900895FC01808180FF03C081E09785961380E00895FC01818580FD07C0868523
:202C4000823020F081E09785993609F080E008958091CF0187FDFCCF0895CF92DF92EF9250
:202C6000FF920F931F93CF93DF93CDB7DEB7C755D109CDBFDEBF8091412181FF53C00E94BB
:202C80002327182F0FB7F89483EE91E20E942F250FBF212F2F70295F022F10E020E030E001
:202CA0000617170728073907E8F5E0914221F0914321108100914421C0900B20D0900C2046
:202CC000E0900D20F0900E20CE0101960E94EC0ECB86DC86ED86FE868FEF9FEFDC018E8303
:202CE0009F83A887B98788EF8A8781E4888B198A0A8B1B8B82E08C8B83E08D8BAE014A5E1A
:202D00005F4FC701B6010E94D11580E18F87CE0101960E949C1D811105C0809141218D7FF0
:202D200080934121C95ADF4FCDBFDEBFDF91CF911F910F91FF90EF90DF90CF900895CF92AA
:202D4000DF92EF92FF920F931F93CF93DF93CDB7DEB72597CDBFDEBFE0914221F091432111
:202D60001081C680D780E084F1840091CC010E9428168091CC01877F8093CC018FEF0E942A
:202D800044220E94281680E30E940D2203FF07C00E9428168091CC0188608093CC01809159
:202DA0004221909143211D8341E050E0BE016B5F7F4F0E94FD228091422190914321C982DE
:202DC000DA82EB82FC8244E050E0BE016F5F7F4F06960E94FD2280914121846080934121D4
:202DE0002596CDBFDEBFDF91CF911F910F91FF90EF90DF90CF9008951F93CF93DF9300D000
:202E000000D0CDB7DEB780913F2190914021892B09F4BAC080913721811107C083E391E210
:202E20000E94D80881E08093372180913F2190914021DC01ED91FC910480F581E02D0995C4
:202E4000182F80913221823009F441C028F4882361F0813001F18BC0843009F46AC008F43A
:202E600051C0853009F47DC082C0112319F081E080933221CE0101960E94D80889819A81FF
:202E8000AB81BC818093332190933421A0933521B09336216CC083E391E2112351F00E94AB
:202EA0002F25693873418105910508F460C082E055C00E942F25653671058105910508F49B
:202EC00054C0809141218260809341214EC011114EC083E080933221CE0101960E94D80825
:202EE00089819A81AB81BC818093332190933421A0933521B09336218091412180628093DA
:202F0000412135C083E391E20E942F25643671058105910560F1112311F084E0A9CF83E397
:202F200091E20E942F256938734181059105E8F41EC083E391E20E942F2564367105810598
:202F40009105A8F0112389F083E391E20E942F25693B7B408105910550F085E08093322141
:202F600006C0111104C00E949F161092322180913F2190914021DC01ED91FC910680F78180
:202F8000E02D6091322109952496CDBFDEBFDF91CF911F9108950F931F93CF93DF9300D04A
:202FA00000D0CDB7DEB7E0914221F091432186819781A085B18589839A83AB83BC83CE0190
:202FC00001960E94790100910B2010910C2020910D2030910E206017710782079307B9F02D
:202FE0008B019C011D532F483046003816492849310540F460930B2070930C2080930D204C
:2030000090930E2080914121826080934121E0914221F091432191819253993CB0F410E07C
:20302000809131211817E8F4E12FF0E0EE0FFF1FE351FF4D80819181DC01ED91FC91068026
:20304000F781E02D09951F5FEBCF82E3898341E050E0BE016F5F7F4FCF0101960E94FD22D0
:20306000DECF2496CDBFDEBFDF91CF911F910F910895CF92DF92EF92FF92CF93DF93CDB7C7
:20308000DEB7C755D109CDBFDEBF8091412180FF07C00E94CB17809141218E7F809341214A
:2030A0008091412183FF09C08FB7F8941BBE98ED94BF91E0909379008FBF8091412182FF80
:2030C0000FC0A8958FB7F8941BBE98ED94BF9BE1909380008FBF8091820080FDFCCFFFCF4B
:2030E00085FF27C0C0900B20D0900C20E0900D20F0900E20CE0101960E94EC0ECB86DC865E
:20310000ED86FE8682E090E0A0E0B0E08E839F83A887B98788EF8A8783E2888B81E08F87BD
:20312000CE0101960E949C1D809141218F7D809341210E940D256D3D75408105910510F08B
:203140000E942D16C95ADF4FCDBFDEBFDF91CF91FF90EF90DF90CF900895909131218917B4
:2031600078F4E82FF0E0EE0FFF1FE351FF4D80819181DC01ED91FC910280F381E02D0994C6
:20318000DB011C9281E0089590913121891778F4E82FF0E0EE0FFF1FE351FF4D8081918193
:2031A000DC01ED91FC910190F081E02D099408954F925F926F927F928F929F92AF92BF9216
:2031C000FF920F931F93CF93DF93EC010E94001DF82E811102C0F12CBEC1898580FDFBCF1F
:2031E00065E7CE010E941216882321F0809141218860B9C062E5CE010E941216882391F04E
:203200008E85843041F71A89412F50E0688979897627672776277061CE010F960E94332770
:203220001E8745C163E4CE010E941216882321F080914121816097C066E7CE010E941216B6
:20324000882389F080910B2090910C20A0910D20B0910E208D839E83AF83B88782E08F87DA
:2032600093E0988B0DC168E6CE010E941216882359F0E0914221F0914321808190914421CF
:203280009F87888B82E0FCC065E4CE010E941216882309F451C00A891B89812F869586951F
:2032A0008695912F977011F48C5F01C08B5F8E8785E68F874E8550E04450510960E070E07A
:2032C000CE0143960E943C27402F50E060E070E180E090E0212F30E0412C512C32014394ED
:2032E000281739070CF4E3C0DB01E0E0F0E0E417F507F4F41D911F3FC9F0FC01A3E0F59592
:20330000E795AA95E1F73496EC0FFD1FDC01A770BB275301420104C0880C991CAA1CBB1C22
:20332000AA95D2F7A7858A2A878602C03196DFCF0196640F751FD4CF6BE4CE010E94121638
:2033400081116BC06BECCE010E941216811165C00DC061E2CE010E941216882309F44AC0AE
:2033600080914121846080934121A3C063E5CE010E941216882321F0BE016F5E7F4F7AC0ED
:2033800067E5CE010E9412168823F1F04A892E8530E0842F90E004962817390709F01BCF07
:2033A00088899989982789279827BE01009719F06D5E7F4F05C06C5E7F4F415081E090E0F5
:2033C00050E00E94FD2275C06EE6CE010E941216882309F4BECF60910B2070910C2080914B
:2033E0000D2090910E20AE01415F5F4F0E94D1158AE046C069E6CE010E941216811159C0C9
:2034000063E7CE010E94121681112AC068E7CE010E941216811124C035C08D819E81AF819D
:20342000B8858F3F9F4FAF4FBF4F09F442C08A89837001E0833009F000E0BE01665F7F4FC3
:203440008091452190914621009799F1DC01ED91FC910190F081E02D29894889099529C04B
:203460006E8562508E010F5E1F4FA80188890E94C418B80188890E94AD1899E69F878E5F42
:203480008E8715C06AE7CE010E941216882321F080914121806467CF6AE5CE010E94121627
:2034A000882309F498CE809141218F7B5CCF10E001C011E08D819E81AF81B8858F3F9F4F5E
:2034C000AF4FBF4F09F487CE8091412186FF07C065E7CE010E941216882309F47CCE29854A
:2034E000822F8770833021F023FB222720F901C020E08A859B85AC85BD858D839E83AF831A
:20350000B88780910B2090910C20A0910D20B0910E208A879B87AC87BD8789858695837050
:20352000112321F099E199871E8602C098E999878370982F9295990F907E89858F79892B44
:203540008987211102C0877F898781E02827888120FB84F988838F2DDF91CF911F910F9119
:20356000FF90BF90AF909F908F907F906F905F904F9008950F931F93CF93DF93DC0190E0F2
:2035800090962C919097921740F5FD01E90FF11DE90FF11DEB01088119814081518104177C
:2035A0001507C9F4892F422F50E041505109E82FF0E0E417F50754F4EE0FFF1FEA0FFB1F9A
:2035C000C281D381C083D1838F5FF1CF9150215090962C9390979F5FD3CFDF91CF911F9191
:2035E0000F9108951F93CF93DF9300D0CDB7DEB710E080916A211817A0F5E12FF0E0EE0FF2
:20360000FF1FE65BFE4D8081918189839A83FC014181528163817481452B462B472BF9F01D
:2036200001960E942F25672B682B692BC1F089819A810E949C1DE981FA8180818C708C3075
:2036400081F4BE016F5F7F4F8AE491E20E94BA1A67E570E089819A810E944B1D02C01F5F38
:20366000C8CF0F900F90DF91CF911F9108958F929F92AF92BF92DF92EF92FF920F931F939D
:20368000CF93DF9300D0CDB7DEB77C01D12C80916A21D81608F060C0ED2DF0E0EE0FFF1F4C
:2036A000E65BFE4D0081118109831A83F801818580FD50C0F70181858770813071F0F801B6
:2036C0008685843009F046C087858B3409F042C0C7010E941B168823E9F191E0F8018284D6
:2036E0009384A484B584F701458156816781708584169506A606B70609F090E081E0F8017F
:2037000085809680A780B084F701428553856485758584169506A606B70609F080E0892316
:20372000C9F0F801918596959370F701818582958695837098130EC0BE016F5F7F4F8AE42E
:2037400091E20E94BA1A67E570E089819A810E944B1D02C0D3949BCF0F900F90DF91CF9114
:203760001F910F91FF90EF90DF90BF90AF909F908F9008950F931F93CF93DF93CDB7DEB7C2
:20378000C755D109CDBFDEBF80917B21882309F453C09FB7F89480917B218823C1F0E09146
:2037A0007C2181E08E0F80937C21F0E0EE0FFF1FE559FE4D0081118180917C21877080937F
:2037C0007C2180917B21815080937B2102C000E010E09FBF0115110579F1C8010E941F1DF2
:2037E000882351F0F80181858770813009F1C8010E941B1681111CC0F8018185877081308B
:2038000089F087E5DE01119601900D928A95E1F7CE0101960E94D818882321F0CE010196FC
:203820000E949C1D67E570E0C8010E944B1D04C0C8010E94371BE0CFC95ADF4FCDBFDEBF14
:20384000DF91CF911F910F910895CF93C0E080913121C817B0F4EC2FF0E0EE0FFF1FE35189
:20386000FF4D80819181DC01ED91FC910480F581E02D6C2F09950E94BA1B0E94F21ACF5F6E
:20388000E6CF0E9439180E94FC16A895CF9108952F923F924F925F926F927F928F929F92CA
:2038A000AF92BF92CF92DF92EF92FF920F931F93CF93DF93CDB7DEB72697CDBFDEBF7C01EE
:2038C0003B01342ED22E10E0CE0101965C0122242A948BECC82E9CEC592E2DEC422ED701B6
:2038E00012968C91181708F068C0B0E11B9F40011124D7011396ED91FC911497E80DF91DB1
:203900008481831158C085818D1155C080819181A281B3818F3F9F4FAF4FBF4F09F44BC003
:20392000CF010E947901D3012D913D914D915C916217730784079507F1F5F50126E01192D1
:203940002A95E9F72982D7011396ED91FC911497E80DF91D90859A8327812B8383858C833C
:2039600084858D8385858E83002349F092859A8321852B83868186958695869501C086810F
:203980008770833081F030F4882351F0813099F4998307C0843049F0853069F4498206C04B
:2039A000298361E004C0C98201C0598266E0A5018D2D0E94C4181F5F92CF2696CDBFDEBF87
:2039C000DF91CF911F910F91FF90EF90DF90CF90BF90AF909F908F907F906F905F904F9033
:2039E0003F902F900895FC0180934521909346218BEA90E28083918362834383548308957F
:203A0000FC01208120FF17C0458156816781708580910B2090910C20A0910D20B0910E2042
:203A2000481759076A077B0741F081E04F3F5F4F6F4F7F4F19F080E0089581E0089521E075
:203A4000FC01458156816781708580910B2090910C20A0910D20B0910E20481759076A0769
:203A60007B0709F020E0822F089521E0FC01428553856485758580910B2090910C20A09143
:203A80000D20B0910E20481759076A077B0709F020E0822F0895CF93CFB7F8940E94EC216E
:203AA00080914921882319F0815080934921CFBFCF910895DF92EF92FF920F931F93CF93C5
:203AC000DF937C01DFB6F894FC01C685C15FD0E0CE010796887F0E94EE218C01009749F03D
:203AE000AE01B7010E943327809149218F5F80934921DFBEC801DF91CF911F910F91FF9068
:203B0000EF90DF900895FB0198E0408151819A01220F331F87FD21602083318357FF08C07B
:203B20002081318142E0242740E1342720833183880F915051F708951F93CF93DF93EC0122
:203B40000E94A91F182F888181FF13C0CE0105960E9479016D837E838F839887CE010A9641
:203B60000E9479016A877B878C879D8788818D7F88838881982F969596959F5F9370990F10
:203B8000990F837F892B88830E940D25DC01CB018A569F4FAF4FBF4F89839A83AB83BC83CF
:203BA000898580FD33C08D819E81AF81B8858F3F9F4FAF4FBF4F51F18881869586958370B1
:203BC000813021F580916A21803100F5CE010E945A1D0097D9F0E0916A21AAE4B1E220E077
:203BE000E21739F04D915D918417950779F02F5FF7CFE03158F421E02E0F20936A21F0E03A
:203C0000EE0FFF1FE65BFE4D80839183812FDF91CF911F910895CF93DF93CDB7DEB7639732
:203C2000CDBFDEBFEBE6F1E28FEF828B118A108A8B8B1A8A198A10926A216396CDBFDEBF4B
:203C4000DF91CF910895CF93DF93FC01208121FF13C0EC0105960E9479016D837E838F83EB
:203C60009887CE010A960E9479016A877B878C879D8788818D7F8883DF91CF910895CF9381
:203C8000C82F0E940D256093E3217093E4218093E5219093E6218091DB21CC3F21F4816009
:203CA0008093DB2179C0CD3FD1F482608E7F8093DB211092D9218FEF9FEF8093D721909317
:203CC000D82180917E218E7F826080937E2110928C2167ED71E28DEF0E94831D5DC081FF49
:203CE0005BC080FF04C0C0688E7F8093DB2167ED71E28C2F0E94831D4091D921E42FF0E0D0
:203D0000ED57FE4DC083443049F480918721982F97709330C9F183FF37C039C080918C21EC
:203D2000493041F4893498F18091DB218D7F8093DB212DC050E060E070E090E0A0E0B0E03A
:203D40000996A11DB11D481759076A077B07F9F48091D7219091D821892BC9F48EE791E21D
:203D60000E94231E80918C21825080938C218091DB218D7F8093DB2180917E218160809344
:203D80007E218EE791E20AC088E08093D9218091D9218F5F8093D92180E090E0CF9108958A
:203DA0000F931F93CF93DF93C091DC21D091DD21209709F4BCC08C019091E0218091E2213B
:203DC00091112EC081FD2CC082608093E2218FEF9FEF8093DE219093DF21888181FD13C056
:203DE000CE0105960E9479016D837E838F839887CE010A960E9479016A877B878C879D8766
:203E0000888182608883888184FD02C08DEF01C08EEFF80180836EED71E20E94831D82C078
:203E200081FF82C0888184FF84C0911182C0F801108283E08093E0214091E021443049F487
:203E40008985982F9770933009F47AC083FF78C017C0493029F4F80180818E5F808310C0AB
:203E600050E060E070E08E8590E0A0E0B0E00B96A11DB11D84179507A607B70708F457C00D
:203E80008091E22180FD40C06EED71E2F80180810E94831D4091E02150E060E070E08E8502
:203EA00090E0A0E0B0E00996A11DB11D481759076A077B07E1F46EED71E280E00E94831D80
:203EC0006EED71E280E00E94831D25968091E0218F5FFE01E80FF11D8091DF2180838091AE
:203EE000E0218E5FC80FD11D8091DE218883F80180818C5F833088F48091E22181608093D8
:203F0000E2218CEF80830EC0F80180818F7780838091E2218E7F8093E2218091E0218F5F18
:203F20008093E02181E010C0CE010E94231E80E00BC0FE01E90FF11D8581F80180837CCF0D
:203F400088E08093E0219CCFDF91CF911F910F910895EF92FF920F931F93CF93DF931F92D2
:203F6000CDB7DEB77C018091E8219091E921892BE9F00E942327182F0FB7F89483EE91E270
:203F80000E942F250FBF212F2F70295F022F10E020E030E0061717072807390748F0D701FB
:203FA00019968C918770813021F702C081E06FC0E092DC21F092DD211092E0218091E2217D
:203FC0008D7F8093E221D70119968C9180FD06C0F7019081969596959370B1F18091E821BA
:203FE0009091E921DC01ED91FC910190F081E02D61E0099510E0CE0101960E94D01EA091A9
:20400000E821B091E921882389F089811296ED91FC911397948193FD05C012E0ECCF948195
:2040200093FF1BC0918195FFFACF17C01296ED91FC911397818180648183818186FD0FC032
:20404000848183FF0CC0F9CF9091E7219370990F897F892BF7018187C1CF8083CCCFED9109
:20406000FC9111970190F081E02D60E0CD01099511110AC0F701818580FD08C08091E72108
:204080008F5F8093E72102C0812F01C080E00F90DF91CF911F910F91FF90EF900895109278
:2040A000E3211092E4211092E5211092E6210E940D2587E5EEE7F1E2DF011D928A95E9F78E
:2040C00008950F931F93CF93DF931F92CDB7DEB78C016983CE0101960E94E423F8018083CD
:2040E000898182958F700E944A23F8018183928330812FB7F8943093B00038E1FC01308B18
:204100002FBF0F90DF91CF911F910F910895FC018081A181B28116968C938081A181B281E1
:2041200011968C938FEB92E10197F1F700C000002FB7F8948081A181B28112968C93AFE06E
:20414000B2E01197F1F700C000008081A181B28118963C91AFEEBCE01197F1F700C0000023
:20416000A181B28118964C919081942311F0832301C081E02FBF0895FC01862F2FB7F8941F
:204180009081A181B28111969C9395E19A95F1F70000662329F09081A181B28112969C9377
:2041A000A0E8AA95F1F7A181B28118963C919081932309F480E0A7E6B1E01197F1F700C0EE
:2041C000000090810180F281E02D9283BAE6BA95F1F700C02FBF08950F931F93CF93DF936E
:2041E0008C01C62FD8E06C2F6170C8010E94BC202C2F30E035952795C22F8111C068D15015
:2042000091F78C2FDF91CF911F910F910895BF92CF92DF92EF92FF920F931F93CF93DF9341
:204220007C01C62E8A010E94872081113BC060EFC7010E94EC20D0E0C0E498EFB92EBC0E5B
:2042400061E0C7010E94BC20D82E61E0C7010E94BC20882319F0DD2071F026C0D1100BC0A6
:20426000CC1530F0F801808180FF05C0CC1519F0DC2FDD24D3946D2DC7010E94BC20F801C9
:20428000208130E035952795DD2011F02068F8012083C150CB11D4CF0F5F1F4FC111CDCFEB
:2042A0008D2F03C08FEF01C08EEFDF91CF911F910F91FF90EF90DF90CF90BF900895CF927A
:2042C000DF92FF920F931F93CF93DF93EC01F62E8A010E9487200115110591F065E5CE0109
:2042E0000E94EC20680188E0C80ED11CF80161918F01CE010E94EC200C151D05B9F704C0CD
:204300006CECCE010E94EC206F2DCE01DF91CF911F910F91FF90DF90CF900C94EC20CF93D2
:20432000FC01680F791F2CEB31E652ECADE9B3E2C6E48CE8E617F707B9F09191942790FFAC
:2043400002C04EE501C040E091FD422792FD432793FD452794FD4A2795FD4B2796FD4C278F
:2043600097FFE8CF4827E6CF842FCF91089508951F93CF93DF93EC010E94E423182F888113
:2043800082958F700E944A23FC011683DF91CF911F9108951F93CF93DF93EC010E94E42329
:2043A000182F888182958F700E944A23FC011583DF91CF911F910895009769F020910F2006
:2043C0003091102042E288309407E0F382179307C8F70C944E2608950C94DC21CF93DF938E
:2043E000EC010E94B62520910F203091102042E288309407E0F382179307C8F72197C80FB7
:20440000D91F42E2C830D407E0F3C217D307C8F7DF91CF9108950C94EE21CF93DF93E0ECAC
:20442000F1E032852FB7F8948287A8E4B0E05C919C918C91809589238C93C0EAD0E0488123
:204440009A818A81887F84608A838C9181608C93858568ED64BF61E0638763E06587789439
:2044600088955C9348839A83858732872FBFDF91CF9108950E9428168091CF0181FF03C024
:2044800086E30C940D220895CF93DF93D82FC091CA010E943A220E94281683E38093CA012E
:2044A0001092C2011092C10180E08093C001D093C4018F5F8032C9F7C093CA01DF91CF9189
:2044C00008958F929F92AF92BF92CF92DF92EF92FF920F931F93CF93DF938C015B017A01EB
:2044E00090518115944018F080E090E034C0CA019051800F911F81159440B0F7C12CD12CBF
:2045000080E2982EE114F10429F1802E802F8F71C92DC81B8C2F90E0E816F90608F4CE2D1A
:204520000E943A22D0E0AE01B501C8010E9433271092C2011093C1018092C00185E30E94FC
:204540000D22AC0EBD1EEC1AFD0ACC0EDD1E0C0F1D1FD8CFC601DF91CF911F910F91FF9041
:20456000EF90DF90CF90BF90AF909F908F900895FF920F931F93CF93DF931F92CDB7DEB7F2
:204580008C0169838091CC0183FF11C0011580E1180708F4105F41E050E0BE016F5F7F4FC4
:2045A000C8010E94612221E0892BF9F404C0011584E0180710F020E018C0F090CA010E9449
:2045C0003A220E94281683E38093CA011092C2011093C1010093C00189818093C40185E3F3
:2045E0000E940D22F092CA0121E0822F0F90DF91CF911F910F91FF900895EF92FF920F934C
:204600001F93CF93DF938A012091CC0123FF0EC0811520E1920708F4905FA801DF91CF9187
:204620001F910F91FF90EF900C9461227B01EC01C61BD70BCE018E0D9F1D0115110551F03A
:20464000F70161917F010E94B822882331F001501109F0CF80E090E001C0C801DF91CF9154
:204660001F910F91FF90EF9008951F920F920FB60F9211248F93EF93FF93E0ECF1E0858575
:204680008C7F8587FF91EF918F910F900FBE0F901F9018958D3048F4E82FF0E0EE0FFF1F71
:2046A000E355FF4D8081918108958AEE91E208958FEF8093F2210895CF92DF92EF92FF9219
:2046C0000F931F93CF93DF939C01240F351F2130314098F48A01EB016B01C40ED51E7C011B
:2046E000E61AF70AB7016C0F7D1FCC15DD0541F081E00E948A238993F5CF80E090E001C0D5
:20470000C801DF91CF911F910F91FF90EF90DF90CF9008954091CA01E62FF72F8093CA0182
:2047200084914093CA01089561110AC0833029F0843099F0823071F00CC080E099E008958F
:20474000613039F4823061F0833019F480E499E00895FFCF80E098E0089580E09AE00895A4
:2047600080E498E008956295607F4F70642BFC0160830895CF93DF93FC018081982F9F7077
:20478000C1E0D0E001C0CC0F9A95EAF782958F700E944A23FC01C283DF91CF910895CF93E6
:2047A000DF93FC018081982F9F70C1E0D0E001C0CC0F9A95EAF782958F700E944A23FC0194
:2047C000C183DF91CF910895FC0190819F7081E001C0880F9A95EAF70895CF93DF93EC01E4
:2047E000888182958F700E944A23FC01308528812F7081E090E001C0880F2A95EAF7832322
:20480000DF91CF910895FC018081282F2F7030E02430310514F460E004C0263031052CF4E5
:2048200061E082958F700C94942380E090E008950F931F93CF93DF93EC0189010E94B32346
:204840008881803E18F4CE010E94BA238881803E18F4CE010E94CF23CE010E940324FC016C
:20486000892BD9F08081807F816080838181887F8360818306A317A388818F70843008F0D0
:204880008450418120E130E0B90102C0660F771F8A95E2F7CB01842B8183DF91CF911F91F3
:2048A0000F910895CF93DF93EC010E940324009771F028812F70243008F024508896FC0116
:2048C000E20FF11DE20FF11D8081918104C0CE010E94ED2390E0DF91CF9108950F931F9351
:2048E000CF93DF93EC018B010E940324FC0188818F70843008F084503097D1F0482F50E0EE
:204900009A01220F331FDF019896A20FB31F0D931C9390819923D9F001151105C1F0218184
:2049200080E190E001C0880F4A95EAF7822B1BC0CE01012B31F0DF91CF911F910F910C942A
:20494000CA21DF91CF911F910F910C94B821418120E130E0B90102C0660F771F8A95E2F781
:20496000CB018095842381838081882309F3DF91CF911F910F9108959091010490FDFCCFC8
:2049800090910004987F892B8093000408951F93CF93DF93182FEB0180E00E94BC248091C7
:2049A00043008E7F80934300153031F4C115D04219F483E09EE002C081E094E02091430086
:2049C000217F2160922B9093430020910804309109043C5F4091080450910904909101047C
:2049E00090FDFCCF6FEF7FEF60930A0470930B049091010490FDFCCF409308045093090433
:204A00009091010490FDFCCF20930C0430930D04DF91CF911F910C94BC2431E02FB7F894FE
:204A20004091030440FF0CC040910222509103224F5F5F4F40930222509303223093030473
:204A40004091080450910904BA012FBF2091030420FDE4CF80910222909103220895CF92E1
:204A6000DF92EF92FF920F931F93CF93DF93EC010E940D25088119812A813B816B017C0157
:204A8000C01AD10AE20AF30A601771078207930760F4C701B601615071098109910997FFAE
:204AA00006C060E070E0CB0102C0C701B601DF91CF911F910F91FF90EF90DF90CF900895FA
:204AC000AA1BBB1B51E107C0AA1FBB1FA617B70710F0A61BB70B881F991F5A95A9F780959E
:204AE0009095BC01CD010895A1E21A2EAA1BBB1BFD010DC0AA1FBB1FEE1FFF1FA217B307F7
:204B0000E407F50720F0A21BB30BE40BF50B661F771F881F991F1A9469F76095709580959D
:204B200090959B01AC01BD01CF010895A29FB001B39FC001A39F700D811D1124911DB29F46
:204B4000700D811D1124911D08950E949625A59F900DB49F900DA49F800D911D112408953C
:204B6000EE0FFF1F0590F491E02D09940F931F93CF93DF938230910510F482E090E0E0919F
:204B80000622F091072220E030E0A0E0B0E0309719F1408151810281138148175907C8F031
:204BA0008417950769F4109731F012960C93129713961C9327C0009306221093072222C001
:204BC0002115310519F04217530718F49A01BD01EF01DF01F801DBCF21153105F9F0281B3D
:204BE000390B2430310580F48A819B816115710521F0FB018283938304C080930622909316
:204C00000722FE01329644C0FE01E20FF31F8193919322503109288339833AC02091042282
:204C200030910522232B41F4209102203091032020930422309305222091002030910120DC
:204C40002115310541F42DB73EB74091042050910520241B350BE0910422F0910522E21728
:204C6000F307A0F42E1B3F0B2817390778F0AC014E5F5F4F2417350748F04E0F5F1F4093C7
:204C80000422509305228193919302C0E0E0F0E0CF01DF91CF911F910F910895CF93DF93F9
:204CA000009709F481C0FC01329712821382A0910622B0910722109781F420813181820F6D
:204CC000931F20910422309105222817390751F5E0930422F093052267C0ED0120E030E036
:204CE000CE17DF0740F44A815B819E0141155105F1F0EA01F5CFC283D38340815181840F72
:204D0000951FC817D90759F488819981840F951F0296808391838A819B8182839383211542
:204D2000310529F4E0930622F09307223DC0E901EA83FB8349915991C40FD51FEC17FD0775
:204D400061F480819181840F951F0296E90188839983828193818A839B83E0E0F0E0129681
:204D60008D919C911397009719F0FD01DC01F7CF8D919C9111979D012E5F3F4F820F931F0E
:204D800020910422309105222817390769F4309729F4109206221092072202C01282138214
:204DA000A0930422B0930522DF91CF9108958F929F92AF92BF92CF92DF92EF92FF92CF9399
:204DC000DF93EC01688179818A819B81611571058105910521F464E279ED8BE597E02DE1AC
:204DE00033EF41E050E00E94432749015A019B01AC01A7EAB1E40E94A5256B017C01ACEE31
:204E0000B4EFA50194010E946527DC01CB018C0D9D1DAE1DBF1DB7FF03C00197A109B04830
:204E200088839983AA83BB839F77DF91CF91FF90EF90DF90CF90BF90AF909F908F900895A5
:204E40000E94D726089586E090E20E94D7260895A0E0B0E08093062090930720A093082014
:204E6000B09309200895FB01DC0102C001900D9241505040D8F70895DC0101C06D934150A2
:204E80005040E0F70895052E97FB1EF400940E945A2757FD07D00E94742507FC03D04EF402
:204EA0000C945A2750954095309521953F4F4F4F5F4F089590958095709561957F4F8F4F44
:204EC0009F4F0895B7FF0C94A5250E94A525821B930B0895F894FFCF00000822200001003E
:204EE000000001003D8F60082ACC00C80202FFCC00C80505FF00000000B721B721550257C1
:204F000002000000000203FF02F8020B03000000000F040C0416048F06000000000F040C90
:204F20000416048F06000000000F040C0416048F06000000000F040C041207190700000090
:204F400000B2155508E4085F0800000000B215350B4D0D3F0B00000000B215B3154211F05D
:204F60001100000000AF120F12B513151200000000DE1400000000B215B315B515B6150039
:204F8000000000481C00062006400660068006EA21EA21EA21EA21EA21EA21EA21E007001B
:044FA00067632F0014
:00000001FF
