:108000000C940E410C9460410C9460410C946041BE
:108010000C9460410C9460410C9460410C9460415C
:108020000C9460410C9460410C9460410C9460414C
:108030000C9460410C9460410C9460410C9460413C
:108040000C9460410C9460410C9460410C9460412C
:108050000C9460410C9460410C9460410C9460411C
:108060000C9460410C9460410C9460410C9460410C
:108070000C9460410C9460410C9460410C946041FC
:108080000C9460410C9460410C9460410C946041EC
:108090000C9460410C9460410C9460410C946041DC
:1080A0000C9460410C9460410C9460410C946041CC
:1080B0000C9460410C9460410C9460410C946041BC
:1080C0000C9460410C9460410C9460410C946041AC
:1080D0000C9460410C9460410C9460410C9460419C
:1080E0000C9460410C9460410C9460410C9460418C
:1080F0000C9460410C9460410C9460410C9460417C
:108100000C9460410C9460410C9460410C9460416B
:108110000C9460410C9460410C9460410C9460415B
:108120000C9460410C9460410C9460410C9460414B
:108130000C9460410C9460410C9460410C9460413B
:108140000C9460410C9460410C9460410C9460412B
:108150000C9460410C9460410C9460410C9460411B
:108160000C9460410C9460410C9460410C9460410B
:108170000C9460410C9460410C9460410C946041FB
:108180000C9460410C9460410C9460410C946041EB
:108190000C9460410C9460410C9460410C946041DB
:1081A0000C9460410C9460410C9460410C946041CB
:1081B0000C9460410C9460410C9460410C946041BB
:1081C0000C9460410C9460410C9460410C946041AB
:1081D0000C9460410C9460410C9460410C9460419B
:1081E0000C9460410C9460410C9460410C9460418B
:1081F0000C9460410C9460410C946041244D4F44B8
:108200002420484257426F6F7465720000100000CE
:10821000010EB30080420F43B2461E4711241FBE19
:10822000CFEFCDBFDFE2DEBF80E08CBF84E20E94F3
:108230003D4360E081E490E00E9422438091500041
:108240008660809350008091510086708630D9F707
:1082500060914000687F616080E490E00E9422436A
:1082600080914000809150008E7F809350008091DB
:1082700050008091600081608093600010E2A0E077
:10828000B0E2E0E9FFE802C005900D92AC30B10722
:10829000D9F721E2ACE0B0E201C01D92A939B207E2
:1082A000E1F711E4CEE0D1E404C02197FE010E9481
:1082B0008447CA30D107C9F70E94E0410C94C647F1
:1082C0000C940040FC01638172818181908108954A
:1082D000CF92DF92EF92FF92CF93DF93CDB7DEB7CD
:1082E0006C97CDBFDEBF28E130E0AE014F5F5F4F3E
:1082F0006CEF71E080E090E00E94C046489709F082
:1083000051C08F89833B19F0803B09F04BC08989AC
:108310009A89AB89BC890197A109B1091092C00162
:108320001092C1011092C2018093C401492F5A2FAB
:108330006B2F77274093C501CD01AA27BB278093D8
:10834000C6018AE30E9422479091C6018091C5012F
:10835000C090C401D12CE12CF12CE92A90E0982F97
:108360008827A0E0B0E0C82AD92AEA2AFB2A10927E
:10837000CA0169897A898B899C8924E030E0AE0141
:10838000475E5F4F0E94C046898D9A8DAB8DBC8D34
:108390008C159D05AE05BF0529F48D89813011F43A
:1083A000809310206C96CDBFDEBFDF91CF91FF9000
:1083B000EF90DF90CF9008951CBEE0E0F0E00994CC
:1083C000CF93DF9300D000D0CDB7DEB780E090E050
:1083D0000E949347882329F060E080E090E00E94AB
:1083E000A34760E074E082E00E948F428091CF0159
:1083F00087FDFCCF8091CC0188608093CC018CE01C
:1084000090E280937F2190938021E0910E20F09163
:108410000F20178287E6868383E2858388E1848341
:1084200083EB8093182180E090E180931621909354
:1084300017218091061090910710A0910810B0911B
:10844000091089839A83AB83BC83CE0101960E9475
:1084500062418B019C011D532F483046003816495C
:108460002849310540F460930020709301208093E7
:108470000220909303208091152182608093152122
:108480000E9468418FE7F82E80911020882321F008
:108490008091780085FF31C08091152180FF07C051
:1084A0008E7F80931521F09278000E9468410E948F
:1084B00036458C010097C9F0FC01808180FF04C023
:1084C00081E09585973709F080E08093112088231B
:1084D00021F0109210200E94E442C8010E94D8436B
:1084E000882319F0C8010E941E460E9448438091CB
:1084F00011200E94EF42A895C7CF0E94DC41CCCF4B
:108500008CE090E20C94D7429091010490FDFCCF56
:1085100090910004987F892B8093000408958091A6
:108520004300817F8560809343008091080490918F
:1085300009042091010420FDFCCF2FEF3FEF209391
:108540000A0430930B042091010420FDFCCF80939A
:108550000804909309048091010480FDFCCF1092DF
:108560000C0410920D0481E00C9484428091080464
:108570009091090408952091080430910904FC01A8
:1085800040815181C901841B950B2417350728F4BC
:10859000019797FF02C080E090E0089581E0662394
:1085A00019F08093E50708958093E607089528E081
:1085B00030E2FC012083318320EA3AE022833383D6
:1085C00082E08093E1070895809114208F5F8230CC
:1085D00018F480931420089510921420089588238D
:1085E00069F08091E407E0911420F0E0E65FFF4D30
:1085F0008D7F9081892B8093E407089582E190E23A
:108600000E94BB42853F914048F082E08093E7079B
:108610000E94B64280931220909313200895E0EEBA
:10862000F7E081E082838183E0E8F6E084E0828302
:1086300088E0828381830E94B642809312209093C7
:1086400013200895FC019FB7F8941BBE88ED84BFEA
:1086500060839FBF0895CF93DF93EC010E94B642E1
:1086600085E5FE0111928A95E9F7DF91CF91089592
:108670008091CF0187FDFCCF0895682F636080E86B
:1086800090E00E9422438091820080FDFCCF0895FB
:108690004F925F926F927F92AF92BF92CF92DF9292
:1086A000EF92FF920F931F93CF93DF93CDB7DEB777
:1086B000C555D109CDBFDEBF8091152181FF65C0B1
:1086C0008CE791E20E94BB42089708F45EC0E091FB
:1086D0001621F0911721108100911821C0900020DF
:1086E000D0900120E0900220F0900320CE0101966E
:1086F0000E942B43C986DA86EB86FC868FEF9FEFBC
:10870000DC018C839D83AE83BF8388EF888781E4FF
:108710008E871F86088B198B81E08A8B8EE08B8B6E
:1087200088E48C8B82E48D8B87E58E8B8E01025ED4
:108730001F4F5E01F7E1AF0EB11C8AE0482E512CAD
:10874000612C712CC701B601A30192010E946247FE
:10875000605DF80162938F01C114D104E104F1045A
:1087600021F4A016B10671F703C069017A01F9CFAF
:1087700080E18D87CE0101960E941E46811105C0C1
:10878000809115218D7F80931521CB5ADF4FCDBF6E
:10879000DEBFDF91CF911F910F91FF90EF90DF909F
:1087A000CF90BF90AF907F906F905F904F90089563
:1087B000CF92DF92EF92FF920F931F93CF93DF93AD
:1087C000EC010E945544182F882309F463C08F815F
:1087D00080FD60C0888180FF5DC08D85833449F055
:1087E000873759F0853709F055C08091152182608F
:1087F00034C080911521816030C08C85873008F4A9
:1088000049C0888999899827892798276C01092E5A
:10881000000CEE08FF080A899927402F50E0BE019E
:108820006D5E7F4F8B5E9F4D0E948A47D701C601C8
:10883000800F911DA11DB11D811111C0C701B6018D
:1088400066278827992720E031E045E150E20E9421
:10885000ED4681159140F1F402C080931521888581
:108860009985AA85BB858B839C83AD83BE838091CC
:10887000002090910120A0910220B09103208887D0
:108880009987AA87BB878F811C86829580768961AC
:108890008F8301C010E0812FDF91CF911F910F9145
:1088A000FF90EF90DF90CF900895FC01208120FF92
:1088B00017C0438154816581768180910020909119
:1088C0000120A0910220B0910320481759076A07A0
:1088D0007B0741F081E04F3F5F4F6F4F7F4F19F0B3
:1088E00080E0089581E00895FB0198E04081518186
:1088F0009A01220F331F87FD21602083318357FFA8
:1089000008C02081318142E0242740E134272083C0
:108910003183880F915051F70895CF93DF93FC0175
:10892000208121FF13C0EC0103960E9462416B83FA
:108930007C838D839E83CE0108960E946241688766
:1089400079878A879B8788818D7F8883DF91CF9104
:108950000895CF93C82F0E94B64280937C219093B4
:108960007D2180917421CC3F21F48160809374211A
:1089700079C0CD3FD1F482608E7F809374211092B4
:1089800072218FEF9FEF80937021909371218091DE
:1089900019218E7F8260809319211092252160E732
:1089A00071E28DEF0E9474445DC081FF5BC080FF67
:1089B00004C0C0688E7F8093742160E771E28C2FC1
:1089C0000E94744440917221E42FF0E0E45EFE4D79
:1089D000C083443049F480912021982F97709330C0
:1089E000C9F183FF37C039C080912521493041F456
:1089F000893498F1809174218D7F809374212DC0EA
:108A000050E060E070E090E0A0E0B0E00996A11DC9
:108A1000B11D481759076A077B07F9F48091702147
:108A200090917121892BC9F489E191E20E948D44D2
:108A300080912521825080932521809174218D7F02
:108A4000809374218091192181608093192189E19B
:108A500091E20AC088E080937221809172218F5F39
:108A60008093722180E090E0CF910895E0917F2182
:108A7000F0918021309779F00280F381E02D81819F
:108A800087FF09C0818187FFFDCF918180819C7123
:108A900011F40C94A94480E090E00895EF92FF92C5
:108AA0000F931F93CF93DF93C0917521D0917621BF
:108AB000209709F4B6C08C019091792180917B2197
:108AC000911129C081FD27C0826080937B218FEFA7
:108AD0009FEF8093772190937821888181FD13C047
:108AE000CE0103960E9462416B837C838D839E83BB
:108AF000CE0108960E946241688779878A879B87A2
:108B00008881826088838DEFF801808367E771E256
:108B10000E94744481C081FF81C07E01F3E0EF0EAA
:108B2000F11CF701E90FF11D8081F801808340916C
:108B30007921443049F48F81982F9770933009F44C
:108B400072C083FF70C016C0493021F48E5FF801F7
:108B5000808310C050E060E070E08C8590E0A0E081
:108B6000B0E00B96A11DB11D84179507A607B707A6
:108B700008F457C080917B2180FD40C067E771E217
:108B8000F80180810E9474444091792150E060E0B6
:108B900070E08C8590E0A0E0B0E00996A11DB11DC9
:108BA000481759076A077B07E1F467E771E280E03D
:108BB0000E94744467E771E280E00E9474448091EF
:108BC00079218F5FF701E80FF11D80917821808373
:108BD000809179218E5FF701E80FF11D8091772157
:108BE0008083F80180818C5F833088F480917B21C1
:108BF000816080937B218CEF80830EC0F80180819F
:108C00008F77808380917B218E7F80937B218091E1
:108C100079218F5F8093792181E009C0CE010E9484
:108C20008D4480E004C088E080937921A3CFDF9158
:108C3000CF911F910F91FF90EF900895EF92FF92C7
:108C40001F93CF93DF931F92CDB7DEB77C01809146
:108C50007F2190918021892B69F08CE791E20E941D
:108C6000BB42089748F4D70117968C9187708130E2
:108C7000A1F702C081E06FC0E0927521F0927621E9
:108C80001092792180917B218D7F80937B21D70168
:108C900017968C9180FD06C0F70190819695969568
:108CA0009370B1F180917F2190918021DC01ED9151
:108CB000FC910190F081E02D61E0099510E0CE017A
:108CC00001960E944E45A0917F21B091802188237A
:108CD00089F089811296ED91FC911397948193FD0F
:108CE00005C012E0ECCF948193FF1BC0918195FFEA
:108CF000FACF17C01296ED91FC9113978181806491
:108D00008183818186FD0FC0848183FF0CC0F9CFF0
:108D100090917E219370990F897F892BF70187832A
:108D2000C1CF8083CCCFED91FC9111970190F08160
:108D3000E02D60E0CD01099511110AC0F70187818E
:108D400080FD08C080917E218F5F80937E2102C0CC
:108D5000812F01C080E00F90DF91CF911F91FF9094
:108D6000EF90089510927C2110927D210E94B642CE
:108D700085E5E9E1F1E2DF011D928A95E9F70895C1
:108D8000CF92DF92EF92FF926B017C01C20ED31E55
:108D9000E11CF11CC114E0E9DE06E104F104A0F4D9
:108DA000DA01420F531FA417B50789F06B017C014C
:108DB000EFEFCE1ADE0AEE0AFE0A8BBFFB016791C7
:108DC0006D93C701B601EFCF80E090E001C0C9010B
:108DD000FF90EF90DF90CF900895CF92DF92EF92C7
:108DE000FF92CF93DF9361110DC06B017C01C20E26
:108DF000D31EE11CF11CE1E0CE16E0E9DE06E10441
:108E0000F10418F080E090E012C0E9016B017C01F0
:108E1000CA010E9431478091CF0187FDFCCF45E216
:108E2000C701B6010E94DC471092CA01CE01DF9152
:108E3000CF91FF90EF90DF90CF9008958FEF8093C8
:108E400089210895E0ECF1E0928582878FB7F8944C
:108E50001BBE28ED24BF21E02093CB018FBF92875A
:108E60000895CF92DF92EF92FF92CF93DF937C0130
:108E70000E94384346E260E070E0CB010E94DC478C
:108E8000E701C12CD12C76018881498150E0542F13
:108E90004427480F511DC701B6010E94EB47229697
:108EA00082E0C80ED11CE11CF11CC11481E0D8067F
:108EB000E104F10449F7DF91CF91FF90EF90DF904B
:108EC000CF900895A1E21A2EAA1BBB1BFD010DC075
:108ED000AA1FBB1FEE1FFF1FA217B307E407F5076A
:108EE00020F0A21BB30BE40BF50B661F771F881F46
:108EF000991F1A9469F760957095809590959B01DC
:108F0000AC01BD01CF010895EE0FFF1F0590F49154
:108F1000E02D0994FB01DC0102C001900D9241504B
:108F20005040D8F7089503D0808199270895E0EC48
:108F3000F1E0378537FDFDCF348538603487FC019B
:108F4000E050F04F0895262FE0ECF1E0378537FD33
:108F5000FDCF3485377F3487378531FF09C036E34D
:108F6000328738ED34BF31E03387378537FDFDCFA9
:108F700033E33287808391831282248325E322871F
:108F800028ED31E024BF338701960895F894FFCF90
:0C8F9000003D8F6000000000CE42000297
:108FB8009BB78BBFFB018091CA014093CA017DE931
:108FC80070933400E8958093CA019BBF089520915F
:108FD800CF0127FDFCCF9BB78BBFFB018091CA0156
:108FE80023E22093CA010A01E89511248093CA015B
:048FF8009BBF08957E
:040000030000800079
:00000001FF
