:108000000C940E410C9460410C9460410C946041BE
:108010000C9460410C9460410C9460410C9460415C
:108020000C9460410C9460410C9460410C9460414C
:108030000C9460410C9460410C9460410C9460413C
:108040000C9460410C9460410C9460410C9460412C
:108050000C9460410C9460410C9460410C9460411C
:108060000C9460410C9460410C9460410C9460410C
:108070000C9460410C9460410C9460410C946041FC
:108080000C9460410C9460410C9460410C946041EC
:108090000C9460410C9460410C9460410C946041DC
:1080A0000C9460410C9460410C9460410C946041CC
:1080B0000C9460410C9460410C9460410C946041BC
:1080C0000C9460410C9460410C9460410C946041AC
:1080D0000C9460410C9460410C9460410C9460419C
:1080E0000C9460410C9460410C9460410C9460418C
:1080F0000C9460410C9460410C9460410C9460417C
:108100000C9460410C9460410C9460410C9460416B
:108110000C9460410C9460410C9460410C9460415B
:108120000C9460410C9460410C9460410C9460414B
:108130000C9460410C9460410C9460410C9460413B
:108140000C9460410C9460410C9460410C9460412B
:108150000C9460410C9460410C9460410C9460411B
:108160000C9460410C9460410C9460410C9460410B
:108170000C9460410C9460410C9460410C946041FB
:108180000C9460410C9460410C9460410C946041EB
:108190000C9460410C9460410C9460410C946041DB
:1081A0000C9460410C9460410C9460410C946041CB
:1081B0000C9460410C9460410C9460410C946041BB
:1081C0000C9460410C9460410C9460410C946041AB
:1081D0000C9460410C9460410C9460410C9460419B
:1081E0000C9460410C9460410C9460410C9460418B
:1081F0000C9460410C9460410C946041244D4F44B8
:108200002420484257426F6F7465720000100000CE
:108210000110B1007F420E43BB46274711241FBE09
:10822000CFEFCDBFDFE2DEBF80E08CBF84E20E94F3
:108230003D4360E081E490E00E9422438091500041
:108240008660809350008091510086708630D9F707
:1082500060914000687F616080E490E00E9422436A
:1082600080914000809150008E7F809350008091DB
:1082700050008091600081608093600010E2A0E077
:10828000B0E2E2EAFFE802C005900D92A631B10724
:10829000D9F721E2A6E1B0E201C01D92A33AB207EC
:1082A000E1F711E4CEE0D1E404C02197FE010E9481
:1082B0008D47CA30D107C9F70E94DF410C94CF47E0
:1082C0000C940040FC01638172818181908108954A
:1082D000CF92DF92EF92FF92CF93DF93CDB7DEB7CD
:1082E0006C97CDBFDEBF28E130E0AE014F5F5F4F3E
:1082F0006CEF71E080E090E00E94C946489709F079
:1083000050C08F89805B823008F04BC089899A8980
:10831000AB89BC890197A109B1091092C0011092E3
:10832000C1011092C2018093C401492F5A2F6B2FB3
:1083300077274093C501CD01AA27BB278093C601AB
:108340008AE30E942B479091C6018091C501C0909D
:10835000C401D12CE12CF12CE92A90E0982F882738
:10836000A0E0B0E0C82AD92AEA2AFB2A1092CA0162
:1083700069897A898B899C8924E030E0AE01475E67
:108380005F4F0E94C946898D9A8DAB8DBC8D8C152F
:108390009D05AE05BF0529F48D89813011F48093C8
:1083A0001A206C96CDBFDEBFDF91CF91FF90EF908A
:1083B000DF90CF9008951CBEE0E0F0E00994CF93E9
:1083C000DF9300D000D0CDB7DEB780E090E00E9410
:1083D0009C47882329F060E080E090E00E94AC4751
:1083E00060E074E082E00E948E428091CF0187FDC0
:1083F000FCCF8091CC0188608093CC0186E190E233
:108400008093892190938A21E0911820F09119207E
:10841000178287E6868383E2858388E1848381EB04
:108420008093222180E090E180932021909321216C
:108430008091061090910710A0910810B09109103A
:1084400089839A83AB83BC83CE0101960E946241EB
:108450008B019C011D532F4830460038164928498E
:10846000310540F460930020709301208093022036
:108470009093032080911F21826080931F210E948E
:1084800068418FE7F82E80911A20882321F080918F
:10849000780085FF31C080911F2180FF07C08E7F4B
:1084A00080931F21F09278000E9468410E943F450E
:1084B0008C010097C9F0FC01808180FF04C081E03D
:1084C0009585973709F080E080931B20882321F061
:1084D00010921A200E94E342C8010E94D8438823C8
:1084E00019F0C8010E9427460E94484380911B2032
:1084F0000E94EE42A895C7CF0E94DB41CCCF86E117
:1085000090E20C94D6429091010490FDFCCF9091A2
:108510000004987F892B8093000408958091430084
:10852000817F8560809343008091080490910904C5
:108530002091010420FDFCCF2FEF3FEF20930A0490
:1085400030930B042091010420FDFCCF809308049C
:10855000909309048091010480FDFCCF10920C04DB
:1085600010920D0481E00C94834280910804909154
:10857000090408952091080430910904FC01408108
:108580005181C901841B950B2417350728F40197E5
:1085900097FF02C080E090E0089582E0662319F022
:1085A00080938506089580938606089528E030E23A
:1085B000FC012083318320EA3AE0228333838FE376
:1085C00080934106089580911E208F5F8C3018F4AF
:1085D00080931E20089510921E200895882369F02C
:1085E00080914406E0911E20F0E0E65FFF4D807C24
:1085F0009081892B8093440608958CE190E20E943B
:10860000BA42853F914048F08FE3809347060E942D
:10861000B54280931C2090931D200895E0E8F6E079
:1086200084E0828388E08283818381E08283818306
:1086300082E0828381830E94B54280931C209093C4
:108640001D200895FC019FB7F8941BBE88ED84BFE0
:1086500060839FBF0895CF93DF93EC010E94B542E2
:1086600085E5FE0111928A95E9F7DF91CF91089592
:108670008091CF0187FDFCCF0895682F636080E86B
:1086800090E00E9422438091820080FDFCCF0895FB
:108690004F925F926F927F92AF92BF92CF92DF9292
:1086A000EF92FF920F931F93CF93DF93CDB7DEB777
:1086B000C555D109CDBFDEBF80911F2181FF65C0A7
:1086C00086E891E20E94BA42089708F45EC0E09101
:1086D0002021F0912121108100912221C0900020C1
:1086E000D0900120E0900220F0900320CE0101966E
:1086F0000E942B43C986DA86EB86FC868FEF9FEFBC
:10870000DC018C839D83AE83BF8388EF888781E4FF
:108710008E871F86088B198B81E08A8B80E18B8B7B
:1087200088E48C8B82E48D8B87E58E8B8E01025ED4
:108730001F4F5E01F7E1AF0EB11C8AE0482E512CAD
:10874000612C712CC701B601A30192010E946B47F5
:10875000605DF80162938F01C114D104E104F1045A
:1087600021F4A016B10671F703C069017A01F9CFAF
:1087700080E18D87CE0101960E942746811105C0B8
:1087800080911F218D7F80931F21CB5ADF4FCDBF5A
:10879000DEBFDF91CF911F910F91FF90EF90DF909F
:1087A000CF90BF90AF907F906F905F904F90089563
:1087B000CF92DF92EF92FF920F931F93CF93DF93AD
:1087C000EC010E945E44182F882309F46CC08F814D
:1087D00080FD69C0888180FF66C08D85833449F043
:1087E000873759F0853709F05EC080911F2182607C
:1087F00034C080911F21816030C08C85873008F49F
:1088000052C0888999899827892798276C01092E51
:10881000000CEE08FF080A899927402F50E0BE019E
:108820006D5E7F4F815E9F4D0E949347D701C601C9
:10883000800F911DA11DB11D811111C0C701B6018D
:1088400066278827992720E031E04FE150E20E9417
:10885000F6468115914039F502C080931F218B8126
:108860009C81AD81BE818F3F9F4FAF4FBF4FD9F0ED
:1088700088859985AA85BB858B839C83AD83BE83C0
:108880008091002090910120A0910220B0910320BE
:1088900088879987AA87BB878F811C868295807677
:1088A00089618F8301C010E0812FDF91CF911F91EB
:1088B0000F91FF90EF90DF90CF900895FC01208101
:1088C00020FF17C04381548165817681809100200B
:1088D00090910120A0910220B091032048175907E0
:1088E0006A077B0741F081E04F3F5F4F6F4F7F4F3B
:1088F00019F080E0089581E00895FB0198E040813F
:1089000051819A01220F331F87FD2160208331831B
:1089100057FF08C02081318142E0242740E13427FD
:1089200020833183880F915051F70895CF93DF93BF
:10893000FC01208121FF13C0EC0103960E946241DB
:108940006B837C838D839E83CE0108960E94624157
:10895000688779878A879B8788818D7F8883DF9165
:10896000CF910895CF93C82F0E94B542809386215E
:108970009093872180917E21CC3F21F48160809368
:108980007E2179C0CD3FD1F482608E7F80937E219D
:1089900010927C218FEF9FEF80937A2190937B211F
:1089A000809123218E7F82608093232110922F213A
:1089B0006AE771E28DEF0E947D445DC081FF5BC07C
:1089C00080FF04C0C0688E7F80937E216AE771E2D9
:1089D0008C2F0E947D4440917C21E42FF0E0EA5DE1
:1089E000FE4DC083443049F480912A21982F97701E
:1089F0009330C9F183FF37C039C080912F214930AE
:108A000041F4893498F180917E218D7F80937E217D
:108A10002DC050E060E070E090E0A0E0B0E009968A
:108A2000A11DB11D481759076A077B07F9F480910A
:108A30007A2190917B21892BC9F483E291E20E94F3
:108A4000964480912F21825080932F2180917E2106
:108A50008D7F80937E2180912321816080932321CB
:108A600083E291E20AC088E080937C2180917C219E
:108A70008F5F80937C2180E090E0CF910895E0911A
:108A80008921F0918A21309779F00280F381E02DDD
:108A9000818187FF09C0818187FFFDCF918180811E
:108AA0009C7111F40C94B24480E090E00895EF9230
:108AB000FF920F931F93CF93DF93C0917F21D091AB
:108AC0008021209709F4B6C08C0190918321809178
:108AD0008521911129C081FD27C082608093852165
:108AE0008FEF9FEF8093812190938221888181FD78
:108AF00013C0CE0103960E9462416B837C838D83F9
:108B00009E83CE0108960E946241688779878A8792
:108B10009B878881826088838DEFF801808361E87C
:108B200071E20E947D4481C081FF81C07E01F3E03B
:108B3000EF0EF11CF701E90FF11D8081F801808330
:108B400040918321443049F48F81982F977093305E
:108B500009F472C083FF70C016C0493021F48E5FE3
:108B6000F801808310C050E060E070E08C8590E0F8
:108B7000A0E0B0E00B96A11DB11D84179507A607D4
:108B8000B70708F457C08091852180FD40C061E897
:108B900071E2F80180810E947D444091832150E080
:108BA00060E070E08C8590E0A0E0B0E00996A11D47
:108BB000B11D481759076A077B07E1F461E871E2C4
:108BC00080E00E947D4461E871E280E00E947D4483
:108BD000809183218F5FF701E80FF11D8091822141
:108BE0008083809183218E5FF701E80FF11D8091D2
:108BF00081218083F80180818C5F833088F48091AB
:108C000085218160809385218CEF80830EC0F801DF
:108C100080818F778083809185218E7F80938521CD
:108C2000809183218F5F8093832181E009C0CE01F1
:108C30000E94964480E004C088E080938321A3CF03
:108C4000DF91CF911F910F91FF90EF900895EF92D8
:108C5000FF921F93CF93DF931F92CDB7DEB77C01B6
:108C60008091892190918A21892B69F086E891E28F
:108C70000E94BA42089748F4D70117968C918770E2
:108C80008130A1F702C081E06FC0E0927F21F092B5
:108C9000802110928321809185218D7F8093852171
:108CA000D70117968C9180FD06C0F70190819695AB
:108CB00096959370B1F18091892190918A21DC0180
:108CC000ED91FC910190F081E02D61E0099510E0BB
:108CD000CE0101960E945745A0918921B0918A2129
:108CE000882389F089811296ED91FC9113979481E4
:108CF00093FD05C012E0ECCF948193FF1BC09181DE
:108D000095FFFACF17C01296ED91FC9113978181D0
:108D100080648183818186FD0FC0848183FF0CC0C4
:108D2000F9CF909188219370990F897F892BF70152
:108D30008783C1CF8083CCCFED91FC9111970190B7
:108D4000F081E02D60E0CD01099511110AC0F70115
:108D5000878180FD08C0809188218F5F8093882162
:108D600002C0812F01C080E00F90DF91CF911F9151
:108D7000FF90EF90089510928621109287210E9413
:108D8000B54285E5E3E2F1E2DF011D928A95E9F75C
:108D90000895CF92DF92EF92FF926B017C01C20E99
:108DA000D31EE11CF11CC114E0E9DE06E104F1046C
:108DB000A0F4DA01420F531FA417B50789F06B0125
:108DC0007C01EFEFCE1ADE0AEE0AFE0A8BBFFB0132
:108DD00067916D93C701B601EFCF80E090E001C0CD
:108DE000C901FF90EF90DF90CF900895CF92DF926E
:108DF000EF92FF92CF93DF9361110DC06B017C0165
:108E0000C20ED31EE11CF11CE1E0CE16E0E9DE0645
:108E1000E104F10418F080E090E012C0E9016B0178
:108E20007C01CA010E943A478091CF0187FDFCCFA7
:108E300045E2C701B6010E94DC471092CA01CE018B
:108E4000DF91CF91FF90EF90DF90CF9008958FEF5B
:108E5000809393210895E0ECF1E0928582878FB7AB
:108E6000F8941BBE28ED24BF21E02093CB018FBFD7
:108E700092870895CF92DF92EF92FF92CF93DF9384
:108E80007C010E94384346E260E070E0CB010E9422
:108E9000DC47E701C12CD12C76018881498150E063
:108EA000542F4427480F511DC701B6010E94EB47BC
:108EB000229682E0C80ED11CE11CF11CC11481E095
:108EC000D806E104F10449F7DF91CF91FF90EF90CC
:108ED000DF90CF900895A1E21A2EAA1BBB1BFD01C3
:108EE0000DC0AA1FBB1FEE1FFF1FA217B307E40789
:108EF000F50720F0A21BB30BE40BF50B661F771FE1
:108F0000881F991F1A9469F76095709580959095C0
:108F10009B01AC01BD01CF010895EE0FFF1F05902D
:108F2000F491E02D0994FB01DC0102C001900D9247
:108F300041505040D8F7089503D080819927089573
:108F4000E0ECF1E0378537FDFDCF348538603487BC
:108F5000FC01E050F04F0895262FE0ECF1E037855A
:108F600037FDFDCF3485377F3487378531FF09C022
:108F700036E3328738ED34BF31E03387378537FD4C
:108F8000FDCF33E33287808391831282248325E3EC
:108F9000228728ED31E024BF338701960895F894A5
:028FA000FFCF01
:108FA200003D8F6000000000CD4200010515353DF7
:068FB2003F3E3A2A0A02CC
:108FB8009BB78BBFFB018091CA014093CA017DE931
:108FC80070933400E8958093CA019BBF089520915F
:108FD800CF0127FDFCCF9BB78BBFFB018091CA0156
:108FE80023E22093CA010A01E89511248093CA015B
:048FF8009BBF08957E
:040000030000800079
:00000001FF
