:108000000C9406407C4114421846B14611241FBE10
:10801000CFEFCDBFDFE2DEBF80E08CBF67E280E85C
:1080200090E00E94CA418091820080FDFCCF60E018
:1080300081E490E00E94CA41809150008660809364
:1080400050008091510086708630D9F760914000D1
:10805000687F616080E490E00E94CA4180914000A6
:10806000809150008E7F80935000809150008091CD
:10807000600081608093600010E2A0E0B0E2E6EB77
:10808000FEE802C005900D92AC30B107D9F720E2AE
:10809000ACE0B0E201C01D92A939B207E1F710E4EB
:1080A000C6E0D0E404C02197FE010E941747C23009
:1080B000D107C9F70E94DC400C945947FC01638149
:1080C0007281818190810895CF92DF92EF92FF9229
:1080D000CF93DF93CDB7DEB76C97CDBFDEBF28E17E
:1080E00030E0AE014F5F5F4F6CEF71E080E090E0F9
:1080F0000E942646489709F051C08F898D7F803BAA
:1081000009F04CC089899A89AB89BC890197A1097A
:10811000B1091092C0011092C1011092C201809366
:10812000C401492F5A2F6B2F77274093C501CD01EA
:10813000AA27BB278093C6018AE30E94B546909187
:10814000C6018091C501C090C401D12CE12CF12C55
:10815000E92A90E0982F8827A0E0B0E0C82AD92A21
:10816000EA2AFB2A1092CA0169897A898B899C893B
:1081700024E030E0AE01475E5F4F0E942646898DC5
:108180009A8DAB8DBC8D8C159D05AE05BF0531F468
:108190008D89823019F481E0809310206C96CDBFD8
:1081A000DEBFDF91CF91FF90EF90DF90CF900895E9
:1081B0001CBEE0E0F0E00994CF93DF9300D000D044
:1081C000CDB7DEB780E090E00E942647813029F0ED
:1081D00061E080E090E00E94364760E074E082E079
:1081E0000E948B418091CF0187FDFCCF8091CC0113
:1081F00088608093CC018CE090E280937F20909304
:108200008020E0910E20F0910F20178287E6868370
:1082100083E2858388E1848382EB8093182080E069
:1082200090E18093162090931720809106109091F2
:108230000710A0910810B091091089839A83AB832D
:10824000BC83CE0101960E945E408B019C011D53B0
:108250002F483046003816492849310540F46093CC
:10826000002070930120809302209093032080913E
:1082700015208260809315200E9464408FE7F82EBD
:1082800080911020882321F08091780085FF31C0F3
:108290008091152084FF07C08F7E80931520F09277
:1082A00078000E9464400E9493448C010097C9F0BA
:1082B000FC01808180FF04C081E09585973709F03B
:1082C00080E080931120882321F0109210200E94DA
:1082D000E941C8010E94D242882319F0C8010E94D6
:1082E00084450E944242809111200E94F441A89549
:1082F000C7CF0E94D840CCCF8CE090E20C94DC41F8
:108300009091010490FDFCCF90910004987F892BFF
:1083100080930004089580914300817F856080935D
:10832000430080910804909109042091010420FDEC
:10833000FCCF2FEF3FEF20930A0430930B042091E2
:10834000010420FDFCCF80930804909309048091E0
:10835000010480FDFCCF10920C0410920D0481E00A
:108360000C94804180910804909109040895209113
:10837000080430910904FC0140815181C901841B2A
:10838000950B2417350728F4019797FF02C080E06A
:1083900090E00895FC019FB7F8941BBE88ED84BF60
:1083A00060839FBF089581E0662319F08093E507FD
:1083B00008958093E607089528E030E2FC012083C9
:1083C000318320EA3AE02283338380E480930106FC
:1083D0000895809114208F5F823018F480931420C8
:1083E0000895109214200895882369F0809104065E
:1083F000E0911420F0E0E65FFF4D8F7B9081892BA8
:1084000080930406089582E190E20E94B741853F7F
:10841000914048F080E4809307060E94B241809327
:108420001220909313200895E0EEF7E081E082831C
:108430008183E0E8F6E084E0828388E082838183C0
:108440000E94B24180931220909313200895CF93FD
:10845000DF93EC010E94B24185E5FE0111928A95FD
:10846000E9F7DF91CF910895FC01808180FF03C07F
:1084700081E09585961380E008958091CF0187FD76
:10848000FCCF08954F925F926F927F92AF92BF920E
:10849000CF92DF92EF92FF920F931F93CF93DF93D0
:1084A000CDB7DEB7C555D109CDBFDEBF8091152050
:1084B00081FF65C08CE790E20E94B741089708F4FD
:1084C0005EC0E0911620F0911720108100911820D5
:1084D000C0900020D0900120E0900220F090032076
:1084E000CE0101960E942742C986DA86EB86FC8679
:1084F0008FEF9FEFDC018C839D83AE83BF8388EF7A
:10850000888781E48E871F86088B198B82E08A8B8F
:1085100084E08B8B88E48C8B82E48D8B87E58E8B5B
:108520008E01025E1F4F5E01F7E1AF0EB11C8AE0C3
:10853000482E512C612C712CC701B601A301920168
:108540000E94F546605DF80162938F01C114D10469
:10855000E104F10421F4A016B10671F703C069012A
:108560007A01F9CF80E18D87CE0101960E94844582
:10857000811105C0809115208D7F80931520CB5AE5
:10858000DF4FCDBFDEBFDF91CF911F910F91FF90E5
:10859000EF90DF90CF90BF90AF907F906F905F9003
:1085A0004F900895EF92FF920F931F93CF93DF9315
:1085B000EC010E94B243082F882309F4CAC08F81BE
:1085C00080FDC7C065E7CE010E943442882321F0B8
:1085D00080911520886022C062E5CE010E9434425D
:1085E000882399F08C85843009F0B3C01889412F15
:1085F00050E06E857F857627672776277061CE01EC
:108600000D960E941D471C8752C067E6CE010E944E
:108610003442882331F080911520806180931520A9
:108620002AC060E7CE010E943442882329F01D86CB
:1086300080E48E8782E03AC067E7CE010E94344230
:108640008823D9F08C85843008F483C0E888F12C25
:108650006E857F85762767277627072E000C880B87
:10866000990B9701AE014F5E5F4F0E945346E8168B
:10867000F90609F06EC011E01BC062E7CE010E944E
:108680003442882309F465C08C85843009F061C0C8
:10869000288930E06E857F8576276727762780E0FA
:1086A00090E0AE01435F5F4F0E9426468C8710E04A
:1086B0008B819C81AD81BE818F3F9F4FAF4FBF4F5C
:1086C00009F447C08091152086FF06C065E7CE01FA
:1086D0000E9434428823E9F12F81822F87708330F2
:1086E00021F023FB222720F901C020E0888599850D
:1086F000AA85BB858B839C83AD83BE83809100203C
:1087000090910120A0910220B09103208887998741
:10871000AA87BB878F8186958370112321F099E109
:108720009F831C8602C098E99F838370982F92953F
:10873000990F907E8F818F79892B8F83211102C0B1
:10874000877F8F8381E02827888120FB84F98883B5
:1087500001C000E0802FDF91CF911F910F91FF901A
:10876000EF900895FC01208120FF17C043815481C0
:10877000658176818091002090910120A091022056
:10878000B0910320481759076A077B0741F081E041
:108790004F3F5F4F6F4F7F4F19F080E0089581E0AA
:1087A0000895FB0198E0408151819A01220F331F07
:1087B00087FD21602083318357FF08C020813181EC
:1087C00042E0242740E1342720833183880F9150F1
:1087D00051F70895CF93DF93FC01208121FF13C04F
:1087E000EC0103960E945E406B837C838D839E83A5
:1087F000CE0108960E945E40688779878A879B87AA
:1088000088818D7F8883DF91CF910895CF93C82F82
:108810000E94B24180937C2090937D2080917420AF
:10882000CC3F21F481608093742079C0CD3FD1F496
:1088300082608E7F80937420109272208FEF9FEF62
:108840008093702090937120809119208E7F826098
:10885000809319201092252060E770E28DEF0E942E
:10886000D1435DC081FF5BC080FF04C0C0688E7FC4
:108870008093742060E770E28C2F0E94D143409176
:108880007220E42FF0E0E45EFF4DC083443049F4F1
:1088900080912020982F97709330C9F183FF37C0C3
:1088A00039C080912520493041F4893498F1809174
:1088B00074208D7F809374202DC050E060E070E0C4
:1088C00090E0A0E0B0E00996A11DB11D481759073E
:1088D0006A077B07F9F48091702090917120892BB1
:1088E000C9F489E190E20E94EA43809125208250F8
:1088F00080932520809174208D7F809374208091B7
:10890000192081608093192089E190E20AC088E0F3
:1089100080937220809172208F5F8093722080E01C
:1089200090E0CF910895E0917F20F09180203097E2
:1089300079F00280F381E02D818187FF09C0818178
:1089400087FFFDCF918180819C7111F40C940644C6
:1089500080E090E008950F931F93CF93DF93C09131
:108960007520D0917620209709F4BCC08C0190919D
:10897000792080917B2091112EC081FD2CC08260D6
:1089800080937B208FEF9FEF8093772090937820C8
:10899000888181FD13C0CE0103960E945E406B83E7
:1089A0007C838D839E83CE0108960E945E406887FB
:1089B00079878A879B87888182608883888184FD04
:1089C00002C08DEF01C08EEFF801808367E770E28F
:1089D0000E94D14382C081FF82C0888184FF84C00D
:1089E000911182C0F801108283E080937920409138
:1089F0007920443049F48F81982F9770933009F48F
:108A00007AC083FF78C017C0493029F4F80180810B
:108A10008E5F808310C050E060E070E08C8590E055
:108A2000A0E0B0E00B96A11DB11D84179507A60725
:108A3000B70708F457C080917B2080FD40C067E7EE
:108A400070E2F80180810E94D1434091792050E08A
:108A500060E070E08C8590E0A0E0B0E00996A11D98
:108A6000B11D481759076A077B07E1F467E770E211
:108A700080E00E94D14367E770E280E00E94D1432A
:108A80002396809179208F5FFE01E80FF11D809180
:108A900078208083809179208E5FC80FD11D8091CE
:108AA00077208883F80180818C5F833088F48091FF
:108AB0007B20816080937B208CEF80830EC0F80147
:108AC00080818F77808380917B208E7F80937B2035
:108AD000809179208F5F8093792081E010C0CE0152
:108AE0000E94EA4380E00BC0FE01E90FF11D838183
:108AF000F80180837CCF88E0809379209CCFDF9140
:108B0000CF911F910F910895EF92FF921F93CF93F2
:108B1000DF931F92CDB7DEB77C0180917F209091CB
:108B20008020892B69F08CE790E20E94B74108977A
:108B300048F4D70117968C9187708130A1F702C055
:108B400081E06FC0E0927520F0927620109279203B
:108B500080917B208D7F80937B20D70117968C910D
:108B600080FD06C0F7019081969596959370B1F1BE
:108B700080917F2090918020DC01ED91FC9101900B
:108B8000F081E02D61E0099510E0CE0101960E9490
:108B9000AB44A0917F20B0918020882389F0898107
:108BA0001296ED91FC911397948193FD05C012E00C
:108BB000ECCF948193FF1BC0918195FFFACF17C032
:108BC0001296ED91FC91139781818064818381815C
:108BD00086FD0FC0848183FF0CC0F9CF90917E2069
:108BE0009370990F897F892BF7018783C1CF808389
:108BF000CCCFED91FC9111970190F081E02D60E0D8
:108C0000CD01099511110AC0F701878180FD08C0C7
:108C100080917E208F5F80937E2002C0812F01C0D3
:108C200080E00F90DF91CF911F91FF90EF9008951A
:108C300010927C2010927D200E94B24185E5E9E1EE
:108C4000F0E2DF011D928A95E9F70895CF92DF9255
:108C5000EF92FF926B017C01C20ED31EE11CF11C4E
:108C6000C114E0E9DE06E104F104A0F4DA01420FE8
:108C7000531FA417B50789F06B017C01EFEFCE1AE3
:108C8000DE0AEE0AFE0A8BBFFB0167916D93C701F6
:108C9000B601EFCF80E090E001C0C901FF90EF90F6
:108CA000DF90CF9008958F929F92AF92BF92CF9214
:108CB000DF92EF92FF920F931F93CF93DF93CDB785
:108CC000DEB7DA95CDBFDEBF6B017C01C20ED31ECD
:108CD000E11CF11CE1E0CE16E0E8DE06E104F1045F
:108CE00070F589015A016B017C014B019924C81868
:108CF000D908E108F10820E031E0AE014F5F5F4F95
:108D0000C701B6010E942646A801B50181E090E0A6
:108D10008C0F9D1F880D991D0E941D47CE01019645
:108D20000E94C4468091CF0187FDFCCF45E2C70178
:108D3000B6010E94DC471092CA01C80102C080E05F
:108D400090E0D395CDBFDEBFDF91CF911F910F9102
:108D5000FF90EF90DF90CF90BF90AF909F908F905B
:108D600008958FEF809389200895E0ECF1E09285DB
:108D700082878FB7F8941BBE28ED24BF21E0209393
:108D8000CB018FBF92870895CF92DF92EF92FF922F
:108D9000CF93DF937C010E943D4246E260E070E0A9
:108DA000CB010E94DC47E701C12CD12C76018881E0
:108DB000498150E0542F4427480F511DC701B60187
:108DC0000E94EB47229682E0C80ED11CE11CF11CE8
:108DD000C11481E0D806E104F10449F7DF91CF9195
:108DE000FF90EF90DF90CF900895A1E21A2EAA1B7A
:108DF000BB1BFD010DC0AA1FBB1FEE1FFF1FA2174B
:108E0000B307E407F50720F0A21BB30BE40BF50B47
:108E1000661F771F881F991F1A9469F760957095D0
:108E2000809590959B01AC01BD01CF010895EE0F97
:108E3000FF1F0590F491E02D0994FB01DC0102C0B5
:108E400001900D9241505040D8F7089503D0808191
:108E500099270895E0ECF1E0378537FDFDCF3485A3
:108E600038603487FC01E050F04F0895262FE0EC85
:108E7000F1E0378537FDFDCF3485377F348737857F
:108E800031FF09C036E3328738ED34BF31E0338734
:108E9000378537FDFDCF33E332878083918312829C
:108EA000248325E3228728ED31E024BF3387019610
:068EB0000895F894FFCFC5
:0C8EB600003D8F6000000000D341004030
:108FB8009BB78BBFFB018091CA014093CA017DE931
:108FC80070933400E8958093CA019BBF089520915F
:108FD800CF0127FDFCCF9BB78BBFFB018091CA0156
:108FE80023E22093CA010A01E89511248093CA015B
:048FF8009BBF08957E
:040000030000800079
:00000001FF
