:100000000C9400010C9453010C9453010C94530173
:100010000C9453010C9453010C9453010C94530110
:100020000C9453010C9453010C9453010C947B05D4
:100030000C9453010C9453010C9453010C945301F0
:100040000C9453010C9453010C9453010C945301E0
:100050000C9453010C9453010C9453010C945301D0
:100060000C9453010C9453010C9453010C945301C0
:100070000C9453010C9453010C9453010C945301B0
:100080000C945C030C9453010C9453010C94530195
:100090000C9453010C9453010C9453010C94530190
:1000A0000C9453010C9453010C9453010C94530180
:1000B0000C9453010C9453010C9453010C94530170
:1000C0000C9453010C9453010C9453010C94530160
:1000D0000C9453010C9453010C9453010C94530150
:1000E0000C9453010C9453010C9453010C94530140
:1000F0000C9453010C9453010C9453010C94530130
:100100000C9453010C9453010C9453010C9453011F
:100110000C9453010C9453010C9453010C9453010F
:100120000C9453010C9453010C9453010C945301FF
:100130000C9453010C9453010C9453010C945301EF
:100140000C9453010C9453010C9453010C945301DF
:100150000C9453010C9453010C9453010C945301CF
:100160000C9453010C9453010C9453010C945301BF
:100170000C9453010C9453010C9453010C945301AF
:100180000C9453010C9453010C9453010C9453019F
:100190000C9453010C9453010C9453010C9453018F
:1001A0000C9453010C9453010C9453010C9453017F
:1001B0000C9453010C9453010C9453010C9453016F
:1001C0000C9453010C9453010C9453010C9453015F
:1001D0000C9453010C9453010C9453010C9453014F
:1001E0000C9453010C9453010C9453010C9453013F
:1001F0000C9453010C9453010C945301C901D70181
:1002000011241FBECFEFCDBFDFE2DEBF80E08CBF89
:1002100067E280E890E00E949E198091820080FD54
:10022000FCCF6091A2006F7B82EA90E00E949E1951
:1002300060E081E490E00E949E1980915000866009
:10024000809350008091510086708630D9F760917C
:100250004000687F616080E490E00E949E19809178
:10026000400010E2A0E0B0E2EAE5F2E402C005904E
:100270000D92AC39B107D9F725E2ACE9B0E201C083
:100280001D92AE37B207E1F710E0C0E0D1E004C044
:100290002197FE010E94871DCE3FD107C9F70E941A
:1002A0000C1D0C942B210C940000FC0163817281C5
:1002B0008181908108959C0183709927892B81F415
:1002C000C90164E670E00E94181D892B59F4C90128
:1002D00060E971E00E94181D9C0181E0232B19F058
:1002E00080E0089581E00895FF920F931F93CF93CC
:1002F000DF93EC01FB80F394FB820D811E81C8012A
:100300000E945B019C812CE0829FF0011124EB5F35
:10031000FF4DE90FF11D8081F8120FC01B829F5F16
:100320009C3011F09C8309C01C82093388E01807B7
:1003300020F40F5F1F4F0D831E838F818F5F8730E7
:1003400011F08F8301C01F82DF91CF911F910F9118
:10035000FF900895CF93FC01CFB7F89480818F5F11
:100360008C3311F0808312C0108281818F5F8C33B7
:1003700011F081830BC0118282818F5F883111F06F
:10038000828304C0CF0112820E947401CFBFCF913B
:100390000895ECE9F0E21082118212821382148235
:1003A00080ED97E08583968385E08783089580E0DC
:1003B00098EE8093A6209093A72080E094EF8093FE
:1003C000A4209093A52008951F93CF93DF93EC0171
:1003D000888182958F700E947103FC011085CE0187
:1003E0000E94EC038123DF91CF911F9108951F9309
:1003F000CF93DF93EC010E94EC03182F8881829544
:100400008F700E947103FC011683DF91CF911F91C1
:1004100008951F93CF93DF93EC010E94EC03182FF4
:10042000888182958F700E947103FC011583DF9192
:10043000CF911F9108951F93CF93DF93EC010E94FA
:10044000EC03182F888182958F700E947103FC0144
:100450001783DF91CF911F9108958091CF0187FD80
:10046000FCCF0895CF93DF93E0ECF1E032852FB716
:10047000F8948287A8E4B0E05C919C918C9180957F
:1004800089238C93C0EAD0E048819A818A81887F51
:1004900084608A838C9181608C93858568ED64BFCC
:1004A00061E0638763E06587789488955C9348830F
:1004B0009A83858732872FBFDF91CF9108950E945D
:1004C0002D028091CF0181FF03C086E30C9432029C
:1004D0000895CF93DF93D82FC091CA010E945F0285
:1004E0000E942D0283E38093CA011092C2011092F0
:1004F000C10180E08093C001D093C4018F5F80323E
:10050000C9F7C093CA01DF91CF9108956F927F928E
:100510008F929F92AF92BF92CF92DF92EF92FF9213
:100520000F931F93CF93DF938C016B017A0190514E
:100530008115944018F080E090E032C0CA019051DB
:10054000800F911F81159440B0F7612E812C912C62
:10055000902F9F7180E2782E791AA72CB12CE1148C
:10056000F104E9F0C72DEA14FB0408F4CE2D0E9433
:100570005F02D0E0AE01B601C8010E942F1E1092AA
:10058000C2016092C1010093C00185E30E94320262
:10059000CC0EDD1EEC1AFD0A8C0E9D1EE0CFC401B0
:1005A000DF91CF911F910F91FF90EF90DF90CF904F
:1005B000BF90AF909F908F907F906F900895FF9223
:1005C0000F931F93CF93DF931F92CDB7DEB78C01AC
:1005D00069838091CC0183FF11C0011580E1180768
:1005E00008F4105F41E050E0BE016F5F7F4FC8012B
:1005F0000E94860221E0892BF9F404C0011584E0F1
:10060000180710F020E018C0F090CA010E945F02A5
:100610000E942D0283E38093CA011092C2011093BD
:10062000C1010093C00189818093C40185E30E94C8
:100630003202F092CA0121E0822F0F90DF91CF9118
:100640001F910F91FF900895EF92FF920F931F93C8
:10065000CF93DF938A012091CC0123FF0EC0811537
:1006600020E1920708F4905FA801DF91CF911F91DC
:100670000F91FF90EF900C9486027B01EC01C61B5A
:10068000D70BCE018E0D9F1D0115110551F0F701FD
:1006900061917F010E94DF02882331F0015011092E
:1006A000F0CF80E090E001C0C801DF91CF911F91B1
:1006B0000F91FF90EF9008951F920F920FB60F9237
:1006C00011248F93EF93FF93E0ECF1E085858C7F0D
:1006D0008587FF91EF918F910F900FBE0F901F9024
:1006E0001895823081F038F4882309F18130A1F423
:1006F00080E296E00895843061F040F08C3061F43F
:1007000080EE97E0089580E496E0089580E696E014
:10071000089580E896E008958091C02081110AC074
:100720008FEF8093B02081E08093C02003C080E0F1
:1007300096E0089588EA90E20895833029F08430A5
:1007400051F0823029F003C080E099E00895FFCF96
:1007500080E098E0089580E09AE00895823041F0CA
:10076000833019F480E499E0089580E090E00895E2
:1007700080E498E008956295607F4F70642BFC01DF
:1007800060830895CF93DF93FC018081982F9F7041
:10079000C1E0D0E001C0CC0F9A95EAF782958F7046
:1007A0000E947103FC01C283DF91CF910895CF9322
:1007B000DF93FC018081982F9F70C1E0D0E001C0E1
:1007C000CC0F9A95EAF782958F700E947103FC0115
:1007D000C183DF91CF910895FC0190819F7081E0EA
:1007E00001C0880F9A95EAF70895FC018081282FAF
:1007F0002F7030E02430310524F482958F700C94F2
:100800009D0380E090E00895FC0180819CE0980FBA
:100810009F70923020F482958F700C94AE0380E02C
:1008200090E00895CF92DF92EF92FF921F93CF93C3
:10083000DF936C01142F79010E94BB03C6010E9453
:10084000D703C6010E94F503EC01C6010E9404040F
:10085000FC012097B1F08881807F84608883898142
:10086000887F83608983EEA2FFA229811C5F81E0DB
:1008700090E001C0880F1A95EAF7807F822B898368
:1008800016C0892BA1F08081807F84608083818164
:10089000887F83608183E6A2F7A2218181E090E0D6
:1008A00001C0880F1A95EAF78073822B8183DF914C
:1008B000CF911F91FF90EF90DF90CF9008950F930D
:1008C0001F93CF93DF938C010E94F503EC01C801C5
:1008D0000E9404042097A1F0F80180818F7019F420
:1008E00088A599A51CC0813019F48AA59BA517C0BD
:1008F000823019F48CA59DA512C08EA59FA50FC0AE
:10090000009759F0F80120812F70FC01243019F470
:1009100080A591A502C082A593A580E090E0DF911B
:10092000CF911F910F910895EF92FF921F93CF9354
:10093000DF937C01162F0E94F503EC01C7010E9492
:1009400004042097B1F0F70180818F70612F70E06F
:1009500019F468AF79AF1CC0813019F46AAF7BAF6E
:1009600017C0823019F46CAF7DAF12C06EAF7FAF8D
:100970000FC0009769F0F70120812F70612F70E0A0
:10098000FC01243019F460AF71AF02C062AF73AFE5
:10099000DF91CF911F91FF90EF9008959091010406
:1009A00090FDFCCF90910004987F892B80930004E8
:1009B00008951F93CF93DF93182FEB0180E00E94DF
:1009C000CE04809143008E7F80934300153031F434
:1009D000C115D04219F483E09EE002C081E094E0AA
:1009E00020914300217F2160922B9093430020911E
:1009F0000804309109043C5F4091080450910904B7
:100A00009091010490FDFCCF6FEF7FEF60930A049B
:100A100070930B049091010490FDFCCF4093080467
:100A2000509309049091010490FDFCCF20930C0495
:100A300030930D040E94CE0482E0809303048091E1
:100A400002048C6080930204DF91CF911F9108957E
:100A500031E02FB7F8944091030440FF0CC040915F
:100A6000C8205091C9204F5F5F4F4093C8205093DA
:100A7000C920309303044091080450910904BA013D
:100A80002FBF2091030420FDE4CF8091C8209091D6
:100A9000C9200895CF92DF92EF92FF920F931F9398
:100AA000CF93DF93EC010E942805088119812A81E8
:100AB0003B816B017C01C01AD10AE20AF30A60177C
:100AC00071078207930760F4C701B601615071098D
:100AD0008109910997FF06C060E070E0CB0102C078
:100AE000C701B601DF91CF911F910F91FF90EF9059
:100AF000DF90CF9008951F920F920FB60F9211249E
:100B00002F933F934F935F936F937F938F939F9315
:100B1000AF93BF93EF93FF9380910C0490910D04DA
:100B20009C5F2091010420FDFCCF80930C049093E6
:100B30000D048CE990E20E94AA0181E08093E7070E
:100B4000FF91EF91BF91AF919F918F917F916F91A5
:100B50005F914F913F912F910F900FBE0F901F907B
:100B600018952F923F924F925F926F927F928F9241
:100B70009F92AF92BF92CF92DF92EF92FF920F932C
:100B80001F93CF93DF9300D000D0CDB7DEB74C01D9
:100B90005B01D42E2A8309831B821C82212C312CD9
:100BA000D40112968C91129790E0281639060CF019
:100BB00046C013968D919C911497EB81FC818E0F0A
:100BC0009F1FDC012C912F3F89F12D112FC0019621
:100BD0000E9455012B013C01C5010E940F0FF40139
:100BE00023813481D501ED91FC91AB81BC81A20FB1
:100BF000B31F461657066806790661F40088F18926
:100C0000E02DE98015960C912D2DB301A201C501AF
:100C100009950CC00484F585E02D1596CC908301D0
:100C2000720129814A816D2DC5010995BFEF2B1AEB
:100C30003B0AEB81FC813696EB83FC83B1CF249693
:100C4000CDBFDEBFDF91CF911F910F91FF90EF904D
:100C5000DF90CF90BF90AF909F908F907F906F90DC
:100C60005F904F903F902F900895FC0181E290E2B9
:100C70008083918362834383548308952F923F92AC
:100C80004F925F926F927F928F929F92AF92BF929C
:100C9000CF92DF92EF92FF920F931F93CF93DF9348
:100CA000CDB7DEB72A97CDBFDEBF5C014B012F83E6
:100CB000388749875A8710E09E012F5F3F4F3901DF
:100CC00022242A948BEC382E9CECD92E2DECF22E7B
:100CD000D50112968C91181708F06EC0B0E11B9FD9
:100CE00020011124D5011396ED91FC911497E40D88
:100CF000F51D848180135EC085818E115BC080816B
:100D00009181A281B3818F3F9F4FAF4FBF4F09F4B5
:100D100051C0CF010E9455012F81388549855A85E0
:100D2000621773078407950709F044C0D301E6E012
:100D30001D92EA95E9F72982D5011396ED91FC9170
:100D40001497E40DF51D90859A8327812B83838565
:100D50008C8384858D8385858E83CC2049F0928514
:100D60009A8321852B83868186958695869501C0F9
:100D700086818770833081F030F4882351F0813090
:100D8000C9F4998307C0843049F0853099F4F98219
:100D900006C0298341E004C0398201C0D98246E0FF
:100DA000D401ED91FC910280F381E02D93016E2D31
:100DB000C40109951F5F8CCF2A96CDBFDEBFDF919E
:100DC000CF911F910F91FF90EF90DF90CF90BF9048
:100DD000AF909F908F907F906F905F904F903F90DB
:100DE0002F900895FC0187E290E2808391836283D3
:100DF000438354830895643079F4DC011396ED91B4
:100E0000FC911497818180648183818186FD06C075
:100E1000848183FF03C0F9CF82E0089580E00895C4
:100E2000DC011396ED91FC911497818187FFFDCF32
:100E300081819081FB0190838C7111F083E0089592
:100E400080E00895DC011396ED91FC911497848164
:100E500083FF07C0818185FD06C0848183FF03C0B5
:100E6000F9CF82E00895608380E00895DC01139655
:100E7000ED91FC9114978181881F8827881F089520
:100E8000CF93DF9300D0CDB7DEB7FC0149832A832F
:100E900012828DE290E28083918363837483CE011A
:100EA00002960E94D703CE0101960E94C2030F90C2
:100EB0000F90DF91CF910895FC012389FB012083DE
:100EC000FC018289FB01818382E008950F931F93C7
:100ED000CF93DF93CDB7DEB72797CDBFDEBF8C01B1
:100EE000DC0115968D919C911697FC0121812B3F79
:100EF00050F025E02F8341E050E0BE01695F7F4F55
:100F000001960E942403D80115968D919C91169705
:100F1000FC01228133812115310529F02550310949
:100F20002C303E4060F5D80115968D919C91169716
:100F3000FC01248135812115310529F02550310925
:100F40002C303E4048F5D8011596ED91FC9116974E
:100F500084819581009729F022813381821793073C
:100F600040F1F801178284EF91E0808B918B2796F6
:100F7000CDBFDEBFDF91CF911F910F9108952AE081
:100F800030E02D833E8342E050E0BE016B5F7F4F37
:100F900002960E942403C7CF26E930E02B833C83CE
:100FA00042E050E0BE016D5F7F4F04960E94240333
:100FB000CACF19821A8242E050E0BE016F5F7F4FB4
:100FC000CF0104960E942403CCCFCF93DF93EC0192
:100FD0000E942805688379838A839B83DF91CF9160
:100FE0000895EF92FF920F931F93CF93DF93EC013D
:100FF0007B018A010E94C11389E390E2888399836F
:10100000EB82FC821F82CE0146960E94E507CE014C
:101010004A960E94E50783E08A830D831E8380ED54
:1010200097E0888B998B1E8A1F8A188E198EDF9104
:10103000CF911F910F91FF90EF900895982F81E02D
:10104000983221F0903111F080E0089508951F93B7
:10105000CF93DF93EC01162F8B819C810E946E1839
:101060008B819C81DC011196ED91FC91129730856A
:101070002C912323E1F0111104C0AE01485F5F4FB2
:1010800002C040E050E064E40E94461980910420D0
:1010900081110FC0EB81FC818081A181B281159605
:1010A0008C9380810180F281E02D818302C081E0F8
:1010B00001C080E0DF91CF911F910895FB01208155
:1010C0003181DC0118968C91803161F42E7F43E0F0
:1010D000220F331F4A95E1F78681281B3109245FCF
:1010E0003F4F10C0883271F48481982F90769036EB
:1010F00049F086FF02C02E7F05C085FF02C02C7F0D
:1011000001C0287FC90134E0969587953A95E1F7AB
:10111000B4E68B02C0011124322F23FDC29632FDAA
:10112000499631FD0D9630FD06960895AF92BF9217
:10113000CF92DF92EF92FF920F931F93CF93DF93A3
:10114000CDB7DEB72997CDBFDEBF8C01FC0183810F
:1011500094810E946E18A801485F5F4F6EEBF80102
:10116000838194810E944619CE0101967C015E0123
:101170009AE0A90EB11C67016FEFF8018381948199
:101180000E94D318F70181937F01EA15FB05A1F7AF
:1011900040E069E070E0C6010E947619811109C043
:1011A000B601C8010E945E08F801828B938B80E033
:1011B00001C083E02996CDBFDEBFDF91CF911F91A3
:1011C0000F91FF90EF90DF90CF90BF90AF90089578
:1011D00020911C21E8EDF0E290E0921781F0A191BE
:1011E000B19112963C911297333039F415960D90C7
:1011F000BC91A02D3C91831721F09F5FEECF80E042
:10120000089581E008952F923F924F925F926F92DE
:101210007F928F929F92AF92BF92CF92DF92EF9286
:10122000FF920F931F93CF93DF93CDB7DEB726972F
:10123000CDBFDEBFDC0150962D913C915197232B01
:1012400009F465C11596ED91FC9116972081222332
:1012500009F45DC1742E5B016C0146960E944A053B
:10126000F60120893189890120E030E0601771079B
:101270008207930708F44BC1CE0101960E94E5074F
:1012800089819A81AB81BC81F601868B978BA08F77
:10129000B18F8781811169C08DE495E9828B938B31
:1012A00055245A947601F8E0EF0EF11C460120E136
:1012B000820E911CA701652DD60113968D919C91EC
:1012C00014970E94EE18582E82E0850D823070F13E
:1012D000F701612C8191680E8E169F06D9F7F601F1
:1012E00080850E941E08811103C05110E3CF1EC0EB
:1012F000D60115960D911C911697F80180818F3FAC
:1013000031F4862D0E94E808882309F4F6C0D6013E
:101310001596ED91FC91169780816812E6CF81E0D9
:1013200017968C93179784E690E0E2C0F601108A36
:10133000118AD501ED91FC9180849184D601ED91C3
:10134000FC910280F381E02DBE016F5F7F4FC601EB
:101350000995E12CF12C87019E012F5F3F4F482F0B
:10136000672DC501F4010995D2C08130B9F461E05F
:10137000C6010E94270881110BC088EE93E0D601B8
:1013800050968D939C93519782E017968C93BFC093
:101390008AEF90E0F601808B918BB9C0823009F022
:1013A000B6C0C6010E94960811E0811110E0D60176
:1013B0001596ED91FC91169782819381892BC9F046
:1013C000C6014A960E944A051B012C01D6011596BA
:1013D000ED91FC91169722813381A8EEB3E00E9433
:1013E0006D1D21E0261637064806590618F420E040
:1013F00001C021E01223D6011596ED91FC911697BC
:1014000084819581892B49F4D6011596ED91FC9143
:1014100016974181411119C02CC0C6014A960E94FD
:101420004A051B012C01D6011596ED91FC911697EA
:1014300024813581A8EEB3E00E946D1D2616370683
:101440004806590608F321E015C0F6018289938900
:1014500024893589821B930B97FF03C09195819551
:101460009109FAE04F9FA001112421E0841795070C
:1014700008F420E01123A9F1222399F1D501ED917F
:10148000FC9180849184D601ED91FC910280F381DE
:10149000E02DBE016B5F7F4FC6010995E12CF12C59
:1014A00087019E012B5F3F4F482F672DC501F40137
:1014B0000995882321F08AEF90E0D60119C0F60142
:1014C00082899389848B958BCE0101960E94E507D2
:1014D00089819A81AB81BC81F601828F938FA48F21
:1014E000B58F81E0D60117968C93179788E893E122
:1014F00050968D939C9351970AC06D8241E050E0C5
:10150000BE016B5F7F4FC8010E94240300CF269667
:10151000CDBFDEBFDF91CF911F910F91FF90EF9074
:10152000DF90CF90BF90AF909F908F907F906F9003
:101530005F904F903F902F900895FC018781FB01B1
:10154000808381E008954F925F926F927F929F9285
:10155000AF92BF92CF92DF92EF92FF920F931F93C1
:10156000CF93DF931F92CDB7DEB76C015B01942E52
:10157000FC0181899289A389B489892B8A2B8B2BC1
:1015800091F1C60141960E944A05672B682B692B91
:1015900051F186010B5F1F4FC8010E945F04F601E5
:1015A0006085262F30E08217930709F06FC0D601BF
:1015B0001B968C91B4E68B9FC0011124092E000C60
:1015C000AA0BBB0BF6014189528963897489840F88
:1015D000951FA61FB71F818B928BA38BB48B618540
:1015E000C8010E949404F6018681811109C0818995
:1015F0009289A389B489892B8A2B8B2B09F480C00B
:10160000F60185859685A785B089892B8A2B8B2B3A
:1016100009F47CC0C6010D960E944A05672B682B11
:10162000692B09F473C0D501ED91FC91608471843C
:10163000D601ED91FC910280F381E02DBE016F5F38
:101640007F4FC6010995E12CF12C87019E012F5F88
:101650003F4F482F692DC501F3010995882371F08B
:10166000F60185859685A785B08986509F4FAF4F37
:10167000BF4F85879687A787B08B48C0D6011D9638
:101680001D921D921D921C92509740C0D6011C962F
:101690008C911C97882329F11A968C91B4E68B9F24
:1016A000C0011124092E000CAA0BBB0BF6014188C6
:1016B000528863887488840D951DA61DB71D818B83
:1016C000928BA38BB48BC8010E949404D6011C9604
:1016D0008C911C978F3F09F486CF81501C968C9378
:1016E00082CFF601118A128A138A148A87816817B9
:1016F00011F08AEC01C089ECD60155968C9373CF1A
:101700006781C60105960E9494047ACF0F90DF91FD
:10171000CF911F910F91FF90EF90DF90CF90BF90EE
:10172000AF909F907F906F905F904F900895CF9271
:10173000DF92FF920F931F93CF93DF9300D000D0DF
:10174000CDB7DEB78C016B01F9018081893C90F443
:10175000D80117968C93179751961D921D921D9242
:101760001C9254978081811102C08AEC01C089ECDF
:10177000F80151C08E3C51F468ECC80105960E94F6
:10178000940481E0D80116968C93A7C08F3C19F47D
:10179000F8011682A2C0463008F45EC09181D801DB
:1017A00019969C931997828118968C931897238188
:1017B0001A962C931A9724811B962C931B9725819C
:1017C0001C962C93F080BCECFB120FC0CE0101964E
:1017D0000E94E50789819A81AB81BC81F801818BE8
:1017E000928BA38BB48BF58A44C0FDECFF1220C012
:1017F000D80155968C918C3C81F0CE0101960E94C7
:10180000E50789819A81AB81BC81F801818B928B3C
:10181000A38BB48B8CEC858B2CC0D80151961D9278
:101820001D921D921C9254978AEC55968C9321C060
:10183000BBECFB121EC0F80125892A3C21F09783DE
:101840008AEC858B03C0878389EC858BF801118A2C
:10185000128A138A148A0DC0D80117968C91179793
:10186000882319F017961C92F1CF88ECF801878332
:10187000EDCFF80185859685A785B089892B8A2BC0
:101880008B2B59F50380F481E02D808180FF25C0EA
:10189000CE0101960E94E50789819A81AB81BC81C6
:1018A000F80185879687A787B08BC6010E94A91685
:1018B000F4E68F9FC0011124092E000CAA0BBB0B6C
:1018C000F8014585568567857089840F951FA61F89
:1018D000B71F85879687A787B08B2496CDBFDEBFBD
:1018E000DF91CF911F910F91FF90DF90CF900895DE
:1018F000EF92FF920F931F93CF93DF93EC01162F7C
:101900007A01022F0E94C11385E490E288839983B3
:10191000412F4F70612F62956F7028EC30E0CE013F
:1019200005960E941204CE010D960E94E507CE0195
:1019300041960E94E50782E08A83EB82FC828D81DA
:10194000182F1F7082958F700E947103183060F4F9
:101950004096E12FF0E0E80FF91F8081002311F09D
:10196000806401C08F7B80831E828AEC8D8B1F82F6
:1019700088EC888719868AE08A878B878FEF8C8727
:101980001D861E861F86188A198A1A8A1B8A1C8A37
:10199000DF91CF911F910F91FF90EF900895CF931A
:1019A000DF931F92CDB7DEB7DC011496ED91FC9169
:1019B0001597918194509F3258F08AE0898341E0D5
:1019C00050E0BE016F5F7F4FCF0101960E9424035C
:1019D0000F90DF91CF9108954F925F926F927F9217
:1019E0009F92AF92BF92CF92DF92EF92FF920F93AE
:1019F0001F93CF93DF931F92CDB7DEB7DC01149610
:101A0000ED91FC911597208121FFEDC0942E5B0193
:101A10008C010E9428056B017C01C80108960E9478
:101A2000E401F8014185528563857485882391F12D
:101A3000411551056105710509F4D5C0C41AD50ACF
:101A4000E60AF70AF2E3CF16D104E104F104B0F09C
:101A5000F80185859685A785B089892B8A2B8B2BE4
:101A600069F443814F5F4383D501ED91FC9102847A
:101A7000F385E02D20E0692DC5010995F801118657
:101A800012861386148686819781009709F4ABC06D
:101A90002FEC9CC0411551056105710509F47AC010
:101AA000F80185859685A785B0890097A105B105C0
:101AB00099F1A7019601281B390B4A0B5B0BDA0140
:101AC000C9018C329140A105B10508F48CC0C11444
:101AD000D104E104F10429F03C2D2D2D9E2D8F2DF4
:101AE00004C031E020E090E080E0D8011D963C93F6
:101AF0001D971E962C931E971F969C931F9750968A
:101B00008C93D501ED91FC910284F385E02D21E0C9
:101B1000D80113964C913AC00480F581E02D2181C3
:101B200026013701441A550A660A770A30E0A4E60E
:101B3000B0E00E946D1D461657066806790608F447
:101B400052C0F80143814F5F4383C114D104E104C3
:101B5000F10429F03C2D2D2D9E2D8F2D04C031E058
:101B600020E090E080E0D8011D963C931D971E96E2
:101B70002C931E971F969C931F9750968C93D5017C
:101B8000ED91FC910284F385E02D21E0692DC501E2
:101B9000099529C0C114D104E104F10429F03C2DB8
:101BA0002D2D9E2D8F2D04C031E020E090E080E0AF
:101BB000F8013187228793878487158616861786D2
:101BC000108A86819781009771F02EEC2983DC01C1
:101BD000ED91FC910190F081E02D9E012F5F3F4F30
:101BE00041E0B50109950F90DF91CF911F910F91C1
:101BF000FF90EF90DF90CF90BF90AF909F907F903D
:101C00006F905F904F900895AF92BF92CF92DF9206
:101C1000EF92FF920F931F93CF93DF93EC01162F58
:101C20006A0179010E94C11381E590E2888399835A
:101C30005E0188E0A80EB11C412F4F70612F6295A4
:101C40006F70C5010E94BB038885803E18F4C501F2
:101C50000E94C20381E08A838885182F1F708295B5
:101C60008F700E947103183050F4FC017096E10FE0
:101C7000F11D8081877C8083808188618083888555
:101C8000182F1F7082958F700E947103183060F4B6
:101C90004096E12FF0E0E80FF91F8081002311F05A
:101CA000806401C08F7B808319861A861B861C8600
:101CB0001B82CC82DD82EE82FF82DF91CF911F9169
:101CC0000F91FF90EF90DF90CF90BF90AF9008956D
:101CD000089580E0089508950895CF92EF920F93AC
:101CE000FC0185819681009769F0CE2CE02E022FB1
:101CF0009A01AB01BF01DC01ED91FC910190F081F3
:101D0000E02D09950F91EF90CF900895AF92BF927B
:101D1000CF92DF92EF92FF920F931F93CF93DF93B7
:101D2000EC01D62EB42EA22E8B819C81009759F007
:101D3000DC01ED91FC910190F081E02D022F242F28
:101D4000462FBE010995E881F9810484F585E02DCF
:101D5000C12CEE24EA94FE2C87012A2D4B2D6D2DEB
:101D6000CE010995DF91CF911F910F91FF90EF90D8
:101D7000DF90CF90BF90AF90089580911C2168179D
:101D800080F4E62FF0E0EE0FFF1FE852FF4D808158
:101D90009181DC01ED91FC910280F381E02DBA018B
:101DA0000994DA011C9281E0089550911C21651775
:101DB00088F4E62FF0E0EE0FFF1FE852FF4DA08100
:101DC000B181ED91FC9111970190F081E02DBC0162
:101DD000CD0109940895CF93DF93EC01462F4F7006
:101DE00062956F700E94BB038881803E28F4CE010B
:101DF000DF91CF910C94C203DF91CF910895CF93DF
:101E0000DF93EC010E94EB0E8881803E28F4CE0126
:101E1000DF91CF910C94D703DF91CF910895FC010E
:101E2000678170858185928508950F931F93CF9365
:101E3000DF93CDB7DEB72897CDBFDEBF8C01CB01D6
:101E40004D835E836F837887642F752FF8014783F6
:101E50005087818792870E94261ECE0105960E9498
:101E60005501F801E75AFF4F0190F081E02D0681FE
:101E7000178120853185601771078207930769F004
:101E800069837A838B839C8344E050E0BE016F5F5B
:101E90007F4FCF0106960E9424032896CDBFDEBF58
:101EA000DF91CF911F910F9108958F929F92AF92E2
:101EB000BF92EF92FF920F931F93CF93DF93CDB713
:101EC000DEB72597CDBFDEBF8C01FC0187819085F1
:101ED000A185B2859D53AF48B04680389649A84940
:101EE000B10538F040E05DE36FE870E6C8010E949C
:101EF000150F780129E5E20EF11CD701ED91FC9157
:101F0000918191509A3F08F045C0D701ED91FC9125
:101F100086819781A085B18589839A83AB83BC83B1
:101F2000CE0101960E945501F80187809084A1841A
:101F3000B284681579058A059B05B1F0D701ED914A
:101F4000FC9186819781A085B18589839A83AB8333
:101F5000BC83CE0101960E945501AB01BC01C801B2
:101F60000E94150FF801128210E080911C211817B1
:101F7000E8F4E12FF0E0EE0FFF1FE852FF4D808103
:101F80009181DC01ED91FC910680F781E02D0995AE
:101F90001F5FEBCF82E38D8341E050E0BE016B5FBA
:101FA0007F4FCF0101960E942403AFCF2596CDBF6E
:101FB000DEBFDF91CF911F910F91FF90EF90BF9007
:101FC000AF909F908F900895CF93DF9300D000D073
:101FD000CDB7DEB7875A9F4FDC01ED91FC9182812E
:101FE0009381A481B58189839A83AB83BC83CE011D
:101FF00001960E9455012496CDBFDEBFDF91CF919F
:102000000895FA0128E040815181CA01880F991F83
:1020100067FD81608083918357FF08C08081918133
:1020200032E0832730E1932780839183660F21502C
:1020300051F708950F931F93CF938C01C62F41152D
:10204000510511F00E940110025A1F4F84E08C0FBD
:10205000833060F4D8018D919C91DC01ED91FC916D
:102060000480F581E02D6CEF0995CF77F801808130
:102070009181DC01ED91FC910480F581E02D6C2FC4
:10208000CF911F910F9109944F925F926F927F921F
:10209000AF92BF92CF92DF92FF920F931F93CF9395
:1020A000DF9300D0CDB7DEB78C018FEF9FEF898330
:1020B0009A83F80182899389A489B5898F3F9F4FBC
:1020C000AF4FBF4FA1F0F801E855FF4F808190E07E
:1020D00095958795837020E2829FC0011124D801D5
:1020E00056969C9156979F79892B56968C936801AA
:1020F000B0E6CB0ED11CC6010E9409025801EEE5E4
:10210000AE0EB11CD5018D919C91DC01ED91FC913D
:102110000480F581E02D6DEF0995AE014F5F5F4FB3
:102120006DEFC8010E940110C80142960E9455013E
:102130002B013C0134E0F32EAE014F5F5F4F642D65
:10214000C8010E941A10452C562C672C7724FA944B
:10215000F110F2CFAE014F5F5F4FF8016689C80101
:102160000E941A10D80156968C9183FD0BC0F8017D
:1021700067896E5FAE014F5F5F4FC8010E941A1002
:10218000F12C17C0C80107960E9455012B013C0194
:1021900094E0F92EAE014F5F5F4F642DC8010E949D
:1021A0001A10452C562C672C7724FA94F110F2CF94
:1021B000DECFD80157968C91F81660F4F801EF0D38
:1021C000F11DAE014F5F5F4F608DC8010E941A1074
:1021D000F394EFCFAE014F5F5F4F60E0C8010E9404
:1021E0000110AE014F5F5F4F60E0C8010E94011017
:1021F0006A8140E050E0C8010E941A1040E050E0BF
:102200006981C8010E941A10F50180819181DC0169
:10221000ED91FC910190F081E02D40E050E064E010
:102220000995C6010E94F701F801EF59FF4F80811F
:10223000886080830F900F90DF91CF911F910F9155
:10224000FF90DF90CF90BF90AF907F906F905F90A6
:102250004F9008952F923F924F925F926F927F928C
:102260008F929F92AF92BF92CF92DF92EF92FF92A6
:102270000F931F93CF93DF931F92CDB7DEB78C01DF
:102280003C018EE5680E711C280199EA490E511C2B
:10229000D801AF59BF4F7D01F801E959FF4F6F01D8
:1022A00033243A9445E0242E5801F3E6AF0EB11CD6
:1022B00088248A94982CD3018D919C91DC01ED9116
:1022C000FC910680F781E02D0995882309F4B8C0B8
:1022D0000E942805F2016083718382839383D30176
:1022E0008D919C91DC01ED91FC910280F381E02DB8
:1022F000BE016F5F7F4F099599819C3F31F4F701D3
:10230000808181FD23C0826074C09D3FF9F4D701B4
:102310008C918D7F81608C931092D7201092D62063
:10232000F80116861786108A118AD5011D921D9212
:102330001D921C9213978092D4209092D52044ED48
:1023400050E26DEFC8010E940110B5CFF701808106
:1023500080FFB1CF81FF04C0906899838D7F808317
:1023600044ED50E26981C8010E9401108091D6209D
:102370009981843080F4D5014D915D916D917C916E
:10238000762F652F542F4427492BF5014083518325
:10239000628373831EC0843029F42092D6209093E8
:1023A000D32089CF2091D32023FF17C08930A8F4F0
:1023B000D8011E964D915D916D917C915197762F2C
:1023C000652F542F4427492BF80146875787608B88
:1023D000718B8F5F8093D6206ECF8F3F61F03092EC
:1023E000D620D6019C93913408F465CFF701808103
:1023F0008E7F808360CF8091D720F801E80FF11D98
:10240000E859FF4F908391E0980F9093D720D60121
:102410003C91931350CF4091D4205091D520452B1F
:1024200009F049CFF70190819E7F9083F801E8552C
:10243000FF4F208381508C93E654F10981E0808323
:102440000F90DF91CF911F910F91FF90EF90DF9050
:10245000CF90BF90AF909F908F907F906F905F9044
:102460004F903F902F9008956F927F928F929F92FE
:10247000AF92BF92CF92DF92EF92FF920F931F9392
:10248000CF93DF93EC01662E662309F187559F4FAA
:102490000E944A058E0103551F4FF80120813181AA
:1024A0006901E12CF12C6C157D058E059F0510F45A
:1024B00081E07CC00E94D81D24E630E040E050E07E
:1024C0000E944E1D6E527F4FF801608371838A898E
:1024D0009B89AC89BD898F3F9F4FAF4FBF4F09F498
:1024E00057C08E898370813009F452C083E0782E02
:1024F0008E010E591F4F7E0123E6E20EF11C6E0184
:1025000081E6C80ED11CCE010E9444100E9428050D
:102510004B015C010E942805DC01CB018819990957
:10252000AA09BB09883C9105A105B10508F5CE01B2
:102530000E942A11F8018081882361F3F70140810C
:102540005181628173818F819885A985BA854817E9
:1025500059076A077B07F1F6F8011082CE010E9445
:10256000EC12F6019081892F887093FDD3CF1EC0A5
:102570006620C1F00E942805DC01CB018819990969
:10258000AA09BB0986399105A105B10558F490CF78
:10259000CE010E944410CF59DF4F8881877F888306
:1025A00080E004C07A947110AECF82E0DF91CF91C9
:1025B0001F910F91FF90EF90DF90CF90BF90AF9061
:1025C0009F908F907F906F90089529E1FC01268B5A
:1025D000178A60E00C943412CF92DF92EF92FF9250
:1025E000CF93DF93FC01EC01CF59DF4F3881DC0141
:1025F000A855BF4F33FF1FC08C9190E025E0959503
:1026000087952A95E1F7282F2370868990E0959584
:102610008795837028130FC0C684D784E088F1881B
:102620004289538964897589C416D506E606F7067A
:1026300011F4377F38838C9183708130E1F0DF01B2
:10264000A959BF4F8C91811118C014978D919D91FC
:102650000D90BC91A02D8F3F9F4FAF4FBF4F69F0A2
:1026600086859785A089B189828B938BA48BB58B46
:10267000CF010E94E51280E001C081E0DF91CF919F
:10268000FF90EF90DF90CF900895CF92EF92FF925E
:102690000F931F93FC01E28AF38A048B158B88EF5A
:1026A000868B84E0878B8BE4808F618FC28E2111B3
:1026B00002C082E001C083E0440F440F840F838F87
:1026C00061E0CF011F910F91FF90EF90CF900C949C
:1026D0003412CF93DF93EC018FEF9FEFDC018A8BF5
:1026E0009B8BAC8BBD8B88EF8E8B83E0840F8F8BA5
:1026F0008BE4888F698F1A8E50E0B901CE014B961A
:102700000E942F1E61E0CE01DF91CF910C94341214
:10271000AF92BF92CF92DF92EF92FF920F931F93EF
:10272000CF93DF93EC01C62ED42E5901EA8AFB8A9F
:102730000C8B1D8BEF28E02AE12A31F40E94E40F74
:102740006A8B7B8B8C8B9D8B88EF8E8B82E08D0DC3
:102750008F8B89E6888FC98E4D2D50E0B501CE0153
:102760004A960E942F1E61E0CE01DF91CF911F910A
:102770000F91FF90EF90DF90CF90BF90AF900C94AF
:10278000341223E630E2FC0120833183E0911C21E6
:1027900021E02E0F20931C21F0E0EE0FFF1FE852E6
:1027A000FF4D80839183FC0112820895CF93DF93C4
:1027B000EC0189E6888F698FAE01465E5F4FE88144
:1027C000F9810480F581E02DCE0109958E5F8F8B14
:1027D000DF91CF9108958F929F92AF92BF92CF9247
:1027E000DF92EF92FF920F931F93CF93DF93EC0151
:1027F0008B01FB01E380F4808F2D8695869586956D
:102800009F2D977011F48C5F01C08B5F8F8B4F8968
:1028100050E060E070E0CE0148960E94381E85E6E8
:10282000888FF8018181898F82818A8F83818B8F44
:102830004E2D50E060E070E180E090E02F2D30E020
:10284000812C912C540183942817390744F1DB0122
:10285000E0E0F0E0E417F507F4F41D911F3FC9F044
:10286000FC01A3E0F595E795AA95E1F73496EC0F06
:10287000FD1FDC01A770BB277501640104C0CC0CEF
:10288000DD1CEE1CFF1CAA95D2F7A08DCA2AC08EB3
:1028900002C03196DFCF0196640F751FD5CFDF914F
:1028A000CF911F910F91FF90EF90DF90CF90BF904D
:1028B000AF909F908F900895EF92FF920F931F9388
:1028C000CF93DF93CDB7DEB76497CDBFDEBF8B016B
:1028D000FC01678170858185928520E836E948E9A9
:1028E00050E00E942C1D9F938F937F936F9389E5F7
:1028F00090E29F938F93CE0101967C019F938F93DB
:102900000E943F1E88E4F801808382E4818387E58A
:102910008283D801139687E0F70101900D928A9582
:10292000E1F7CDBFDEBF6496CDBFDEBFDF91CF91B3
:102930001F910F91FF90EF900895CF93DF93EC01DB
:102940008FEF9FEFDC018A8B9B8BAC8BBD8B88EF6D
:102950008E8B80E18F8B81E4888F698FFE01E85A2E
:10296000FF4F80818A8F1B8E3496808191819C8F4E
:102970008D8FBE01625E7F4FCE010E945C1461E0CC
:10298000CE01DF91CF910C943412CF92DF92EF926F
:102990000F93CF93DF93EC012111D4C0942F6B01DF
:1029A0004E855F85688979894A8B5B8B6C8B7D8BC3
:1029B00088E78E8BD6018C91873509F473C020F59A
:1029C000853409F442C0B0F4813409F4A5C08334DD
:1029D00009F0A5C0CE010E94E512E881F9810680C8
:1029E000F781E02DCE01DF91CF910F91EF90DF9035
:1029F000CF900994823509F43FC0833509F44FC064
:102A00008B3409F08CC026C0833709F470C070F491
:102A1000883609F461C08E3609F081C0BE01685E57
:102A20007F4FCE010E945C148AE05FC0883709F4B2
:102A30005EC08B3C79F0863709F071C0FE01E45A24
:102A4000FF4F80819181988F4EC0B601CE010E94C8
:102A5000EB136EC0F60183818170E82EE881F98165
:102A60000088F189E02DD60112960C9112971196EB
:102A70002C91CE01099553C0943009F050C0F60155
:102A8000438150E08181628170E07061782BCE01DA
:102A900048960E942F1ED60113968C9126C043E5BE
:102AA000F60136C0D60113964C911397892F90E00A
:102AB00050E09A012C5F3F4F8217930781F5B601D2
:102AC0006C5F7F4F11968D919C9112979827892763
:102AD00098270E94240323C0FE01E85AFF4F8081FB
:102AE000888F33968081898F82E08F8B21C09601F9
:102AF0002E5F3F4F4EEF490FE881F9810280F3814D
:102B0000E02DD60111966C91CE010995F601408118
:102B10006181CE010E94D61389E6888F09C0CE015B
:102B2000DF91CF910F91EF90DF90CF900C94E51251
:102B300060E0CE01DF91CF910F91EF90DF90CF90C9
:102B40000C943412DF91CF910F91EF90DF90CF90E2
:102B50000895CF93DF93EC010E942805683E7340EF
:102B60008105910558F08A81811108C060E0CE018D
:102B70000E949D1491E0811190E09A83DF91CF91A2
:102B800008952F923F924F925F926F927F928F9211
:102B90009F92AF92BF92CF92DF92EF92FF920F93EC
:102BA0001F93CF93DF93CDB7DEB72697CDBFDEBFA0
:102BB0003C016D834E83190128018FE690E2D30119
:102BC0008D939C934FE06FE0CE0101960E94BB0372
:102BD0006981C3010B960E94EB0E4FE06FE0CE01BE
:102BE00001960E94BB036981C3010C960E94EB0E03
:102BF0004FE06FE0CE0101960E94BB036981C301E3
:102C00000D960E94FF0E8301005A1F4F6E2DC801C2
:102C10000E94FF0E0E942805F301E755FF4F6083D5
:102C20007183828393837301B9E5EB0EF11CF70185
:102C3000C082D182D3011396AD92BC92149715969F
:102C40008D929C9216973296BE81B08331962082E7
:102C50003182329640825182C8010E94F701F3010D
:102C6000EE59FF4F1082F3011282E85AFF4F2D8177
:102C70002083D701ED91FC9186819781A085B18554
:102C800089839A83AB83BC83CE0101960E94550150
:102C9000AB01BC01C3010E94150FC3010E94550F77
:102CA0000E94D81DBDEA6B0E711C24E630E040E0A6
:102CB00050E00E944E1D6E527F4FF301608371837E
:102CC0002696CDBFDEBFDF91CF911F910F91FF9070
:102CD000EF90DF90CF90BF90AF909F908F907F90BC
:102CE0006F905F904F903F902F900895EF92FF92DA
:102CF0000F931F93CF93DF931F92CDB7DEB78C0155
:102D0000E42EF22E603E38F4CE0101960E94EB0EC6
:102D10008981F8018387FFEDFE1540F06E2DCE010D
:102D200001960E94EB0E8981F8018487FFEDFF1563
:102D300040F06F2DCE0101960E94FF0E8981F801AF
:102D400085870F90DF91CF911F910F91FF90EF90AA
:102D50000895875A9F4FDC01ED91FC918181089580
:102D6000CF93DF93EC018FEF0E9469028091CF0136
:102D700087FDFCCF80E30E943202E881F981068062
:102D8000F781E02DCE01DF91CF910994CF92DF92B0
:102D9000EF92FF921F93CF93DF93EC018B85803EE0
:102DA00020F08C85803E08F006C10E9428056B014A
:102DB0007C018B85803E08F0FCC0CE010B960E9402
:102DC000E40111E0811110E08C85803E40F4CE01D9
:102DD0000C960E94E40191E0811190E0192380910A
:102DE000D2208230F1F128F4882359F08130B9F0F3
:102DF00082C0843009F458C0C0F1853009F474C031
:102E00007AC0112319F081E08093D220C092CE20A5
:102E1000D092CF20E092D020F092D1206CC080914F
:102E2000CE209091CF20A091D020B091D120A701A9
:102E30009601281B390B4A0B5B0BDA01C9011123E0
:102E400041F089389341A105B1050CF454C082E0EA
:102E500048C025363105410551050CF44AC01A8297
:102E600048C0111148C083E0CFCF8091CE2090910F
:102E7000CF20A091D020B091D120A7019601281B8E
:102E8000390B4A0B5B0BDA01C901243631054105C8
:102E900051058CF1112311F084E0B6CF81319742B6
:102EA000A105B10534F527C08091CE209091CF20A7
:102EB000A091D020B091D120A7019601281B390BF9
:102EC0004A0B5B0BDA01C901243631054105510576
:102ED00094F0112371F0893B9B40A105B1055CF092
:102EE00085E08093D22007C0111105C0CE010E9459
:102EF000B0161092D2208D85803E08F05CC0809183
:102F0000D220853090F48230F0F4882389F081302B
:102F100009F051C0CE010D96DF91CF911F91FF9026
:102F2000EF90DF90CF900C940902853001F143C0FF
:102F3000CE010D96DF91CF911F91FF90EF90DF9022
:102F4000CF900C94F7018091CA209091CB20A09152
:102F5000CC20B091CD20A7019601281B390B4A0B3C
:102F60005B0B25363105410551052CF115C08091CB
:102F7000CA209091CB20A091CC20B091CD20A70168
:102F80009601281B390B4A0B5B0BDA01C9018F3EF6
:102F90009240A105B1057CF0CE010D960E941B0266
:102FA000C092CA20D092CB20E092CC20F092CD20CB
:102FB00002C011E009CFDF91CF911F91FF90EF90F8
:102FC000DF90CF9008950F931F93CF93DF93EC0181
:102FD0000E942A11FE01EE59FF4F80818823B1F132
:102FE00010828E010D591F4FF80180819181A281BD
:102FF000B3814F81588569857A8584179507A6071F
:10300000B70729F08F3F9F4FAF4FBF4FF9F4CE0165
:103010000E94EC128823D1F021E0F8018081918197
:10302000A281B3818F3F9F4FAF4FBF4F09F020E088
:10303000E881F9810288F389E02DDE01A959BF4FAB
:103040004C91BE0168597F4FCE010995CE010E9477
:10305000A91510E080911C21181798F4E12FF0E0D9
:10306000EE0FFF1FE852FF4D80819181DC01ED9151
:10307000FC910480F581E02D412FBE0109951F5F71
:10308000E9CFCE01DF91CF911F910F910C94C6161D
:103090000F931F93CF93DF931F92CDB7DEB78C01B1
:1030A0006983CE0101960E94EC03F8018083898137
:1030B00082958F700E947103F80181839283308121
:1030C0002FB7F8943093B00038E1FC01308B2FBF5C
:1030D0000F90DF91CF911F910F910895FC01808196
:1030E000A181B28116968C938081A181B2811196C3
:1030F0008C938FEB92E10197F1F700C000002FB79E
:10310000F8948081A181B28112968C93AFE0B2E0F5
:103110001197F1F700C000008081A181B28118965B
:103120003C91AFEEBCE01197F1F700C00000A18127
:10313000B28118964C919081942311F0832301C0A1
:1031400081E02FBF0895FC01862F2FB7F89490815E
:10315000A181B28111969C9395E19A95F1F70000B7
:10316000662329F09081A181B28112969C93A0E8F8
:10317000AA95F1F7A181B28118963C919081932391
:1031800009F480E0A7E6B1E01197F1F700C0000074
:1031900090810180F281E02D9283BAE6BA95F1F731
:1031A00000C02FBF08950F931F93CF93DF938C011F
:1031B000C62FD8E06C2F6170C8010E94A3182C2F75
:1031C00030E035952795C22F8111C068D15091F715
:1031D0008C2FDF91CF911F910F910895BF92CF92C5
:1031E000DF92EF92FF920F931F93CF93DF937C01B7
:1031F000C62E8A010E946E1881113BC060EFC70184
:103200000E94D318D0E0C0E498EFB92EBC0E61E064
:10321000C7010E94A318D82E61E0C7010E94A3181D
:10322000882319F0DD2071F026C0D1100BC0CC1519
:1032300030F0F801808180FF05C0CC1519F0DC2F3B
:10324000DD24D3946D2DC7010E94A318F8012081BD
:1032500030E035952795DD2011F02068F8012083B6
:10326000C150CB11D4CF0F5F1F4FC111CDCF8D2FC8
:1032700003C08FEF01C08EEFDF91CF911F910F91AF
:10328000FF90EF90DF90CF90BF900895CF92DF92A4
:10329000FF920F931F93CF93DF93EC01F62E8A01D9
:1032A0000E946E180115110591F065E5CE010E948E
:1032B000D318680188E0C80ED11CF80161918F0114
:1032C000CE010E94D3180C151D05B9F704C06CEC93
:1032D000CE010E94D3186F2DCE01DF91CF911F91A7
:1032E0000F91FF90DF90CF900C94D318CF93FC01F7
:1032F000680F791F2CEB31E652ECADE9B3E2C6E47E
:103300008CE8E617F707B9F09191942790FF02C077
:103310004EE501C040E091FD422792FD432793FD19
:10332000452794FD4A2795FD4B2796FD4C2797FF8F
:10333000E8CF4827E6CF842FCF910895FC019FB7AF
:10334000F8941BBE88ED84BF60839FBF0895E8EDAD
:10335000F0E220910A1020FF03C0208D318D02C0C1
:1033600020E030E0A191B19116962D933C931797F0
:1033700020E2E03FF20769F70C94550F8F929F927D
:10338000AF92BF92CF92DF92EF920F931F93CF93A2
:10339000DF9300D01F92CDB7DEB760E074E082E02B
:1033A0000E94D9048091CF0187FDFCCF8091CC0190
:1033B00088608093CC0180917625811117C043E00D
:1033C00064E0CE0101960E94BB0342E064E0CE01BE
:1033D00002960E94BB0329814A8160EA7AE081E675
:1033E00094E20E94400781E080937625E091642476
:1033F000F0916524178287E686838BE2858388E1D6
:10340000848380916E25811113C040E060E0CE017D
:1034100001960E94BB0300E020E030E040E150E173
:10342000698180E594E20E94040E81E080936E251C
:1034300080916625811113C041E060E0CE010196C4
:103440000E94BB0300E020E030E042E150E16981EE
:103450008FE394E20E94040E81E0809366258091C0
:103460005E25811113C042E060E0CE0101960E940A
:10347000BB0300E020E030E044E150E169818EE2EE
:1034800094E20E94040E81E080935E25809156258F
:10349000811113C043E060E0CE0101960E94BB039E
:1034A00000E020E030E046E150E169818DE194E206
:1034B0000E94040E81E08093562580914E25811153
:1034C00013C044E060E0CE0101960E94BB0300E01F
:1034D00020E030E048E150E169818CE094E20E9414
:1034E000040E81E080934E2580914625811113C002
:1034F00045E060E0CE0101960E94BB0300E020E0C1
:1035000030E04AE150E169818BEF93E20E94040EC2
:1035100081E08093462580913E25811113C040E0D3
:1035200061E0CE0101960E94BB0300E020E030E0A4
:103530004CE150E169818AEE93E20E94040E81E041
:1035400080933E2580913625811113C041E061E0D2
:10355000CE0101960E94BB0300E020E030E04EE186
:1035600050E1698189ED93E20E94040E81E080932D
:10357000362580912E25811113C042E061E0CE01F5
:1035800001960E94BB0300E020E030E040E250E101
:10359000698188EC93E20E94040E81E080932E25DD
:1035A00080912625811113C043E061E0CE01019690
:1035B0000E94BB0300E020E030E042E250E169817C
:1035C00087EB93E20E94040E81E080932625809190
:1035D0001E25811113C046E062E0CE0101960E94D3
:1035E000BB0300E020E030E044E250E1698186EA7C
:1035F00093E20E94040E81E080931E25809116259F
:10360000811113C047E062E0CE0101960E94BB0326
:1036100000E020E030E046E250E1698185E993E294
:103620000E94040E81E08093162580910E25811161
:1036300011C040E062E0CE0101960E94BB0321E090
:1036400048E250E169818FE793E20E94780C81E0C3
:1036500080930E2580910625811111C041E062E022
:10366000CE0101960E94BB0321E04AE250E169814C
:1036700089E693E20E94780C81E080930625809190
:10368000FE24811111C042E062E0CE0101960E9449
:10369000BB0321E04CE250E1698183E593E20E94A3
:1036A000780C81E08093FE248091F624811111C072
:1036B00043E062E0CE0101960E94BB0321E04EE2AE
:1036C00050E169818DE393E20E94780C81E0809360
:1036D000F6248091EE24811111C044E062E0CE0115
:1036E00001960E94BB0321E040E350E1698187E23B
:1036F00093E20E94780C81E08093EE248091E6248E
:10370000811111C045E062E0CE0101960E94BB0329
:1037100021E042E350E1698181E193E20E94780C6B
:1037200081E08093E6248091DE24811111C040E085
:1037300063E0CE0101960E94BB0320E044E350E128
:1037400069818BEF92E20E94780C81E08093DE2405
:103750008091D624811111C041E063E0CE01019631
:103760000E94BB0320E046E350E1698185EE92E2CE
:103770000E94780C81E08093D6248091CE24811120
:1037800011C042E063E0CE0101960E94BB0320E03D
:1037900048E350E169818FEC92E20E94780C81E06D
:1037A0008093CE248091C624811111C043E063E050
:1037B000CE0101960E94BB0320E04AE350E16981FB
:1037C00089EB92E20E94780C81E08093C62480917C
:1037D000BE24811111C044E063E0CE0101960E9435
:1037E000BB0320E04CE350E1698183EA92E20E944E
:1037F000780C81E08093BE248091B624811111C0A1
:1038000045E063E0CE0101960E94BB0320E04EE359
:1038100050E169818DE892E20E94780C81E080930A
:10382000B6248091AE2481110EC047E063E0CE0142
:1038300001960E94BB0369818AE892E20E944818BF
:1038400081E08093AE248091A62481110BC040E4D6
:1038500050E16AE872E28CE692E20E94F10781E0B0
:103860008093A62480919E2481110BC046E450E1F0
:103870006AE872E28EE492E20E94F10781E08093AE
:103880009E248091962481110BC04CE450E16AE89B
:1038900072E280E392E20E94F10781E08093962435
:1038A00080918E2481110BC042E550E16AE872E2FA
:1038B00082E192E20E94F10781E080938E24809160
:1038C000862481110BC048E550E16AE872E284EF7A
:1038D00091E20E94F10781E08093862480917E240A
:1038E00081110BC04EE550E16AE872E286ED91E28B
:1038F0000E94F10781E080937E24809176248111DB
:103900000AC040E750E168E281ED91E20E9435068D
:1039100081E08093762480916E2481110AC040E674
:1039200051E168E28CEC91E20E94F20681E0809322
:103930006E2480916624811129C041E064E0CE01AB
:1039400001960E94BB03E9808CEC882E81E2982EC0
:1039500091EDA92E91E2B92EC12C20E1D22E01E6E3
:1039600014E225E031E041E061EB8DE191E20E945B
:10397000C11587E890E280931D2190931E218DE16F
:1039800091E20E94A71981E08093662441E06CE0F7
:10399000CE0101960E94BB0345E060E0CE01029695
:1039A0000E94BB0344E060E0CE0103960E94BB038B
:1039B00029814A816B818DE191E20E94761641E076
:1039C0006CE0CE0101960E94BB038981182F1F7005
:1039D00082958F700E947103183038F4FC01709644
:1039E000E10FF11D8081806480838091A200876057
:1039F0008093A20078948DE191E22396CDBFDEBF43
:103A0000DF91CF911F910F91EF90DF90CF90BF90FA
:103A1000AF909F908F9008950E94BE19EC01E881AD
:103A2000F9810190F081E02DCE010995A895F7CF9D
:103A3000AA1BBB1B51E107C0AA1FBB1FA617B707D4
:103A400010F0A61BB70B881F991F5A95A9F78095F0
:103A50009095BC01CD010895A1E21A2EAA1BBB1BB3
:103A6000FD010DC0AA1FBB1FEE1FFF1FA217B3074A
:103A7000E407F50720F0A21BB30BE40BF50B661F60
:103A8000771F881F991F1A9469F760957095809524
:103A900090959B01AC01BD01CF010895052E97FBC8
:103AA0001EF400940E94651D57FD07D00E942C1D36
:103AB00007FC03D04EF40C94651D5095409530954D
:103AC00021953F4F4F4F5F4F08959095809570958A
:103AD00061957F4F8F4F9F4F0895A29FB001B39F75
:103AE000C001A39F700D811D1124911DB29F700D07
:103AF000811D1124911D08950E946D1DA59F900D9B
:103B0000B49F900DA49F800D911D11240895EE0F78
:103B1000FF1F0590F491E02D09948F929F92AF9230
:103B2000BF92CF92DF92EF92FF92CF93DF93EC019F
:103B3000688179818A819B81611571058105910573
:103B400021F464E279ED8BE597E02DE133EF41E07C
:103B500050E00E944E1D49015A019B01AC01A7EAA9
:103B6000B1E40E947C1D6B017C01ACEEB4EFA501B9
:103B700094010E94F520DC01CB018C0D9D1DAE1D32
:103B8000BF1DB7FF03C00197A109B048888399837F
:103B9000AA83BB83BC01CD019F77DF91CF91FF90BA
:103BA000EF90DF90CF90BF90AF909F908F9008954F
:103BB0008F929F92AF92BF92CF92DF92EF92FF923D
:103BC000609100207091012080910220909103204B
:103BD000611571058105910521F464E279ED8BE5AC
:103BE00097E02DE133EF41E050E00E944E1D490186
:103BF0005A019B01AC01A7EAB1E40E947C1D6B0154
:103C00007C01ACEEB4EFA50194010E94F520DC012B
:103C1000CB018C0D9D1DAE1DBF1DB7FF03C00197CD
:103C2000A109B0488093002090930120A093022026
:103C3000B0930320BC01CD019F77FF90EF90DF9000
:103C4000CF90BF90AF909F908F9008956093002089
:103C50007093012080930220909303200895FB012C
:103C6000DC0102C001900D9241505040D8F70895F8
:103C7000DC0101C06D9341505040E0F70895AEE083
:103C8000B0E0E5E4FEE10C9408210D891E8986E090
:103C90008C8309831A838FEF9FE78D839E83AE0108
:103CA000475E5F4F6F89788DCE0101960E94611E3D
:103CB000EF81F885E00FF11F10822E96E4E00C945E
:103CC0002121ABE0B0E0E7E6FEE10C94FA206C01C4
:103CD0007B018A01FC0116821782838181FFCCC19E
:103CE000CE0101963C01F6019381F70193FD859188
:103CF00093FF81917F01882309F4BAC1853239F499
:103D000093FD859193FF81917F01853229F4B6015E
:103D100090E00E945820E7CF912C212C312CFFE11C
:103D2000F315D8F08B3279F038F4803279F08332A1
:103D3000A1F4232D20611DC08D3261F0803369F420
:103D4000232D216016C0832D8260382EE32DE46080
:103D50003E2E2AC0F32DF8601DC037FC2DC020ED8B
:103D6000280F2A3040F08E32B9F436FC81C1232D61
:103D70002064322E19C036FE06C08AE0989E200DBF
:103D80001124922E11C0EAE02E9E200D1124222E25
:103D9000F32DF0623F2E08C08C3621F4832D80680D
:103DA000382E02C0883641F4F70193FD859193FFC8
:103DB00081917F018111B3CF982F9F7D95549330CE
:103DC00028F40C5F1F4F9FE399830DC0833631F0B9
:103DD000833771F0833509F059C021C0F801808123
:103DE00089830E5F1F4F88248394912C530113C045
:103DF0002801F2E04F0E511CF801A080B18036FE80
:103E000003C0692D70E002C06FEF7FEFC5010E9413
:103E10004D204C018201F32DFF773F2E16C0280163
:103E200022E0420E511CF801A080B18036FE03C092
:103E3000692D70E002C06FEF7FEFC5010E94422044
:103E40004C01F32DF0683F2E820133FC1BC0822D04
:103E500090E088169906B0F4B60180E290E00E94E6
:103E600058202A94F4CFF50137FC859137FE8191D3
:103E70005F01B60190E00E94582021102A9421E0B1
:103E8000821A91088114910471F7E8C0843611F008
:103E9000893641F5F80137FE07C060817181828162
:103EA00093810C5F1F4F08C060817181072E000C49
:103EB000880B990B0E5F1F4FF32DFF763F2E97FF58
:103EC00009C090958095709561957F4F8F4F9F4F5A
:103ED000F0683F2E2AE030E0A3010E949420882E53
:103EE000861845C0853731F4232D2F7EB22E2AE067
:103EF00030E025C0932D997FB92E8F36C1F018F48C
:103F0000883579F0B5C0803719F0883721F0B0C016
:103F1000E92FE061BE2EB4FE0DC0FB2DF460BF2E74
:103F200009C034FE0AC0292F2660B22E06C028E040
:103F300030E005C020E130E002C020E132E0F801CD
:103F4000B7FE07C060817181828193810C5F1F4F32
:103F500006C06081718180E090E00E5F1F4FA30179
:103F60000E949420882E8618FB2DFF773F2E36FE68
:103F70000DC0232D2E7FA22E891458F434FE0BC0C1
:103F800032FC09C0832D8E7EA82E05C0B82CA32C30
:103F900003C0B82C01C0B92CA4FE0FC0FE01E80D6F
:103FA000F11D8081803321F49A2D997EA92E09C0BC
:103FB000A2FE06C0B394B39404C08A2D867809F09B
:103FC000B394A3FC11C0A0FE06C0B21488F4280C60
:103FD000922C9B180EC0B21460F4B60180E290E0FF
:103FE0000E945820B394F7CFB21418F42B1802C0D3
:103FF000982C212CA4FE10C0B60180E390E00E9412
:104000005820A2FE17C0A1FC03C088E790E002C0C0
:1040100088E590E0B6010CC08A2D867859F0A1FEA3
:1040200002C08BE201C080E2A7FC8DE2B60190E005
:104030000E945820891438F4B60180E390E00E9471
:1040400058209A94F7CF8A94F301E80DF11D8081EE
:10405000B60190E00E9458208110F5CF222009F48B
:1040600042CEB60180E290E00E9458202A94F6CF1A
:10407000F6018681978102C08FEF9FEF2B96E2E1D8
:104080000C941321FC010590615070400110D8F789
:10409000809590958E0F9F1F0895FC016150704090
:1040A00001900110D8F7809590958E0F9F1F08956D
:1040B0000F931F93CF93DF93FB01238121FD03C057
:1040C0008FEF9FEF2CC022FF16C0468157812481BD
:1040D00035814217530744F4A081B1819D012F5FC0
:1040E0003F4F208331838C93268137812F5F3F4F51
:1040F0002683378314C08B01EC01FB010084F1851A
:10410000E02D0995892BE1F6D80116968D919C91A9
:104110001797019616968D939C931797CE01DF9172
:10412000CF911F910F910895FA01AA27283051F1DC
:10413000203181F1E8946F936E7F6E5F7F4F8F4FD8
:104140009F4FAF4FB1E03ED0B4E03CD0670F781F37
:10415000891F9A1FA11D680F791F8A1F911DA11D1C
:104160006A0F711D811D911DA11D20D009F4689455
:104170003F912AE0269F11243019305D3193DEF6FD
:10418000CF010895462F4770405D4193B3E00FD0B3
:10419000C9F7F6CF462F4F70405D4A3318F0495D9E
:1041A00031FD4052419302D0A9F7EACFB4E0A69581
:1041B0009795879577956795BA95C9F700976105A3
:1041C000710508959B01AC010A2E069457954795F9
:1041D00037952795BA95C9F7620F731F841F951FEE
:1041E000A01D0895B7FF0C947C1D0E947C1D821BAE
:1041F000930B08952F923F924F925F926F927F920E
:104200008F929F92AF92BF92CF92DF92EF92FF92E6
:104210000F931F93CF93DF93CDB7DEB7CA1BDB0B92
:10422000CDBFDEBF09942A88398848885F846E84B0
:104230007D848C849B84AA84B984C884DF80EE80CA
:10424000FD800C811B81AA81B981CE0FD11DCDBF0C
:0A425000DEBFED010895F894FFCFE2
:10425A0001000000011F1C1F1E1F1E1F1F1E1F1E04
:10426A001F1F1D1F1E1F1E1F1F1E1F1E1F000000B7
:10427A0000B105000000003E0600000000FB061029
:10428A00072207360700000000680E5C070309666C
:10429A000700000000970B9D0AA30A6C0E0000009D
:1042AA0000680E690EEC0CCF0C2530376C750000D7
:1042BA00000000680E690E6B0E6C0E00000000E331
:1042CA0017D50EBD0E550F8813860E451369136D4B
:1042DA000EC51400000000E317D50EBD0EA71988FD
:0C42EA0013860E451369136D0EC51400F9
:00000001FF
