:108000000C940E410C9460410C9460410C946041BE
:108010000C9460410C9460410C9460410C9460415C
:108020000C9460410C9460410C9460410C9460414C
:108030000C9460410C9460410C9460410C9460413C
:108040000C9460410C9460410C9460410C9460412C
:108050000C9460410C9460410C9460410C9460411C
:108060000C9460410C9460410C9460410C9460410C
:108070000C9460410C9460410C9460410C946041FC
:108080000C9460410C9460410C9460410C946041EC
:108090000C9460410C9460410C9460410C946041DC
:1080A0000C9460410C9460410C9460410C946041CC
:1080B0000C9460410C9460410C9460410C946041BC
:1080C0000C9460410C9460410C9460410C946041AC
:1080D0000C9460410C9460410C9460410C9460419C
:1080E0000C9460410C9460410C9460410C9460418C
:1080F0000C9460410C9460410C9460410C9460417C
:108100000C9460410C9460410C9460410C9460416B
:108110000C9460410C9460410C9460410C9460415B
:108120000C9460410C9460410C9460410C9460414B
:108130000C9460410C9460410C9460410C9460413B
:108140000C9460410C9460410C9460410C9460412B
:108150000C9460410C9460410C9460410C9460411B
:108160000C9460410C9460410C9460410C9460410B
:108170000C9460410C9460410C9460410C946041FB
:108180000C9460410C9460410C9460410C946041EB
:108190000C9460410C9460410C9460410C946041DB
:1081A0000C9460410C9460410C9460410C946041CB
:1081B0000C9460410C9460410C9460410C946041BB
:1081C0000C9460410C9460410C9460410C946041AB
:1081D0000C9460410C9460410C9460410C9460419B
:1081E0000C9460410C9460410C9460410C9460418B
:1081F0000C9460410C9460410C946041244D4F44B8
:108200002420484257426F6F7465720000100000CE
:108210000110B2007F42FC42A846144711241FBE41
:10822000CFEFCDBFDFE2DEBF80E08CBF84E20E94F3
:108230002A4360E081E490E00E940F438091500067
:108240008660809350008091510086708630D9F707
:1082500060914000687F616080E490E00E940F437D
:1082600080914000809150008E7F809350008091DB
:1082700050008091600081608093600010E2A0E077
:10828000B0E2ECE7FFE802C005900D92AA30B1071A
:10829000D9F721E2AAE0B0E201C01D92A739B207E6
:1082A000E1F711E4CEE0D1E404C02197FE010E9481
:1082B0007A47CA30D107C9F70E94DF410C94BC4706
:1082C0000C940040FC01638172818181908108954A
:1082D000CF92DF92EF92FF92CF93DF93CDB7DEB7CD
:1082E0006C97CDBFDEBF28E130E0AE014F5F5F4F3E
:1082F0006CEF71E080E090E00E94B646489709F08C
:1083000050C08F898D7F803B09F04BC089899A8945
:10831000AB89BC890197A109B1091092C0011092E3
:10832000C1011092C2018093C401492F5A2F6B2FB3
:1083300077274093C501CD01AA27BB278093C601AB
:108340008AE30E9418479091C6018091C501C090B0
:10835000C401D12CE12CF12CE92A90E0982F882738
:10836000A0E0B0E0C82AD92AEA2AFB2A1092CA0162
:1083700069897A898B899C8924E030E0AE01475E67
:108380005F4F0E94B646898D9A8DAB8DBC8D8C1542
:108390009D05AE05BF0529F48D89813011F48093C8
:1083A0000E206C96CDBFDEBFDF91CF91FF90EF9096
:1083B000DF90CF9008951CBEE0E0F0E00994CF93E9
:1083C000DF9300D000D0CDB7DEB780E090E00E9410
:1083D0008947882329F060E080E090E00E94994777
:1083E00060E074E082E00E948E428091CF0187FDC0
:1083F000FCCF8091CC0188608093CC018AE090E230
:1084000080937D2190937E21E0910C20F0910D20AE
:10841000178287E6868383E2858388E1848382EB03
:108420008093162180E090E1809314219093152190
:108430008091061090910710A0910810B09109103A
:1084400089839A83AB83BC83CE0101960E946241EB
:108450008B019C011D532F4830460038164928498E
:10846000310540F460930020709301208093022036
:1084700090930320809113218260809313210E94A6
:1084800068418FE7F82E80910E20882321F080919B
:10849000780085FF31C08091132180FF07C08E7F57
:1084A00080931321F09278000E9468410E942C452D
:1084B0008C010097C9F0FC01808180FF04C081E03D
:1084C0009585973709F080E080930F20882321F06D
:1084D00010920E200E94E242C8010E94C5438823E8
:1084E00019F0C8010E9414460E94354380910F2064
:1084F0000E94E542A895C7CF0E94DB41CCCF8AE01D
:1085000090E20C94D6429091010490FDFCCF9091A2
:108510000004987F892B8093000408958091430084
:10852000817F8560809343008091080490910904C5
:108530002091010420FDFCCF2FEF3FEF20930A0490
:1085400030930B042091010420FDFCCF809308049C
:10855000909309048091010480FDFCCF10920C04DB
:1085600010920D0481E00C94834280910804909154
:10857000090408952091080430910904FC01408108
:108580005181C901841B950B2417350728F40197E5
:1085900097FF02C080E090E0089581E0662319F023
:1085A0008093E50708958093E607089528E030E278
:1085B000FC012083318320EA3AE022833383109246
:1085C000E1070895109212200895882329F08091E0
:1085D000E4078093E407089580E190E20E94BA42A4
:1085E000853F914040F01092E7070E94B54280938A
:1085F0001020909311200895E0EEF7E081E082834F
:108600008183E0E8F6E084E0828388E082838183EE
:108610000E94B54280931020909311200895FC0190
:108620009FB7F8941BBE88ED84BF60839FBF0895F9
:10863000CF93DF93EC010E94B54285E5FE011192D4
:108640008A95E9F7DF91CF9108958091CF0187FD59
:10865000FCCF0895682F636080E890E00E940F438C
:108660008091820080FDFCCF08954F925F926F92BF
:108670007F92AF92BF92CF92DF92EF92FF920F93D1
:108680001F93CF93DF93CDB7DEB7C555D109CDBFCB
:10869000DEBF8091132181FF65C08AE791E20E94CD
:1086A000BA42089708F45EC0E0911421F0911521B8
:1086B000108100911621C0900020D0900120E09000
:1086C0000220F0900320CE0101960E941843C98633
:1086D000DA86EB86FC868FEF9FEFDC018C839D832F
:1086E000AE83BF8388EF888781E48E871F86088BDF
:1086F000198B81E08A8B80E18B8B88E48C8B82E400
:108700008D8B87E58E8B8E01025E1F4F5E01F7E138
:10871000AF0EB11C8AE0482E512C612C712CC70180
:10872000B601A30192010E945847605DF80162936F
:108730008F01C114D104E104F10421F4A016B106A3
:1087400071F703C069017A01F9CF80E18D87CE010D
:1087500001960E941446811105C0809113218D7FDE
:1087600080931321CB5ADF4FCDBFDEBFDF91CF9176
:108770001F910F91FF90EF90DF90CF90BF90AF903F
:108780007F906F905F904F900895CF92DF92EF921D
:10879000FF920F931F93CF93DF93EC010E944B4402
:1087A000182F882309F46CC08F8180FD69C08881EF
:1087B00080FF66C08D85833449F0873759F085374F
:1087C00009F05EC080911321826034C08091132132
:1087D000816030C08C85873008F452C088899989BF
:1087E0009827892798276C01092E000CEE08FF08AE
:1087F0000A899927402F50E0BE016D5E7F4F8D5E44
:108800009F4D0E948047D701C601800F911DA11D79
:10881000B11D811111C0C701B601662788279927AC
:1088200020E031E043E150E20E94E34681159140AF
:1088300039F502C0809313218B819C81AD81BE816B
:108840008F3F9F4FAF4FBF4FD9F088859985AA853D
:10885000BB858B839C83AD83BE83809100209091E8
:108860000120A0910220B091032088879987AA87D0
:10887000BB878F811C868295807689618F8301C03A
:1088800010E0812FDF91CF911F910F91FF90EF901A
:10889000DF90CF900895FC01208120FF17C0438115
:1088A0005481658176818091002090910120A09172
:1088B0000220B0910320481759076A077B0741F04F
:1088C00081E04F3F5F4F6F4F7F4F19F080E0089579
:1088D00081E00895FB0198E0408151819A01220FC7
:1088E000331F87FD21602083318357FF08C020811B
:1088F000318142E0242740E1342720833183880FEF
:10890000915051F70895CF93DF93FC01208121FF0F
:1089100013C0EC0103960E9462416B837C838D83BC
:108920009E83CE0108960E946241688779878A8774
:108930009B8788818D7F8883DF91CF910895CF9326
:10894000C82F0E94B54280937A2190937B21809119
:108950007221CC3F21F481608093722179C0CD3F98
:10896000D1F482608E7F80937221109270218FEFFC
:108970009FEF80936E2190936F21809117218E7FBE
:10898000826080931721109223216EE671E28DEFB1
:108990000E946A445DC081FF5BC080FF04C0C06864
:1089A0008E7F809372216EE671E28C2F0E946A4462
:1089B00040917021E42FF0E0E65EFE4DC08344302C
:1089C00049F480911E21982F97709330C9F183FF4D
:1089D00037C039C080912321493041F4893498F15E
:1089E000809172218D7F809372212DC050E060E0D4
:1089F00070E090E0A0E0B0E00996A11DB11D48171D
:108A000059076A077B07F9F480916E2190916F21D5
:108A1000892BC9F487E191E20E948344809123214C
:108A2000825080932321809172218D7F80937221C7
:108A30008091172181608093172187E191E20AC01C
:108A400088E080937021809170218F5F80937021E6
:108A500080E090E0CF910895E0917D21F0917E211A
:108A6000309779F00280F381E02D818187FF09C082
:108A7000818187FFFDCF918180819C7111F40C94DD
:108A80009F4480E090E00895EF92FF920F931F9330
:108A9000CF93DF93C0917321D0917421209709F473
:108AA000B6C08C019091772180917921911129C0D4
:108AB00081FD27C08260809379218FEF9FEF8093A3
:108AC000752190937621888181FD13C0CE01039694
:108AD0000E9462416B837C838D839E83CE010896C6
:108AE0000E946241688779878A879B878881826034
:108AF00088838DEFF801808365E771E20E946A4404
:108B000081C081FF81C07E01F3E0EF0EF11CF7010F
:108B1000E90FF11D8081F801808340917721443075
:108B200049F48F81982F9770933009F472C083FFB6
:108B300070C016C0493021F48E5FF801808310C0E8
:108B400050E060E070E08C8590E0A0E0B0E00B9633
:108B5000A11DB11D84179507A607B70708F457C0D4
:108B60008091792180FD40C065E771E2F801808144
:108B70000E946A444091772150E060E070E08C856B
:108B800090E0A0E0B0E00996A11DB11D481759077B
:108B90006A077B07E1F465E771E280E00E946A44BE
:108BA00065E771E280E00E946A44809177218F5FDF
:108BB000F701E80FF11D8091762180838091772164
:108BC0008E5FF701E80FF11D809175218083F80118
:108BD00080818C5F833088F48091792181608093DB
:108BE00079218CEF80830EC0F80180818F7780839C
:108BF000809179218E7F80937921809177218F5F79
:108C00008093772181E009C0CE010E94834480E0F7
:108C100004C088E080937721A3CFDF91CF911F918B
:108C20000F91FF90EF900895EF92FF921F93CF93D3
:108C3000DF931F92CDB7DEB77C0180917D219091AB
:108C40007E21892B69F08AE791E20E94BA42089757
:108C500048F4D70117968C9187708130A1F702C034
:108C600081E06FC0E0927321F0927421109277211D
:108C7000809179218D7F80937921D70117968C91EE
:108C800080FD06C0F7019081969596959370B1F19D
:108C900080917D2190917E21DC01ED91FC910190EC
:108CA000F081E02D61E0099510E0CE0101960E946F
:108CB0004445A0917D21B0917E21882389F089814E
:108CC0001296ED91FC911397948193FD05C012E0EB
:108CD000ECCF948193FF1BC0918195FFFACF17C011
:108CE0001296ED91FC91139781818064818381813B
:108CF00086FD0FC0848183FF0CC0F9CF90917C2149
:108D00009370990F897F892BF7018783C1CF808367
:108D1000CCCFED91FC9111970190F081E02D60E0B6
:108D2000CD01099511110AC0F701878180FD08C0A6
:108D300080917C218F5F80937C2102C0812F01C0B4
:108D400080E00F90DF91CF911F91FF90EF900895F9
:108D500010927A2110927B210E94B54285E5E7E1CD
:108D6000F1E2DF011D928A95E9F70895CF92DF9233
:108D7000EF92FF926B017C01C20ED31EE11CF11C2D
:108D8000C114E0E9DE06E104F104A0F4DA01420FC7
:108D9000531FA417B50789F06B017C01EFEFCE1AC2
:108DA000DE0AEE0AFE0A8BBFFB0167916D93C701D5
:108DB000B601EFCF80E090E001C0C901FF90EF90D5
:108DC000DF90CF900895CF92DF92EF92FF92CF93F2
:108DD000DF9361110DC06B017C01C20ED31EE11C3B
:108DE000F11CE1E0CE16E0E9DE06E104F10418F042
:108DF00080E090E012C0E9016B017C01CA010E9491
:108E000027478091CF0187FDFCCF45E2C701B6011E
:108E10000E94DC471092CA01CE01DF91CF91FF90F2
:108E2000EF90DF90CF9008958FEF80938721089582
:108E3000E0ECF1E0928582878FB7F8941BBE28EDB5
:108E400024BF21E02093CB018FBF92870895CF925A
:108E5000DF92EF92FF92CF93DF937C010E94254334
:108E600046E260E070E0CB010E94DC47E701C12CE4
:108E7000D12C76018881498150E0542F4427480F36
:108E8000511DC701B6010E94EB47229682E0C80E31
:108E9000D11CE11CF11CC11481E0D806E104F104ED
:108EA00049F7DF91CF91FF90EF90DF90CF90089539
:108EB000A1E21A2EAA1BBB1BFD010DC0AA1FBB1FDE
:108EC000EE1FFF1FA217B307E407F50720F0A21B50
:108ED000B30BE40BF50B661F771F881F991F1A94BD
:108EE00069F760957095809590959B01AC01BD01E7
:108EF000CF010895EE0FFF1F0590F491E02D099426
:108F0000FB01DC0102C001900D9241505040D8F7A6
:108F1000089503D0808199270895E0ECF1E037852A
:108F200037FDFDCF348538603487FC01E050F04FC9
:108F30000895262FE0ECF1E0378537FDFDCF34852D
:108F4000377F3487378531FF09C036E3328738ED04
:108F500034BF31E03387378537FDFDCF33E33287C8
:108F6000808391831282248325E3228728ED31E0D8
:0C8F700024BF338701960895F894FFCFCA
:0A8F7C00003D8F6000000000CD42B0
:108FB8009BB78BBFFB018091CA014093CA017DE931
:108FC80070933400E8958093CA019BBF089520915F
:108FD800CF0127FDFCCF9BB78BBFFB018091CA0156
:108FE80023E22093CA010A01E89511248093CA015B
:048FF8009BBF08957E
:040000030000800079
:00000001FF
