:100000000C945A010C9477010C9477010C947701AD
:100010000C9477010C9477010C9477010C94770180
:100020000C9477010C9477010C946E050C94870561
:100030000C9477010C9477010C944C1B0C94751B59
:100040000C949E1B0C94C71B0C94F01B0C94191C55
:100050000C94421C0C946B1C0C94941C0C94BD1CB2
:100060000C9477010C9477010C9477010C94770130
:100070000C9477010C9477010C9477010C94770120
:100080000C9477010C9477010C9477010C94770110
:100090000C9477010C9477010C9477010C94770100
:1000A0000C9477010C9477010C9477010C947701F0
:1000B0000C9477010C9477010C9477010C94801EBA
:1000C0000C94A91E0C94D21E0C94FB1E0C94241F9D
:1000D0000C944D1F0C9477010C9477010C947701CC
:1000E0000C9477010C9477010C9477010C947701B0
:1000F0000C9477010C9477010C9477010C947701A0
:100100000C9477010C9477010C9477010C9477018F
:100110000C9477010C9477010C9477010C9477017F
:100120000C9477010C9477010C9477010C9477016F
:100130000C9477010C94E61C0C940F1D0C94381D44
:100140000C94611D0C948A1D0C94B31D0C94DC1D41
:100150000C94051E0C942E1E0C94571E0C947701C3
:100160000C9477010C9477010C9477010C9477012F
:100170000C9477010C9477010C9477010C9477011F
:100180000C9477010C9477010C9477010C9477010F
:100190000C9477010C9477010C9477010C947701FF
:1001A0000C9477010C9477010C9477010C947701EF
:1001B0000C9477010C9477010C9477010C947701DF
:1001C0000C9477010C9477010C9477010C947701CF
:1001D0000C9477010C9477010C9477010C947701BF
:1001E0000C9477010C9477010C9477010C947701AF
:1001F0000C9477010C9477010C9477012D3E554EA9
:100200004B4E4F574E0A002D3E4453313858323032
:100210000A00493A20307800433A20312D5769725C
:100220006520427573204572726F7200433A204E0A
:100230006F206465766963657320666F756E640A06
:10024000002000533A2000543A2046575665720A5F
:1002500000543A2048575665722C5479700A00436E
:100260003A20577269746520454550524F4D0A0037
:10027000433A205265616420454550524F4D0A0073
:10028000453A204352430A000A00453A204D73671D
:10029000546F6F4C6F6E670A003A00523A20000AA2
:1002A00000543A2000523A2041434B0A00423A207F
:1002B00032410A0011241FBECFEFCDBFDFE2DEBF07
:1002C00010E2A0E0B0E2E0EEF3E502C005900D928E
:1002D000A239B107D9F724E2A2E9B0E201C01D9228
:1002E000A832B207E1F70E947C240C94EE290C940A
:1002F00000008115924061F48091922091E0980F66
:1003000090939220811104C062E081E00C946925F1
:1003100008958115924059F48091922081508093E4
:100320009220811104C062E081E00C947B25089545
:10033000CF93DF931F92CDB7DEB78FB78983F89441
:1003400089810F90DF91CF910895FF920F931F93B2
:10035000CF93DF9381159240E1F5EB0161E270E00C
:1003600082E00E948C25082F10E060E270E082E0BD
:100370000E948C25102F0027082B0E949801F82E30
:1003800080E092E00E9479018091000292E09093D7
:10039000000200930C0210930D022D813E812093E8
:1003A0001802309319029A81909302029C819093D3
:1003B00004029B81909303029981909301028170C2
:1003C0009881892B8093000280E092E00E9489014D
:1003D000FFBEDF91CF911F910F91FF900895FF9283
:1003E0000F931F93CF93DF93EC018B010E94980131
:1003F000F82ECE010E9479018881807CF8018083EB
:10040000888D998D858396838A8182838C8184836C
:100410008B81838389818183CE010E948901FFBE04
:10042000DF91CF911F910F91FF900895CF92DF92AE
:10043000EF92FF920F931F93CF93DF936C01F62EF1
:100440008A01862F8370962F21F49695969582E0E7
:1004500001C080E090FF8F5FE601A09698E0899F41
:10046000C00DD11D11240E949801E82EC6010E94E2
:100470007901F8018081888382818A8381818983DF
:10048000F0FE02C083818E83C6010E948901EFBE07
:10049000DF91CF911F910F91FF90EF90DF90CF9060
:1004A0000895CF92DF92EF92FF920F931F93CF9315
:1004B000DF936C01F62E8A01862F8370962F21F42C
:1004C0009695969582E001C080E090FF8F5FE601EF
:1004D000A09698E0899FC00DD11D11240E9498011B
:1004E000E82EC6010E9479018881F80180838A8103
:1004F000828389818183F0FE02C08E818383C6015D
:100500000E948901EFBEDF91CF911F910F91FF9063
:10051000EF90DF90CF900895FC012385FB012083AD
:10052000FC018285FB01818382E008950895CF93C9
:10053000DF93EC0187E190E2888399836A837B8370
:100540004C832D833E8381E08F830E940E056E874E
:100550007F87888B998B0E940E056A8B7B8B8C8B97
:100560009D8B8AE090E0888799871E861F86188A6F
:10057000198ADF91CF9108952F923F924F925F9207
:100580006F927F928F929F92AF92BF92CF92DF92A3
:10059000EF92FF920F931F93CF93DF93CDB7DEB708
:1005A0002797CDBFDEBF2C015B014F83222E302E5B
:1005B000812C912C612C712CD20112968C91129766
:1005C00090E0681679060CF051C013964D915C913D
:1005D0001497480D591D00E026E030E0BE016F5F22
:1005E0007F4FC5010E94D71089818F3FC1F1BF8124
:1005F0008B1335C08A819D819A838D838B819C81E9
:100600009B838C83CA80DB80EC80FD80C5010E94C7
:10061000920FDC01CB014A815B816C817D81F50108
:1006200020813181C816D906EA06FB0659F4D901A2
:100630005096ED91FC915197E32C0E812F81C501CD
:1006400009950DC0D9011C96ED91FC911D97CE80A6
:100650007A018B01232D422D6F81C5010995BFEFD2
:100660006B1A7B0AE6E08E0E911CA6CF2796CDBFB3
:10067000DEBFDF91CF911F910F91FF90EF90DF9040
:10068000CF90BF90AF909F908F907F906F905F9032
:100690004F903F902F900895FC0181E290E280837B
:1006A000918362834383548308952F923F924F92A4
:1006B0005F926F927F928F929F92AF92BF92CF92F2
:1006C000DF92EF92FF920F931F93CF93DF93CDB7FB
:1006D000DEB76697CDBFDEBF4C015B0119012A0171
:1006E000F02E10E03E0121E1620E711C8DECD82E3F
:1006F000D40112968C911297181708F080C01396A7
:100700004D915C911497B0E11B9F400D511D112438
:1007100000E020E130E0BE016F5F7F4FC5010E9425
:10072000D7108D818F1169C08E818E1166C089812D
:100730009A81AB81BC818F3F9F4FAF4FBF4F09F470
:100740005CC089819C8199838C838A819B819A83F7
:100750008B8389819A81AB81BC8182159305A40525
:10076000B50509F04AC0D301E6E01D92EA95E9F724
:10077000FFEFF98B99859A8B28852B8B8C858C8B39
:100780008D858D8B8E858E8B8F81CC2099F09B856E
:100790009A8B2A852B8B86958695869587708330D4
:1007A00031F060F0843091F48CEC898B1BC02BEC21
:1007B000298B18C08770833081F030F4882351F082
:1007C0008130D9F4998B07C0843051F08530A9F479
:1007D000D98A08C0298B41E006C0ABECA98B02C0C6
:1007E000BCECB98B46E0D501ED91FC910280F38120
:1007F000E02D93016E2DC50109951F5F79CF669697
:10080000CDBFDEBFDF91CF911F910F91FF90EF9091
:10081000DF90CF90BF90AF909F908F907F906F9020
:100820005F904F903F902F900895FC0187E290E2F7
:10083000808391836283438354830895DC011C96F3
:10084000ED91FC911D978181082E000C990B892F49
:10085000881F8827881F90E008958FEF9FEF0895E5
:10086000DC011C96ED91FC911D9720E421831C96E0
:10087000ED91FC911D97818186FFFDCF0895FC01CC
:10088000848595850E94900621E030E0882311F050
:1008900020E030E0C9010895FC01848595850E941F
:1008A000980690E00895FC011282138288EE93E08E
:1008B000A0E0B0E084839583A683B7838DE290E2C5
:1008C00080839183648775870895CF92DF92EF923A
:1008D000FF920F931F93CF93DF93EC010E940E05BD
:1008E000C880D980EA80FB808B019C010C191D090E
:1008F0002E093F096C157D058E059F0560F4C90121
:10090000B801615071098109910997FF06C060E043
:1009100070E0CB0102C0C901B801DF91CF911F91F6
:100920000F91FF90EF90DF90CF900895AB01982F3B
:10093000969596959695877021E030E0B90101C0B3
:10094000660F8A95EAF720E2929FC00111249A5F10
:100950000C949C2561E070E081E20E94960463E0C3
:1009600070E480E20E94960461E070E488E70E94EF
:10097000960461E070E489E70E94960461E070E407
:1009800080E10E94960461E070E481E10E94960497
:1009900061E070E482E10E94960461E070E483E12A
:1009A0000E94960461E070E484E10E94960461E094
:1009B00070E485E10E94960460E078E180E00E94A6
:1009C000960460E078E181E00E94960460E078E1BE
:1009D00082E00E94960460E078E183E00E94960441
:1009E00060E078E184E00E94960460E078E185E0D0
:1009F0000E94960463E070E087E10E94960460E044
:100A000070E086E10E94960463E070E083E20E9459
:100A1000960460E070E082E20C9496040F931F93BA
:100A2000CF93DF931F92CDB7DEB78091010480FD95
:100A3000FCCF8FB78983F894298180911A249091F3
:100A40001B2460910804709109046115710521F45B
:100A50003091030430FD01962FBFA0E0B0E0DC012F
:100A600099278827AB0160E070E08C019D01042B81
:100A7000152B262B372BC901B8010F90DF91CF9191
:100A80001F910F910895CF93DF931F92CDB7DEB7DB
:100A900064E080E00E9469258FEF9FEF80930A0455
:100AA00090930B041092080410920904809125245D
:100AB0008F3F09F4FFCF8FB78983F8949981809194
:100AC00025248F5F809325249FBF81E080930204BB
:100AD000809300040F90DF91CF9108951F920F92A1
:100AE0000FB60F9211248F939F93EF93FF93EAE138
:100AF000F4E280819181019680839183FF91EF914F
:100B00009F918F910F900FBE0F901F9018951F927D
:100B10000F920FB60F921124CF92DF92EF92FF92B5
:100B20000F931F932F933F934F935F936F937F93F5
:100B30008F939F93AF93BF93EF93FF9340911A24AA
:100B400050911B2400911C2410911D244017510723
:100B5000B8F181E080930204E0912024F0912124F7
:100B6000309771F1809108049091090460E070E081
:100B7000BA0155274427A0E0B0E06A017B01C82AEA
:100B8000D92AEA2AFB2AC701B60120E030E0980101
:100B900011270027C0901E24D0901F24E12CF12C97
:100BA0000C291D292E293F29061717072807390761
:100BB00030F0C901B8016F5F7F4F8F4F9F4F09958C
:100BC000FF91EF91BF91AF919F918F917F916F9125
:100BD0005F914F913F912F911F910F91FF90EF9057
:100BE000DF90CF900F900FBE0F901F901895009739
:100BF00009F495C0803C910511F460E105C08115B0
:100C000024E0920719F464E080E087C0803821E096
:100C1000920711F462E0F8CF811521E0920711F4F8
:100C200061E0F2CF803823E0920711F461E005C063
:100C3000811522E0920719F462E081E06EC08032F3
:100C400023E0920719F464E082E067C0811528E090
:100C5000920711F461E05AC0811529E0920711F45E
:100C600061E04DC081152AE0920711F461E054C0A3
:100C7000803428E0920711F462E048C0803429E013
:100C8000920711F462E03BC0803928E0920711F42A
:100C900064E03CC0803929E0920711F464E02FC081
:100CA00080392AE0920711F464E036C0803C28E0E5
:100CB000920711F468E02AC0803C29E0920711F401
:100CC00068E01DC0803A28E0920711F460E11EC080
:100CD000803A29E0920711F460E111C0803A2AE0DD
:100CE000920711F460E118C0803B28E0920711F4EC
:100CF00060E20CC0803B29E0920719F460E284E0D6
:100D00000CC0803824E0920719F460E483E005C049
:100D1000803A944021F460E485E00C9469250895BC
:100D2000FC01218125FFFCCF608380E090E00895E5
:100D3000FC01218127FFFCCF808108958F929F9233
:100D4000AF92BF92CF92DF92EF92FF920F931F93D9
:100D5000CF93DF93EC016A017B01480159018C813B
:100D6000B901A80182FF11C033E0769567955795C8
:100D700047953A95D1F7D501C401E6E1B695A79517
:100D800097958795EA95D1F710C094E07695679589
:100D9000579547959A95D1F7D901C80127E1B6959E
:100DA000A795979587952A95D1F74C155D056E0502
:100DB0007F0508F498C0C816D906EA06FB0608F4B1
:100DC00092C08C8182FD04C0CC0CDD1CEE1CFF1C8B
:100DD000C501B401A70196010E94C22519EF8FEF4A
:100DE00090E0A0E0B0E0281739074A075B0758F009
:100DF000880F991FAA1FBB1F1D3F0CF481601F5F46
:100E0000173089F749C017FF47C0D701C601F3E083
:100E1000880F991FAA1FBB1FFA95D1F7881A990A44
:100E2000AA0ABB0A812F012E000C990B1E3FDCF48D
:100E30002DEF3FEFA901481B590B04C0880C991CEA
:100E4000AA1CBB1C4A95D2F7D701C601B695A79537
:100E500097958795BC01CD01680D791D8A1D9B1D55
:100E6000A701960116C00396A701960104C0220FA0
:100E7000331F441F551F8A95D2F7DA01C901B69571
:100E8000A79597958795BC01CD01680D791D8A1DA1
:100E90009B1D0E94C2251DC083E0810FA701960102
:100EA00004C0220F331F441F551F8A95D2F7DA0161
:100EB000C901B695A79597958795BC01CD01680D99
:100EC000791D8A1D9B1D0E94C225215031094109AF
:100ED0005109932F9F70812F8295807F892B8F835B
:100EE0002E8381E001C080E0DF91CF911F910F91AF
:100EF000FF90EF90DF90CF90BF90AF909F908F903A
:100F000008950F931F93CF93DF93EC018B010E9401
:100F1000F7058D818F738D83F80195818481982BDE
:100F20008681811188E0892B8D83F8014081518170
:100F30006281738100E016E32EE631E0CE010E946B
:100F40009E069C8198609C839C8190619C83DF912C
:100F5000CF911F910F910895CF92DF92EF92FF9260
:100F60000F931F93CF93DF936C017A018B01C0E045
:100F7000D0E0CE15DF0581F0D8016D918D01D6014D
:100F8000ED91FC910190F081E02DC6010995892B2E
:100F900011F02196EECF7E01C701DF91CF911F9115
:100FA0000F91FF90EF90DF90CF900895611571053C
:100FB00079F0FB0101900020E9F73197AF01461B62
:100FC000570BDC01ED91FC910280F381E02D099437
:100FD00080E090E00895EF92FF920F931F93CF93DC
:100FE000DF938C017B01C0E0D0E0F701EC0FFD1F27
:100FF0006491662361F0D801ED91FC910190F0813C
:10100000E02DC8010995892B11F02196EECFCE0174
:10101000DF91CF911F910F91FF90EF9008950C9465
:10102000D607DC01ED91FC910190F081E02D09944F
:101030008F929F92AF92BF92EF92FF920F931F9366
:10104000CF93DF93CDB7DEB7A197CDBFDEBF7C01D5
:10105000FA01CB0119A2223008F42AE08E010F5DBB
:101060001F4F822E912CA12CB12CBF01A501940100
:101070000E94C225F901CA01015011096A3010F419
:10108000605D01C0695CD8016C93232B242B252B58
:1010900061F7B801C7010E94D607A196CDBFDEBF98
:1010A000DF91CF911F910F91FF90EF90BF90AF9084
:1010B0009F908F9008952115310541F4DC01ED9149
:1010C000FC910190F081E02D642F09940C94180894
:1010D0009A01462F50E060E070E00C945B08CF92DC
:1010E000DF92EF92FF920F931F93CF93DF9321151F
:1010F000310581F4DC01ED91FC910190F081E02D4E
:10110000642FDF91CF911F910F91FF90EF90DF90AF
:10111000CF9009942A30310501F577FF1DC06A018F
:101120007B01EC016DE20E9411088C0144275527D8
:10113000BA014C195D096E097F092AE0CE010E94AF
:101140001808800F911FDF91CF911F910F91FF9091
:10115000EF90DF90CF9008952AE0DF91CF911F911B
:101160000F91FF90EF90DF90CF900C9418089A01A8
:10117000AB01770F660B770B0C946F086115710547
:101180008105910511F00C94B6260895CF92DF9257
:10119000EF92FF92611571058105910549F06B0190
:1011A0007C010E946826A70196010E94E42503C0E5
:1011B00060E070E0CB01FF90EF90DF90CF9008955A
:1011C000CF92DF92EF92FF920F931F9362177307F4
:1011D0008407950784F489019A016B017C01C90198
:1011E000B8016C197D098E099F090E94C6086C0D13
:1011F0007D1D8E1D9F1D1F910F91FF90EF90DF9021
:10120000CF900895FC012189FB012083FC01808996
:10121000FB01818382E00895CF93DF93EC010E946C
:101220000E05688379838A839B83DF91CF9108952C
:101230000F931F93CF93DF93EC018A018DE390E22C
:1012400088839983FB0180818A831D82CE01449625
:101250000E940C09CE0148960E940C090B831C8346
:1012600080ED97E08E879F871C8A1D8A1E8A1F8AC1
:10127000DF91CF911F910F910895982F81E09832BF
:1012800021F0903111F080E008950895FF920F93BE
:101290001F93CF93DF93EC01F62E8C010E5F1F4F4F
:1012A000C8010E94BF199A81E92FF0E053E0F5953B
:1012B000E7955A95E1F765E0EE0FFF1F6A95E1F7B4
:1012C000FA5F3085292F277081E090E001C0880FF8
:1012D0002A95EAF78323F1F1F11004C0AE014A5FC9
:1012E0005F4F02C040E050E064E4C8010E94E71A8A
:1012F00080910420811130C08A81E82FF0E093E0D2
:10130000F595E7959A95E1F725E0EE0FFF1F2A95F1
:10131000E1F7FA5F282F277081E090E0AC0102C06E
:10132000440F551F2A95E2F745832A81E22FF0E00A
:1013300033E0F595E7953A95E1F745E0EE0FFF1FAD
:101340004A95E1F7FA5F277001C0880F2A95EAF7FE
:10135000818302C081E001C080E0DF91CF911F91C5
:101360000F91FF900895FB0120813181DC011696D9
:101370008C91803161F42E7F43E0220F331F4A9518
:10138000E1F78681281B3109245F3F4F10C0883266
:1013900071F48481982F9076903649F086FF02C0D0
:1013A0002E7F05C085FF02C02C7F01C0287FC901A8
:1013B00034E0969587953A95E1F7B4E68B02C00143
:1013C0001124322F23FDC29632FD499631FD0D9630
:1013D00030FD069608958F929F92AF92BF92CF9262
:1013E000DF92EF92FF920F931F93CF93DF93CDB7CE
:1013F000DEB72997CDBFDEBF7C016C0182E0C80E4D
:10140000D11CC6010E94BF19A7014A5F5F4F6EEB56
:10141000C6010E94E71A8E010F5F1F4F4E01EAE0DE
:101420008E0E911C58016FEFC6010E94741AF801CC
:1014300081938F01E815F905B1F740E069E070E0AC
:10144000C5010E94171B811109C0B501C7010E9487
:10145000B309F701808B918B80E001C083E029966E
:10146000CDBFDEBFDF91CF911F910F91FF90EF9025
:10147000DF90CF90BF90AF909F908F900895BC0168
:101480008091A2209091A320009711F00C94EB077B
:1014900008954F925F926F927F928F929F92AF9238
:1014A000BF92CF92DF92EF92FF920F931F93CF9351
:1014B000DF93CDB7DEB72697CDBFDEBFDC011E962A
:1014C0002D913C911F97232B09F437C1942E5B017A
:1014D0006C0144960E946504F601268537858901D2
:1014E00020E030E0601771078207930708F425C1F8
:1014F000CE0101960E940C0989819A81AB81BC8141
:10150000F601848B958BA68BB78B858181114EC09C
:101510001FEF4601F6E08F0E911C760122E0E20EED
:10152000F11CA401612FC7010E948F1A182F8F3F51
:1015300019F48CE292E004C08E3F29F488E192E035
:101540000E943F0A30C082E192E00E943F0A5401AB
:1015500008E08091A2209091A320009731F04AE00A
:1015600050E0D5016C910E9468080150BFEFAB1AA2
:10157000BB0A0111EECFF60186810E943D09882346
:1015800061F087E092E00E943F0A81E0D601159663
:101590008C93159784E690E0CCC08CEF91E00E948C
:1015A0003F0A1111BECF88EE93E015C08130B9F427
:1015B00061E0C6010E94460981110BC088EE93E0EC
:1015C000D6011E968D939C931F9782E015968C935F
:1015D000B4C08AEF90E0F60186879787AEC082306C
:1015E00009F0ABC0C6010E94EB0911E0811110E0C7
:1015F000D6011396ED91FC91149783819481892BE8
:10160000C9F0C60148960E9465042B013C01D60131
:101610001396ED91FC91149723813481A8EEB3E0E9
:101620000E94032621E0461657066806790618F43C
:1016300020E001C021E01223D6011396ED91FC9128
:10164000149785819681892B49F4D6011396ED91E3
:10165000FC9114976181611119C02CC0C601489694
:101660000E9465042B013C01D6011396ED91FC917B
:10167000149725813681A8EEB3E00E940326461612
:1016800057066806790608F321E015C0F60180893F
:10169000918922893389821B930B97FF03C091950F
:1016A00081959109FAE06F9FB001112421E086171E
:1016B000970708F420E01123A9F1222399F1D5011D
:1016C000ED91FC9160847184D601ED91FC910280D2
:1016D000F381E02DBE016B5F7F4FC6010995E12CC0
:1016E000F12C87019E012B5F3F4F482F692DC501CB
:1016F000F3010995882321F08AEF90E0D60119C003
:10170000F60180899189828B938BCE0101960E948C
:101710000C0989819A81AB81BC81F601808F918F00
:10172000A28FB38F81E0D60115968C93159788E828
:1017300093E11E968D939C931F972696CDBFDEBF97
:10174000DF91CF911F910F91FF90EF90DF90CF909D
:10175000BF90AF909F908F907F906F905F904F90D1
:101760000895FC018781FB01808381E008956F92D9
:101770007F929F92AF92BF92CF92DF92EF92FF92B1
:101780000F931F93CF93DF931F92CDB7DEB76C01FA
:101790005B01942EFC0181899289A389B489892BEC
:1017A0008A2B8B2BA1F1C60141960E946504672B01
:1017B000682B692B61F1F60184819581DC01179614
:1017C0002C91E08530E0220F331F4E2F50E024177C
:1017D000350709F073C0D6011B964C91B4E64B9FB8
:1017E000A0011124052E000C660B770BF601018970
:1017F000128923893489400F511F621F731F418B47
:10180000528B638B748B618566950E94F620D6019E
:1018100016968C91169781110BC051968D919D91C2
:101820000D90BC91A02D892B8A2B8B2B09F484C0A1
:10183000F60185859685A785B089892B8A2B8B2B08
:1018400009F482C0C6010D960E946504672B682BBF
:10185000692B09F479C0D501ED91FC916084718404
:10186000D601ED91FC910280F381E02DBE016F5F06
:101870007F4FC6010995E12CF12C87019E012F5F56
:101880003F4F482F692DC501F3010995882371F059
:10189000F60185859685A785B08986509F4FAF4F05
:1018A000BF4F85879687A787B08B4EC0D6011D9600
:1018B0001D921D921D921C92509746C0D6011C96F7
:1018C0002C911C97222339F11A964C91B4E64B9F28
:1018D000A0011124052E000C660B770BD601519642
:1018E0000D911D912D913C915497400F511F621FF6
:1018F000731F51964D935D936D937C9354976E2F08
:1019000066950E94F620F60184858F3F09F47FCF0B
:10191000815084877CCFD60151961D921D921D92D5
:101920001C92549717968C91E81711F08AEC01C01D
:1019300089ECF601858B6BCFF60167816695848112
:1019400095810E94F62074CF0F90DF91CF911F9167
:101950000F91FF90EF90DF90CF90BF90AF909F904E
:101960007F906F900895CF92DF92FF920F931F9315
:10197000CF93DF9300D000D0CDB7DEB78C016B01E1
:10198000F9018081893CA0F4D80117968C931797B0
:1019900051961D921D921D921C9254978081811127
:1019A00002C08AEC01C089ECD80155968C9312C014
:1019B0008E3C59F464E6F801848195810E94F620FA
:1019C00081E0D80116968C93A8C08F3C19F4F801D9
:1019D0001682A3C04630A0F08181D80119968C935D
:1019E0001997828118968C93189783811A968C93F5
:1019F0001A9784811B968C931B9785811C968C93D8
:101A0000F080BCECFB120FC0CE0101960E940C09C5
:101A100089819A81AB81BC81F801818B928BA38BE8
:101A2000B48BF58A46C0FDECFF1220C0D801559654
:101A30008C918C3C81F0CE0101960E940C09898129
:101A40009A81AB81BC81F801818B928BA38BB48B83
:101A50008CEC858B2EC0D80151961D921D921D9243
:101A60001C9254978AEC55968C9323C0BBECFB12C6
:101A700013C0F80185898A3C29F0818587838AEC27
:101A8000858B04C08085878389EC858BF801118A5A
:101A9000128A138A148A0DC0D80117968C91179751
:101AA000882319F017961C92F1CF88ECF8018783F0
:101AB000EDCFF80185859685A785B089892B8A2B7E
:101AC0008B2B59F50280F381E02D808180FF25C0AA
:101AD000CE0101960E940C0989819A81AB81BC815B
:101AE000F80185879687A787B08BC6010E94D5111C
:101AF000F4E68F9FC0011124092E000CAA0BBB0B2A
:101B0000F8014585568567857089840F951FA61F46
:101B1000B71F85879687A787B08B2496CDBFDEBF7A
:101B2000DF91CF911F910F91FF90DF90CF9008959B
:101B3000EF92FF920F931F93CF93DF93EC017B0102
:101B40008A0187E490E288839983CE010D960E94F2
:101B50000C09CE0141960E940C09EC82FD820A8399
:101B60001B831E828AEC8D8B1F8288EC88871986E6
:101B70008AE08A878B878FEF8C871D861E861F865B
:101B8000188A198A1A8A1B8A1C8ADF91CF911F91A1
:101B90000F91FF90EF9008954F925F926F927F9216
:101BA0009F92AF92BF92CF92DF92EF92FF920F93EC
:101BB0001F93CF93DF931F92CDB7DEB7DC0114964E
:101BC000ED91FC911597208121FFFBC0942E5B01C4
:101BD0008C010E948A246B017C01F80182810E94A1
:101BE000C624D80118964D915D916D917C911B97FB
:101BF000892BC1F1411551056105710509F4E1C059
:101C0000C41AD50AE60AF70AB2E3CB16D104E104F6
:101C1000F104B0F0F80184859585A685B785892BF8
:101C20008A2B8B2B69F443814F5F4383D501ED9160
:101C3000FC910284F385E02D20E0692DC501099512
:101C4000F801108611861286138686819781009787
:101C500009F4B7C00480F581E02D208127FFB1C0D1
:101C60002FECA2C0411551056105710509F47AC038
:101C7000F80184859585A685B7850097A105B105EE
:101C800099F1A7019601281B390B4A0B5B0BDA016E
:101C9000C9018C329140A105B10508F492C0C1146C
:101CA000D104E104F10429F03C2D2D2D9E2D8F2D22
:101CB00004C031E020E090E080E0D8011C963C9325
:101CC0001C971D962C931D971E969C931E971F96EE
:101CD0008C93D501ED91FC910284F385E02D21E0F8
:101CE000D80113964C913AC00480F581E02D2181F2
:101CF00026013701441A550A660A770A30E0A4E63D
:101D0000B0E00E940326461657066806790608F4D6
:101D100058C0F80143814F5F4383C114D104E104EB
:101D2000F10429F03C2D2D2D9E2D8F2D04C031E086
:101D300020E090E080E0D8011C963C931C971D9613
:101D40002C931D971E969C931E971F968C93D501DE
:101D5000ED91FC910284F385E02D21E0692DC50110
:101D600009952FC0C114D104E104F10429F03C2DE0
:101D70002D2D9E2D8F2D04C031E020E090E080E0DD
:101D8000F801308721879287838714861586168607
:101D90001786868197810097A1F00480F581E02D58
:101DA000208127FF0EC02EEC2983DC01ED91FC91F0
:101DB0000190F081E02D9E012F5F3F4F41E0B50182
:101DC00009950F90DF91CF911F910F91FF90EF90A8
:101DD000DF90CF90BF90AF909F907F906F905F907B
:101DE0004F900895FC01862F61E570E26083718356
:101DF000108611861286138613828283448355834C
:101E00002683378362E00C948C24089580E0089543
:101E1000CF92EF920F93FC0187819085009769F034
:101E2000CE2CE02E022F9A01AB01BF01DC01ED9117
:101E3000FC910190F081E02D09950F91EF90CF90EA
:101E40000895AF92BF92CF92DF92EF92FF920F93DD
:101E50001F93CF93DF93EC01D62EB42EA22E8D814B
:101E60009E81009759F0DC01ED91FC910190F08189
:101E7000E02D022F242F462FBE010995E881F9811C
:101E80000484F585E02DC12CEE24EA94FE2C870114
:101E90002A2D4B2D6D2DCE010995DF91CF911F91EC
:101EA0000F91FF90EF90DF90CF90BF90AF9008958B
:101EB0000895FC018281681790F423818481E22FC8
:101EC000F82FE60FF11DE60FF11D80819181DC01F5
:101ED000ED91FC910280F381E02DBA010994DA01C1
:101EE0001C9281E00895CF93DF93EC01FC01E05A4E
:101EF000FF4F4083518362837383CB01BA010E94F9
:101F0000BE0826E331E040E050E062ED70E080E0A2
:101F100090E00E94E008C155DF4F68837983DF912C
:101F2000CF910895805A9F4FFC0160817181828119
:101F300093810895FA0128E040815181CA01880FF8
:101F4000991F67FD81608083918357FF08C080815E
:101F5000918132E0832730E1932780839183660F5C
:101F6000215051F70895CF93DF93EC0189E68D8BD3
:101F70006E8BAE01495E5F4FE881F9810480F58187
:101F8000E02DCE0109958E5F8C8BDF91CF91089566
:101F90004F925F926F927F928F929F92AF92BF9279
:101FA000CF92DF92EF92FF920F931F93CF93DF9325
:101FB000EC018B01FB0163804480842D869586951E
:101FC0008695942D977011F48C5F01C08B5F8C8B7C
:101FD0004C8950E060E070E0CE0145960E94C82632
:101FE00085E68D8BF80181818E8B82818F8B838139
:101FF000888F712CC12CD12C00E010E0512C812C49
:10200000912C540183944016510684F1E12CF12C5B
:10201000E614F70434F5C7018C0D9D1D0E9482293A
:102020008F3FD9F0F80183E0F595E7958A95E1F7C0
:102030003496EC0FFD1FC80187709927A501940104
:1020400004C0220F331F441F551F8A95D2F7DA01AF
:10205000C9012589822B858B04C03FEFE31AF30A5F
:10206000D7CF0F5F1F4FC60CD71CCDCFDF91CF91BD
:102070001F910F91FF90EF90DF90CF90BF90AF90A6
:102080009F908F907F906F905F904F9008951F93D7
:10209000CF93DF93211104C06C3F83E0780774F481
:1020A000142FEB01CB010E948229181739F0612F00
:1020B000CE01DF91CF911F910C949229DF91CF91A6
:1020C0001F910895CF92DF92EF92FF920F931F938B
:1020D000CF93DF938C01CCEFD3E040E050E0BA0126
:1020E000CC24D42EE52EF62ECE010E948229B701F3
:1020F000A601482B2196C11584E0D80789F74F3FE8
:102100008FEF58076807780721F44FEF5FEF6FEF05
:1021100070E6C801DF91CF911F910F91FF90EF9072
:10212000DF90CF900C94730FEF92FF920F931F9359
:10213000CF93DF93CDB7DEB76497CDBFDEBF8B0102
:10214000805A9F4FFC01608171818281938120E8D8
:1021500036E948E950E00E94C2259F938F937F9310
:102160006F9387E590E29F938F93CE0101967C0158
:102170009F938F930E94CF2688E4F801808382E4A6
:10218000818387E58283D801139687E0F701019068
:102190000D928A95E1F7CDBFDEBF6496CDBFDEBF5D
:1021A000DF91CF911F910F91FF90EF900895AF9223
:1021B000BF92CF92DF92EF92FF920F93CF93DF9374
:1021C0005B016A01E90121977B01C7018A199B091B
:1021D000CF3F2FEFD20759F00111CE018C0D9D1D7D
:1021E0000E948229F70181937F012197EECFDF9131
:1021F000CF910F91FF90EF90DF90CF90BF90AF9075
:102200000895CF92DF92EF92FF920F93CF93DF93D7
:1022100000D000D0CDB7DEB77C01FC01EA5AFF4FF9
:10222000208130E06C0187E5C80ED11CD6016D918C
:102230007C9100E041E050E0C7010E94D710D60138
:10224000ED91FC9181819281A381B48189839A83EC
:10225000AB83BC838C818183D601ED91FC91119776
:102260008B818283ED91FC9111978A818383ED911B
:10227000FC9189818483D701ED91FC910680F781DF
:10228000E02DC7012496CDBFDEBFDF91CF910F9126
:10229000FF90EF90DF90CF9009942F923F924F9252
:1022A0005F926F927F928F92AF92BF92CF92DF92A6
:1022B000EF92FF920F931F93CF93DF9300D0CDB790
:1022C000DEB73C01F62E8E2DAE89BF89288C398C65
:1022D0006A8D7B8D69837A836C8D7D8D95E6492E21
:1022E00090E2592EF301408251822301F6E54F0E10
:1022F000511CF201C0826301F7E5CF0ED11CF6013B
:10230000A082B182F3018282A383B483A981BA81BE
:10231000A583B68367837087E75AFF4F4083319662
:10232000208331833296008311838301025A1F4F29
:10233000F801E08261E00E948C2460E0D8018C9179
:102340000E94A924F301EC59FF4F1082E95BFF4F73
:102350001082118212821382349682ED90E0808383
:102360009183EA55F109F082C3010E946210209224
:10237000A2203092A3208FEFF30181878287C301CF
:102380000F900F90DF91CF911F910F91FF90EF90E1
:10239000DF90CF90BF90AF908F907F906F905F90C5
:1023A0004F903F902F900C940111895A9F4FDC0160
:1023B000ED91FC91808108950F931F93CF93DF934C
:1023C0008C01C0E0D0E020E04FEFBE01C8010E94C8
:1023D00047102196CC3F83E0D807A9F7C801DF91C9
:1023E000CF911F910F910C940111CF93C82F809121
:1023F000A2209091A3200097B9F06C2F70E024E008
:10240000759567952A95E1F740E150E00E94B7087D
:10241000CF706C2F70E040E150E08091A22090914D
:10242000A320CF910C94B708CF9108953F924F927B
:102430005F926F927F928F929F92AF92BF92CF9254
:10244000DF92EF92FF920F931F93CF93DF93EC01F4
:102450005C018CE5A80EB11C3E019BEA690E711C63
:102460008E01015A1F4FDE01A759BF4F7D01442441
:102470004A9435E0332E6E01B5E6CB0ED11C88248C
:102480008A94982CF50180819181DC01ED91FC9179
:102490000480F581E02D0995892B09F4DDC00E94A7
:1024A0008A24F3016083718382839383D5018D91A4
:1024B0009C91DC01ED91FC910680F781E02D09955E
:1024C000582EBDEF8B1303C08BE992E002C089E95F
:1024D00092E00E943F0A852D0E94F511ECEF5E12FA
:1024E00007C0D8018C9181FD24C082608C93CACF33
:1024F000BDEF5B121EC0F80180818D7F81608083FB
:102500001092A1201092A0201B861C861D861E867C
:10251000D6011D921D921D921C92139780929E20AF
:1025200090929F204EE950E26DEFCE010E949A0FEB
:10253000A9CFF801808180FFA5CF81FF06C0F52DCE
:10254000F0685F2E8D7FD8018C934EE950E2652DA7
:10255000CE010E949A0F8091A020843078F4F60179
:102560004081518162817381762F652F542F4427DA
:10257000452940835183628373831AC0843029F4D0
:102580003092A02050929D207DCF40919D2043FF0E
:1025900013C0893088F44B855C856D857E85762FE8
:1025A000652F542F442745294B875C876D877E878D
:1025B0008F5F8093A02066CF8F3F79F04092A0205C
:1025C000F7015082F0E4F51508F05CCFD8018C914A
:1025D0008E7F8C938AE892E03CC08091A120FE011E
:1025E000E80FF11DE659FF4F508291E0980F90934C
:1025F000A120F7012081921345CF20919E20309198
:102600009F20232B21F5D8019C919E7F9C93FE0156
:10261000E655FF4F40838150F7018083CC59DF4F4F
:1026200081E0888388E892E0DF91CF911F910F913C
:10263000FF90EF90DF90CF90BF90AF909F908F90E2
:102640007F906F905F904F903F900C943F0A80E88E
:1026500092E00E943F0A16CFDF91CF911F910F9118
:10266000FF90EF90DF90CF90BF90AF909F908F90B2
:102670007F906F905F904F903F900895BC01809144
:10268000A2209091A320009711F00C940F080895B8
:10269000EF92FF920F931F93CF938C01C62F7A0175
:1026A0008DE590E20E943E138C2F0E94F511E114FB
:1026B000F10429F0A7016C2FC8010E949A0F045A57
:1026C0001F4F84E08C0F833060F4D8018D919C9172
:1026D000DC01ED91FC910190F081E02D6CEF09950A
:1026E000CF77F80180819181DC01ED91FC9101901F
:1026F000F081E02D6C2FCF911F910F91FF90EF9003
:1027000009944F925F926F927F92AF92BF92CF9255
:10271000DF92FF920F931F93CF93DF9300D0CDB73B
:10272000DEB78C018FEF9FEF89839A83F80187854D
:102730009089A189B2898F3F9F4FAF4FBF4FA1F0C2
:10274000F801E655FF4F808190E09595879583705D
:1027500020E2829FC0011124D80153969C91539787
:102760009F79892B53968C9381EA92E00E943F0ACD
:102770006801BEE5CB0ED11C61E0F60180810E94AC
:10278000A9248DEF0E94F5115801FCE5AF0EB11C94
:10279000D5018D919C91DC01ED91FC910190F0812E
:1027A000E02D6DEF0995AE014F5F5F4F6DEFC801F2
:1027B0000E949A0FF801478450886188728854E01B
:1027C000F52E672D772788279927AE014F5F5F4F3A
:1027D000C8010E944813762C652C542C4424FA948A
:1027E000F110EFCFAE014F5F5F4FD80153966C9160
:1027F000C8010E944813F801838983FD0CC0D801E9
:1028000054966C916E5FAE014F5F5F4FC8010E949E
:102810004813F12C1BC0F801E05AFF4F4080518053
:102820006280738024E0F22E672D7727882799270E
:10283000AE014F5F5F4FC8010E944813762C652C94
:10284000542C4424FA94F110EFCFD9CFF8018489A5
:10285000F81658F4EF0DF11DAE014F5F5F4F65891B
:10286000C8010E944813F394F1CFAE014F5F5F4F50
:1028700060E0C8010E949A0FAE014F5F5F4F60E0B9
:10288000C8010E949A0F6A8140E050E0C8010E948E
:10289000481340E050E06981C8010E944813D50107
:1028A0008D919C91DC01ED91FC910284F385E02DEA
:1028B000099560E0F60180810E94A924F801E15A9F
:1028C000FF4F8081886080838FE992E00E943F0AF9
:1028D0000F900F90DF91CF911F910F91FF90DF909C
:1028E000CF90BF90AF907F906F905F904F90089582
:1028F0004F925F926F927F928F929F92AF92BF9210
:10290000CF92DF92EF92FF920F931F93CF93DF93BB
:10291000EC01462E662359F10E948A24FE01E555FA
:10292000FF4F0081118122813381AB01BC01401B2B
:10293000510B620B730B8E0101551F4FF801808103
:102940009181A0E0B0E0481759076A077B0710F4AF
:1029500081E081C026E331E040E050E062ED70E0CC
:1029600080E090E00E94E008F801608371838F8529
:102970009889A989BA898F3F9F4FAF4FBF4F09F4FC
:102980005CC08B898370813009F457C083E0582E76
:102990008E010C591F4F3E0125E6620E711C7E010F
:1029A00080E6E80EF11C6E01EFE5CE0ED11CCE01E3
:1029B0000E9481130E948A244B015C010E948A2498
:1029C000DC01CB0188199909AA09BB09883C91054A
:1029D000A105B10510F5CE010E941612F801808103
:1029E000882361F3F3014081518162817381F70192
:1029F00080819181A281B381481759076A077B07BB
:102A0000E9F6F8011082CE010E944315F60190818B
:102A1000892F887093FDD2CF1EC04420C1F00E9440
:102A20008A24DC01CB0188199909AA09BB098639D6
:102A30009105A105B10558F48BCFCE010E948113F9
:102A4000C15ADF4F8881877F888380E004C05A9411
:102A50005110ADCF82E0DF91CF911F910F91FF9088
:102A6000EF90DF90CF90BF90AF909F908F907F902E
:102A70006F905F904F90089529E1FC01238B148A99
:102A800060E00C947814EF92FF920F931F93CF9312
:102A9000DF93EC018C01015A1F4FF80180819E01E8
:102AA00026553F4F790183FF26C0F901808190E0D0
:102AB00025E0959587952A95E1F7282F23708B8936
:102AC00090E0959587958370281315C04B855C859C
:102AD0006D857E858F859889A989BA894817590798
:102AE0006A077B0741F485EA92E00E943F0AF801F9
:102AF0008081877F8083F701808183708130D9F066
:102B0000FE01E759FF4F8081811117C03497808102
:102B10009181A281B3818F3F9F4FAF4FBF4F69F02B
:102B20008B859C85AD85BE858F87988BA98BBA8B4D
:102B3000CE010E943C1580E001C081E0DF91CF9181
:102B40001F910F91FF90EF900895CF93DF93EC01C9
:102B50008FEF9FEFDC018F87988BA98BBA8B88EF63
:102B60008B8B80E18C8B81E48D8B6E8BFE01EB5A1D
:102B7000FF4F80818F8B188E359680819181998F40
:102B80008A8FBE01655E7F4FCE010E94941061E086
:102B9000CE01DF91CF910C947814CF92DF92EF9217
:102BA000FF920F931F93CF93DF93FC0121852F3F5B
:102BB00009F4FAC0EC010E948A246B017C0189852A
:102BC0000E94C6249C0190919B20923009F448C039
:102BD00028F4992361F09130C1F08DC0943009F44C
:102BE00063C008F442C0953009F47EC084C0232B32
:102BF00019F481E080939B20C0929720D092982076
:102C0000E0929920F0929A2076C08091972090913E
:102C10009820A0919920B0919A20232B81F49701BC
:102C20008601081B190B2A0B3B0BD901C8018938F7
:102C30009341A105B1050CF45EC082E052C0A7012A
:102C40009601281B390B4A0B5B0B253631054105D4
:102C500051050CF44EC060E0CE010E94A51549C09C
:102C6000232B09F448C083E0C5CF80919720909131
:102C70009820A0919920B0919A20B701A601481BF5
:102C8000590B6A0B7B0BDB01CA0144365105610508
:102C900071058CF1232B11F484E0ACCF8131974284
:102CA000A105B10534F527C0809197209091982017
:102CB000A0919920B0919A20B701A601481B590B09
:102CC0006A0B7B0BDB01CA014436510561057105B6
:102CD00094F0232B71F4893B9B40A105B1055CF076
:102CE00085E080939B2007C0232B29F0CE010E9412
:102CF000DC1110929B208A858F3F09F455C090917A
:102D00009B20953048F49230A8F4992341F09130FB
:102D100009F04AC061E004C0953001F145C060E0AF
:102D2000DF91CF911F910F91FF90EF90DF90CF90A7
:102D30000C94A92440919320509194206091952067
:102D40007091962097018601041B150B260B370BFB
:102D500005361105210531053CF115C04091932040
:102D60005091942060919520709196209701860152
:102D7000041B150B260B370BB901A8014F3E52401F
:102D8000610571058CF00E94C62461E0892B09F071
:102D900060E08A850E94A924C0929320D09294205A
:102DA000E0929520F0929620DF91CF911F910F91A4
:102DB000FF90EF90DF90CF900895CF93DF93EC01D9
:102DC0000E948A24683E73408105910568F08091D5
:102DD0009C20811109C060E0CE010E94A51591E000
:102DE000811190E090939C20DF91CF9108950F93F3
:102DF0001F93CF93DF93EC010E941612FE01EC5952
:102E0000FF4F80818823B9F110828E010B591F4F2B
:102E1000F80180819181A281B381359740815181F0
:102E20006281738184179507A607B70729F08F3F42
:102E30009F4FAF4FBF4FF9F4CE010E944315882337
:102E4000D1F021E0F80180819181A281B3818F3F8F
:102E50009F4FAF4FBF4F09F020E0E881F981028812
:102E6000F389E02DDE01A759BF4F4C91BE01665991
:102E70007F4FCE010995CE010E94DD1610E08A81B8
:102E80001817A8F49B818C81E92FF82FE10FF11D11
:102E9000E10FF11D80819181DC01ED91FC910480B5
:102EA000F581E02D412FBE0109951F5FE8CFCE01CE
:102EB000DF91CF911F910F910C94CD15EF92FF925E
:102EC0000F931F93CF93DF93EC01EF86F88A098B62
:102ED0001A8BEF28E02AE12A71F4FC01E95AFF4F2E
:102EE0000190F081E02D81819281A381B4818F874F
:102EF000988BA98BBA8B88EF8B8B82E0840F8C8B9D
:102F000089E68D8B6E8B50E0B901CE0147960E9409
:102F1000BF2661E0CE01DF91CF911F910F91FF900D
:102F2000EF900C947814CF92EF92FF920F931F932F
:102F3000FC01E786F08A018B128B88EF838B84E09B
:102F4000848B8BE4858B668BC78A211102C082E05B
:102F500001C083E0440F440F840F808F61E0CF01F4
:102F60001F910F91FF90EF90CF900C947814CF9316
:102F7000DF93EC018FEF9FEFDC018F87988BA98B9C
:102F8000BA8B88EF8B8B83E0840F8C8B8BE48D8BDB
:102F90006E8B1F8A50E0B901CE0148960E94BF2671
:102FA00061E0CE01DF91CF910C947814AF92BF9283
:102FB000CF92DF92EF92FF920F931F93CF93DF9305
:102FC000211117C1142F6B01EC014B855C856D85B8
:102FD0007E854F87588B698B7A8B88E78B8BD601E0
:102FE0008C91833509F48FC0C0F4833409F454C044
:102FF00030F4803499F1813409F4DDC0DFC08B34C2
:1030000009F44EC0823509F45DC0853409F0D6C09C
:10301000B601CE010E94C80FDEC0833709F4B6C0E6
:1030200050F4883609F49AC08E3609F4A3C0873567
:1030300009F0C4C06BC0883709F4A8C08B3C81F18B
:10304000863709F0BBC087E492E00E943F0AFE0188
:10305000E65AFF4F808191819D8B94C0F60181815A
:10306000813621F0CE010E946210A8C01630D1F73F
:10307000F2E0CF0ED11C0CEF13E0D6014D916D01A3
:1030800021E0B801CE010E9447100F5F1F4F0115CC
:10309000B4E01B0791F7E6CFCE010E9401118EC06C
:1030A000F60183818170E82EE881F9810088F18939
:1030B000E02DD60112960C91129711962C91CE010B
:1030C00009957CC0143009F079C080E792E00E9435
:1030D0003F0AF601A180B280BA24AB24BA2410E0E2
:1030E000D60113968C91181708F04EC0E12EF12CE2
:1030F000C7018A0D9B1D0E948229FE01EE0DFF1D56
:10310000858B1F5FEDCF43E5F60151C0212F30E0E5
:10311000D60113968C9190E004962817390709F090
:103120004DC08FE592E00E943F0AF601E180F280F7
:10313000F4E0CF0ED11CFE24EF24FE2404E001179E
:10314000E8F5D6014D916D0120E0B701CE010E9456
:1031500047100F5FBFEFEB1AFB0AF1CF81E592E05A
:103160000E943F0AFE01EB5AFF4F80818D8B3496FF
:10317000808108C0BE016B5E7F4FCE010E9494101B
:103180008AE002C08E8B82E08C8B25C096012E5F78
:103190003F4F4EEF410FE881F9810280F381E02D2E
:1031A000D60111966C91CE010995F601408161819D
:1031B000CE010E94B30F89E68D8B0DC0CE01DF9149
:1031C000CF911F910F91FF90EF90DF90CF90BF9024
:1031D000AF900C943C1560E0CE01DF91CF911F9130
:1031E0000F91FF90EF90DF90CF90BF90AF900C9435
:1031F0007814DF91CF911F910F91FF90EF90DF90A6
:10320000CF90BF90AF900895AF92BF92CF92DF92D0
:10321000EF92FF920F931F93CF93DF93EC01162F42
:10322000042F79018091A2209091A320892BE1F0B5
:1032300083E492E00E943F0A812F0E94F51181E40D
:1032400092E00E943F0A67015701A00EB11CCA1408
:10325000DB0431F0D6018D916D010E94F511F7CF9D
:103260008FE590E20E943E138A811817F0F49B814B
:103270008C81E92FF82FE10FF11DE10FF11D808105
:103280009181DC01ED91FC910190F081E02D97019D
:10329000402FBE01DF91CF911F910F91FF90EF90D2
:1032A000DF90CF90BF90AF900994DF91CF911F91A5
:1032B0000F91FF90EF90DF90CF90BF90AF90089567
:1032C000E82FF0E093E0F595E7959A95E1F725E092
:1032D000EE0FFF1F2A95E1F7FA5F613059F487700E
:1032E00021E030E0A90102C0440F551F8A95E2F7A2
:1032F0004183089561110AC0877021E030E0A9017F
:1033000002C0440F551F8A95E2F742830895E82FC3
:10331000F0E093E0F595E7959A95E1F725E0EE0F5B
:10332000FF1F2A95E1F7FA5F3085282F277081E08B
:1033300090E001C0880F2A95EAF7932F982381E047
:1033400009F480E00895FC016083862F877021E0F6
:1033500030E001C0220F8A95EAF7862F90E033E033
:10336000959587953A95E1F745E0880F991F4A951D
:10337000E1F740E058E1622F9A5F0C949C25EF92B0
:10338000FF920F931F93CF93DF931F92CDB7DEB7BA
:103390008C01FC018081E82FF0E093E0F595E79542
:1033A0009A95E1F725E0EE0FFF1F2A95E1F7FA5F06
:1033B000877021E030E0A90102C0440F551F8A95B3
:1033C000E2F7468361E0F80180810E9460198FEB8B
:1033D00092E10197F1F700C000008FB78983F8945C
:1033E000E98060E0F80180810E9460198FE092E03E
:1033F0000197F1F700C00000F80180810E94871951
:10340000F82E8FEE9CE00197F1F700C00000F80164
:1034100080810E948719882311F08F2D01C081E0DF
:10342000EFBE0F90DF91CF911F910F91FF90EF9022
:103430000895EF92FF920F931F93CF93DF931F9204
:10344000CDB7DEB78C01F62E8FB78983F894E9806B
:10345000F8018081E82FF0E093E0F595E7959A95E3
:10346000E1F725E0EE0FFF1F2A95E1F7FA5F87707D
:1034700021E030E0A90102C0440F551F8A95E2F710
:10348000468361E0F80180810E946019F5E1FA95B8
:10349000F1F70000FF2029F060E0F80180810E9430
:1034A0006019F0E8FA95F1F7F80180810E94871918
:1034B000811101C0F12C87E691E00197F1F700C07E
:1034C000000060E0F80180810E946019FAE6FA9538
:1034D000F1F700C0EFBE8F2D0F90DF91CF911F91BC
:1034E0000F91FF90EF9008950F931F93CF93DF9369
:1034F0008C01C62FD8E06C2F6170C8010E94191A88
:103500002C2F30E035952795C22F8111C068D150FE
:1035100091F78C2FDF91CF911F910F910895BF925A
:10352000CF92DF92EF92FF920F931F93CF93DF938F
:103530007C01C62E8A010E94BF1981113BC060EF39
:10354000C7010E94741AD0E0C0E498EFB92EBC0EF7
:1035500061E0C7010E94191AD82E61E0C7010E94DC
:10356000191A882319F0DD2071F026C0D1100BC084
:10357000CC1530F0F801808180FF05C0CC1519F022
:10358000DC2FDD24D3946D2DC7010E94191AF80198
:10359000208130E035952795DD2011F02068F80175
:1035A0002083C150CB11D4CF0F5F1F4FC111CDCF9E
:1035B0008D2F03C08FEF01C08EEFDF91CF911F9150
:1035C0000F91FF90EF90DF90CF90BF900895CF9232
:1035D000DF92FF920F931F93CF93DF93EC01F62EB0
:1035E0008A010E94BF190115110591F065E5CE0110
:1035F0000E94741A680188E0C80ED11CF80161911C
:103600008F01CE010E94741A0C151D05B9F704C074
:103610006CECCE010E94741A6F2DCE01DF91CF9118
:103620001F910F91FF90DF90CF900C94741ACF935D
:10363000FC01680F791F2CEB31E652ECADE9B3E2E7
:10364000C6E48CE8E617F707B9F09191942790FF4C
:1036500002C04EE501C040E091FD422792FD4327A4
:1036600093FD452794FD4A2795FD4B2796FD4C2752
:1036700097FFE8CF4827E6CF842FCF910895CF93C7
:10368000DF931F92CDB7DEB78FB78983F894898116
:103690000F90DF91CF9108951F920F920FB60F9266
:1036A00011242F933F934F935F936F937F938F9347
:1036B0009F93AF93BF93EF93FF93E091D620F09148
:1036C000D720309709F00995FF91EF91BF91AF9105
:1036D0009F918F917F916F915F914F913F912F912A
:1036E0000F900FBE0F901F9018951F920F920FB65C
:1036F0000F9211242F933F934F935F936F937F9378
:103700008F939F93AF93BF93EF93FF93E091D42058
:10371000F091D520309709F00995FF91EF91BF9175
:10372000AF919F918F917F916F915F914F913F9159
:103730002F910F900FBE0F901F9018951F920F9210
:103740000FB60F9211242F933F934F935F936F9374
:103750007F938F939F93AF93BF93EF93FF93E091EA
:10376000D220F091D320309709F00995FF91EF9185
:10377000BF91AF919F918F917F916F915F914F9189
:103780003F912F910F900FBE0F901F9018951F9291
:103790000F920FB60F9211242F933F934F935F9385
:1037A0006F937F938F939F93AF93BF93EF93FF9309
:1037B000E091D020F091D120309709F00995FF9148
:1037C000EF91BF91AF919F918F917F916F915F9199
:1037D0004F913F912F910F900FBE0F901F90189512
:1037E0001F920F920FB60F9211242F933F934F9376
:1037F0005F936F937F938F939F93AF93BF93EF9359
:10380000FF93E091CE20F091CF20309709F00995F9
:10381000FF91EF91BF91AF919F918F917F916F91A8
:103820005F914F913F912F910F900FBE0F901F907E
:1038300018951F920F920FB60F9211242F933F935A
:103840004F935F936F937F938F939F93AF93BF93A8
:10385000EF93FF93E091CC20F091CD20309709F0C9
:103860000995FF91EF91BF91AF919F918F917F91BA
:103870006F915F914F913F912F910F900FBE0F90DD
:103880001F9018951F920F920FB60F9211242F932D
:103890003F934F935F936F937F938F939F93AF93D8
:1038A000BF93EF93FF93E091CA20F091CB20309724
:1038B00009F00995FF91EF91BF91AF919F918F9181
:1038C0007F916F915F914F913F912F910F900FBE1C
:1038D0000F901F9018951F920F920FB60F92112400
:1038E0002F933F934F935F936F937F938F939F9308
:1038F000AF93BF93EF93FF93E091C820F091C9205D
:10390000309709F00995FF91EF91BF91AF919F9189
:103910008F917F916F915F914F913F912F910F9078
:103920000FBE0F901F9018951F920F920FB60F9217
:1039300011242F933F934F935F936F937F938F93B4
:103940009F93AF93BF93EF93FF93E091C620F091C5
:10395000C720309709F00995FF91EF91BF91AF9182
:103960009F918F917F916F915F914F913F912F9197
:103970000F900FBE0F901F9018951F920F920FB6C9
:103980000F9211242F933F934F935F936F937F93E5
:103990008F939F93AF93BF93EF93FF93E091C420D6
:1039A000F091C520309709F00995FF91EF91BF91F3
:1039B000AF919F918F917F916F915F914F913F91C7
:1039C0002F910F900FBE0F901F9018951F920F927E
:1039D0000FB60F9211242F933F934F935F936F93E2
:1039E0007F938F939F93AF93BF93EF93FF93E09158
:1039F000C220F091C320309709F00995FF91EF9113
:103A0000BF91AF919F918F917F916F915F914F91F6
:103A10003F912F910F900FBE0F901F9018951F92FE
:103A20000F920FB60F9211242F933F934F935F93F2
:103A30006F937F938F939F93AF93BF93EF93FF9376
:103A4000E091C020F091C120309709F00995FF91D5
:103A5000EF91BF91AF919F918F917F916F915F9106
:103A60004F913F912F910F900FBE0F901F9018957F
:103A70001F920F920FB60F9211242F933F934F93E3
:103A80005F936F937F938F939F93AF93BF93EF93C6
:103A9000FF93E091BE20F091BF20309709F0099587
:103AA000FF91EF91BF91AF919F918F917F916F9116
:103AB0005F914F913F912F910F900FBE0F901F90EC
:103AC00018951F920F920FB60F9211242F933F93C8
:103AD0004F935F936F937F938F939F93AF93BF9316
:103AE000EF93FF93E091BC20F091BD20309709F057
:103AF0000995FF91EF91BF91AF919F918F917F9128
:103B00006F915F914F913F912F910F900FBE0F904A
:103B10001F9018951F920F920FB60F9211242F939A
:103B20003F934F935F936F937F938F939F93AF9345
:103B3000BF93EF93FF93E091BA20F091BB203097B1
:103B400009F00995FF91EF91BF91AF919F918F91EE
:103B50007F916F915F914F913F912F910F900FBE89
:103B60000F901F9018951F920F920FB60F9211246D
:103B70002F933F934F935F936F937F938F939F9375
:103B8000AF93BF93EF93FF93E091B820F091B920EA
:103B9000309709F00995FF91EF91BF91AF919F91F7
:103BA0008F917F916F915F914F913F912F910F90E6
:103BB0000FBE0F901F9018951F920F920FB60F9285
:103BC00011242F933F934F935F936F937F938F9322
:103BD0009F93AF93BF93EF93FF93E091B620F09143
:103BE000B720309709F00995FF91EF91BF91AF9100
:103BF0009F918F917F916F915F914F913F912F9105
:103C00000F900FBE0F901F9018951F920F920FB636
:103C10000F9211242F933F934F935F936F937F9352
:103C20008F939F93AF93BF93EF93FF93E091B42053
:103C3000F091B520309709F00995FF91EF91BF9170
:103C4000AF919F918F917F916F915F914F913F9134
:103C50002F910F900FBE0F901F9018951F920F92EB
:103C60000FB60F9211242F933F934F935F936F934F
:103C70007F938F939F93AF93BF93EF93FF93E091C5
:103C8000B220F091B320309709F00995FF91EF91A0
:103C9000BF91AF919F918F917F916F915F914F9164
:103CA0003F912F910F900FBE0F901F9018951F926C
:103CB0000F920FB60F9211242F933F934F935F9360
:103CC0006F937F938F939F93AF93BF93EF93FF93E4
:103CD000E091B020F091B120309709F00995FF9163
:103CE000EF91BF91AF919F918F917F916F915F9174
:103CF0004F913F912F910F900FBE0F901F901895ED
:103D00001F920F920FB60F9211242F933F934F9350
:103D10005F936F937F938F939F93AF93BF93EF9333
:103D2000FF93E091AE20F091AF20309709F0099514
:103D3000FF91EF91BF91AF919F918F917F916F9183
:103D40005F914F913F912F910F900FBE0F901F9059
:103D500018951F920F920FB60F9211242F933F9335
:103D60004F935F936F937F938F939F93AF93BF9383
:103D7000EF93FF93E091AC20F091AD20309709F0E4
:103D80000995FF91EF91BF91AF919F918F917F9195
:103D90006F915F914F913F912F910F900FBE0F90B8
:103DA0001F9018951F920F920FB60F9211242F9308
:103DB0003F934F935F936F937F938F939F93AF93B3
:103DC000BF93EF93FF93E091AA20F091AB2030973F
:103DD00009F00995FF91EF91BF91AF919F918F915C
:103DE0007F916F915F914F913F912F910F900FBEF7
:103DF0000F901F9018951F920F920FB60F921124DB
:103E00002F933F934F935F936F937F938F939F93E2
:103E1000AF93BF93EF93FF93E091A820F091A92077
:103E2000309709F00995FF91EF91BF91AF919F9164
:103E30008F917F916F915F914F913F912F910F9053
:103E40000FBE0F901F9018951F920F920FB60F92F2
:103E500011242F933F934F935F936F937F938F938F
:103E60009F93AF93BF93EF93FF93E091A620F091C0
:103E7000A720309709F00995FF91EF91BF91AF917D
:103E80009F918F917F916F915F914F913F912F9172
:103E90000F900FBE0F901F9018951F920F920FB6A4
:103EA0000F9211242F933F934F935F936F937F93C0
:103EB0008F939F93AF93BF93EF93FF93E091A420D1
:103EC000F091A520309709F00995FF91EF91BF91EE
:103ED000AF919F918F917F916F915F914F913F91A2
:103EE0002F910F900FBE0F901F9018951F93CF9397
:103EF000DF93EC010E943F1B182FC11588E0D80703
:103F000011F461E005C0C03488E0D80739F462E0FC
:103F100083E00E94692564E083E01AC0C11589E04E
:103F2000D80711F461E005C0C03489E0D80739F43E
:103F300062E084E00E94692564E084E009C0C11564
:103F4000DA40A9F461E085E00E94692564E085E03B
:103F50000E946925809123248F3F09F4FFCF0E949E
:103F60003F1B909123249F5F909323248FBF1FBFFB
:103F7000DF91CF911F910895CF92DF92EF92FF9240
:103F8000CF93DF93EC016B01E12CF12C60E076E341
:103F90008EE691E0A70196010E94C225CA01B901EF
:103FA0002FEF3FEF40E050E00E94C2252115310580
:103FB00029F481E08C8321E030E02DC021303105EF
:103FC00029F482E08C8322E030E025C024303105E2
:103FD00028F483E08C8324E030E01DC028303105D4
:103FE00028F484E08C8328E030E015C020343105CB
:103FF00028F485E08C8320E430E00DC02F3F3105AC
:1040000009F028F486E08C8320E031E004C087E0EA
:104010008C8320E034E040E050E060E076E38EE620
:1040200091E00E94C225CA01B901A70196010E9430
:10403000C2252D833E832436310518F41C821D824F
:104040001E82DF91CF91FF90EF90DF90CF90089587
:104050000F931F93CF93DF93EC0189016230C9F175
:1040600078F4662321F1613009F04EC080E498E0D5
:10407000888399833091400681E090E023E020C05E
:10408000633089F1643009F03FC080E09AE08883B2
:1040900099833091800681E090E02FEF240F01C0DA
:1040A000880F2A95EAF7832B809380062DC080E045
:1040B00098E0888399833091400681E090E02FEF6B
:1040C000240F01C0880F2A95EAF7832B80934006BE
:1040D0001BC080E099E0888399833091600681E07D
:1040E00090E02FEF09C080E499E0888399833091B4
:1040F000600681E090E023E0240F01C0880F2A953C
:10410000EAF7832B809360064A83423059F020F40B
:10411000413061F480E109C0433031F0443031F482
:1041200080E803C080E201C080E48B8388819981AC
:104130000E94761FE881F9818181887F8360818375
:104140001D821E821C82E881F9818081807F8083AC
:10415000B801CE01DF91CF911F910F910C94BC1F3C
:10416000CF93DF93EC01AD81BE81262F30E00E941A
:10417000032624E630E040E050E00E94C2258A8118
:10418000E881F981E6FD10C08230B1F018F4813089
:1041900081F014C0833029F0843081F426AF37AF2A
:1041A0000DC024AF35AF0AC0813019F0823021F044
:1041B00005C020AF31AF02C022AF33AF8D819E81E9
:1041C000E881F98186A397A38B81E881F9819181A8
:1041D000E6FD8073892B8183E881F9818081807F6E
:1041E0009C81892B8083DF91CF9108951F93CF937A
:1041F000DF93EC01162FAD81BE81262F30E00E94A7
:10420000032624E630E040E050E00E94C2258A8187
:10421000E881F981E6FD10C08230B1F018F48130F8
:1042200081F014C0833029F0843081F426AF37AF99
:104230000DC024AF35AF0AC0813019F0823021F0B3
:1042400005C020AF31AF02C022AF33AF1F83DF9173
:10425000CF911F9108950F931F93CF93DF93CDB705
:10426000DEB72797CDBFDEBF8C01FB0184818D8334
:1042700085818E8386818F8380819181A281B381A4
:1042800089839A83AB83BC83003A88E0180711F4D2
:1042900060E105C0003B88E0180719F460E283E0A4
:1042A00013C0003A89E0180711F460E105C0003B33
:1042B00089E0180719F460E284E006C0003A8AE059
:1042C000180721F460E185E00E946925BE016F5F57
:1042D0007F4FC8010E9481072796CDBFDEBFDF91C7
:1042E000CF911F910F910895FC01918194509F32BD
:1042F00010F08AE0818308958091E023817090918D
:10430000E22380FB97F99093E2239091E42380FBD2
:1043100097F99093E4239091E62380FB97F990938B
:10432000E6239091E82380FB97F99093E8239091FE
:10433000EA2380FB97F99093EA239091EC2380FB8A
:1043400097F99093EC2382EE93E20E94742184EE1D
:1043500093E20E94742186EE93E20E94742188EE1B
:1043600093E20E9474218AEE93E20E9474218CEE03
:1043700093E20E9474218091FB238B3F18F085E02B
:104380008093FB238091FD239091FE23009751F0B1
:1043900005978C309E4030F08AE090E08093FD23BA
:1043A0009093FE238091FF2390910024009751F079
:1043B00005978C309E4030F086E990E08093FF2393
:1043C000909300248091FF2390910024009759F04E
:1043D0002091FD233091FE238217930720F4109241
:1043E000FF23109200240895CF93DF93EC010E94E5
:1043F000282060E0CE01DF91CF910C94B020CF93C4
:10440000DF93CDB7DEB72B97CDBFDEBFBE016F5FA9
:104410007F4F80E092E00E94EF01AE01485F5F4F66
:1044200061E080E092E00E9451028A819B819F7846
:104430009B83817E8A831C8285E08D8381E08887CF
:1044400080E38987BE016F5F7F4F80E092E00E942A
:10445000A501AE01485F5F4F61E080E092E00E94FD
:1044600016022B96CDBFDEBFDF91CF9108958F92BC
:10447000AF92BF92CF92EF920F931F93CF93DF93A0
:104480001F92CDB7DEB710922224109223241092EF
:104490002424109225241092262411E0109327241E
:1044A0000E940E250E94AA046CE070E280EB98E066
:1044B0000E942B2165E070E280EA9AE00E942B21A5
:1044C0000E94FF210E94430587E08093A200789418
:1044D0008091B523811108C060EB78E087EE92E20D
:1044E0000E9453041093B5238091AD23811109C01C
:1044F00060EA7AE089ED92E20E94530481E08093C1
:10450000AD238091A52381110BC028E833E141E060
:1045100060E081ED92E20E94F42181E08093A52386
:1045200080919D2381110BC028E833E142E060E0D7
:1045300089EC92E20E94F42181E080939D23809196
:10454000952381110BC028E833E143E060E081EC62
:1045500092E20E94F42181E08093952380918D2343
:1045600081110BC028E833E144E060E089EB92E27E
:104570000E94F42181E080938D2380918523811115
:104580000BC028E833E141E061E081EB92E20E9458
:10459000F42181E08093852380917D2381110BC0DC
:1045A00028E833E142E061E089EA92E20E94F421E6
:1045B00081E080937D238091752381110BC04EEEA5
:1045C00053E261ED72E283E992E20E94980D81E08C
:1045D0008093752380916D2381110BC040EF53E2CE
:1045E00069EC72E28DE792E20E94980D81E080937F
:1045F0006D238091652381110BC042EF53E261EC82
:1046000072E287E692E20E94980D81E08093652332
:1046100080915D2381110BC044EF53E269EB72E29C
:1046200081E592E20E94980D81E080935D23809164
:10463000552381110BC046EF53E261EB72E28BE32D
:1046400092E20E94980D81E08093552380914D2342
:1046500081110BC048EF53E269EA72E285E292E20F
:104660000E94980D81E080934D2380914523811114
:104670000CC023E932E242EE53E260E085E192E2CF
:104680000E94F20E81E08093452380913D238111A9
:104690000CC02DE732E244EE53E261E085E092E2A5
:1046A0000E94F20E81E080933D2380913523811199
:1046B0000CC027E632E246EE53E262E085EF91E27B
:1046C0000E94F20E81E08093352380912D23811189
:1046D0000CC021E532E248EE53E263E085EE91E260
:1046E0000E94F20E81E080932D2380912523811179
:1046F0000CC02BE332E24AEE53E264E085ED91E236
:104700000E94F20E81E08093252380911D23811168
:104710000CC025E232E24CEE53E265E085EC91E21A
:104720000E94F20E81E080931D2380911523811158
:1047300011C06FE1CE0101960E94A3194AEF53E226
:10474000BE016F5F7F4F89EA91E20E94180981E004
:104750008093152380910D2381110CC02AE034E24F
:1047600041E060E072E083E991E20E94970281E01B
:1047700080930D2385E192E28093BD239093BE2325
:1047800085E092E28093BF239093C02385EF91E26E
:104790008093C1239093C22385EE91E28093C3233B
:1047A0009093C42385ED91E28093C5239093C62313
:1047B00085EC91E28093C7239093C82383E992E22A
:1047C0008093C9239093CA238DE792E28093CB23F1
:1047D0009093CC2387E692E28093CD239093CE23CF
:1047E00081E592E28093CF239093D0238BE392E2F2
:1047F0008093D1239093D22385E292E28093D323B6
:104800009093D42389EA91E28093D5239093D62381
:1048100083E991E28093D7239093D8238091052355
:1048200081110AC040E450E06EE18EE891E20E94FE
:104830004C0381E0809305238091FD2281110AC001
:1048400044EF50E06EE189E891E20E94150481E0B6
:104850008093FD228091F522811133C089E891E295
:104860009F938F938EE891E29F938F9387EE92E2CE
:104870009F938F938DEB93E29F938F938EE0882E7F
:104880009BEDA92E93E2B92E2FE3C22E31E2E32E47
:1048900009ED12E222E031E041E061EB88ED90E2C7
:1048A0000E944D118DE790E28093D8209093D920FB
:1048B00088ED90E20E947C2181E08093F522CDBFBB
:1048C000DEBF88ED90E28093D9239093DA23809124
:1048D000A2209091A320009721F06DEA72E00E943F
:1048E000EB070F90DF91CF911F910F91EF90CF9039
:1048F000BF90AF908F9008950E9437228091D92366
:104900009091DA23DC01ED91FC910190F081E02D92
:104910000995F4CF0C940E05282F30E08770F9012B
:1049200093E0F595E7959A95E1F725E0EE0FFF1FE7
:104930002A95E1F7FA5F21E030E0A90102C0440FB7
:10494000551F8A95E2F7613011F44183089542833F
:104950000895282F30E08770F90193E0F595E795E9
:104960009A95E1F725E0EE0FFF1F2A95E1F7FA5F30
:1049700021E030E0A90102C0440F551F8A95E2F7FB
:10498000662311F04583089546830895E82FF0E0EB
:1049900093E0F595E7959A95E1F725E0EE0FFF1F77
:1049A0002A95E1F7FA5F3085282F277081E090E0A3
:1049B00001C0880F2A95EAF7932F982321E030E071
:1049C00011F420E030E0C9010895CF93DF931F92E6
:1049D000CDB7DEB78FB78983F89489810F90DF91C7
:1049E000CF9108950E94E524A0E5B0E016969C9131
:1049F0001697997F16969C931697E0E6F0E090E85C
:104A000095839BEB968316969C91169794601696C9
:104A10009C939081916090838FBF0895CF93DF9393
:104A200000D000D0CDB7DEB78FEF809370008093B9
:104A30007100809372008093730080937400809360
:104A400075008093760064E081E490E00E949625F2
:104A50006CE170E082E00E948C258C836DE170E057
:104A600082E00E948C258B838B819C81019621F4AE
:104A700080E493E28B839C838B819C8189839A83DE
:104A8000809362008A81809363000E94E524909164
:104A900050009260909350008FBF8091510081FF31
:104AA000FCCF0E94F22461E080E490E00E94962511
:104AB0000E94E524909150009E7F909350008FBFFC
:104AC00081E0809343002496CDBFDEBFDF91CF917C
:104AD0000895CF93DF93C82FD62F0E94E524EC2FA3
:104AE000F0E0E059FF4FD0959081D923D0838FBF5C
:104AF000DF91CF910895CF93DF93C82FD62F0E94D7
:104B0000E524EC2FF0E0E059FF4F9081D92BD083C2
:104B10008FBFDF91CF9108954091CA01E62FF72F03
:104B20008093CA0184914093CA0108951BBEFC0181
:104B300028ED24BF60830895CF93DF93FC01DC014F
:104B400080E090E0262F30E0E901082E02C0D595E4
:104B5000C7950A94E2F7C0FF03C050965C93509744
:104B6000019611968830910579F740FF07C041FF03
:104B700002C0658301C06683618301C06283DF91E7
:104B8000CF910895A1E21A2EAA1BBB1BFD010DC0F7
:104B9000AA1FBB1FEE1FFF1FA217B307E407F507ED
:104BA00020F0A21BB30BE40BF50B661F771F881FC9
:104BB000991F1A9469F760957095809590959B015F
:104BC000AC01BD01CF010895052E97FB1EF40094A2
:104BD0000E94FB2557FD07D00E94C22507FC03D089
:104BE0004EF40C94FB2550954095309521953F4F00
:104BF0004F4F5F4F089590958095709561957F4FC9
:104C00008F4F9F4F0895A29FB001B39FC001A39FF4
:104C1000700D811D1124911DB29F700D811D1124F5
:104C2000911D08950E940326A59F900DB49F900D9D
:104C3000A49F800D911D112408958F929F92AF9291
:104C4000BF92CF92DF92EF92FF92CF93DF93EC016E
:104C5000688179818A819B81611571058105910542
:104C600021F464E279ED8BE597E02DE133EF41E04B
:104C700050E00E94E42549015A019B01AC01A7EADA
:104C8000B1E40E9412266B017C01ACEEB4EFA501E9
:104C900094010E94B829DC01CB018C0D9D1DAE1D35
:104CA000BF1DB7FF03C00197A109B048888399834E
:104CB000AA83BB83BC01CD019F77DF91CF91FF9089
:104CC000EF90DF90CF90BF90AF909F908F9008951E
:104CD0008F929F92AF92BF92CF92DF92EF92FF920C
:104CE000609100207091012080910220909103201A
:104CF000611571058105910521F464E279ED8BE57B
:104D000097E02DE133EF41E050E00E94E4254901B6
:104D10005A019B01AC01A7EAB1E40E9412266B0183
:104D20007C01ACEEB4EFA50194010E94B829DC012E
:104D3000CB018C0D9D1DAE1DBF1DB7FF03C001979C
:104D4000A109B0488093002090930120A0930220F5
:104D5000B0930320BC01CD019F77FF90EF90DF90CF
:104D6000CF90BF90AF909F908F9008956093002058
:104D70007093012080930220909303200895FB01FB
:104D8000DC0102C001900D9241505040D8F70895C7
:104D9000DC0101C06D9341505040E0F70895AEE052
:104DA000B0E0E5EDF6E20C94CB290D891E8986E092
:104DB0008C8309831A838FEF9FE78D839E83AE01D7
:104DC000475E5F4F6F89788DCE0101960E94F12674
:104DD000EF81F885E00FF11F10822E96E4E00C942D
:104DE000E429ABE0B0E0E7EFF6E20C94BD296C01FA
:104DF0007B018A01FC0116821782838181FFCCC16D
:104E0000CE0101963C01F6019381F70193FD859156
:104E100093FF81917F01882309F4BAC1853239F467
:104E200093FD859193FF81917F01853229F4B6012D
:104E300090E00E94E828E7CF912C212C312CFFE153
:104E4000F315D8F08B3279F038F4803279F0833270
:104E5000A1F4232D20611DC08D3261F0803369F4EF
:104E6000232D216016C0832D8260382EE32DE4604F
:104E70003E2E2AC0F32DF8601DC037FC2DC020ED5A
:104E8000280F2A3040F08E32B9F436FC81C1232D30
:104E90002064322E19C036FE06C08AE0989E200D8E
:104EA0001124922E11C0EAE02E9E200D1124222EF4
:104EB000F32DF0623F2E08C08C3621F4832D8068DC
:104EC000382E02C0883641F4F70193FD859193FF97
:104ED00081917F018111B3CF982F9F7D955493309D
:104EE00028F40C5F1F4F9FE399830DC0833631F088
:104EF000833771F0833509F059C021C0F8018081F2
:104F000089830E5F1F4F88248394912C530113C013
:104F10002801F2E04F0E511CF801A080B18036FE4E
:104F200003C0692D70E002C06FEF7FEFC5010E94E2
:104F3000DD284C018201F32DFF773F2E16C028019A
:104F400022E0420E511CF801A080B18036FE03C061
:104F5000692D70E002C06FEF7FEFC5010E94D2287B
:104F60004C01F32DF0683F2E820133FC1BC0822DD3
:104F700090E088169906B0F4B60180E290E00E94B5
:104F8000E8282A94F4CFF50137FC859137FE81910A
:104F90005F01B60190E00E94E82821102A9421E0E8
:104FA000821A91088114910471F7E8C0843611F0D7
:104FB000893641F5F80137FE07C060817181828131
:104FC00093810C5F1F4F08C060817181072E000C18
:104FD000880B990B0E5F1F4FF32DFF763F2E97FF27
:104FE00009C090958095709561957F4F8F4F9F4F29
:104FF000F0683F2E2AE030E0A3010E942429882E89
:10500000861845C0853731F4232D2F7EB22E2AE035
:1050100030E025C0932D997FB92E8F36C1F018F45A
:10502000883579F0B5C0803719F0883721F0B0C0E5
:10503000E92FE061BE2EB4FE0DC0FB2DF460BF2E43
:1050400009C034FE0AC0292F2660B22E06C028E00F
:1050500030E005C020E130E002C020E132E0F8019C
:10506000B7FE07C060817181828193810C5F1F4F01
:1050700006C06081718180E090E00E5F1F4FA30148
:105080000E942429882E8618FB2DFF773F2E36FE9E
:105090000DC0232D2E7FA22E891458F434FE0BC090
:1050A00032FC09C0832D8E7EA82E05C0B82CA32CFF
:1050B00003C0B82C01C0B92CA4FE0FC0FE01E80D3E
:1050C000F11D8081803321F49A2D997EA92E09C08B
:1050D000A2FE06C0B394B39404C08A2D867809F06A
:1050E000B394A3FC11C0A0FE06C0B21488F4280C2F
:1050F000922C9B180EC0B21460F4B60180E290E0CE
:105100000E94E828B394F7CFB21418F42B1802C009
:10511000982C212CA4FE10C0B60180E390E00E94E0
:10512000E828A2FE17C0A1FC03C088E790E002C0F7
:1051300088E590E0B6010CC08A2D867859F0A1FE72
:1051400002C08BE201C080E2A7FC8DE2B60190E0D4
:105150000E94E828891438F4B60180E390E00E94A8
:10516000E8289A94F7CF8A94F301E80DF11D808125
:10517000B60190E00E94E8288110F5CF222009F4C2
:1051800042CEB60180E290E00E94E8282A94F6CF51
:10519000F6018681978102C08FEF9FEF2B96E2E1A7
:1051A0000C94D629FC010590615070400110D8F78D
:1051B000809590958E0F9F1F0895FC01615070405F
:1051C00001900110D8F7809590958E0F9F1F08953C
:1051D0000F931F93CF93DF93FB01238121FD03C026
:1051E0008FEF9FEF2CC022FF16C04681578124818C
:1051F00035814217530744F4A081B1819D012F5F8F
:105200003F4F208331838C93268137812F5F3F4F1F
:105210002683378314C08B01EC01FB010084F185E8
:10522000E02D0995892BE1F6D80116968D919C9178
:105230001797019616968D939C931797CE01DF9141
:10524000CF911F910F910895FA01AA27283051F1AB
:10525000203181F1E8946F936E7F6E5F7F4F8F4FA7
:105260009F4FAF4FB1E03ED0B4E03CD0670F781F06
:10527000891F9A1FA11D680F791F8A1F911DA11DEB
:105280006A0F711D811D911DA11D20D009F4689424
:105290003F912AE0269F11243019305D3193DEF6CC
:1052A000CF010895462F4770405D4193B3E00FD082
:1052B000C9F7F6CF462F4F70405D4A3318F0495D6D
:1052C00031FD4052419302D0A9F7EACFB4E0A69550
:1052D0009795879577956795BA95C9F70097610572
:1052E000710508959B01AC010A2E069457954795C8
:1052F00037952795BA95C9F7620F731F841F951FBD
:10530000A01D089503D0808199270895E0ECF1E075
:10531000378537FDFDCF348538603487FC01E05098
:10532000F04F0895262FE0ECF1E0378537FDFDCFF3
:105330003485377F3487378531FF09C036E33287BC
:1053400038ED34BF31E03387378537FDFDCF33E3A8
:105350003287808391831282248325E3228728ED7C
:1053600031E024BF338701960895B7FF0C941226CD
:105370000E941226821B930B08952F923F924F9208
:105380005F926F927F928F929F92AF92BF92CF92D5
:10539000DF92EF92FF920F931F93CF93DF93CDB7DE
:1053A000DEB7CA1BDB0BCDBFDEBF09942A88398864
:1053B00048885F846E847D848C849B84AA84B984AD
:1053C000C884DF80EE80FD800C811B81AA81B981B9
:1053D000CE0FD11DCDBFDEBFED010895F894FFCFF4
:1053E0000100000001004B000003200100C2010089
:1053F00003000000000000050F8C02960200000070
:1054000000BC02000000005503000000003F04AC97
:10541000071E044C042D04300400000000050F0298
:1054200009490A00000000B30CB10BB70B000000E3
:1054300000050F060FCC0D2530376C75003A000AB9
:105440000000000000F7160419590F580F5E1721CD
:105450000F9317B717080FD61700000000F71604B0
:1054600019590F7C215E17210F9317B717080FD614
:02547000170023
:00000001FF
