:100000000C940F010C946F010C946F010C946F0110
:100010000C946F010C946F010C946F010C946F01A0
:100020000C946F010C946F010C946F010C946F0190
:100030000C946F010C946F010C946F010C946F0180
:100040000C946F010C946F010C946F010C946F0170
:100050000C946F010C946F010C946F010C946F0160
:100060000C946F010C946F010C946F010C946F0150
:100070000C946F010C946F010C946F010C946F0140
:100080000C94E91E0C946F010C946F010C946F0199
:100090000C946F010C946F010C946F010C946F0120
:1000A0000C946F010C946F010C946F010C946F0110
:1000B0000C946F010C946F010C946F010C946F0100
:1000C0000C946F010C946F010C946F010C946F01F0
:1000D0000C946F010C946F010C946F010C946F01E0
:1000E0000C946F010C946F010C94C1030C946F017C
:1000F0000C946F010C946F010C946F010C946F01C0
:100100000C946F010C946F010C946F010C946F01AF
:100110000C946F010C946F010C946F010C946F019F
:100120000C946F010C946F010C946F010C946F018F
:100130000C946F010C946F010C946F010C946F017F
:100140000C946F010C946F010C946F010C946F016F
:100150000C946F010C946F010C946F010C946F015F
:100160000C946F010C946F010C946F010C946F014F
:100170000C946F010C946F010C946F010C946F013F
:100180000C946F010C946F010C946F010C946F012F
:100190000C946F010C946F010C946F010C946F011F
:1001A0000C946F010C946F010C946F010C946F010F
:1001B0000C946F010C946F010C946F010C946F01FF
:1001C0000C946F010C946F010C946F010C946F01EF
:1001D0000C946F010C946F010C946F010C946F01DF
:1001E0000C946F010C946F010C946F010C946F01CF
:1001F0000C946F010C946F010C946F01244D4F44CB
:1002000024204842572D444556202000000000007D
:100210000110B00077018501D519011C6A1F112456
:100220001FBECFEFCDBFDFE2DEBF80E08CBF84E238
:100230000E94D71260E081E490E00E94B3128091A6
:100240005000866080935000809151008670863007
:10025000D9F760914000687F616080E490E00E947F
:10026000B31280914000809150008E7F80935000A7
:10027000809150008091600081608093600010E266
:10028000A0E0B0E2E6E0F6E402C005900D92A83BE3
:10029000B107D9F722E2A8EBB0E201C01D92AC3E53
:1002A000B207E1F7ECEEF2E288E49AE28193EC3EE9
:1002B000F907E0F383E590E38193E030F907E0F399
:1002C00011E0CFE0D1E004C02197FE010E94CA21D5
:1002D000CA30D107C9F70E94EA020C9401230C949A
:1002E0000000FC0163817281818190810895E8EBB7
:1002F000F0E21082118212821382148280ED97E064
:100300008583968385E08783089580E098EE8093C7
:10031000C2209093C32080E094EF8093C0209093FC
:10032000C120089580E008950895CF93DF93EC01F4
:100330008B5A9F4F0E94F71F811107C0CE01895928
:100340009F4F0E94F71F91E0811190E0892FDF916C
:10035000CF9108950F931F93CF93DF9300D000D0D8
:10036000CDB7DEB76115710509F453C0DB01182F55
:1003700060932322709324226093CC227093CD2229
:100380001296ED91FC911397178287E6868383E29C
:10039000858388E184831296ED91FC911397938174
:1003A0009F7C906193839091252291609093252268
:1003B000ED91FC910280F381E02DCB010995109322
:1003C00028228093262290932722FC018681978100
:1003D000A085B18589839A83AB83BC83CE010196C6
:1003E0000E9471018B019C011D532F48304600383B
:1003F00016492849310540F460930720709308207E
:100400008093092090930A20809125228260809316
:1004100025222496CDBFDEBFDF91CF911F910F9192
:100420000895CF93DF931F92CDB7DEB7DC0113960B
:100430006C93139717968D919C911897009779F06C
:1004400061110DC02FEC2983DC01ED91FC9101902D
:10045000F081E02DAE014F5F5F4F61E009950F9095
:10046000DF91CF9108950F931F93CF93DF9300D027
:100470001F92CDB7DEB7182F809100108F3F51F437
:100480001B8241E050E0BE016D5F7F4F80E090E154
:100490000E94B11E113B09F062C0809100108111D1
:1004A00030C083EB92E00E94BD1D8C0147E063E009
:1004B000CE0101960E94BD1F41E064E0CE0102968C
:1004C0000E94BD1F21E049816A81C8010E942D055B
:1004D0008DE190E2F8018083918381E08093820630
:1004E00080938106E1EDF0E2808D918DA191B19133
:1004F00017968D939C93189780E2E93EF807A1F731
:1005000060C0813009F05CC082EB92E00E94BD1DAA
:100510008C0141E06CE0CE0101960E94BD1F40E0DD
:100520006CE0CE0102960E94BD1F21E049816A81E4
:10053000C8010E942D0589E290E2F8018083918331
:10054000E1EDF0E2808D918DA191B19117968D939F
:100550009C93189780E2E93EF807A1F732C0123B5E
:1005600009F58091001081112BC082EB92E00E946E
:10057000BD1D8C0141E06CE0CE0101960E94BD1FC3
:1005800040E06CE0CE0102960E94BD1F20E0498150
:100590006A81C8010E942D0585E390E2F8018083FD
:1005A00091830FC0133B61F480910010811108C04A
:1005B00085EB90E00E94BD1D8C010E946B0401C080
:1005C000FFCFC8012396CDBFDEBFDF91CF911F9132
:1005D0000F910895CF93DF93CDB7DEB76897CDBF66
:1005E000DEBF60E074E082E00E94EC208091CF01E9
:1005F00087FDFCCF8091CC0188608093CC0128E1FD
:1006000030E0AE014F5F5F4F6CEF71E880E090E04B
:100610000E94FE1E489711F080EB8F8B8F890E94FD
:100620003302BC018F890E94AA018091A2008F7BB6
:100630009FB7F8941BBE28ED24BF8093A2009FBFF4
:100640008091A20087608093A20078940E94A718EE
:10065000FDCFFF920F931F93CF93DF93CDB7DEB7FC
:100660002697CDBFDEBF2091C420261709F46BC0AA
:10067000F62E8C0181E0681741F1681758F082E08E
:10068000681709F443C085E068135BC086E0EDE0BD
:10069000F0E23FC01982AE014F5F5F4F61E0C801D9
:1006A000885C9E4F0E94CB07AE014F5F5F4F61E0B9
:1006B000C801815B9E4F0E94CB07F801E45BFF4FAE
:1006C00081E08383729683833CC084E68983AE0194
:1006D0004F5F5F4F61E0C801885C9E4F0E94CB076F
:1006E000AE014F5F5F4F61E0C801815B9E4F0E948A
:1006F000CB0760E0C801845B9F4F0E94110260E05D
:10070000C801825A9F4F0E9411021BC086E0E3E19C
:10071000F0E2DE01119601900D928A95E1F7AE01AB
:100720004F5F5F4F66E0C801885C9E4F0E94CB0719
:10073000AE014F5F5F4F66E0C801815B9E4F0E9434
:10074000CB07F092C4202696CDBFDEBFDF91CF91BC
:100750001F910F91FF90089580E00895089521E47E
:1007600030E2FC0120833183E0E8F6E024E02283DC
:1007700028E02283218320EA3AE0FC0122833383AC
:1007800008951F920F920FB60F9211242F933F934B
:100790004F935F936F937F938F939F93AF93BF9389
:1007A000EF93FF938091A00A0E94091A009739F1F4
:1007B0000E94FF18811123C082E692E20E94241950
:1007C0009C01892BE1F080915F228830C1F09091EB
:1007D00061229F5F90936122909161229770909324
:1007E000612290915F229F5F90935F22E09161224E
:1007F000F0E0EE0FFF1FE15BFD4D20833183FF91A1
:10080000EF91BF91AF919F918F917F916F915F9188
:100810004F913F912F910F900FBE0F901F90189501
:10082000809108068295817091E08927089580E083
:1008300090E1089581E0662319F08093E50708951B
:100840008093E6070895CF93C62F8091C920811128
:100850000DC00E9432216093C5207093C620809302
:10086000C7209093C82081E08093C920C53050F400
:10087000C23078F4CC2349F0C13059F582E080933E
:10088000E50727C0C53079F024C082E08093E607F1
:1008900020C085EC90E20E945421653F71408105A3
:1008A0009105B8F009C085EC90E20E945421693CA2
:1008B00071058105910568F082E08093E7070E9449
:1008C00032216093C5207093C6208093C7209093F7
:1008D000C820CF910895EF92FF920F93CF93DF93AB
:1008E0001F92CDB7DEB77C010E94AF038DE490E28A
:1008F000F7018083918340E060E0CE0101960E9481
:10090000BD1F20E030E040E150E16981C70104965D
:100910000E94531041E060E0CE0101960E94BD1F8D
:1009200020E030E042E150E16981C70146960E9433
:10093000531042E060E0CE0101960E94BD1F20E00E
:1009400030E044E150E16981C70188960E9453106C
:1009500043E060E0CE0101960E94BD1F20E030E040
:1009600046E150E16981C701CA960E94531040E0F8
:1009700062E0CE0101960E94BD1F00E420E048E243
:1009800050E16981C701845B9F4F0E94550741E098
:1009900062E0CE0101960E94BD1F20E04AE250E1D4
:1009A0006981C7018D599F4F0E94550742E062E05F
:1009B000CE0101960E94BD1F20E04CE250E169810A
:1009C000C70186589F4F0E94550743E062E0CE0161
:1009D00001960E94BD1F20E04EE250E16981C701EF
:1009E0008F569F4F0E94550740E750E168E2C701CC
:1009F00088559F4F0E944B1240E651E168E2C701C3
:100A000083559F4F0E947711E0EEF7E081E08283EB
:100A1000818382E08283818380E180930206E1EF1B
:100A2000F7E0808180648083E4E1F6E08081877C68
:100A300080838081886180830F90DF91CF910F91B7
:100A4000FF90EF90089580E090E108958F549D4FBE
:100A500061110C947C1D0C946A1DCF92DF92EF9271
:100A6000FF920F931F93CF93DF931F92CDB7DEB703
:100A70007C01D62EC42E122F0E94AF0389E590E28E
:100A8000F7018083918340E060E0CE0101960E94EF
:100A9000BD1F20E030E040E150E16981C7010496CC
:100AA0000E94531041E060E0CE0101960E94BD1FFC
:100AB00020E030E042E150E16981C70146960E94A2
:100AC000531042E060E0CE0101960E94BD1F20E07D
:100AD00030E044E150E16981C70188960E945310DB
:100AE00043E060E0CE0101960E94BD1F20E030E0AF
:100AF00046E150E16981C701CA960E94531044E063
:100B000060E0CE0101960E94BD1F20E030E048E188
:100B100050E16981C701845B9F4F0E94531045E0FB
:100B200060E0CE0101960E94BD1F20E030E04AE166
:100B300050E16981C701825A9F4F0E94531040E0E3
:100B400061E0CE0101960E94BD1F20E030E04CE143
:100B500050E16981C70180599F4F0E94531041E0C5
:100B600061E0CE0101960E94BD1F20E030E04EE121
:100B700050E16981C7018E579F4F0E94531042E098
:100B800061E0CE0101960E94BD1F20E030E040E20E
:100B900050E16981C7018C569F4F0E94531043E07A
:100BA00061E0CE0101960E94BD1F20E030E042E2EC
:100BB00050E16981C7018A559F4F0E94531046E05A
:100BC00062E0CE0101960E94BD1F20E030E044E2C9
:100BD00050E16981C70188549F4F0E94531047E03C
:100BE00062E0CE0101960E94BD1F20E030E046E2A7
:100BF00050E16981C70186539F4F0E94531040E026
:100C000062E0CE0101960E94BD1F04E6212F48E25A
:100C100050E16981C70184529F4F0E94550741E00E
:100C200062E0CE0101960E94BD1F212F4AE250E1F1
:100C30006981C7018D509F4F0E94550742E062E0D5
:100C4000CE0101960E94BD1F212F4CE250E1698127
:100C5000C701865F9E4F0E94550743E062E0CE01C8
:100C600001960E94BD1F212F4EE250E16981C7010C
:100C70008F5D9E4F0E94550744E062E0CE010196D1
:100C80000E94BD1F212F40E350E16981C701885CAC
:100C90009E4F0E94550745E062E0CE0101960E94FA
:100CA000BD1F212F42E350E16981C701815B9E4F47
:100CB0000E94550740E063E0CE0101960E94BD1FEF
:100CC00020E044E350E16981C7018A599E4F0E94A8
:100CD000550741E063E0CE0101960E94BD1F20E070
:100CE00046E350E16981C70183589E4F0E94550732
:100CF00042E063E0CE0101960E94BD1F20E048E380
:100D000050E16981C7018C569E4F0E94550743E010
:100D100063E0CE0101960E94BD1F20E04AE350E14E
:100D20006981C70185559E4F0E94550744E063E0E5
:100D3000CE0101960E94BD1F20E04CE350E1698185
:100D4000C7018E539E4F0E94550745E063E0CE01D8
:100D500001960E94BD1F20E04EE350E16981C7016A
:100D600087529E4F0E945507870100511E4F6C2DE0
:100D7000C8010E94131C40E450E1B801C7018D5026
:100D80009E4F0E94000B46E450E1B801C7018F5E00
:100D90009D4F0E94000B4CE450E1B801C701815DFA
:100DA0009D4F0E94000B42E550E1B801C701835BF3
:100DB0009D4F0E94000B48E550E1B801C7018559DD
:100DC0009D4F0E94000B4EE550E1B801C7018757C7
:100DD0009D4F0E94000B40E750E168E2C701895532
:100DE0009D4F0E944B1240E651E168E2C7018455D5
:100DF0009D4F0E947711FFE4EF1AFDEFFF0A4D2D82
:100E00004F706D2D62956F70C7010E94BD1FF70175
:100E10008081803E18F4C7010E94C41FF7018081C1
:100E2000803E18F4C7010E94D91F0F90DF91CF9127
:100E30001F910F91FF90EF90DF90CF900895FC01EC
:100E40008781FB01808381E00895CF93DF931F9218
:100E5000CDB7DEB7DC011396ED91FC91149730818C
:100E6000232F2F77253688F056969C919F77232F36
:100E70002078922B391749F0998341E050E0BE0168
:100E80006F5F7F4FCF010E94B11E0F90DF91CF9116
:100E90000895CF93DF93EC010E9432216883798318
:100EA0008A839B83DF91CF910895CF92DF92FF9247
:100EB0000F931F93CF93DF93EC01162F6A01F22E4D
:100EC0000E945D1285E690E288839983412F4F70DE
:100ED000612F62956F7024EC39E0CE0105960E9477
:100EE0002A20CE010D960E944907CE0141960E940C
:100EF00049070E8B82E08A83CB82DC828D81182F9A
:100F00001F7082958F700E945C1F183060F44096AD
:100F1000E12FF0E0E80FF91F8081FF2011F08064DD
:100F200001C08F7B80831E828AEC8D8B1F8288ECB0
:100F3000888719868AE08A878B878FEF8C871D8642
:100F40001E861F86188A198A1A8A1B8A1C8ADF91B4
:100F5000CF911F910F91FF90DF90CF900895DC010A
:100F60001396ED91FC91149720812F7705962223FB
:100F700049F0629FB001112423E0759567952A9589
:100F8000E1F707C0611103C060E070E002C064ECEB
:100F900079E00C94AD20FF920F931F93CF93DF93D2
:100FA00000D000D0CDB7DEB78C01FA018081893C3A
:100FB00090F4D80117968C93179751961D921D9215
:100FC0001D921C9254978081811102C08AEC01C04D
:100FD00089ECF80150C08E3C49F468ECC8010E94CD
:100FE000AF0781E0D80116968C93A7C08F3C19F407
:100FF000F8011682A2C0663008F45EC09181D80163
:1010000019969C931997828118968C93189723812F
:101010001A962C931A9724811B962C931B97258143
:101020001C962C93F080BCECFB120FC0CE010196F5
:101030000E94490789819A81AB81BC81F801818B2B
:10104000928BA38BB48BF58A44C0FDECFF1220C0B9
:10105000D80155968C918C3C81F0CE0101960E946E
:10106000490789819A81AB81BC81F801818B928B80
:10107000A38BB48B8CEC858B2CC0D80151961D9220
:101080001D921D921C9254978AEC55968C9321C008
:10109000BBECFB121EC0F80125892A3C21F0978386
:1010A0008AEC858B03C0878389EC858BF801118AD4
:1010B000128A138A148A0DC0D80117968C9117973B
:1010C000882319F017961C92F1CF88ECF8018783DA
:1010D000EDCFF80185859685A785B089892B8A2B68
:1010E0008B2B59F50380F481E02D808187FF25C08B
:1010F000CE0101960E94490749815A816B817C810A
:10110000D8011D964D935D936D937C935097E0911C
:101110002622F09127229181B4E69B9FC0011124E1
:10112000092E000CAA0BBB0B840F951FA61FB71F1F
:10113000F80185879687A787B08B2496CDBFDEBF41
:10114000DF91CF911F910F91FF9008950F931F93FF
:10115000CF938C01DC011396ED91FC911497C08123
:10116000CF770596CC2399F00E94772023E0880F53
:10117000991F2A95E1F7D8011396ED91FC911497E8
:1011800060816F7770E00E948521C62F05C00E94A4
:101190007720892B09F0C8EC8C2FCF911F910F91EC
:1011A00008954F925F926F927F928F929F92AF922B
:1011B000BF92CF92DF92EF92FF920F931F93CF9344
:1011C000DF93CDB7DEB7CC55D109CDBFDEBF8C01E3
:1011D000F62EFC0181899289A389B489892B8A2BF7
:1011E0008B2B59F1C80141960E945421672B682B23
:1011F000692B19F1C8010E94A608F80160858613C1
:10120000A5C0D8011B968C91B4E68B9FC001112418
:10121000092E000CAA0BBB0BF80141895289638986
:101220007489840F951FA61FB71F818B928BA38B88
:10123000B48B6185C8010E94AF07F80186818111D6
:1012400009C081899289A389B489892B8A2B8B2B28
:1012500009F4B6C0F80185859685A785B089892BE4
:101260008A2B8B2B09F4B1C0C8010D960E94542122
:10127000672B682B692B09F4A8C0D801ED91FC916C
:101280000280F381E02DBE01645A7F4FC8010995A9
:10129000E82EE0912622F091272282819381A48179
:1012A000B5816C968CAF9DAFAEAFBFAF6C97CE01E2
:1012B000885A9F4F0E9471014B015C0140900720AA
:1012C000509008206090092070900A20CE0102966C
:1012D0000E944907FE0131966F0187E5DF011D92EB
:1012E0008A95E9F789E6888BF98A4E2D50E0BE0190
:1012F000645A7F4FCE0142960E94F12288EF8A877E
:101300004B865C866D867E868E829F82A886B98695
:10131000E394E394EF86C6010E946619882371F076
:10132000F80185859685A785B08986509F4FAF4F78
:10133000BF4F85879687A787B08B47C0D8011D967A
:101340001D921D921D921C9250973FC0D8011C9671
:101350008C911C97882329F11A968C91B4E68B9F67
:10136000C0011124092E000CAA0BBB0BF8018188C7
:101370009288A388B488880D991DAA1DBB1D818BF6
:10138000928BA38BB48BC8010E94AF07D8011C9627
:101390008C911C978F3F09F450CF81501C968C93F1
:1013A0004CCFF801118A128A138A148A8781681730
:1013B00011F08AEC01C089ECD80155968C933DCF91
:1013C0006781C8010E94AF0745CFC45ADF4FCDBF28
:1013D000DEBFDF91CF911F910F91FF90EF90DF90D3
:1013E000CF90BF90AF909F908F907F906F905F90C5
:1013F0004F900895FC012389FB012083FC01828921
:10140000FB01818382E008950F931F93CF93DF93B5
:10141000CDB7DEB72797CDBFDEBF8C01DC011596B7
:101420008D919C911697FC0121812B3F50F025E076
:101430002F8341E050E0BE01695F7F4F01960E941B
:10144000B11ED80115968D919C911697FC012281B1
:1014500033812115310529F0255031092C303E40CA
:1014600060F5D80115968D919C911697FC01248109
:1014700035812115310529F0255031092C303E40A8
:1014800048F5D8011596ED91FC91169784819581C8
:10149000009729F0228133818217930740F1F801E8
:1014A000178284EF91E0808B918B2796CDBFDEBFB2
:1014B000DF91CF911F910F9108952AE030E02D83A5
:1014C0003E8342E050E0BE016B5F7F4F02960E9478
:1014D000B11EC7CF26E930E02B833C8342E050E0C9
:1014E000BE016D5F7F4F04960E94B11ECACF198264
:1014F0001A8242E050E0BE016F5F7F4FCF01049639
:101500000E94B11ECCCF4F925F926F927F928F92CA
:101510009F92AF92BF92CF92DF92EF92FF920F9382
:101520001F93CF93DF93CDB7DEB7CB55D109CDBF96
:10153000DEBF882EF62E6A01011511052105310541
:10154000C1F4E0912622F091272282819381A48127
:10155000B5816C968CAF9DAFAEAFBFAF6C97CE012F
:10156000885A9F4F0E947101962EA72EB82EE92E01
:1015700004C0902EA12EB22EE32E40900720509052
:1015800008206090092070900A20CE0102960E94E7
:1015900049078E010F5F1F4F87E5F80111928A9569
:1015A000E9F789E6888B898A4F2D50E0B601CE0194
:1015B00042960E94F12288EF8A874B865C866D8670
:1015C0007E869E82AF82B886E986F394F394FF8686
:1015D000C8010E946619C55ADF4FCDBFDEBFDF913B
:1015E000CF911F910F91FF90EF90DF90CF90BF9020
:1015F000AF909F908F907F906F905F904F900895E5
:10160000EF92FF920F931F93CF93DF93EC017B0137
:101610008A010E945D1281E790E288839983EB82C0
:10162000FC821F82CE0146960E944907CE014A964F
:101630000E94490783E08A830D831E8380ED97E033
:10164000888B998B1E8A1F8A188E198EDF91CF91F5
:101650001F910F91FF90EF900895982F81E098329D
:1016600021F0903111F080E0089508951F93CF93F9
:10167000DF93EC01162F8B819C810E94391C8B819A
:101680009C81DC011196ED91FC91129730852C9193
:101690002323E1F0111104C0AE01485F5F4F02C087
:1016A00040E050E064E40E94111D80910620811109
:1016B0000FC0EB81FC818081A181B28115968C9352
:1016C00080810180F281E02D818302C081E001C030
:1016D00080E0DF91CF911F910895FB01208131813E
:1016E000DC0118968C91803161F42E7F43E0220F4B
:1016F000331F4A95E1F78681281B3109245F3F4F4C
:1017000010C0883271F48481982F9076903649F019
:1017100086FF02C02E7F05C085FF02C02C7F01C05E
:10172000287FC90134E0969587953A95E1F7B4E6AC
:101730008B02C0011124322F23FDC29632FD49963F
:1017400031FD0D9630FD06960895AF92BF92CF926F
:10175000DF92EF92FF920F931F93CF93DF93CDB75A
:10176000DEB72997CDBFDEBF8C01FC018381948158
:101770000E94391CA801485F5F4F6EEBF80183811E
:1017800094810E94111DCE0101967C015E019AE0B8
:10179000A90EB11C67016FEFF801838194810E944B
:1017A0009E1CF70181937F01EA15FB05A1F740E03C
:1017B00069E070E0C6010E94411D811109C0B601B7
:1017C000C8010E946D0BF801828B938B80E001C0F1
:1017D00083E02996CDBFDEBFDF91CF911F910F919E
:1017E000FF90EF90DF90CF90BF90AF900895209141
:1017F0001521E1EDF0E290E0921781F0A191B19115
:1018000012963C911297333039F415960D90BC9195
:10181000A02D3C91831721F09F5FEECF80E00895CB
:1018200081E008958F929F92AF92BF92CF92DF9204
:10183000EF92FF920F931F93CF93DF93CDB7DEB755
:101840002697CDBFDEBFFC0180899189892B09F4E1
:1018500061C1A581B6818C91811104C087818330DB
:1018600009F058C1D62E7F01CF0146960E9454211F
:10187000D70150962D913C915197890120E030E09D
:10188000601771078207930708F444C1CE010196DF
:101890000E94490789819A81AB81BC81F701868BBF
:1018A000978BA08FB18F8781811151C08DE495E90D
:1018B000828B938B0FEF6701F8E0CF0ED11C57019D
:1018C00020E1A20EB11CA601602FD70113968D91C5
:1018D0009C9114970E94B91C082F82E0800F8230DF
:1018E00070F1F60110E08191180FEA15FB05D9F7A8
:1018F000F70180850E942D0B811103C00111E3CFF8
:101900001EC0D70115968D909C901697F40180818A
:101910008F3F31F4812F0E94F70B882309F4F0C028
:10192000D7011596ED91FC91169780811813E6CF9B
:1019300081E017968C93179784E690E0C1C088E801
:1019400093E1F701808B918B83E08783E3C0813043
:10195000B9F461E0C7010E94360B81110BC088EE1B
:1019600093E0D70150968D939C93519782E0179600
:101970008C93D0C08AEF90E0F701808B918BCAC026
:10198000823009F0A2C0C7010E94A50B11E08111AD
:1019900010E0D7011596ED91FC9116978281938105
:1019A000892BC9F0C7014A960E9454214B015C0162
:1019B000D7011596ED91FC91169722813381A8EEFF
:1019C000B3E00E94BB2121E086169706A806B9065F
:1019D00018F420E001C021E01223D7011596ED9103
:1019E000FC91169784819581892B49F4D70115962E
:1019F000ED91FC9116974181411119C02CC0C7018E
:101A00004A960E9454214B015C01D7011596ED9135
:101A1000FC91169724813581A8EEB3E00E94BB218A
:101A200086169706A806B90608F321E015C0F70147
:101A30008289938924893589821B930B97FF03C080
:101A4000919581959109FAE04F9FA001112421E021
:101A50008417950708F420E0112359F1222349F156
:101A6000D701ED91FC910280F381E02DBE016B5F07
:101A70007F4FC701099500E010E09801AE014B5F70
:101A80005F4F682F8D2D0E94830A811112C0F701CC
:101A900082899389848B958BCE0101960E94490798
:101AA00089819A81AB81BC81F701828F938FA48F4A
:101AB000B58F81E0D70117968C93179788E893E14B
:101AC00050968D939C93519725C0833019F50190C2
:101AD000F081E02D0280F381E02DBE016F5F7F4F2A
:101AE000C701099500E010E09801AE014F5F5F4F1C
:101AF000682F8D2D0E94830AF701108A118A0AC06F
:101B0000198341E050E0BE016F5F7F4FC4010E9426
:101B1000B11E06CF2696CDBFDEBFDF91CF911F91BC
:101B20000F91FF90EF90DF90CF90BF90AF909F907C
:101B30008F900895CF93DF93EC0101960E9449079F
:101B400087E5FE0111928A95E9F7DF91CF9108951B
:101B50004F925F926F927F92AF92BF92CF92DF923D
:101B6000EF92FF920F931F93CF93DF93CDB7DEB722
:101B7000C755D109CDBFDEBF182FF62EE42E4090F9
:101B80000720509008206090092070900A20CE0114
:101B900001960E949A0D8BE4888B198B1A8AE110AA
:101BA00002C082E001C083E09F2D990F990F890F39
:101BB0008B8B88EF8A874B865C866D867E868FEF5F
:101BC0009FEFDC018E839F83A887B98784E08F878E
:101BD000CE0101960E946619082F80912B229091C8
:101BE0002C220097E1F5E0912622F0912722008136
:101BF000B0902822C0900720D0900820E0900920C3
:101C0000F0900A20CE0101960E949A0DCB86DC86C8
:101C1000ED86FE868FEF9FEFDC018E839F83A88782
:101C2000B98788EF8A8781E4888B198BBA8A0B8BF6
:101C300081E08C8B80E18D8B88E48E8B82E48F8BAE
:101C400087E5888F8E01005E1F4F5E0189E1A80E37
:101C5000B11C8AE0482E512C612C712C0DC0DC0186
:101C6000ED91FC910190F081E02D2E2D4F2D612FF3
:101C700009958823F1F0B7CFC701B601A3019201FE
:101C80000E949921605DF80162938F01C114D10413
:101C9000E104F10459F4A016B10671F780E18F87D1
:101CA000CE0101960E946619082F03C069017A01CE
:101CB000F2CF802FC95ADF4FCDBFDEBFDF91CF916A
:101CC0001F910F91FF90EF90DF90CF90BF90AF905A
:101CD0007F906F905F904F900895FF920F931F93A6
:101CE000CF93DF9300D000D0CDB7DEB78C01F62EB6
:101CF00009960E94F71FF801882391F18685978540
:101D0000A089B189892B8A2B8B2B99F040E06481C3
:101D10008F2D0E94A80D882361F0D80114968C9114
:101D200014978F5F14968C93F80116861786108A85
:101D3000118AD8011A961D921D921D921C921D9710
:101D400017968D919C911897009709F468C0159685
:101D5000ED91FC911697208127FF61C02FEC53C0B5
:101D600082859385A485B585892B8A2B8B2B71F46D
:101D7000CE0101960E94490789819A81AB81BC817D
:101D8000F80182879387A487B5872EC0C8010A9679
:101D90000E945421643671058105910528F1F801EE
:101DA00086859785A089B189892B8A2B8B2BE1F4B5
:101DB00040E0F80164818F2D0E94A80D8823A1F0D6
:101DC000D80114968C9114978F5F14968C93CE0142
:101DD00001960E94490789819A81AB81BC81F801F3
:101DE00086879787A08BB18BD80117968D919C9190
:101DF00018970097A1F01596ED91FC911697208108
:101E000027FF0DC02EEC2983DC01ED91FC910190A0
:101E1000F081E02DAE014F5F5F4F61E009952496A0
:101E2000CDBFDEBFDF91CF911F910F91FF9008953D
:101E30008F929F92AF92BF92FF920F931F93CF9377
:101E4000DF9300D000D0CDB7DEB78C01F62E099617
:101E50000E94F71FD8011A964D915D916D917C916A
:101E60001D97882379F1452B462B472B09F4A3C0F6
:101E7000C8010A960E9454216233710581059105BB
:101E800050F0F80186859785A089B189892B8A2B26
:101E90008B2B09F47BC0D8011A961D921D921D92BE
:101EA0001C921D9717968D919C911897009709F495
:101EB00082C01596ED91FC911697208127FF7BC07B
:101EC0002FEC6DC0452B462B472B09F442C0F8017F
:101ED00086859785A089B189892B8A2B8B2B59F010
:101EE000C8010E960E9454216C3271408105910503
:101EF00008F461C01BC0C8010A960E9454214B011E
:101F00005C01D8011596ED91FC911697218130E086
:101F1000A4E6B0E00E94BB2186169706A806B90683
:101F200008F449C0F80184818F5F8483CE01019653
:101F30000E94490789819A81AB81BC81F80186871B
:101F40009787A08BB18B41E064818F2D0E94A80DF3
:101F500032C0CE0101960E94490789819A81AB81E6
:101F6000BC81F80182879387A487B5871686178678
:101F7000108A118A878190850097E9F00580F681A3
:101F8000E02D208127FF17C02EEC09C0F8016481E5
:101F90006F5F648340E08F2D0E94A80D7CCF298362
:101FA000DC01ED91FC910190F081E02DAE014F5FDD
:101FB0005F4F61E009952496CDBFDEBFDF91CF91E1
:101FC0001F910F91FF90BF90AF909F908F900895B9
:101FD000FC01A581B6819C9193FF0DC0838188236C
:101FE00051F0977019F4CF010C94180F913019F437
:101FF000CF010C946D0E08951F93CF93DF93EC01E6
:10200000ED81FE8190818985182F1F7082958F70D8
:1020100094FF1EC00E945C1F183038F4FC017096BB
:10202000E10FF11D80818F7B80838985182F1F70C0
:1020300082958F700E945C1F183040F5FC017096ED
:10204000E10FF11D8081877C8083808188611DC0C4
:102050000E945C1F183038F4FC017096E10FF11DEE
:102060008081806480838985182F1F7082958F708E
:102070000E945C1F183050F4FC017096E10FF11DB6
:102080008081877C80838081806180831A861B8623
:102090001C861D861E861F86188A198A1C82DF915F
:1020A000CF911F910895CF92DF92EF92FF921F93ED
:1020B000CF93DF93EC01162F6A0179010E945D1224
:1020C0008DE790E28883998381E08B831C82CD82A7
:1020D000DE82EF82F8867E0189E0E80EF11C412F56
:1020E0004F70612F62956F70C7010E94BD1F898577
:1020F000803E18F4C7010E94C41FCE010A960E94B8
:102100004907CE010E960E94490781E08A83CE01DD
:10211000DF91CF911F91FF90EF90DF90CF900C94C3
:10212000FC0F0F931F93CF93DF931F92CDB7DEB7B2
:102130008C01FC018081861749F0698341E050E001
:10214000BE016F5F7F4FC8010E94B11EC8010F9092
:10215000DF91CF911F910F910895CF93DF93EC0101
:10216000ED81FE81918194509F3280F48D819E811A
:10217000FC016081262F2770223018F0687F0E94B2
:102180009110CE01DF91CF910C94FC0F64E0CF0150
:1021900001960E949110EACF2F923F924F925F9248
:1021A0006F927F928F929F92AF92BF92CF92DF9267
:1021B000EF92FF920F931F93CF93DF93CDB7DEB7CC
:1021C0002697CDBFDEBF7C013B01342ED22E10E01E
:1021D000CE0101965C0122242A948BECC82E9CEC43
:1021E000592E2DEC422ED70112968C91181708F01B
:1021F00068C0B0E11B9F40011124D7011396ED91F7
:10220000FC911497E80DF91D8481831158C08581D4
:102210008D1155C080819181A281B3818F3F9F4FE5
:10222000AF4FBF4F09F44BC0CF010E947101D301E2
:102230002D913D914D915C9162177307840795072D
:10224000F1F5F50126E011922A95E9F72982D701E7
:102250001396ED91FC911497E80DF91D90859A83E2
:1022600027812B8383858C8384858D8385858E83CD
:10227000002349F092859A8321852B838681869558
:102280008695869501C086818770833081F030F411
:10229000882351F0813099F4998307C0843049F044
:1022A000853069F4498206C0298361E004C0C9828F
:1022B00001C0598266E0A5018D2D0E945D151F5F4A
:1022C00092CF2696CDBFDEBFDF91CF911F910F91A8
:1022D000FF90EF90DF90CF90BF90AF909F908F9046
:1022E0007F906F905F904F903F902F900895FC01EA
:1022F0008093292290932A2289E890E28083918317
:1023000062834383548308952F923F924F925F924A
:102310006F927F928F929F92AF92BF92CF92DF92F5
:10232000EF92FF920F931F93CF93DF93CDB7DEB75A
:10233000CF55D109CDBFDEBF6E968EAF9FAF6E97E2
:10234000162F6F962FAF6F97440F440F222311F073
:1023500083E001C082E0480FA0964FAFA097E12C28
:10236000F12CC12CD12C8BE09E012F5F3F4F190126
:102370006E96AEADBFAD6E9712962C91129730E06F
:10238000C216D3060CF070C01396ED91FC91149711
:10239000EE0DFF1D90819F3F09F45FC091135DC05A
:1023A000CF0101960E9471012B013C016C966CAF2C
:1023B0007DAF8EAF9FAF6C978090072090900820E4
:1023C000A0900920B0900A206E96EEADFFAD6E97FA
:1023D00083819481481459046A047B04D9F4DC0194
:1023E000AE0DBF1D8091292290912A220097A1F164
:1023F000FC0120813181F901A080B1806F960FAD81
:102400006F9715962C91412FBE01685A7F4FF501A9
:10241000099522C0FC01EE0DFF1D05810E943221AD
:10242000D101E7E51D92EA95E9F7FBE4F88B198BFA
:102430000A8BA0962FADA0972B8B38EF3A878B860F
:102440009C86AD86BE864E825F826886798684E0F1
:102450008F87C1010E94661980E09FEFC91AD90ACF
:10246000A6E0EA0EF11C84CFC15ADF4FCDBFDEBF1C
:10247000DF91CF911F910F91FF90EF90DF90CF9060
:10248000BF90AF909F908F907F906F905F904F9094
:102490003F902F900895FC0180932B2290932C2243
:1024A0008FE890E28083918362834383548308950D
:1024B000089580E008950895089525E930E2FC012B
:1024C00020833183E091152121E02E0F20931521E7
:1024D000F0E0EE0FFF1FEF52FF4D80839183FC0170
:1024E000128208958F929F92AF92BF92CF92DF9205
:1024F000EF92FF920F931F93CF93DF936B017C01B9
:10250000FA0188E4808382E4818387E582838A01FB
:10251000065F1F4FEA0123968AE0882E912CA12C9A
:10252000B12C0C171D0791F0C701B601A50194014C
:102530000E949921605DF80162938F01C114D1045A
:10254000E104F10471F369017A01EBCFDF91CF91DE
:102550001F910F91FF90EF90DF90CF90BF90AF90C1
:102560009F908F900895FC019FB7F8941BBE88ED53
:1025700084BF60839FBF0895FC01808180FF03C0FA
:1025800081E09785961380E00895FC01818580FDA8
:1025900007C08685823020F081E09785993609F062
:1025A00080E008958091CF0187FDFCCF0895682FCA
:1025B000636080E890E00E94B3128091820080FD09
:1025C000FCCF0895CF92DF92EF92FF920F931F936B
:1025D000CF93DF93CDB7DEB7C755D109CDBFDEBFEF
:1025E0008091252281FF45C087EC92E20E94542110
:1025F0006830710581059105E0F1E0912622F091A6
:102600002722108100912822C0900720D090082016
:10261000E0900920F0900A20CE0101960E949A0DC8
:10262000CB86DC86ED86FE868FEF9FEFDC018E8306
:102630009F83A887B98788EF8A8781E4888B198A66
:102640000A8B1B8B81E08C8B10E11D8BAE014A5EE7
:102650005F4FC701B6010E9472121F87CE0101961B
:102660000E946619811105C0809125228D7F80937B
:102670002522C95ADF4FCDBFDEBFDF91CF911F9119
:102680000F91FF90EF90DF90CF900895CF92DF925F
:10269000EF92FF920F931F93CF93DF93CDB7DEB7E7
:1026A0002597CDBFDEBFE0912622F0912722108131
:1026B000C680D780E084F1840091CC010E94D212C0
:1026C0008091CC01877F8093CC018FEF0E94F61D13
:1026D0000E94D21280E30E94BF1D03FF07C00E9428
:1026E000D2128091CC0188608093CC018091262207
:1026F000909127221D8341E050E0BE016B5F7F4F28
:102700000E94B11E8091262290912722C982DA82EE
:10271000EB82FC8244E050E0BE016F5F7F4F069683
:102720000E94B11E809125228460809325222596E7
:10273000CDBFDEBFDF91CF911F910F91FF90EF9042
:10274000DF90CF9008951F93CF93DF9300D000D0F8
:10275000CDB7DEB78091232290912422892B09F4F2
:10276000BAC080911B22811107C087E192E20E94CA
:10277000490781E080931B2280912322909124229B
:10278000DC01ED91FC910480F581E02D0995182F75
:1027900080911622823009F441C028F4882361F028
:1027A000813001F18BC0843009F46AC008F451C053
:1027B000853009F47DC082C0112319F081E0809337
:1027C0001622CE0101960E94490789819A81AB8128
:1027D000BC818093172290931822A0931922B09362
:1027E0001A226CC087E192E2112351F00E94542119
:1027F000693873418105910508F460C082E055C0D5
:102800000E945421653671058105910508F454C074
:10281000809125228260809325224EC011114EC0E6
:1028200083E080931622CE0101960E944907898198
:102830009A81AB81BC818093172290931822A09338
:102840001922B0931A22809125228061809325223B
:1028500035C087E192E20E945421643671058105FA
:10286000910560F1112311F084E0A9CF87E192E294
:102870000E9454216938734181059105E8F41EC016
:1028800087E192E20E945421643671058105910529
:10289000A8F0112389F087E192E20E945421693B5C
:1028A0007B408105910550F085E08093162206C09B
:1028B000111104C00E944613109216228091232207
:1028C00090912422DC01ED91FC910680F781E02DAE
:1028D0006091162209952496CDBFDEBFDF91CF917E
:1028E0001F9108950F931F93CF93DF9300D000D0D3
:1028F000CDB7DEB7E0912622F0912722868197811D
:10290000A085B18589839A83AB83BC83CE01019670
:102910000E94710100910720109108202091092048
:1029200030910A206017710782079307B9F08B0175
:102930009C011D532F48304600381649284931055F
:1029400040F46093072070930820809309209093AF
:102950000A2080912522826080932522E091262200
:10296000F091272291819253993CB0F410E080912C
:1029700015211817E8F4E12FF0E0EE0FFF1FEF52DA
:10298000FF4D80819181DC01ED91FC910680F78102
:10299000E02D09951F5FEBCF82E3898341E050E092
:1029A000BE016F5F7F4FCF0101960E94B11EDECF47
:1029B0002496CDBFDEBFDF91CF911F910F91089577
:1029C000CF92DF92EF92FF92CF93DF93CDB7DEB736
:1029D000C755D109CDBFDEBF8091252280FF07C03A
:1029E0000E947214809125228E7F809325228091EF
:1029F000252283FF05C061E089E790E00E94B312C1
:102A00008091252282FF05C0A89588E10E94D712F7
:102A1000FFCF84FF27C0C0900720D0900820E0900F
:102A20000920F0900A20CE0101960E949A0DCB86D3
:102A3000DC86ED86FE8682E090E0A0E0B0E08E834A
:102A40009F83A887B98788EF8A8783E2888B81E094
:102A50008F87CE0101960E946619809125228F7E74
:102A6000809325220E9432216D3D7540810591059C
:102A700010F00E94E212C95ADF4FCDBFDEBFDF91D6
:102A8000CF91FF90EF90DF90CF9008959091152116
:102A9000891778F4E82FF0E0EE0FFF1FEF52FF4D9B
:102AA00080819181DC01ED91FC910280F381E02D28
:102AB0000994DB011C9281E00895909115218917FA
:102AC00078F4E82FF0E0EE0FFF1FEF52FF4D80810A
:102AD0009181DC01ED91FC910190F081E02D099450
:102AE00008958F929F92AF92BF92CF92DF92EF9212
:102AF000FF920F931F93CF93DF93EC010E94CA18AC
:102B0000182F882309F4A9C1898580FDA6C163E433
:102B1000CE010E94BC12882321F080912522816081
:102B2000E4C067E7CE010E94BC12882389F18E853C
:102B3000873008F492C18A899B899827892798272A
:102B40006C01092E000CEE08FF080C899927402F14
:102B500050E0BE016B5E7F4F8A5E9E4D0E94F12267
:102B6000D701C601800F911DA11DB11D8111BFC0EC
:102B7000C701B60166278827992720E031E046E1A2
:102B800051E20E942B1F8115914009F066C1AFC030
:102B900065E7CE010E94BC12882321F08091252296
:102BA0008860A3C066E7CE010E94BC12882321F092
:102BB00081E08F8780E10EC068E6CE010E94BC12E2
:102BC000882359F0E0912622F0912722808190916C
:102BD00028229F87888B82E00CC162E5CE010E948B
:102BE000BC12882399F08E85843009F036C10A8999
:102BF000402F50E0688979897627672776277061AA
:102C0000CE010F960E94F1220E87F4C065E4CE013A
:102C10000E94BC12882309F451C0FA880B89802FC6
:102C2000869586958695902F977011F48C5F01C0DC
:102C30008B5F8E8785E68F874E8550E04450510923
:102C400060E070E0CE0143960E94FA224F2D50E0E2
:102C500060E070E180E090E0202F30E0812C912C4A
:102C600054018394281739070CF4C4C0DB01E0E059
:102C7000F0E0E417F507F4F40D910F3FC9F0FC0103
:102C8000A3E0F595E795AA95E1F73496EC0FFD1FC3
:102C9000DC01A770BB277501640104C0CC0CDD1CEE
:102CA000EE1CFF1CAA95D2F7A785CA2AC78602C0C8
:102CB0003196DFCF0196640F751FD4CF6BE4CE0140
:102CC0000E94BC12811115C06BECCE010E94BC1297
:102CD00081110FC026C061E2CE010E94BC12882380
:102CE00009F463C08091252284608093252281E0CD
:102CF00082C08091292290912A220097C1F301E09D
:102D00002A89211101C000E0DC01ED91FC910190C4
:102D1000F081E02D29894889BE01665F7F4F0995C2
:102D2000E6CF63E5CE010E94BC12882321F0BE01EC
:102D30006F5E7F4F58C067E5CE010E94BC128823AA
:102D4000F1F04A892E8530E0842F90E00496281710
:102D5000390709F082C08889998998278927982797
:102D6000BE01009719F06D5E7F4F05C06C5E7F4F0E
:102D7000415081E090E050E00E94B11EB8CF6EE675
:102D8000CE010E94BC12882309F4A5CF60910720D0
:102D9000709108208091092090910A20AE01415F36
:102DA0005F4F0E9472128AE024C069E6CE010E9441
:102DB000BC1281119CCF63E7CE010E94BC1281112D
:102DC00007C068E7CE010E94BC12882309F445C001
:102DD0006E8562507E01B1E1EB0EF11CA70188897E
:102DE0000E945D15B70188890E94461599E69F8764
:102DF0008E5F8E8780E04D815E816F8178854F3F49
:102E00005F4F6F4F7F4F49F14A855B856C857D85AC
:102E10004D835E836F83788740910720509108200F
:102E20006091092070910A204A875B876C877D87B3
:102E3000998596959370882321F089E189871E866C
:102E400002C088E989879370892F8295880F807ED8
:102E500099859F79982B998701C010E0812FDF9188
:102E6000CF911F910F91FF90EF90DF90CF90BF9087
:102E7000AF909F908F9008950F931F93CF93DF9300
:102E8000DC0190E090962C919097921740F5FD010F
:102E9000E90FF11DE90FF11DEB0108811981408156
:102EA000518104171507C9F4892F422F50E0415072
:102EB0005109E82FF0E0E417F50754F4EE0FFF1F77
:102EC000EA0FFB1FC281D381C083D1838F5FF1CF13
:102ED0009150215090962C9390979F5FD3CFDF9184
:102EE000CF911F910F9108951F93CF93DF9300D03F
:102EF000CDB7DEB710E080914E221817A0F5E12F74
:102F0000F0E0EE0FFF1FE25DFD4D8081918189832E
:102F10009A83FC014181528163817481452B462B48
:102F2000472BF9F001960E945421672B682B692BDF
:102F3000C1F089819A810E946619E981FA818081B4
:102F40008C708C3081F4BE016F5F7F4F8EE292E215
:102F50000E943C1767E570E089819A810E941519EB
:102F600002C01F5FC8CF0F900F90DF91CF911F91CC
:102F700008958F929F92AF92BF92DF92EF92FF924D
:102F80000F931F93CF93DF9300D0CDB7DEB77C01B3
:102F9000D12C80914E22D81608F060C0ED2DF0E0C3
:102FA000EE0FFF1FE25DFD4D0081118109831A8341
:102FB000F801818580FD50C0F701818587708130DF
:102FC00071F0F8018685843009F046C087858B341E
:102FD00009F042C0C7010E94C5128823E9F191E0BF
:102FE000F80182849384A484B584F70145815681D5
:102FF0006781708584169506A606B70609F090E0ED
:1030000081E0F80185809680A780B084F701428531
:1030100053856485758584169506A606B70609F05E
:1030200080E08923C9F0F801918596959370F701A6
:10303000818582958695837098130EC0BE016F5F5F
:103040007F4F8EE292E20E943C1767E570E0898133
:103050009A810E94151902C0D3949BCF0F900F90B4
:10306000DF91CF911F910F91FF90EF90DF90BF9074
:10307000AF909F908F9008950F931F93CF93DF93FE
:10308000CDB7DEB7C755D109CDBFDEBF80915F2276
:10309000882309F453C09FB7F89480915F22882356
:1030A000C1F0E091602281E08E0F80936022F0E019
:1030B000EE0FFF1FE15BFD4D0081118180916022C9
:1030C00087708093602280915F22815080935F227D
:1030D00002C000E010E09FBF0115110579F1C801A1
:1030E0000E94E918882351F0F801818587708130AA
:1030F00009F1C8010E94C51281111CC0F801818527
:103100008770813089F087E5DE01119601900D927C
:103110008A95E1F7CE0101960E947115882321F06E
:10312000CE0101960E94661967E570E0C8010E9411
:10313000151904C0C8010E94B917E0CFC95ADF4F62
:10314000CDBFDEBFDF91CF911F910F910895CF9337
:10315000C0E080911521C817B0F4EC2FF0E0EE0F1D
:10316000FF1FEF52FF4D80819181DC01ED91FC91B9
:103170000480F581E02D6C2F09950E943C180E9477
:103180007417CF5FE6CF0E94E0140E94A313A895A6
:10319000CF910895FC01208120FF17C04581568101
:1031A000678170858091072090910820A091092067
:1031B000B0910A20481759076A077B0741F081E060
:1031C0004F3F5F4F6F4F7F4F19F080E0089581E0D0
:1031D000089521E0FC0145815681678170858091C9
:1031E000072090910820A0910920B0910A2048174B
:1031F00059076A077B0709F020E0822F089521E034
:10320000FC014285538564857585809107209091E6
:103210000820A0910920B0910A20481759076A0791
:103220007B0709F020E0822F0895CF93CFB7F89461
:103230000E949E1D80912D22882319F08150809339
:103240002D22CFBFCF910895DF92EF92FF920F937F
:103250001F93CF93DF937C01DFB6F894FC01C68502
:10326000C15FD0E0CE010796887F0E94A01D8C012F
:10327000009749F0AE01B7010E94F12280912D2202
:103280008F5F80932D22DFBEC801DF91CF911F9108
:103290000F91FF90EF90DF900895FB0198E040813F
:1032A00051819A01220F331F87FD216020833183D2
:1032B00057FF08C02081318142E0242740E13427B4
:1032C00020833183880F915051F708951F93CF9336
:1032D000DF93EC010E946A1B182F888181FF13C0C5
:1032E000CE0105960E9471016D837E838F8398873E
:1032F000CE010A960E9471016A877B878C879D8721
:1033000088818D7F88838881982F969596959F5F79
:103310009370990F990F837F892B88830E943221A4
:10332000DC01CB018A569F4FAF4FBF4F89839A83F1
:10333000AB83BC83898580FD33C08D819E81AF8145
:10334000B8858F3F9F4FAF4FBF4F51F18881869512
:1033500086958370813021F580914E22803100F571
:10336000CE010E9424190097D9F0E0914E22AEE2DE
:10337000B2E220E0E21739F04D915D918417950794
:1033800079F02F5FF7CFE03158F421E02E0F209332
:103390004E22F0E0EE0FFF1FE25DFD4D8083918332
:1033A000812FDF91CF911F910895CF93DF93CDB7F8
:1033B000DEB76397CDBFDEBFEFE4F2E28FEF828B23
:1033C000118A108A8B8B1A8A198A10924E22639660
:1033D000CDBFDEBFDF91CF910895CF93DF93FC0186
:1033E000208121FF13C0EC0105960E9471016D83BD
:1033F0007E838F839887CE010A960E9471016A8727
:103400007B878C879D8788818D7F8883DF91CF9193
:103410000895CF93C82F0E9432216093C7227093E2
:10342000C8228093C9229093CA228091BF22CC3FA8
:1034300021F481608093BF2279C0CD3FD1F48260B6
:103440008E7F8093BF221092BD228FEF9FEF8093DB
:10345000BB229093BC22809162228E7F82608093F7
:103460006222109270226BEB72E28DEF0E944D1976
:103470005DC081FF5BC080FF04C0C0688E7F809309
:10348000BF226BEB72E28C2F0E944D194091BD223E
:10349000E42FF0E0E959FD4DC083443049F48091B8
:1034A0006B22982F97709330C9F183FF37C039C0D2
:1034B00080917022493041F4893498F18091BF2283
:1034C0008D7F8093BF222DC050E060E070E090E0DF
:1034D000A0E0B0E00996A11DB11D481759076A0781
:1034E0007B07F9F48091BB229091BC22892BC9F40F
:1034F00082E692E20E94ED198091702282508093C0
:1035000070228091BF228D7F8093BF2280916222A2
:1035100081608093622282E692E20AC088E0809312
:10352000BD228091BD228F5F8093BD2280E090E01C
:10353000CF910895EF92FF920F931F93CF93DF9354
:10354000C091C022D091C122209709F4B6C08C014D
:103550009091C4228091C622911129C081FD27C07B
:1035600082608093C6228FEF9FEF8093C222909358
:10357000C322888181FD13C0CE0105960E9471018E
:103580006D837E838F839887CE010A960E94710196
:103590006A877B878C879D878881826088838DEF8F
:1035A000F801808362EC72E20E944D1981C081FFB4
:1035B00081C07E01F5E0EF0EF11CF701E90FF11D6E
:1035C0008081F80180834091C422443049F4898588
:1035D000982F9770933009F472C083FF70C016C0A3
:1035E000493021F48E5FF801808310C050E060E024
:1035F00070E08E8590E0A0E0B0E00B96A11DB11DBB
:1036000084179507A607B70708F457C08091C6220C
:1036100080FD40C062EC72E2F80180810E944D1989
:103620004091C42250E060E070E08E8590E0A0E020
:10363000B0E00996A11DB11D481759076A077B071D
:10364000E1F462EC72E280E00E944D1962EC72E2F9
:1036500080E00E944D198091C4228F5FF701E80F2E
:10366000F11D8091C32280838091C4228E5FF70177
:10367000E80FF11D8091C2228083F80180818C5F68
:10368000833088F48091C62281608093C6228CEFBB
:1036900080830EC0F80180818F7780838091C6225D
:1036A0008E7F8093C6228091C4228F5F8093C42234
:1036B00081E009C0CE010E94ED1980E004C088E0DD
:1036C0008093C422A3CFDF91CF911F910F91FF90E0
:1036D000EF900895EF92FF921F93CF93DF931F9285
:1036E000CDB7DEB77C018091CC229091CD22892B81
:1036F00081F087EC92E20E945421683071058105C7
:10370000910548F4D70119968C918770813089F71B
:1037100002C081E06FC0E092C022F092C1221092FC
:10372000C4228091C6228D7F8093C622D70119962C
:103730008C9180FD06C0F7019081969596959370C7
:10374000B1F18091CC229091CD22DC01ED91FC91E0
:103750000190F081E02D61E0099510E0CE01019625
:103760000E949A1AA091CC22B091CD22882389F090
:1037700089811296ED91FC911397948193FD05C078
:1037800012E0ECCF948193FF1BC0918195FFFACF9B
:1037900017C01296ED91FC9113978181806481830B
:1037A000818186FD0FC0848183FF0CC0F9CF909189
:1037B000CB229370990F897F892BF7018187C1CF25
:1037C0008083CCCFED91FC9111970190F081E02D99
:1037D00060E0CD01099511110AC0F701818580FDD6
:1037E00008C08091CB228F5F8093CB2202C0812FB3
:1037F00001C080E00F90DF91CF911F91FF90EF907B
:1038000008951092C7221092C8221092C9221092D5
:10381000CA220E94322187E5E2E6F2E2DF011D9230
:103820008A95E9F708950F931F93CF93DF931F9223
:10383000CDB7DEB78C016983CE0101960E94EE1FE1
:10384000F8018083898182958F700E945C1FF80146
:103850008183928330812FB7F8943093B00038E1A0
:10386000FC01308B2FBF0F90DF91CF911F910F91F3
:103870000895FC018081A181B28116968C9380818C
:10388000A181B28111968C938FEB92E10197F1F7B0
:1038900000C000002FB7F8948081A181B2811296F8
:1038A0008C93AFE0B2E01197F1F700C00000808187
:1038B000A181B28118963C91AFEEBCE01197F1F76F
:1038C00000C00000A181B28118964C919081942390
:1038D00011F0832301C081E02FBF0895FC01862FE2
:1038E0002FB7F8949081A181B28111969C9395E1B4
:1038F0009A95F1F70000662329F09081A181B281A9
:1039000012969C93A0E8AA95F1F7A181B28118962E
:103910003C919081932309F480E0A7E6B1E01197F0
:10392000F1F700C0000090810180F281E02D9283C8
:10393000BAE6BA95F1F700C02FBF08950F931F9311
:10394000CF93DF938C01C62FD8E06C2F6170C80134
:103950000E946E1C2C2F30E035952795C22F8111C7
:10396000C068D15091F78C2FDF91CF911F910F91AB
:103970000895BF92CF92DF92EF92FF920F931F9321
:10398000CF93DF937C01C62E8A010E94391C8111DE
:103990003BC060EFC7010E949E1CD0E0C0E498EFDE
:1039A000B92EBC0E61E0C7010E946E1CD82E61E0EA
:1039B000C7010E946E1C882319F0DD2071F026C01B
:1039C000D1100BC0CC1530F0F801808180FF05C00C
:1039D000CC1519F0DC2FDD24D3946D2DC7010E9486
:1039E0006E1CF801208130E035952795DD2011F01F
:1039F0002068F8012083C150CB11D4CF0F5F1F4F37
:103A0000C111CDCF8D2F03C08FEF01C08EEFDF919D
:103A1000CF911F910F91FF90EF90DF90CF90BF90CB
:103A20000895CF92DF92FF920F931F93CF93DF936E
:103A3000EC01F62E8A010E94391C0115110591F046
:103A400065E5CE010E949E1C680188E0C80ED11C6D
:103A5000F80161918F01CE010E949E1C0C151D057D
:103A6000B9F704C06CECCE010E949E1C6F2DCE01F4
:103A7000DF91CF911F910F91FF90DF90CF900C9429
:103A80009E1CCF93FC01680F791F2CEB31E652ECA2
:103A9000ADE9B3E2C6E48CE8E617F707B9F0919117
:103AA000942790FF02C04EE501C040E091FD4227FF
:103AB00092FD432793FD452794FD4A2795FD4B270B
:103AC00096FD4C2797FFE8CF4827E6CF842FCF916C
:103AD000089508951F93CF93DF93EC010E94EE1F8A
:103AE000182F888182958F700E945C1FFC011683BD
:103AF000DF91CF911F9108951F93CF93DF93EC0136
:103B00000E94EE1F182F888182958F700E945C1F83
:103B1000FC011583DF91CF911F910895009769F003
:103B200020910B2030910C2042E28C3E9407E0F370
:103B300082179307C8F70C94682208950C948E1D81
:103B4000CF93DF93EC010E94D02120910B20309184
:103B50000C2042E28C3E9407E0F382179307C8F7EB
:103B60002197C80FD91F42E2CC3ED407E0F3C21719
:103B7000D307C8F7DF91CF9108950C94A01DCF9380
:103B8000DF93E0ECF1E032852FB7F8948287A8E468
:103B9000B0E05C919C918C91809589238C93C0EAD4
:103BA000D0E048819A818A81887F84608A838C9161
:103BB00081608C93858568ED64BF61E0638763E015
:103BC0006587789488955C9348839A838587328744
:103BD0002FBFDF91CF9108950E94D2128091CF0123
:103BE00081FF03C086E30C94BF1D0895CF93DF933C
:103BF000D82FC091CA010E94EC1D0E94D21283E30B
:103C00008093CA011092C2011092C10180E080939A
:103C1000C001D093C4018F5F8032C9F7C093CA013D
:103C2000DF91CF9108956F927F928F929F92AF9282
:103C3000BF92CF92DF92EF92FF920F931F93CF9399
:103C4000DF938C016B017A0190518115944018F03B
:103C500080E090E032C0CA019051800F911F811521
:103C60009440B0F7612E812C912C902F9F7180E2AF
:103C7000782E791AA72CB12CE114F104E9F0C72DA4
:103C8000EA14FB0408F4CE2D0E94EC1DD0E0AE0136
:103C9000B601C8010E94F1221092C2016092C101D6
:103CA0000093C00185E30E94BF1DCC0EDD1EEC1AFF
:103CB000FD0A8C0E9D1EE0CFC401DF91CF911F91B4
:103CC0000F91FF90EF90DF90CF90BF90AF909F90BB
:103CD0008F907F906F900895FF920F931F93CF93D3
:103CE000DF931F92CDB7DEB78C0169838091CC0141
:103CF00083FF11C0011580E1180708F4105F41E04F
:103D000050E0BE016F5F7F4FC8010E94131E21E08B
:103D1000892BF9F404C0011584E0180710F020E0A5
:103D200018C0F090CA010E94EC1D0E94D21283E3D9
:103D30008093CA011092C2011093C1010093C00187
:103D400089818093C40185E30E94BF1DF092CA015E
:103D500021E0822F0F90DF91CF911F910F91FF9063
:103D60000895EF92FF920F931F93CF93DF938A01F1
:103D70002091CC0123FF0EC0811520E1920708F4A9
:103D8000905FA801DF91CF911F910F91FF90EF906D
:103D90000C94131E7B01EC01C61BD70BCE018E0DBC
:103DA0009F1D0115110551F0F70161917F010E94DE
:103DB0006C1E882331F001501109F0CF80E090E0B3
:103DC00001C0C801DF91CF911F910F91FF90EF903B
:103DD00008951F920F920FB60F9211248F93EF93B5
:103DE000FF93E0ECF1E085858C7F8587FF91EF9173
:103DF0008F910F900FBE0F901F901895CF92DF926A
:103E0000EF92FF926B017C01C20ED31EE11CF11CEC
:103E1000C114E0E9DE06E104F104A0F4DA01420F86
:103E2000531FA417B50789F06B017C01EFEFCE1A81
:103E3000DE0AEE0AFE0A8BBFFB0167916D93C70194
:103E4000B601EFCF80E090E001C0C901FF90EF9094
:103E5000DF90CF900895CF92DF92EF92FF92CF93B1
:103E6000DF9361110DC06B017C01C20ED31EE11CFA
:103E7000F11CE1E0CE16E0E9DE06E104F10418F001
:103E800080E090E012C0E9016B017C01CA010E9450
:103E90006E1F8091CF0187FDFCCF45E2C701B601BF
:103EA0000E94DC471092CA01CE01DF91CF91FF90B2
:103EB000EF90DF90CF9008958D3048F4E82FF0E038
:103EC000EE0FFF1FE356FF4D8081918108958EEC28
:103ED00092E208958FEF8093D6220895CF92DF92D9
:103EE000EF92FF92CF93DF937C010E94D21246E2C1
:103EF00060E070E0CB010E94DC47E701C12CD12CCF
:103F000076018881498150E0542F4427480F511D84
:103F1000C701B6010E94EB47229682E0C80ED11C71
:103F2000E11CF11CC11481E0D806E104F10449F759
:103F3000DF91CF91FF90EF90DF90CF900895833085
:103F400029F0843051F0823029F003C080E099E0FC
:103F50000895FFCF80E098E0089580E09AE008950A
:103F6000823041F0833019F480E499E0089580E0D4
:103F700090E0089580E498E008956295607F4F7026
:103F8000642BFC0160830895CF93DF93FC01808153
:103F9000982F9F70C1E0D0E001C0CC0F9A95EAF74E
:103FA00082958F700E945C1FFC01C283DF91CF91CC
:103FB0000895CF93DF93FC018081982F9F70C1E01B
:103FC000D0E001C0CC0F9A95EAF782958F700E94DD
:103FD0005C1FFC01C183DF91CF910895FC019081AA
:103FE0009F7081E001C0880F9A95EAF70895CF93FA
:103FF000DF93EC01888182958F700E945C1FFC0129
:10400000308528812F7081E090E001C0880F2A95CB
:10401000EAF78323DF91CF910895FC018081282F57
:104020002F7030E02430310524F482958F700C9489
:104030009F1F80E090E00895FC0180819CE0980F34
:104040009F70923020F482958F700C94B01F80E0A6
:1040500090E00895CF92DF92EF92FF921F93CF935B
:10406000DF936C01142F79010E94BD1FC6010E94CD
:10407000D91FC6010E940D20EC01C6010E941C2020
:10408000FC012097B1F08881807F816088838981DD
:10409000887F83608983EEA2FFA229811C5F81E073
:1040A00090E001C0880F1A95EAF7807F822B898300
:1040B00016C0892BA1F08081807F816080838181FF
:1040C000887F83608183E6A2F7A2218181E090E06E
:1040D00001C0880F1A95EAF78073822B8183DF91E4
:1040E000CF911F91FF90EF90DF90CF9008950F93A5
:1040F0001F93CF93DF938C010E940D20EC01C80128
:104100000E941C202097A1F0F80180818F7019F483
:1041100088A599A51DC0813019F48AA59BA518C052
:10412000823019F48CA59DA513C08EA59FA510C043
:10413000009761F0F80120812F70FC01243019F400
:1041400080A591A505C082A593A502C080E090E05E
:10415000DF91CF911F910F910895EF92FF920F93EE
:104160001F93CF93DF937C01EB010E940D208C0104
:10417000C7010E941C200115110579F0F70180810B
:104180008F70F80191F0813099F0823019F4C4AF4A
:10419000D5AF10C0C6AFD7AF0DC0009759F0F7012B
:1041A00020812F70FC01243019F4C0AFD1AF02C0C0
:1041B000C2AFD3AFDF91CF911F910F91FF90EF90DE
:1041C00008959091010490FDFCCF90910004987F98
:1041D000892B8093000408951F93CF93DF93182FAA
:1041E000EB0180E00E94E120809143008E7F80936C
:1041F0004300153031F4C115D04219F483E09EE03C
:1042000002C081E094E020914300217F2160922B45
:104210009093430020910804309109043C5F409141
:104220000804509109049091010490FDFCCF6FEFB8
:104230007FEF60930A0470930B049091010490FD4A
:10424000FCCF40930804509309049091010490FD21
:10425000FCCF20930C0430930D04DF91CF911F917C
:104260000C94E12031E02FB7F8944091030440FF13
:104270000CC04091E6225091E7224F5F5F4F409380
:10428000E6225093E72230930304409108045091B2
:104290000904BA012FBF2091030420FDE4CF8091CF
:1042A000E6229091E7220895CF92DF92EF92FF925B
:1042B0000F931F93CF93DF93EC010E94322108816B
:1042C00019812A813B816B017C01C01AD10AE20A63
:1042D000F30A601771078207930760F4C701B601FC
:1042E000615071098109910997FF06C060E070E093
:1042F000CB0102C0C701B601DF91CF911F910F9191
:10430000FF90EF90DF90CF900895AA1BBB1B51E167
:1043100007C0AA1FBB1FA617B70710F0A61BB70B35
:10432000881F991F5A95A9F780959095BC01CD01DA
:104330000895A1E21A2EAA1BBB1BFD010DC0AA1FE6
:10434000BB1FEE1FFF1FA217B307E407F50720F0FE
:10435000A21BB30BE40BF50B661F771F881F991F79
:104360001A9469F760957095809590959B01AC01C2
:10437000BD01CF010895A29FB001B39FC001A39FCB
:10438000700D811D1124911DB29F700D811D11248E
:10439000911D0895EE0FFF1F0590F491E02D0994F3
:1043A0000F931F93CF93DF938230910510F482E037
:1043B00090E0E091EA22F091EB2220E030E0A0E0F2
:1043C000B0E0309719F14081518102811381481783
:1043D0005907C8F08417950769F4109731F01296C1
:1043E0000C93129713961C9327C00093EA22109304
:1043F000EB2222C02115310519F04217530718F49A
:104400009A01BD01EF01DF01F801DBCF2115310574
:10441000F9F0281B390B2430310580F48A819B8107
:104420006115710521F0FB018283938304C08093A1
:10443000EA229093EB22FE01329644C0FE01E20F85
:10444000F31F8193919322503109288339833AC015
:104450002091E8223091E922232B41F4209102207F
:10446000309103202093E8223093E922209100200C
:10447000309101202115310541F42DB73EB740910F
:10448000042050910520241B350BE091E822F09187
:10449000E922E217F307A0F42E1B3F0B2817390778
:1044A00078F0AC014E5F5F4F2417350748F04E0F90
:1044B0005F1F4093E8225093E9228193919302C0B9
:1044C000E0E0F0E0CF01DF91CF911F910F910895CF
:1044D000CF93DF93009709F481C0FC0132971282D9
:1044E0001382A091EA22B091EB22109781F42081EF
:1044F0003181820F931F2091E8223091E922281701
:10450000390751F5E093E822F093E92267C0ED0105
:1045100020E030E0CE17DF0740F44A815B819E0146
:1045200041155105F1F0EA01F5CFC283D3834081F3
:104530005181840F951FC817D90759F48881998133
:10454000840F951F0296808391838A819B81828349
:1045500093832115310529F4E093EA22F093EB22AD
:104560003DC0E901EA83FB8349915991C40FD51FEE
:10457000EC17FD0761F480819181840F951F0296ED
:10458000E90188839983828193818A839B83E0E018
:10459000F0E012968D919C911397009719F0FD0110
:1045A000DC01F7CF8D919C9111979D012E5F3F4FBC
:1045B000820F931F2091E8223091E92228173907B2
:1045C00069F4309729F41092EA221092EB2202C08B
:1045D00012821382A093E822B093E922DF91CF9157
:1045E0000895FB01DC0102C001900D924150504042
:1045F000D8F70895DC0101C06D9341505040E0F7B9
:064600000895F894FFCFBD
:104606000000EC22200001003D8F60EC2ACC00C89F
:104616000202FFCC00C80505FF00000000260523A6
:1046260005950129030000000026052305950129AB
:1046360003000000002605230592019401000000F6
:1046460000691D691DAC03AE03000000001A0417C3
:104656000410042304000000002605230595012903
:104666000300000000CB071F07D108250700000044
:10467600005812FA09120C040A00000000581259D8
:1046860012E80FAD1000000000CC100000000084FE
:104696001100000000581259125B125C120006202D
:1046A60006400660068006CE22CE22CE22CE22CE3E
:0846B60022CE22CE22E0070013
:00000001FF
