:200000000C9410010C9476010C9476010C9476010C9476010C9476010C9476010C9476018E
:200020000C9476010C9476010C9476010C9476010C9476010C9476010C9476010C94760108
:200040000C9476010C9476010C9476010C9476010C9476010C9476010C9476010C947601E8
:200060000C9476010C9476010C9476010C9476010C9476010C9476010C9476010C947601C8
:200080000C94981F0C9476010C9476010C9476010C9476010C9476010C9476010C94760168
:2000A0000C9476010C9476010C9476010C9476010C9476010C9476010C9476010C94760188
:2000C0000C9476010C9476010C9476010C9476010C9476010C9476010C9476010C94760168
:2000E0000C9476010C9476010C9458040C9476010C9476010C9476010C9476010C94760163
:200100000C9476010C9476010C9476010C9476010C9476010C9476010C9476010C94760127
:200120000C9476010C9476010C9476010C9476010C9476010C9476010C9476010C94760107
:200140000C9476010C9476010C9476010C9476010C9476010C9476010C9476010C947601E7
:200160000C9476010C9476010C9476010C9476010C9476010C9476010C9476010C947601C7
:200180000C9476010C9476010C9476010C9476010C9476010C9476010C9476010C947601A7
:2001A0000C9476010C9476010C9476010C9476010C9476010C9476010C9476010C94760187
:2001C0000C9476010C9476010C9476010C9476010C9476010C9476010C9476010C94760167
:2001E0000C9476010C9476010C9476010C9476010C9476010C9476010C947601244D4F445A
:2002000024204842572D444556202000704700000200B0F700027E018C017D1AB21CBB1FC0
:2002200011241FBECFEFCDBFDFE2DEBF80E08CBF67E280E890E00E943A048091820080FD48
:20024000FCCF60E081E490E00E943A04809150008660809350008091510086708630D9F756
:2002600060914000687F616080E490E00E943A0480914000809150008E7F809350008091BE
:2002800050008091600081608093600010E2A0E0B0E2E6EBF6E402C005900D92A83BB10709
:2002A000D9F721E2A8EBB0E201C01D92A83FB207E1F7E8EFF1E288E499E28193E83FF90792
:2002C000E0F383E590E38193E030F907E0F311E0C0E1D1E004C02197FE010E942222CB30DA
:2002E000D107C9F70E947A030C9459230C940000FC0163817281818190810895E8EBF0E262
:200300001082118212821382148280ED97E08583968385E08783089580E098EE8093C2200D
:200320009093C32080E094EF8093C0209093C1200895809108068095881F8827881F089572
:20034000CF93DF93EC01865A9F4F0E944F20811107C0CE0183599F4F0E944F2091E08111F7
:2003600090E0892FDF91CF910895CF93C62F8091C42081110DC00E948A216093CC2070930E
:20038000CD208093CE209093CF2081E08093C420C53050F4C23078F4CC2349F0C13059F507
:2003A00080E48093050627C0C53079F024C080E48093060620C08CEC90E20E94AC21653F32
:2003C000714081059105B8F009C08CEC90E20E94AC21693C71058105910568F080E4809380
:2003E00007060E948A216093CC207093CD208093CE209093CF20CF9108950F931F93CF930E
:20040000DF9300D000D0CDB7DEB76115710509F453C0DB01182F60932F2170933021609308
:20042000D8217093D9211296ED91FC911397178287E6868383E2858388E184831296ED9157
:20044000FC91139793819F7C9061938390913121916090933121ED91FC910280F381E02D48
:20046000CB010995109334218093322190933321FC0186819781A085B18589839A83AB836F
:20048000BC83CE0101960E9478018B019C011D532F483046003816492849310540F46093B1
:2004A0000720709308208093092090930A20809131218260809331212496CDBFDEBFDF9164
:2004C000CF911F910F910895CF93DF931F92CDB7DEB7DC0113966C93139718968D919C9109
:2004E0001997009779F061110DC02FEC2983DC01ED91FC910190F081E02DAE014F5F5F4F44
:2005000061E009950F90DF91CF9108950F931F93CF93DF9300D0CDB7DEB78C0141E06CE0E5
:20052000CE0101960E94152040E06CE0CE0102960E94152020E049816A81C8010E94C405EB
:2005400085E390E2F80180839183E0E0F6E080E48283818380E88283E6E1F6E080818064BF
:200560008083E7E1F6E08081877C80838081886180830F900F90DF91CF911F910F910895EB
:200580000F931F93CF93DF9300D01F92CDB7DEB7182F809100108F3F51F41B8241E050E030
:2005A000BE016D5F7F4F80E090E10E94601F113B09F07AC080910010811148C08FEB92E0CA
:2005C0000E946E1E8C0147E063E0CE0101960E94152041E064E0CE0102960E94152021E015
:2005E00049816A81C8010E94C4058DE190E2F8018083918381E08093820680938106EDEDB2
:20060000F0E2808D918DA191B19118968D939C93199780E2E53FF807A1F781E0F80180873E
:20062000838F86A7EF5BFF4F8083739680837396808373968083739680837396808373969B
:20064000808373968083739680834BC0813009F047C08EEB92E00E946E1E8C0141E06CE0B0
:20066000CE0101960E94152040E06CE0CE0102960E94152021E049816A81C8010E94C405A9
:2006800089E290E2F80180839183EDEDF0E2808D918DA191B19118968D939C93199780E213
:2006A000E53FF807A1F71DC0123B61F4809100108230B0F480EC92E00E946E1E8C010E944E
:2006C00086020FC0133B61F480910010811108C089EB90E00E946E1E8C010E94020501C09C
:2006E000FFCFC8012396CDBFDEBFDF91CF911F910F910895CF93DF93CDB7DEB76897CDBF4C
:20070000DEBF60E074E082E00E9444218091CF0187FDFCCF8091CC0188608093CC0148E140
:2007200050E0BE016F5F7F4F80E090E00E94BF1F489711F080EB8F8B8F890E94C002BC0140
:200740008F890E94FD018091A2008F7B9FB7F8941BBE28ED24BF8093A2009FBF8091A200AB
:2007600087608093A20078940E944F19FDCFFF920F931F93CF93DF93CDB7DEB72697CDBFE0
:20078000DEBF2091D020261709F46BC0F62E8C0181E0681741F1681758F082E0681709F44E
:2007A00043C085E068135BC086E0EDE0F0E23FC01982AE014F5F5F4F61E0C8018C5B9E4FB3
:2007C0000E946208AE014F5F5F4F61E0C801855A9E4F0E946208F801E05BFF4F81E0838337
:2007E000739683833CC084E68983AE014F5F5F4F61E0C8018C5B9E4F0E946208AE014F5F26
:200800005F4F61E0C801855A9E4F0E94620860E0C801805B9F4F0E94640260E0C8018D597F
:200820009F4F0E9464021BC086E0E3E1F0E2DE01119601900D928A95E1F7AE014F5F5F4F33
:2008400066E0C8018C5B9E4F0E946208AE014F5F5F4F66E0C801855A9E4F0E946208F09235
:20086000D0202696CDBFDEBFDF91CF911F910F91FF900895FC019FB7F8941BBE88ED84BFE7
:2008800060839FBF089580E00895089521E430E2FC0120833183E0E8F6E024E0228328E026
:2008A0002283218320EA3AE0FC012283338308951F920F920FB60F9211242F933F934F9373
:2008C0005F936F937F938F939F93AF93BF93EF93FF938091A00A0E94B11A009739F10E948B
:2008E000A719811123C08EE691E20E94CC199C01892BE1F080916B218830C1F090916D217E
:200900009F5F90936D2190916D21977090936D2190916B219F5F90936B21E0916D21F0E098
:20092000EE0FFF1FE55AFE4D20833183FF91EF91BF91AF919F918F917F916F915F914F91EB
:200940003F912F910F900FBE0F901F901895809108068295817091E08927089580E090E1EA
:20096000089581E0662319F08093E50708958093E6070895CF93C62F8091D52081110DC0F2
:200980000E948A216093D1207093D2208093D3209093D42081E08093D520C53050F4C23080
:2009A00078F4CC2349F0C13059F582E08093E50727C0C53079F024C082E08093E60720C098
:2009C00081ED90E20E94AC21653F714081059105B8F009C081ED90E20E94AC21693C71057C
:2009E0008105910568F082E08093E7070E948A216093D1207093D2208093D3209093D420DD
:200A0000CF910895EF92FF920F93CF93DF931F92CDB7DEB77C010E9446048DE490E2F70143
:200A20008083918340E060E0CE0101960E94152020E030E040E150E16981C70104960E94B2
:200A4000041141E060E0CE0101960E94152020E030E042E150E16981C70147960E94041139
:200A600042E060E0CE0101960E94152020E030E044E150E16981C7018A960E94041143E0C5
:200A800060E0CE0101960E94152020E030E046E150E16981C701CD960E94041140E062E043
:200AA000CE0101960E94152000E420E048E250E16981C701805B9F4F0E94EC0741E062E047
:200AC000CE0101960E94152020E04AE250E16981C70189599F4F0E94EC0742E062E0CE0132
:200AE00001960E94152020E04CE250E16981C70182589F4F0E94EC0743E062E0CE0101964F
:200B00000E94152020E04EE250E16981C7018B569F4F0E94EC0740E750E168E2C701845544
:200B20009F4F0E94FD1240E651E168E2C7018F549F4F0E942912E0EEF7E081E082838183EF
:200B400082E08283818380E180930206E1EFF7E0808180648083E4E1F6E08081877C80837D
:200B60008081886180830F90DF91CF910F91FF90EF90089580E090E1089583549D4F61112B
:200B80000C942D1E0C941B1ECF92DF92EF92FF920F931F93CF93DF931F92CDB7DEB77C013E
:200BA000D62EC42E122F0E94460489E590E2F7018083918340E060E0CE0101960E94152086
:200BC00020E030E040E150E16981C70104960E94041141E060E0CE0101960E94152020E012
:200BE00030E042E150E16981C70147960E94041142E060E0CE0101960E94152020E030E09C
:200C000044E150E16981C7018A960E94041143E060E0CE0101960E94152020E030E046E11E
:200C200050E16981C701CD960E94041144E060E0CE0101960E94152020E030E048E150E1AC
:200C40006981C701805B9F4F0E94041145E060E0CE0101960E94152020E030E04AE150E154
:200C60006981C7018D599F4F0E94041140E061E0CE0101960E94152020E030E04CE150E12B
:200C80006981C7018A589F4F0E94041141E061E0CE0101960E94152020E030E04EE150E10C
:200CA0006981C70187579F4F0E94041142E061E0CE0101960E94152020E030E040E250E1FC
:200CC0006981C70184569F4F0E94041143E061E0CE0101960E94152020E030E042E250E1DD
:200CE0006981C70181559F4F0E94041146E062E0CE0101960E94152020E030E044E250E1BB
:200D00006981C7018E539F4F0E94041147E062E0CE0101960E94152020E030E046E250E18C
:200D20006981C7018B529F4F0E94041140E062E0CE0101960E94152004E6212F48E250E14B
:200D40006981C70188519F4F0E94EC0741E062E0CE0101960E941520212F4AE250E169814E
:200D6000C70181509F4F0E94EC0742E062E0CE0101960E941520212F4CE250E16981C70155
:200D80008A5E9E4F0E94EC0743E062E0CE0101960E941520212F4EE250E16981C701835D04
:200DA0009E4F0E94EC0744E062E0CE0101960E941520212F40E350E16981C7018C5B9E4FE4
:200DC0000E94EC0745E062E0CE0101960E941520212F42E350E16981C701855A9E4F0E9414
:200DE000EC0740E063E0CE0101960E94152020E044E350E16981C7018E589E4F0E94EC07EE
:200E000041E063E0CE0101960E94152020E046E350E16981C70187579E4F0E94EC0742E0A3
:200E200063E0CE0101960E94152020E048E350E16981C70180569E4F0E94EC0743E063E066
:200E4000CE0101960E94152020E04AE350E16981C70189549E4F0E94EC0744E063E0CE01B0
:200E600001960E94152020E04CE350E16981C70182539E4F0E94EC0745E063E0CE010196CD
:200E80000E94152020E04EE350E16981C7018B519E4F0E94EC07870104501E4F6C2DC8015E
:200EA0000E94C41C40E450E1B801C70181509E4F0E94970B46E450E1B801C701835E9D4F2F
:200EC0000E94970B4CE450E1B801C701855C9D4F0E94970B42E550E1B801C701875A9D4F35
:200EE0000E94970B48E550E1B801C70189589D4F0E94970B4EE550E1B801C7018B569D4F0C
:200F00000E94970B40E750E168E2C7018D549D4F0E94FD1240E651E168E2C70188549D4F73
:200F20000E942912F3E4EF1AFDEFFF0A4D2D4F706D2D62956F70C7010E941520F7018081BE
:200F4000803E18F4C7010E941C20F7018081803E18F4C7010E9431200F90DF91CF911F9184
:200F60000F91FF90EF90DF90CF900895FC018781FB01808381E00895CF93DF931F92CDB74D
:200F8000DEB7DC011396ED91FC9114973081232F2F77253688F056969C919F77232F2078EB
:200FA000922B391749F0998341E050E0BE016F5F7F4FCF010E94601F0F90DF91CF91089526
:200FC000CF93DF93EC010E948A21688379838A839B83DF91CF910895CF92DF92FF920F937F
:200FE0001F93CF93DF93EC01162F6A01F22E0E940F1385E690E288839983412F4F70612F27
:2010000062956F7024EC39E0CE0105960E948220CE010D960E94E007CE0141960E94E007F9
:201020000E8B82E08A83CB82DC828D81182F1F7082958F700E94AD1F183060F44096E12F13
:20104000F0E0E80FF91F8081FF2011F0806401C08F7B80831E828AEC8D8B1F8288EC88878C
:2010600019868AE08A878B878FEF8C871D861E861F86188A198A1A8A1B8A1C8ADF91CF91C3
:201080001F910F91FF90DF90CF900895DC011396ED91FC91149720812F770596222349F06A
:2010A000629FB001112423E0759567952A95E1F707C0611103C060E070E002C064EC79E0B2
:2010C0000C940521FF920F931F93CF93DF9300D000D0CDB7DEB78C01FA018081893C90F406
:2010E000D80117968C93179751961D921D921D921C9254978081811102C08AEC01C089EC0F
:20110000F80150C08E3C49F468ECC8010E94460881E0D80116968C93A7C08F3C19F4F80175
:201120001682A2C0663008F45EC09181D80119969C931997828118968C93189723811A96B9
:201140002C931A9724811B962C931B9725811C962C93F080BCECFB120FC0CE0101960E9445
:20116000E00789819A81AB81BC81F801818B928BA38BB48BF58A44C0FDECFF1220C0D80135
:2011800055968C918C3C81F0CE0101960E94E00789819A81AB81BC81F801818B928BA38B41
:2011A000B48B8CEC858B2CC0D80151961D921D921D921C9254978AEC55968C9321C0BBEC0E
:2011C000FB121EC0F80125892A3C21F097838AEC858B03C0878389EC858BF801118A128AE4
:2011E000138A148A0DC0D80117968C911797882319F017961C92F1CF88ECF8018783EDCF94
:20120000F80185859685A785B089892B8A2B8B2B59F50380F481E02D808187FF25C0CE019E
:2012200001960E94E00749815A816B817C81D8011D964D935D936D937C935097E0913221EA
:20124000F09133219181B4E69B9FC0011124092E000CAA0BBB0B840F951FA61FB71FF80144
:2012600085879687A787B08B2496CDBFDEBFDF91CF911F910F91FF9008950F931F93CF93F7
:201280008C01DC011396ED91FC911497C081CF770596CC2399F00E94CF2023E0880F991F08
:2012A0002A95E1F7D8011396ED91FC91149760816F7770E00E94DD21C62F05C00E94CF205D
:2012C000892B09F0C8EC8C2FCF911F910F9108954F925F926F927F928F929F92AF92BF92DD
:2012E000CF92DF92EF92FF920F931F93CF93DF93CDB7DEB7CC55D109CDBFDEBF8C01F62EF4
:20130000FC0181899289A389B489892B8A2B8B2B59F1C80141960E94AC21672B682B692B11
:2013200019F1C8010E943D09F80160858613A5C0D8011B968C91B4E68B9FC0011124092E7E
:20134000000CAA0BBB0BF8014189528963897489840F951FA61FB71F818B928BA38BB48B07
:201360006185C8010E944608F8018681811109C081899289A389B489892B8A2B8B2B09F4C9
:20138000B6C0F80185859685A785B089892B8A2B8B2B09F4B1C0C8010D960E94AC21672B5A
:2013A000682B692B09F4A8C0D801ED91FC910280F381E02DBE01645A7F4FC8010995E82EF2
:2013C000E0913221F091332182819381A481B5816C968CAF9DAFAEAFBFAF6C97CE01885AFA
:2013E0009F4F0E9478014B015C0140900720509008206090092070900A20CE0102960E94F0
:20140000E007FE0131966F0187E5DF011D928A95E9F789E6888BF98A4E2D50E0BE01645A88
:201420007F4FCE0142960E94492388EF8A874B865C866D867E868E829F82A886B986E394E2
:20144000E394EF86C6010E940E1A882371F0F80185859685A785B08986509F4FAF4FBF4FB0
:2014600085879687A787B08B47C0D8011D961D921D921D921C9250973FC0D8011C968C91FE
:201480001C97882329F11A968C91B4E68B9FC0011124092E000CAA0BBB0BF8018188928873
:2014A000A388B488880D991DAA1DBB1D818B928BA38BB48BC8010E944608D8011C968C91E4
:2014C0001C978F3F09F450CF81501C968C934CCFF801118A128A138A148A8781681711F0BF
:2014E0008AEC01C089ECD80155968C933DCF6781C8010E94460845CFC45ADF4FCDBFDEBF27
:20150000DF91CF911F910F91FF90EF90DF90CF90BF90AF909F908F907F906F905F904F9017
:201520000895FC012389FB012083FC018289FB01818382E008950F931F93CF93DF93CDB713
:20154000DEB72797CDBFDEBF8C01DC0115968D919C911697FC0121812B3F50F025E02F8302
:2015600041E050E0BE01695F7F4F01960E94601FD80115968D919C911697FC01228133813D
:201580002115310529F0255031092C303E4060F5D80115968D919C911697FC012481358114
:2015A0002115310529F0255031092C303E4048F5D8011596ED91FC911697848195810097F2
:2015C00029F0228133818217930740F1F801178284EF91E0808B918B2796CDBFDEBFDF9144
:2015E000CF911F910F9108952AE030E02D833E8342E050E0BE016B5F7F4F02960E94601FB1
:20160000C7CF26E930E02B833C8342E050E0BE016D5F7F4F04960E94601FCACF19821A8272
:2016200042E050E0BE016F5F7F4FCF0104960E94601FCCCF4F925F926F927F928F929F92A1
:20164000AF92BF92CF92DF92EF92FF920F931F93CF93DF93CDB7DEB7CB55D109CDBFDEBFB0
:20166000882EF62E6A010115110521053105C1F4E0913221F091332182819381A481B581DD
:201680006C968CAF9DAFAEAFBFAF6C97CE01885A9F4F0E947801962EA72EB82EE92E04C0DF
:2016A000902EA12EB22EE32E40900720509008206090092070900A20CE0102960E94E0077A
:2016C0008E010F5F1F4F87E5F80111928A95E9F789E6888B898A4F2D50E0B601CE014296F9
:2016E0000E94492388EF8A874B865C866D867E869E82AF82B886E986F394F394FF86C80150
:201700000E940E1AC55ADF4FCDBFDEBFDF91CF911F910F91FF90EF90DF90CF90BF90AF90FF
:201720009F908F907F906F905F904F900895EF92FF920F931F93CF93DF93EC017B018A01B4
:201740000E940F1381E790E288839983EB82FC821F82CE0146960E94E007CE014A960E94B3
:20176000E00783E08A830D831E8380ED97E0888B998B1E8A1F8A188E198EDF91CF911F91A8
:201780000F91FF90EF900895982F81E0983221F0903111F080E0089508951F93CF93DF9319
:2017A000EC01162F8B819C810E94EA1C8B819C81DC011196ED91FC91129730852C9123230D
:2017C000E1F0111104C0AE01485F5F4F02C040E050E064E40E94C21D8091062081110FC0DB
:2017E000EB81FC818081A181B28115968C9380810180F281E02D818302C081E001C080E096
:20180000DF91CF911F910895FB0120813181DC0118968C91803161F42E7F43E0220F331F5B
:201820004A95E1F78681281B3109245F3F4F10C0883271F48481982F9076903649F086FF17
:2018400002C02E7F05C085FF02C02C7F01C0287FC90134E0969587953A95E1F7B4E68B0208
:20186000C0011124322F23FDC29632FD499631FD0D9630FD06960895AF92BF92CF92DF92F0
:20188000EF92FF920F931F93CF93DF93CDB7DEB72997CDBFDEBF8C01FC01838194810E94C7
:2018A000EA1CA801485F5F4F6EEBF801838194810E94C21DCE0101967C015E019AE0A90EC5
:2018C000B11C67016FEFF801838194810E944F1DF70181937F01EA15FB05A1F740E069E0C9
:2018E00070E0C6010E94F21D811109C0B601C8010E94040CF801828B938B80E001C083E0EB
:201900002996CDBFDEBFDF91CF911F910F91FF90EF90DF90CF90BF90AF90089520912121C5
:20192000EDEDF0E290E0921781F0A191B19112963C911297333039F415960D90BC91A02DED
:201940003C91831721F09F5FEECF80E0089581E008958F929F92AF92BF92CF92DF92EF9222
:20196000FF920F931F93CF93DF93CDB7DEB72697CDBFDEBFFC0180899189892B09F461C1BC
:20198000A581B6818C91811104C08781833009F058C1D62E7F01CF0146960E94AC21D70133
:2019A00050962D913C915197890120E030E0601771078207930708F444C1CE0101960E9419
:2019C000E00789819A81AB81BC81F701868B978BA08FB18F8781811151C08DE495E9828B51
:2019E000938B0FEF6701F8E0CF0ED11C570120E1A20EB11CA601602FD70113968D919C91E9
:201A000014970E946A1D082F82E0800F823070F1F60110E08191180FEA15FB05D9F7F701D0
:201A200080850E94C40B811103C00111E3CF1EC0D70115968D909C901697F40180818F3FFC
:201A400031F4812F0E948E0C882309F4F0C0D7011596ED91FC91169780811813E6CF81E0A0
:201A600017968C93179784E690E0C1C088E893E1F701808B918B83E08783E3C08130B9F420
:201A800061E0C7010E94CD0B81110BC088EE93E0D70150968D939C93519782E017968C935A
:201AA000D0C08AEF90E0F701808B918BCAC0823009F0A2C0C7010E943C0C11E0811110E0D2
:201AC000D7011596ED91FC91169782819381892BC9F0C7014A960E94AC214B015C01D701AF
:201AE0001596ED91FC91169722813381A8EEB3E00E94132221E086169706A806B90618F479
:201B000020E001C021E01223D7011596ED91FC91169784819581892B49F4D7011596ED9186
:201B2000FC9116974181411119C02CC0C7014A960E94AC214B015C01D7011596ED91FC9144
:201B4000169724813581A8EEB3E00E94132286169706A806B90608F321E015C0F701828903
:201B6000938924893589821B930B97FF03C0919581959109FAE04F9FA001112421E084173A
:201B8000950708F420E0112359F1222349F1D701ED91FC910280F381E02DBE016B5F7F4F73
:201BA000C701099500E010E09801AE014B5F5F4F682F8D2D0E941A0B811112C0F7018289D0
:201BC0009389848B958BCE0101960E94E00789819A81AB81BC81F701828F938FA48FB58F9B
:201BE00081E0D70117968C93179788E893E150968D939C93519725C0833019F50190F08189
:201C0000E02D0280F381E02DBE016F5F7F4FC701099500E010E09801AE014F5F5F4F682FE8
:201C20008D2D0E941A0BF701108A118A0AC0198341E050E0BE016F5F7F4FC4010E94601FFE
:201C400006CF2696CDBFDEBFDF91CF911F910F91FF90EF90DF90CF90BF90AF909F908F90F2
:201C60000895CF93FC018081C82FCF7082958F700E94AD1FC83050F4FC017096EC0FF11D65
:201C80008081877C8083808188618083CF910895CF93DF93EC0101960E94E00787E5FE0107
:201CA00011928A95E9F7DF91CF9108954F925F926F927F92AF92BF92CF92DF92EF92FF92BB
:201CC0000F931F93CF93DF93CDB7DEB7C755D109CDBFDEBF182FF62EE42E40900720509050
:201CE00008206090092070900A20CE0101960E94480E8BE4888B198B1A8AE11002C082E03C
:201D000001C083E09F2D990F990F890F8B8B88EF8A874B865C866D867E868FEF9FEFDC01BA
:201D20008E839F83A887B98784E08F87CE0101960E940E1A082F80913721909138210097A6
:201D4000D9F5E0913221F09133210081B0903421C0900720D0900820E0900920F0900A20C4
:201D6000CE0101960E94480ECB86DC86ED86FE868FEF9FEFDC018E839F83A887B98788EF59
:201D80008A8781E4888B198BBA8A0B8B82E08C8B1D8A88E48E8B82E48F8B87E5888F8E0105
:201DA000005E1F4F5E0189E1A80EB11C8AE0482E512C612C712C0DC0DC01ED91FC9101903E
:201DC000F081E02D2E2D4F2D612F09958823F1F0B8CFC701B601A30192010E94F121605D46
:201DE000F80162938F01C114D104E104F10459F4A016B10671F780E18F87CE0101960E9440
:201E00000E1A082F03C069017A01F2CF802FC95ADF4FCDBFDEBFDF91CF911F910F91FF9022
:201E2000EF90DF90CF90BF90AF907F906F905F904F900895FF920F931F93CF93DF9300D0C5
:201E400000D0CDB7DEB78C01F62E0A960E944F20F801882391F187859089A189B289892BD3
:201E60008A2B8B2B99F040E065818F2D0E94560E81110CC0D80115968C9115978F5F159662
:201E80008C93F8011786108A118A128AD8011B961D921D921D921C921E9718968D919C91C9
:201EA0001997009709F468C01696ED91FC911797208127FF61C02FEC53C083859485A585F0
:201EC000B685892B8A2B8B2B71F4CE0101960E94E00789819A81AB81BC81F80183879487A8
:201EE000A587B6872EC0C8010B960E94AC21643671058105910528F1F80187859089A18925
:201F0000B289892B8A2B8B2BE1F440E0F80165818F2D0E94560E811114C0D80115968C91CA
:201F200015978F5F15968C93CE0101960E94E00789819A81AB81BC81F8018787908BA18B72
:201F4000B28BD80118968D919C9119970097A1F01696ED91FC911797208127FF0DC02EEC87
:201F60002983DC01ED91FC910190F081E02DAE014F5F5F4F61E009952496CDBFDEBFDF9181
:201F8000CF911F910F91FF9008958F929F92AF92BF92FF920F931F93CF93DF9300D000D028
:201FA000CDB7DEB78C01F62E0A960E944F20D8011B964D915D916D917C911E97882379F17B
:201FC000452B462B472B09F4A3C0C8010B960E94AC21623371058105910550F0F801878509
:201FE0009089A189B289892B8A2B8B2B09F47BC0D8011B961D921D921D921C921E97189664
:202000008D919C911997009709F482C01696ED91FC911797208127FF7BC02FEC6DC0452BD0
:20202000462B472B09F442C0F80187859089A189B289892B8A2B8B2B59F0C8010F960E94C3
:20204000AC216C3271408105910508F461C01BC0C8010B960E94AC214B015C01D801169649
:20206000ED91FC911797218130E0A4E6B0E00E94132286169706A806B90608F449C0F80160
:2020800085818F5F8583CE0101960E94E00789819A81AB81BC81F8018787908BA18BB28B3C
:2020A00041E065818F2D0E94560E32C0CE0101960E94E00789819A81AB81BC81F8018387E5
:2020C0009487A587B6871786108A118A128A808591850097E9F00680F781E02D208127FFB1
:2020E00017C02EEC09C0F80165816F5F658340E08F2D0E94560E7CCF2983DC01ED91FC91D0
:202100000190F081E02DAE014F5F5F4F61E009952496CDBFDEBFDF91CF911F910F91FF9034
:20212000BF90AF909F908F900895FC01A681B7819C9193FF0DC08381882351F0977019F43A
:20214000CF010C94C50F913019F4CF010C941A0F0895FF920F931F93CF93DF93EC01EE8122
:20216000FF8190818A8594FF16C08E01065F1F4F282F2F70F22E82958F700E94AD1F27E053
:202180002F1538F0FC017096EF0DF11D80818F7B8083C80128C0182F1F7082958F700E9479
:2021A000AD1F183038F4FC017096E10FF11D8081806480838C818823A1F08A85182F1F70C8
:2021C00082958F700E94AD1F183078F4FC017096E10FF11D8081877C8083808180618083DA
:2021E00004C0CE010A960E94310E1B861C861D861E861F86188A198A1A8A1D82DF91CF9144
:202200001F910F91FF900895CF92DF92EF92FF921F93CF93DF93EC01162F6A0179010E941F
:202220000F138DE790E28883998381E08B831C821D82CE82DF82E886F9867E018AE0E80E46
:20224000F11C412F4F70612F62956F70C7010E9415208A85803E18F4C7010E941C20CE01EF
:202260000B960E94E007CE010F960E94E00781E08A83CE01DF91CF911F91FF90EF90DF90FD
:20228000CF900C94A9100F931F93CF93DF931F92CDB7DEB78C01FC018081861749F0698347
:2022A00041E050E0BE016F5F7F4FC8010E94601FC8010F90DF91CF911F910F910895CF9301
:2022C000DF93EC01EE81FF81918194509F3280F48E819F81FC016081262F2770223018F022
:2022E000687F0E944311CE01DF91CF910C94A91064E0CF0101960E944311EACF2F923F921D
:202300004F925F926F927F928F929F92AF92BF92CF92DF92EF92FF920F931F93CF93DF93E9
:20232000CDB7DEB72697CDBFDEBF7C013B01342ED22E10E0CE0101965C0122242A948BEC55
:20234000C82E9CEC592E2DEC422ED70112968C91181708F068C0B0E11B9F40011124D7016A
:202360001396ED91FC911497E80DF91D8481831158C085818D1155C080819181A281B3811F
:202380008F3F9F4FAF4FBF4F09F44BC0CF010E947801D3012D913D914D915C916217730764
:2023A00084079507F1F5F50126E011922A95E9F72982D7011396ED91FC911497E80DF91DE5
:2023C00090859A8327812B8383858C8384858D8385858E83002349F092859A8321852B8346
:2023E000868186958695869501C086818770833081F030F4882351F0813099F4998307C071
:20240000843049F0853069F4498206C0298361E004C0C98201C0598266E0A5018D2D0E944C
:2024200009161F5F92CF2696CDBFDEBFDF91CF911F910F91FF90EF90DF90CF90BF90AF902F
:202440009F908F907F906F905F904F903F902F900895FC01809335219093362189E890E264
:202460008083918362834383548308952F923F924F925F926F927F928F929F92AF92BF92CC
:20248000CF92DF92EF92FF920F931F93CF93DF93CDB7DEB7CF55D109CDBFDEBF6E968EAFAF
:2024A0009FAF6E97162F6F962FAF6F97440F440F222311F083E001C082E0480FA0964FAF9E
:2024C000A097E12CF12CC12CD12C8BE09E012F5F3F4F19016E96AEADBFAD6E9712962C913C
:2024E000129730E0C216D3060CF070C01396ED91FC911497EE0DFF1D90819F3F09F45FC0C5
:2025000091135DC0CF0101960E9478012B013C016C966CAF7DAF8EAF9FAF6C978090072001
:2025200090900820A0900920B0900A206E96EEADFFAD6E9783819481481459046A047B0481
:20254000D9F4DC01AE0DBF1D80913521909136210097A1F1FC0120813181F901A080B18097
:202560006F960FAD6F9715962C91412FBE01685A7F4FF501099522C0FC01EE0DFF1D05815D
:202580000E948A21D101E7E51D92EA95E9F7FBE4F88B198B0A8BA0962FADA0972B8B38EF81
:2025A0003A878B869C86AD86BE864E825F826886798684E08F87C1010E940E1A80E09FEF1E
:2025C000C91AD90AA6E0EA0EF11C84CFC15ADF4FCDBFDEBFDF91CF911F910F91FF90EF90B7
:2025E000DF90CF90BF90AF909F908F907F906F905F904F903F902F900895FC0180933721C2
:20260000909338218FE890E2808391836283438354830895089580E008950895089525E93D
:2026200030E2FC0120833183E091212121E02E0F20932121F0E0EE0FFF1FE352FF4D8083DF
:202640009183FC01128208958F929F92AF92BF92CF92DF92EF92FF920F931F93CF93DF9348
:202660006B017C01FA0188E4808382E4818387E582838A01065F1F4FEA0123968AE0882E0A
:20268000912CA12CB12C0C171D0791F0C701B601A50194010E94F121605DF80162938F0162
:2026A000C114D104E104F10471F369017A01EBCFDF91CF911F910F91FF90EF90DF90CF9097
:2026C000BF90AF909F908F900895FC01808180FF03C081E09785961380E00895FC0181851B
:2026E00080FD07C08685823020F081E09785993609F080E008958091CF0187FDFCCF0895BA
:20270000CF92DF92EF92FF920F931F93CF93DF93CDB7DEB7C755D109CDBFDEBF8091312112
:2027200081FF45C083ED91E20E94AC216830710581059105E0F1E0913221F091332110819D
:2027400000913421C0900720D0900820E0900920F0900A20CE0101960E94480ECB86DC8640
:20276000ED86FE868FEF9FEFDC018E839F83A887B98788EF8A8781E4888B198A0A8B1B8BF9
:2027800082E08C8B1D8AAE014A5E5F4FC701B6010E94241380E18F87CE0101960E940E1A15
:2027A000811105C0809131218D7F80933121C95ADF4FCDBFDEBFDF91CF911F910F91FF90C5
:2027C000EF90DF90CF900895CF92DF92EF92FF920F931F93CF93DF93CDB7DEB72597CDBFA2
:2027E000DEBFE0913221F09133211081C680D780E084F1840091CC010E947B138091CC0130
:20280000877F8093CC018FEF0E94A71E0E947B1380E30E94701E03FF07C00E947B13809120
:20282000CC0188608093CC0180913221909133211D8341E050E0BE016B5F7F4F0E94601FC1
:202840008091322190913321C982DA82EB82FC8244E050E0BE016F5F7F4F06960E94601FA1
:20286000809131218460809331212596CDBFDEBFDF91CF911F910F91FF90EF90DF90CF90CC
:2028800008951F93CF93DF9300D000D0CDB7DEB780912F2190913021892B09F4BAC080914D
:2028A0002721811107C083E291E20E94E00781E08093272180912F2190913021DC01ED912C
:2028C000FC910480F581E02D0995182F80912221823009F441C028F4882361F0813001F1C0
:2028E0008BC0843009F46AC008F451C0853009F47DC082C0112319F081E080932221CE01B1
:2029000001960E94E00789819A81AB81BC818093232190932421A0932521B09326216CC01B
:2029200083E291E2112351F00E94AC21693873418105910508F460C082E055C00E94AC2168
:20294000653671058105910508F454C0809131218260809331214EC011114EC083E08093DC
:202960002221CE0101960E94E00789819A81AB81BC818093232190932421A0932521B0931C
:2029800026218091312180628093312135C083E291E20E94AC21643671058105910560F18D
:2029A000112311F084E0A9CF83E291E20E94AC216938734181059105E8F41EC083E291E2BC
:2029C0000E94AC216436710581059105A8F0112389F083E291E20E94AC21693B7B408105EB
:2029E000910550F085E08093222106C0111104C00E94E4131092222180912F219091302149
:202A0000DC01ED91FC910680F781E02D6091222109952496CDBFDEBFDF91CF911F910895F1
:202A20000F931F93CF93DF9300D000D0CDB7DEB7E0913221F091332186819781A085B185A2
:202A400089839A83AB83BC83CE0101960E94780100910720109108202091092030910A2019
:202A60006017710782079307B9F08B019C011D532F483046003816492849310540F46093B0
:202A80000720709308208093092090930A2080913121826080933121E0913221F091332118
:202AA00091819253993CB0F410E0809121211817E8F4E12FF0E0EE0FFF1FE352FF4D8081DB
:202AC0009181DC01ED91FC910680F781E02D09951F5FEBCF82E3898341E050E0BE016F5FCC
:202AE0007F4FCF0101960E94601FDECF2496CDBFDEBFDF91CF911F910F910895CF92DF9261
:202B0000EF92FF92CF93DF93CDB7DEB7C755D109CDBFDEBF8091312180FF07C00E94101527
:202B2000809131218E7F809331218091312183FF09C08FB7F8941BBE98ED94BF91E09093FB
:202B400079008FBF8091312182FF0FC0A8958FB7F8941BBE98ED94BF9BE1909380008FBFCE
:202B60008091820080FDFCCFFFCF85FF27C0C0900720D0900820E0900920F0900A20CE0130
:202B800001960E94480ECB86DC86ED86FE8682E090E0A0E0B0E08E839F83A887B98788EF01
:202BA0008A8783E2888B81E08F87CE0101960E940E1A809131218F7D809331210E948A21C4
:202BC0006D3D75408105910510F00E948013C95ADF4FCDBFDEBFDF91CF91FF90EF90DF907E
:202BE000CF90089590912121891778F4E82FF0E0EE0FFF1FE352FF4D80819181DC01ED9179
:202C0000FC910280F381E02D0994DB011C9281E0089590912121891778F4E82FF0E0EE0FAC
:202C2000FF1FE352FF4D80819181DC01ED91FC910190F081E02D099408954F925F926F92DE
:202C40007F928F929F92AF92BF92FF920F931F93CF93DF93EC010E947219F82E811102C032
:202C6000F12CA3C1898580FDFBCF65E7CE010E946513882321F080913121886021C062E51A
:202C8000CE010E946513882391F08E85843041F71A89412F50E06889798976276727762722
:202CA0007061CE010F960E9449231E872AC163E4CE010E946513882331F0809131218160F1
:202CC0008093312120C166E7CE010E946513882321F082E08F87188AFDC068E6CE010E9426
:202CE0006513882359F0E0913221F09133218081909134219F87888B82E0ECC065E4CE01F9
:202D00000E946513882309F451C00A891B89812F869586958695912F977011F48C5F01C030
:202D20008B5F8E8785E68F874E8550E04450510960E070E0CE0143960E945223402F50E034
:202D400060E070E180E090E0212F30E0412C512C32014394281739070CF4D3C0DB01E0E010
:202D6000F0E0E417F507F4F41D911F3FC9F0FC01A3E0F595E795AA95E1F73496EC0FFD1F61
:202D8000DC01A770BB275301420104C0880C991CAA1CBB1CAA95D2F7A7858A2A878602C065
:202DA0003196DFCF0196640F751FD4CF6BE4CE010E946513811106C06BECCE010E9465138D
:202DC0008823C9F08091352190913621009709F49AC001E02A89211101C000E0DC01ED9100
:202DE000FC910190F081E02D29894889BE01665F7F4F099588C063E5CE010E9465138823A0
:202E000021F0BE016F5E7F4F5FC067E5CE010E9465138823F1F04A892E8530E0842F90E0AE
:202E200004962817390709F01BCF88899989982789279827BE01009719F06D5E7F4F05C078
:202E40006C5E7F4F415081E090E050E00E94601F5AC06EE6CE010E946513882379F06091CB
:202E60000720709108208091092090910A20AE01415F5F4F0E9424138AE02CC061E2CE013F
:202E80000E946513882321F080913121846018CF69E6CE010E946513811135C063E7CE0156
:202EA0000E946513811106C068E7CE010E946513882391F06E8562508E010F5E1F4FA80184
:202EC00088890E940916B80188890E94F21599E69F878E5F8E8715C06AE7CE010E946513F7
:202EE000882321F0809131218064EACE6AE5CE010E946513882309F4B3CE809131218F7B49
:202F0000DFCE10E001C011E08D819E81AF81B8858F3F9F4FAF4FBF4F09F4A2CE8091312130
:202F200086FF07C065E7CE010E946513882309F497CE2985822F8770833021F023FB222782
:202F400020F901C020E08A859B85AC85BD858D839E83AF83B8878091072090910820A091A1
:202F60000920B0910A208A879B87AC87BD87898586958370112321F099E199871E8602C0B2
:202F800098E999878370982F9295990F907E89858F79892B8987211102C0877F898781E0B4
:202FA0002827888120FB84F988838F2DDF91CF911F910F91FF90BF90AF909F908F907F90C0
:202FC0006F905F904F9008950F931F93CF93DF93DC0190E090962C919097921740F5FD012C
:202FE000E90FF11DE90FF11DEB01088119814081518104171507C9F4892F422F50E0415045
:203000005109E82FF0E0E417F50754F4EE0FFF1FEA0FFB1FC281D381C083D1838F5FF1CF26
:203020009150215090962C9390979F5FD3CFDF91CF911F910F9108951F93CF93DF9300D07F
:20304000CDB7DEB710E080915A211817A0F5E12FF0E0EE0FFF1FE65CFE4D80819181898370
:203060009A83FC014181528163817481452B462B472BF9F001960E94AC21672B682B692BCD
:20308000C1F089819A810E940E1AE981FA8180818C708C3081F4BE016F5F7F4F8AE391E242
:2030A0000E94E41767E570E089819A810E94BD1902C01F5FC8CF0F900F90DF91CF911F91A5
:2030C00008958F929F92AF92BF92DF92EF92FF920F931F93CF93DF9300D0CDB7DEB77C015E
:2030E000D12C80915A21D81608F060C0ED2DF0E0EE0FFF1FE65CFE4D0081118109831A8373
:20310000F801818580FD50C0F70181858770813071F0F8018685843009F046C087858B349A
:2031200009F042C0C7010E946E138823E9F191E0F80182849384A484B584F70145815681A7
:203140006781708584169506A606B70609F090E081E0F80185809680A780B084F7014285FC
:2031600053856485758584169506A606B70609F080E08923C9F0F801918596959370F70103
:20318000818582958695837098130EC0BE016F5F7F4F8AE391E20E94E41767E570E089810D
:2031A0009A810E94BD1902C0D3949BCF0F900F90DF91CF911F910F91FF90EF90DF90BF90BF
:2031C000AF909F908F9008950F931F93CF93DF93CDB7DEB7C755D109CDBFDEBF80916B21C8
:2031E000882309F453C09FB7F89480916B218823C1F0E0916C2181E08E0F80936C21F0E0CD
:20320000EE0FFF1FE55AFE4D0081118180916C21877080936C2180916B21815080936B21B4
:2032200002C000E010E09FBF0115110579F1C8010E949119882351F0F80181858770813060
:2032400009F1C8010E946E1381111CC0F80181858770813089F087E5DE01119601900D92D8
:203260008A95E1F7CE0101960E941D16882321F0CE0101960E940E1A67E570E0C8010E9429
:20328000BD1904C0C8010E946118E0CFC95ADF4FCDBFDEBFDF91CF911F910F910895CF9368
:2032A000C0E080912121C817B0F4EC2FF0E0EE0FFF1FE352FF4D80819181DC01ED91FC9116
:2032C0000480F581E02D6C2F09950E94E4180E941C18CF5FE6CF0E947E150E944114A895EE
:2032E000CF910895FC01208120FF17C045815681678170858091072090910820A0910920E8
:20330000B0910A20481759076A077B0741F081E04F3F5F4F6F4F7F4F19F080E0089581E0CF
:20332000089521E0FC0145815681678170858091072090910820A0910920B0910A204817D3
:2033400059076A077B0709F020E0822F089521E0FC014285538564857585809107209091FA
:203360000820A0910920B0910A20481759076A077B0709F020E0822F0895CF93CFB7F894F3
:203380000E944F1E80913921882319F0815080933921CFBFCF910895DF92EF92FF920F9311
:2033A0001F93CF93DF937C01DFB6F894FC01C685C15FD0E0CE010796887F0E94511E8C01C0
:2033C000009749F0AE01B7010E944923809139218F5F80933921DFBEC801DF91CF911F91FC
:2033E0000F91FF90EF90DF900895FB0198E0408151819A01220F331F87FD21602083318392
:2034000057FF08C02081318142E0242740E1342720833183880F915051F708951F93CF938A
:20342000DF93EC010E941B1C182F888181FF13C0CE0105960E9478016D837E838F8398870A
:20344000CE010A960E9478016A877B878C879D8788818D7F88838881982F969596959F5F74
:203460009370990F990F837F892B88830E948A21DC01CB018A569F4FAF4FBF4F89839A833F
:20348000AB83BC83898580FD33C08D819E81AF81B8858F3F9F4FAF4FBF4F51F18881869579
:2034A00086958370813021F580915A21803100F5CE010E94CC190097D9F0E0915A21AAE3D6
:2034C000B1E220E0E21739F04D915D918417950779F02F5FF7CFE03158F421E02E0F209329
:2034E0005A21F0E0EE0FFF1FE65CFE4D80839183812FDF91CF911F910895CF93DF93CDB79D
:20350000DEB76397CDBFDEBFEBE5F1E28FEF828B118A108A8B8B1A8A198A10925A2163961D
:20352000CDBFDEBFDF91CF910895CF93DF93FC01208121FF13C0EC0105960E9478016D83FD
:203540007E838F839887CE010A960E9478016A877B878C879D8788818D7F8883DF91CF9195
:203560000895CF93C82F0E948A216093D3217093D4218093D5219093D6218091CB21CC3FFE
:2035800021F481608093CB2179C0CD3FD1F482608E7F8093CB211092C9218FEF9FEF809393
:2035A000C7219093C82180916E218E7F826080936E2110927C2167EC71E28DEF0E94F519D5
:2035C0005DC081FF5BC080FF04C0C0688E7F8093CB2167EC71E28C2F0E94F5194091C921F0
:2035E000E42FF0E0ED58FE4DC083443049F480917721982F97709330C9F183FF37C039C0FE
:2036000080917C21493041F4893498F18091CB218D7F8093CB212DC050E060E070E090E0E3
:20362000A0E0B0E00996A11DB11D481759076A077B07F9F48091C7219091C821892BC9F43C
:203640008EE691E20E94951A80917C21825080937C218091CB218D7F8093CB2180916E215A
:20366000816080936E218EE691E20AC088E08093C9218091C9218F5F8093C92180E090E0FB
:20368000CF9108950F931F93CF93DF93C091CC21D091CD21209709F4BCC08C019091D021A9
:2036A0008091D22191112EC081FD2CC082608093D2218FEF9FEF8093CE219093CF218881FA
:2036C00081FD13C0CE0105960E9478016D837E838F839887CE010A960E9478016A877B8775
:2036E0008C879D87888182608883888184FD02C08DEF01C08EEFF80180836EEC71E20E944C
:20370000F51982C081FF82C0888184FF84C0911182C0F801108283E08093D0214091D0212F
:20372000443049F48985982F9770933009F47AC083FF78C017C0493029F4F80180818E5FF4
:20374000808310C050E060E070E08E8590E0A0E0B0E00B96A11DB11D84179507A607B70774
:2037600008F457C08091D22180FD40C06EEC71E2F80180810E94F5194091D02150E060E02C
:2037800070E08E8590E0A0E0B0E00996A11DB11D481759076A077B07E1F46EEC71E280E087
:2037A0000E94F5196EEC71E280E00E94F51925968091D0218F5FFE01E80FF11D8091CF21EC
:2037C00080838091D0218E5FC80FD11D8091CE218883F80180818C5F833088F48091D2210F
:2037E00081608093D2218CEF80830EC0F80180818F7780838091D2218E7F8093D22180916B
:20380000D0218F5F8093D02181E010C0CE010E94951A80E00BC0FE01E90FF11D8581F80145
:2038200080837CCF88E08093D0219CCFDF91CF911F910F910895EF92FF921F93CF93DF930E
:203840001F92CDB7DEB77C018091D8219091D921892B81F083ED91E20E94AC216830710577
:203860008105910548F4D70119968C918770813089F702C081E06FC0E092CC21F092CD2103
:203880001092D0218091D2218D7F8093D221D70119968C9180FD06C0F70190819695969539
:2038A0009370B1F18091D8219091D921DC01ED91FC910190F081E02D61E0099510E0CE01A9
:2038C00001960E94421BA091D821B091D921882389F089811296ED91FC911397948193FDBD
:2038E00005C012E0ECCF948193FF1BC0918195FFFACF17C01296ED91FC911397818180644B
:203900008183818186FD0FC0848183FF0CC0F9CF9091D7219370990F897F892BF7018187B4
:20392000C1CF8083CCCFED91FC9111970190F081E02D60E0CD01099511110AC0F701818501
:2039400080FD08C08091D7218F5F8093D72102C0812F01C080E00F90DF91CF911F91FF90DF
:20396000EF9008951092D3211092D4211092D5211092D6210E948A2187E5EEE6F1E2DF018D
:203980001D928A95E9F708950F931F93CF93DF931F92CDB7DEB78C016983CE0101960E9469
:2039A0004620F8018083898182958F700E94AD1FF8018183928330812FB7F8943093B0006F
:2039C00038E1FC01308B2FBF0F90DF91CF911F910F910895FC018081A181B28116968C93AE
:2039E0008081A181B28111968C938FEB92E10197F1F700C000002FB7F8948081A181B281B6
:203A000012968C93AFE0B2E01197F1F700C000008081A181B28118963C91AFEEBCE01197BC
:203A2000F1F700C00000A181B28118964C919081942311F0832301C081E02FBF0895FC01E5
:203A4000862F2FB7F8949081A181B28111969C9395E19A95F1F70000662329F09081A181A1
:203A6000B28112969C93A0E8AA95F1F7A181B28118963C919081932309F480E0A7E6B1E07B
:203A80001197F1F700C0000090810180F281E02D9283BAE6BA95F1F700C02FBF08950F93EB
:203AA0001F93CF93DF938C01C62FD8E06C2F6170C8010E941F1D2C2F30E035952795C22F51
:203AC0008111C068D15091F78C2FDF91CF911F910F910895BF92CF92DF92EF92FF920F9334
:203AE0001F93CF93DF937C01C62E8A010E94EA1C81113BC060EFC7010E944F1DD0E0C0E496
:203B000098EFB92EBC0E61E0C7010E941F1DD82E61E0C7010E941F1D882319F0DD2071F087
:203B200026C0D1100BC0CC1530F0F801808180FF05C0CC1519F0DC2FDD24D3946D2DC701F5
:203B40000E941F1DF801208130E035952795DD2011F02068F8012083C150CB11D4CF0F5F37
:203B60001F4FC111CDCF8D2F03C08FEF01C08EEFDF91CF911F910F91FF90EF90DF90CF9032
:203B8000BF900895CF92DF92FF920F931F93CF93DF93EC01F62E8A010E94EA1C011511053E
:203BA00091F065E5CE010E944F1D680188E0C80ED11CF80161918F01CE010E944F1D0C1550
:203BC0001D05B9F704C06CECCE010E944F1D6F2DCE01DF91CF911F910F91FF90DF90CF9032
:203BE0000C944F1DCF93FC01680F791F2CEB31E652ECADE9B3E2C6E48CE8E617F707B9F0F2
:203C00009191942790FF02C04EE501C040E091FD422792FD432793FD452794FD4A2795FDE2
:203C20004B2796FD4C2797FFE8CF4827E6CF842FCF91089508951F93CF93DF93EC010E9439
:203C40004620182F888182958F700E94AD1FFC011683DF91CF911F9108951F93CF93DF93F1
:203C6000EC010E944620182F888182958F700E94AD1FFC011583DF91CF911F910895009732
:203C800069F020910B2030910C2041E2883F9407E0F382179307C8F70C94C02208950C94F9
:203CA0003F1ECF93DF93EC010E94282220910B2030910C2041E2883F9407E0F382179307A6
:203CC000C8F72197C80FD91F41E2C83FD407E0F3C217D307C8F7DF91CF9108950C94511ED8
:203CE000CF93DF93E0ECF1E032852FB7F8948287A8E4B0E05C919C918C91809589238C93EE
:203D0000C0EAD0E048819A818A81887F84608A838C9181608C93858568ED64BF61E0638798
:203D200063E06587789488955C9348839A83858732872FBFDF91CF9108950E947B138091F3
:203D4000CF0181FF03C086E30C94701E0895CF93DF93D82FC091CA010E949D1E0E947B1398
:203D600083E38093CA011092C2011092C10180E08093C001D093C4018F5F8032C9F7C09327
:203D8000CA01DF91CF9108958F929F92AF92BF92CF92DF92EF92FF920F931F93CF93DF93FB
:203DA0008C015B017A0190518115944018F080E090E034C0CA019051800F911F8115944033
:203DC000B0F7C12CD12C80E2982EE114F10429F1802E802F8F71C92DC81B8C2F90E0E816C7
:203DE000F90608F4CE2D0E949D1ED0E0AE01B501C8010E9449231092C2011093C1018092A8
:203E0000C00185E30E94701EAC0EBD1EEC1AFD0ACC0EDD1E0C0F1D1FD8CFC601DF91CF913D
:203E20001F910F91FF90EF90DF90CF90BF90AF909F908F900895FF920F931F93CF93DF9324
:203E40001F92CDB7DEB78C0169838091CC0183FF11C0011580E1180708F4105F41E050E09C
:203E6000BE016F5F7F4FC8010E94C41E21E0892BF9F404C0011584E0180710F020E018C0C3
:203E8000F090CA010E949D1E0E947B1383E38093CA011092C2011093C1010093C0018981DE
:203EA0008093C40185E30E94701EF092CA0121E0822F0F90DF91CF911F910F91FF900895A8
:203EC000EF92FF920F931F93CF93DF938A012091CC0123FF0EC0811520E1920708F4905F94
:203EE000A801DF91CF911F910F91FF90EF900C94C41E7B01EC01C61BD70BCE018E0D9F1D17
:203F00000115110551F0F70161917F010E941B1F882331F001501109F0CF80E090E001C067
:203F2000C801DF91CF911F910F91FF90EF9008951F920F920FB60F9211248F93EF93FF93CA
:203F4000E0ECF1E085858C7F8587FF91EF918F910F900FBE0F901F9018958D3048F4E82FFC
:203F6000F0E0EE0FFF1FE356FF4D8081918108958AED91E208958FEF8093E2210895CF9208
:203F8000DF92EF92FF920F931F93CF93DF939C01240F351F2130314098F48A01EB016B0121
:203FA000C40ED51E7C01E61AF70AB7016C0F7D1FCC15DD0541F081E00E94ED1F8993F5CF0C
:203FC00080E090E001C0C801DF91CF911F910F91FF90EF90DF90CF9008954091CA01E62F3D
:203FE000F72F8093CA0184914093CA010895833029F0843051F0823029F003C080E099E045
:204000000895FFCF80E098E0089580E09AE00895823041F0833019F480E499E0089580E0CC
:2040200090E0089580E498E008956295607F4F70642BFC0160830895CF93DF93FC01808187
:20404000982F9F70C1E0D0E001C0CC0F9A95EAF782958F700E94AD1FFC01C283DF91CF91F7
:204060000895CF93DF93FC018081982F9F70C1E0D0E001C0CC0F9A95EAF782958F700E9446
:20408000AD1FFC01C183DF91CF910895FC0190819F7081E001C0880F9A95EAF70895CF93C1
:2040A000DF93EC01888182958F700E94AD1FFC01308528812F7081E090E001C0880F2A9532
:2040C000EAF78323DF91CF910895FC018081282F2F7030E02430310524F482958F700C9490
:2040E000F71F80E090E00895FC0180819CE0980F9F70923020F482958F700C94082080E0F9
:2041000090E00895CF92DF92EF92FF921F93CF93DF936C01142F79010E941520C6010E94BE
:204120003120C6010E946520EC01C6010E947420FC012097B1F08881807F81608883898103
:20414000887F83608983EEA2FFA229811C5F81E090E001C0880F1A95EAF7807F822B8983A2
:2041600016C0892BA1F08081807F816080838181887F83608183E6A2F7A2218181E090E0BC
:2041800001C0880F1A95EAF78073822B8183DF91CF911F91FF90EF90DF90CF9008950F93F8
:2041A0001F93CF93DF938C010E946520EC01C8010E9474202097A1F0F80180818F7019F48B
:2041C00088A599A51DC0813019F48AA59BA518C0823019F48CA59DA513C08EA59FA510C046
:2041E000009761F0F80120812F70FC01243019F480A591A505C082A593A502C080E090E02F
:20420000DF91CF911F910F910895EF92FF920F931F93CF93DF937C01EB010E9465208C018A
:20422000C7010E9474200115110579F0F70180818F70F80191F0813099F0823019F4C4AF0D
:20424000D5AF10C0C6AFD7AF0DC0009759F0F70120812F70FC01243019F4C0AFD1AF02C01B
:20426000C2AFD3AFDF91CF911F910F91FF90EF9008959091010490FDFCCF90910004987FC6
:20428000892B8093000408951F93CF93DF93182FEB0180E00E943921809143008E7F80932D
:2042A0004300153031F4C115D04219F483E09EE002C081E094E020914300217F2160922B12
:2042C0009093430020910804309109043C5F40910804509109049091010490FDFCCF6FEFAB
:2042E0007FEF60930A0470930B049091010490FDFCCF40930804509309049091010490FD3D
:20430000FCCF20930C0430930D04DF91CF911F910C94392131E02FB7F8944091030440FF27
:204320000CC04091F2215091F3214F5F5F4F4093F2215093F3213093030440910804509117
:204340000904BA012FBF2091030420FDE4CF8091F2219091F3210895CF92DF92EF92FF9245
:204360000F931F93CF93DF93EC010E948A21088119812A813B816B017C01C01AD10AE20AC7
:20438000F30A601771078207930760F4C701B601615071098109910997FF06C060E070E000
:2043A000CB0102C0C701B601DF91CF911F910F91FF90EF90DF90CF900895AA1BBB1B51E18A
:2043C00007C0AA1FBB1FA617B70710F0A61BB70B881F991F5A95A9F780959095BC01CD01C2
:2043E0000895A1E21A2EAA1BBB1BFD010DC0AA1FBB1FEE1FFF1FA217B307E407F50720F0B7
:20440000A21BB30BE40BF50B661F771F881F991F1A9469F760957095809590959B01AC012D
:20442000BD01CF010895A29FB001B39FC001A39F700D811D1124911DB29F700D811D11246B
:20444000911D0895EE0FFF1F0590F491E02D09940F931F93CF93DF938230910510F482E05C
:2044600090E0E091F621F091F72120E030E0A0E0B0E0309719F140815181028113814817B1
:204480005907C8F08417950769F4109731F012960C93129713961C9327C00093F62110932C
:2044A000F72122C02115310519F04217530718F49A01BD01EF01DF01F801DBCF2115310596
:2044C000F9F0281B390B2430310580F48A819B816115710521F0FB018283938304C080935C
:2044E000F6219093F721FE01329644C0FE01E20FF31F8193919322503109288339833AC058
:204500002091F4213091F521232B41F420910220309103202093F4213093F5212091002052
:20452000309101202115310541F42DB73EB74091042050910520241B350BE091F421F0919E
:20454000F521E217F307A0F42E1B3F0B2817390778F0AC014E5F5F4F2417350748F04E0F30
:204560005F1F4093F4215093F5218193919302C0E0E0F0E0CF01DF91CF911F910F910895C5
:20458000CF93DF93009709F481C0FC01329712821382A091F621B091F721109781F4208125
:2045A0003181820F931F2091F4213091F5212817390751F5E093F421F093F52167C0ED016E
:2045C00020E030E0CE17DF0740F44A815B819E0141155105F1F0EA01F5CFC283D3834081EE
:2045E0005181840F951FC817D90759F488819981840F951F0296808391838A819B81828351
:2046000093832115310529F4E093F621F093F7213DC0E901EA83FB8349915991C40FD51F79
:20462000EC17FD0761F480819181840F951F0296E90188839983828193818A839B83E0E019
:20464000F0E012968D919C911397009719F0FD01DC01F7CF8D919C9111979D012E5F3F4F00
:20466000820F931F2091F4213091F5212817390769F4309729F41092F6211092F72102C065
:2046800012821382A093F421B093F521DF91CF910895FB01DC0102C001900D9241505040F7
:2046A000D8F70895DC0101C06D9341505040E0F70895F894FFCF0000F821200001003D8FFB
:2046C00060F829CC00C80202FFCC00C80505FF00000000BD05BA05A001B70300000000BD8C
:2046E00005BA05A001B70300000000BD05BA059901B501000000001A1E1A1E4304450400CA
:20470000000000B104AE04A704BA0400000000BD05BA05A001B703000000006208B607685E
:2047200009BC07000000000A13910AA90C9B0A000000000A130B1395105F11000000007ECD
:2047400011000000003612000000000A130B130D130E1300062006400660068006DA21DA51
:1447600021DA21DA21DA21DA21DA21E007000000E53F4D00E5
:00000001FF
