:100000000C940F010C946F010C946F010C946F0110
:100010000C946F010C946F010C946F010C946F01A0
:100020000C946F010C946F010C946F010C946F0190
:100030000C946F010C946F010C946F010C946F0180
:100040000C946F010C946F010C946F010C946F0170
:100050000C946F010C946F010C946F010C946F0160
:100060000C946F010C946F010C946F010C946F0150
:100070000C946F010C946F010C946F010C946F0140
:100080000C94841D0C946F010C946F010C946F01FF
:100090000C946F010C946F010C946F010C946F0120
:1000A0000C946F010C946F010C946F010C946F0110
:1000B0000C946F010C946F010C946F010C946F0100
:1000C0000C946F010C946F010C946F010C946F01F0
:1000D0000C946F010C946F010C946F010C946F01E0
:1000E0000C946F010C946F010C9470030C946F01CD
:1000F0000C946F010C946F010C946F010C946F01C0
:100100000C946F010C946F010C946F010C946F01AF
:100110000C946F010C946F010C946F010C946F019F
:100120000C946F010C946F010C946F010C946F018F
:100130000C946F010C946F010C946F010C946F017F
:100140000C946F010C946F010C946F010C946F016F
:100150000C946F010C946F010C946F010C946F015F
:100160000C946F010C946F010C946F010C946F014F
:100170000C946F010C946F010C946F010C946F013F
:100180000C946F010C946F010C946F010C946F012F
:100190000C946F010C946F010C946F010C946F011F
:1001A0000C946F010C946F010C946F010C946F010F
:1001B0000C946F010C946F010C946F010C946F01FF
:1001C0000C946F010C946F010C946F010C946F01EF
:1001D0000C946F010C946F010C946F010C946F01DF
:1001E0000C946F010C946F010C946F010C946F01CF
:1001F0000C946F010C946F010C946F01244D4F44CB
:1002000024204842572D444556202000000000007D
:100210000111B1007701850172189E1AD81D1124B1
:100220001FBECFEFCDBFDFE2DEBF80E08CBF84E238
:100230000E94731160E081E490E00E944F11809170
:100240005000866080935000809151008670863007
:10025000D9F760914000687F616080E490E00E947F
:100260004F1180914000809150008E7F809350000C
:10027000809150008091600081608093600010E266
:10028000A0E0B0E2E8E4F3E402C005900D92A03AE9
:10029000B107D9F722E2A0EAB0E201C01D92A83C62
:1002A000B207E1F7E8ECF2E288E49AE28193E83CF5
:1002B000F907E0F383E590E38193E030F907E0F399
:1002C00011E0CFE0D1E004C02197FE010E94382068
:1002D000CA30D107C9F70E9430020C94A2210C94B5
:1002E0000000FC0163817281818190810895E0EAC0
:1002F000F0E21082118212821382148280ED97E064
:100300008583968385E08783089580E098EE8093C7
:10031000AA209093AB2080E094EF8093A820909344
:10032000A9200895CF93DF93EC018B5A9F4F0E9431
:10033000651E811107C0CE0189599F4F0E94651E1D
:1003400091E0811190E0892FDF91CF9108950F9373
:100350001F93CF93DF9300D000D0CDB7DEB76115E8
:10036000710509F453C0DB01182F6093FF217093CE
:1003700000226093A8227093A9221296ED91FC911D
:100380001397178287E6868383E2858388E18483D7
:100390001296ED91FC91139793819F7C90619383CA
:1003A00090910122916090930122ED91FC91028045
:1003B000F381E02DCB010995109304228093022252
:1003C00090930322FC0186819781A085B185898362
:1003D0009A83AB83BC83CE0101960E9471018B018D
:1003E0009C011D532F4830460038164928493105D5
:1003F00040F4609307207093082080930920909325
:100400000A20809101228260809301222496CDBF30
:10041000DEBFDF91CF911F910F910895CF93DF93AE
:100420001F92CDB7DEB7DC0113966C931397179626
:100430008D919C911897009779F061110DC02FEC68
:100440002983DC01ED91FC910190F081E02DAE015A
:100450004F5F5F4F61E009950F90DF91CF91089555
:10046000CF93DF9300D01F92CDB7DEB760E074E08A
:1004700082E00E945A1F8091CF0187FDFCCF8091BE
:10048000CC0188608093CC0180E090E00E946F21D5
:10049000813029F061E080E090E00E947F2180912E
:1004A00000108F3F51F41B8241E050E0BE016D5FB0
:1004B0007F4F80E090E10E944C1D809100108111DF
:1004C00031C083EB92E00E945A1C8C0147E063E04C
:1004D000CE0101960E942B1E41E064E0CE010296FF
:1004E0000E942B1E21E049816A81C8010E94C90334
:1004F0008DE190E2F8018083918381E08093820610
:1005000080938106EDEAF0E285EC90E2208D318D5A
:10051000A191B19117962D933C9318978E179F0731
:10052000A9F72EC0813059F582EB92E00E945A1C47
:100530008C0141E06CE0CE0101960E942B1E40E050
:100540006CE0CE0102960E942B1E21E049816A8157
:10055000C8010E94C90389E290E2F8018083918377
:10056000EDEAF0E2808D918DA191B19117968D9376
:100570009C93189780E2E53CF807A1F701C0FFCFF4
:10058000B80181EB0E94A7018091A2008F7B9FB7E9
:10059000F8941BBE28ED24BF8093A2009FBF8091DA
:1005A000A20087608093A20078940E944417FDCF38
:1005B000FF920F931F93CF93DF93CDB7DEB72697AC
:1005C000CDBFDEBF2091AC20261709F46BC0F62EFC
:1005D0008C0181E0681741F1681758F082E06817D4
:1005E00009F443C085E068135BC086E0EDE0F0E20B
:1005F0003FC01982AE014F5F5F4F61E0C801885C68
:100600009E4F0E946706AE014F5F5F4F61E0C801D9
:10061000815B9E4F0E946706F801E45BFF4F81E01B
:100620008383729683833CC084E68983AE014F5FE7
:100630005F4F61E0C801885C9E4F0E946706AE0173
:100640004F5F5F4F61E0C801815B9E4F0E9467066C
:1006500060E0C801845B9F4F0E940E0260E0C80109
:10066000825A9F4F0E940E021BC086E0E3E1F0E237
:10067000DE01119601900D928A95E1F7AE014F5F70
:100680005F4F66E0C801885C9E4F0E946706AE011E
:100690004F5F5F4F66E0C801815B9E4F0E94670617
:1006A000F092AC202696CDBFDEBFDF91CF911F9197
:1006B0000F91FF90089580E00895089525E330E2BA
:1006C000FC0120833183E0E8F6E024E0228328E087
:1006D0002283218320EA3AE0FC01228333830895B8
:1006E0001F920F920FB60F9211242F933F934F93A7
:1006F0005F936F937F938F939F93AF93BF93EF938A
:10070000FF938091A00A0E94A618009739F10E94D9
:100710009C17811123C08EE392E20E94C1179C01B5
:10072000892BE1F080913B228830C1F090913D22ED
:100730009F5F90933D2290913D22977090933D2230
:1007400090913B229F5F90933B22E0913D22F0E00D
:10075000EE0FFF1FE55DFD4D20833183FF91EF918B
:10076000BF91AF919F918F917F916F915F914F91C9
:100770003F912F910F900FBE0F901F90189580E022
:1007800090E108958F549D4F61110C94191C0C94A5
:10079000071CCF92DF92EF92FF920F931F93CF939C
:1007A000DF931F92CDB7DEB77C01D62EC42E122F59
:1007B0000E945E0381E490E2F7018083918340E030
:1007C00060E0CE0101960E942B1E20E030E040E167
:1007D00050E16981C70104960E94EF0E41E060E09C
:1007E000CE0101960E942B1E20E030E042E150E154
:1007F0006981C70146960E94EF0E42E060E0CE019B
:1008000001960E942B1E20E030E044E150E1698116
:10081000C70188960E94EF0E43E060E0CE0101968A
:100820000E942B1E20E030E046E150E16981C701C3
:10083000CA960E94EF0E44E060E0CE0101960E944D
:100840002B1E20E030E048E150E16981C701845B64
:100850009F4F0E94EF0E45E060E0CE0101960E949E
:100860002B1E20E030E04AE150E16981C701825A45
:100870009F4F0E94EF0E40E061E0CE0101960E9482
:100880002B1E20E030E04CE150E16981C701805926
:100890009F4F0E94EF0E41E061E0CE0101960E9461
:1008A0002B1E20E030E04EE150E16981C7018E57F8
:1008B0009F4F0E94EF0E42E061E0CE0101960E9440
:1008C0002B1E20E030E040E250E16981C7018C56E8
:1008D0009F4F0E94EF0E43E061E0CE0101960E941F
:1008E0002B1E20E030E042E250E16981C7018A55C9
:1008F0009F4F0E94EF0E46E062E0CE0101960E94FB
:100900002B1E20E030E044E250E16981C7018854A9
:100910009F4F0E94EF0E47E062E0CE0101960E94D9
:100920002B1E20E030E046E250E16981C70186538A
:100930009F4F0E94EF0E40E062E0CE0101960E94C0
:100940002B1E04E6212F48E250E16981C701845241
:100950009F4F0E94F10541E062E0CE0101960E94A6
:100960002B1E212F4AE250E16981C7018D509F4F14
:100970000E94F10542E062E0CE0101960E942B1E2A
:10098000212F4CE250E16981C701865F9E4F0E9492
:10099000F10543E062E0CE0101960E942B1E212F5B
:1009A0004EE250E16981C7018F5D9E4F0E94F105C3
:1009B00044E062E0CE0101960E942B1E212F40E30D
:1009C00050E16981C701885C9E4F0E94F10545E0B6
:1009D00062E0CE0101960E942B1E212F42E350E1DE
:1009E0006981C701815B9E4F0E94F10540E063E091
:1009F000CE0101960E942B1E20E044E350E1698164
:100A0000C7018A599E4F0E94F10541E063E0CE0183
:100A100001960E942B1E20E046E350E16981C70148
:100A200083589E4F0E94F10542E063E0CE0101969B
:100A30000E942B1E20E048E350E16981C7018C56DB
:100A40009E4F0E94F10543E063E0CE0101960E94B3
:100A50002B1E20E04AE350E16981C70185559E4F76
:100A60000E94F10544E063E0CE0101960E942B1E36
:100A700020E04CE350E16981C7018E539E4F0E94F4
:100A8000F10545E063E0CE0101960E942B1E20E0B7
:100A90004EE350E16981C70187529E4F0E94F105E4
:100AA000870100511E4F6C2DC8010E94B01A40E40E
:100AB00050E1B801C7018D509E4F0E949C0946E449
:100AC00050E1B801C7018F5E9D4F0E949C094CE424
:100AD00050E1B801C701815D9D4F0E949C0942E52C
:100AE00050E1B801C701835B9D4F0E949C0948E516
:100AF00050E1B801C70185599D4F0E949C094EE500
:100B000050E1B801C70187579D4F0E949C0940E7FB
:100B100050E168E2C70189559D4F0E94E71040E609
:100B200051E168E2C70184559D4F0E941310FFE414
:100B3000EF1AFDEFFF0A4D2D4F706D2D62956F700E
:100B4000C7010E942B1EF7018081803E18F4C70167
:100B50000E94321EF7018081803E18F4C7010E9476
:100B6000471E0F90DF91CF911F910F91FF90EF9053
:100B7000DF90CF900895FC018781FB01808381E0A5
:100B80000895CF93DF931F92CDB7DEB7DC011396A4
:100B9000ED91FC9114973081232F2F77253688F023
:100BA00056969C919F77232F2078922B391749F0E6
:100BB000998341E050E0BE016F5F7F4FCF010E94FB
:100BC0004C1D0F90DF91CF910895CF93DF93EC01EF
:100BD0000E94A01F688379838A839B83DF91CF91D2
:100BE0000895CF92DF92FF920F931F93CF93DF93DD
:100BF000EC01162F6A01F22E0E94F9108DE490E2AA
:100C000088839983412F4F70612F62956F7024EC18
:100C100039E0CE0105960E94981ECE010D960E94E5
:100C2000E505CE0141960E94E5050E8B82E08A83A0
:100C3000CB82DC828D81182F1F7082958F700E946D
:100C4000CA1D183060F44096E12FF0E0E80FF91F5C
:100C50008081FF2011F0806401C08F7B80831E8221
:100C60008AEC8D8B1F8288EC888719868AE08A87B8
:100C70008B878FEF8C871D861E861F86188A198AA0
:100C80001A8A1B8A1C8ADF91CF911F910F91FF90C6
:100C9000DF90CF900895DC011396ED91FC911497AD
:100CA00020812F770596222349F0629FB0011124FD
:100CB00023E0759567952A95E1F707C0611103C098
:100CC00060E070E002C064EC79E00C941B1FFF92BE
:100CD0000F931F93CF93DF9300D000D0CDB7DEB733
:100CE0008C01FA018081893C90F4D80117968C938D
:100CF000179751961D921D921D921C9254978081B8
:100D0000811102C08AEC01C089ECF80150C08E3C10
:100D100049F468ECC8010E944B0681E0D8011696A0
:100D20008C93A7C08F3C19F4F8011682A2C06630DC
:100D300008F45EC09181D80119969C93199782811D
:100D400018968C93189723811A962C931A972481BE
:100D50001B962C931B9725811C962C93F080BCEC42
:100D6000FB120FC0CE0101960E94E50589819A8190
:100D7000AB81BC81F801818B928BA38BB48BF58AFC
:100D800044C0FDECFF1220C0D80155968C918C3CDC
:100D900081F0CE0101960E94E50589819A81AB819F
:100DA000BC81F801818B928BA38BB48B8CEC858BEF
:100DB0002CC0D80151961D921D921D921C925497E1
:100DC0008AEC55968C9321C0BBECFB121EC0F80137
:100DD00025892A3C21F097838AEC858B03C0878381
:100DE00089EC858BF801118A128A138A148A0DC046
:100DF000D80117968C911797882319F017961C9293
:100E0000F1CF88ECF8018783EDCFF80185859685D1
:100E1000A785B089892B8A2B8B2B59F50380F48108
:100E2000E02D808187FF25C0CE0101960E94E50557
:100E300049815A816B817C81D8011D964D935D93C8
:100E40006D937C935097E0910222F091032291815F
:100E5000B4E69B9FC0011124092E000CAA0BBB0B0A
:100E6000840F951FA61FB71FF80185879687A78750
:100E7000B08B2496CDBFDEBFDF91CF911F910F9134
:100E8000FF9008950F931F93CF938C01DC0113966D
:100E9000ED91FC911497C081CF770596CC2399F002
:100EA0000E94E51E23E0880F991F2A95E1F7D801DB
:100EB0001396ED91FC91149760816F7770E00E941A
:100EC000F31FC62F05C00E94E51E892B09F0C8EC50
:100ED0008C2FCF911F910F9108954F925F926F9237
:100EE0007F928F929F92AF92BF92CF92DF92EF92BA
:100EF000FF920F931F93CF93DF93CDB7DEB7CC55FF
:100F0000D109CDBFDEBF8C01F62EFC01818992890B
:100F1000A389B489892B8A2B8B2B59F1C80141965F
:100F20000E94C21F672B682B692B19F1C8010E9410
:100F30004207F80160858613A5C0D8011B968C91E5
:100F4000B4E68B9FC0011124092E000CAA0BBB0B29
:100F5000F8014189528963897489840F951FA61FFE
:100F6000B71F818B928BA38BB48B6185C8010E94C4
:100F70004B06F8018681811109C081899289A38974
:100F8000B489892B8A2B8B2B09F4B6C0F80185858F
:100F90009685A785B089892B8A2B8B2B09F4B1C044
:100FA000C8010D960E94C21F672B682B692B09F49C
:100FB000A8C0D801ED91FC910280F381E02DBE0123
:100FC000645A7F4FC8010995E82EE0910222F09102
:100FD000032282819381A481B5816C968CAF9DAFF1
:100FE000AEAFBFAF6C97CE01885A9F4F0E94710180
:100FF0004B015C0140900720509008206090092030
:1010000070900A20CE0102960E94E505FE013196FD
:101010006F0187E5DF011D928A95E9F789E6888BE4
:10102000F98A4E2D50E0BE01645A7F4FCE014296A0
:101030000E945F2188EF8A874B865C866D867E865C
:101040008E829F82A886B986E394E394EF86C601D8
:101050000E940318882371F0F80185859685A7857D
:10106000B08986509F4FAF4FBF4F85879687A78720
:10107000B08B47C0D8011D961D921D921D921C92E7
:1010800050973FC0D8011C968C911C97882329F15A
:101090001A968C91B4E68B9FC0011124092E000C86
:1010A000AA0BBB0BF80181889288A388B488880DAD
:1010B000991DAA1DBB1D818B928BA38BB48BC8017C
:1010C0000E944B06D8011C968C911C978F3F09F407
:1010D00050CF81501C968C934CCFF801118A128A04
:1010E000138A148A8781681711F08AEC01C089EC91
:1010F000D80155968C933DCF6781C8010E944B065D
:1011000045CFC45ADF4FCDBFDEBFDF91CF911F91D6
:101110000F91FF90EF90DF90CF90BF90AF909F9096
:101120008F907F906F905F904F900895FC0123897E
:10113000FB012083FC018289FB01818382E0089509
:101140000F931F93CF93DF93CDB7DEB72797CDBF14
:10115000DEBF8C01DC0115968D919C911697FC01E8
:1011600021812B3F50F025E02F8341E050E0BE016C
:10117000695F7F4F01960E944C1DD80115968D9195
:101180009C911697FC01228133812115310529F0AC
:10119000255031092C303E4060F5D80115968D91CF
:1011A0009C911697FC01248135812115310529F088
:1011B000255031092C303E4048F5D8011596ED9167
:1011C000FC91169784819581009729F022813381C3
:1011D0008217930740F1F801178284EF91E0808B2A
:1011E000918B2796CDBFDEBFDF91CF911F910F91DD
:1011F00008952AE030E02D833E8342E050E0BE01B6
:101200006B5F7F4F02960E944C1DC7CF26E930E0EE
:101210002B833C8342E050E0BE016D5F7F4F04961C
:101220000E944C1DCACF19821A8242E050E0BE01D2
:101230006F5F7F4FCF0104960E944C1DCCCF4F9221
:101240005F926F927F928F929F92AF92BF92CF9256
:10125000DF92EF92FF920F931F93CF93DF93CDB75F
:10126000DEB7CB55D109CDBFDEBF882EF62E6A0181
:101270000115110521053105C1F4E0910222F0911B
:10128000032282819381A481B5816C968CAF9DAF3E
:10129000AEAFBFAF6C97CE01885A9F4F0E947101CD
:1012A000962EA72EB82EE92E04C0902EA12EB22E77
:1012B000E32E409007205090082060900920709005
:1012C0000A20CE0102960E94E5058E010F5F1F4F96
:1012D00087E5F80111928A95E9F789E6888B898A72
:1012E0004F2D50E0B601CE0142960E945F2188EF5B
:1012F0008A874B865C866D867E869E82AF82B886A4
:10130000E986F394F394FF86C8010E940318C55A36
:10131000DF4FCDBFDEBFDF91CF911F910F91FF90C7
:10132000EF90DF90CF90BF90AF909F908F907F9085
:101330006F905F904F900895EF92FF920F931F93DD
:10134000CF93DF93EC017B018A010E94F91089E5BC
:1013500090E288839983EB82FC821F82CE014696BD
:101360000E94E505CE014A960E94E50583E08A8346
:101370000D831E8380ED97E0888B998B1E8A1F8AD0
:10138000188E198EDF91CF911F910F91FF90EF90E2
:101390000895982F81E0983221F0903111F080E08B
:1013A000089508951F93CF93DF93EC01162F8B813F
:1013B0009C810E94D61A8B819C81DC011196ED9153
:1013C000FC91129730852C912323E1F0111104C078
:1013D000AE01485F5F4F02C040E050E064E40E940D
:1013E000AE1B8091062081110FC0EB81FC818081B2
:1013F000A181B28115968C9380810180F281E02DCC
:10140000818302C081E001C080E0DF91CF911F9114
:101410000895FB0120813181DC0118968C91803187
:1014200061F42E7F43E0220F331F4A95E1F7868156
:10143000281B3109245F3F4F10C0883271F484812A
:10144000982F9076903649F086FF02C02E7F05C017
:1014500085FF02C02C7F01C0287FC90134E096952A
:1014600087953A95E1F7B4E68B02C0011124322F3B
:1014700023FDC29632FD499631FD0D9630FD06964C
:101480000895AF92BF92CF92DF92EF92FF920F93A7
:101490001F93CF93DF93CDB7DEB72997CDBFDEBFC4
:1014A0008C01FC01838194810E94D61AA801485FB7
:1014B0005F4F6EEBF801838194810E94AE1BCE01D9
:1014C00001967C015E019AE0A90EB11C67016FEFE5
:1014D000F801838194810E943B1BF70181937F0176
:1014E000EA15FB05A1F740E069E070E0C6010E9443
:1014F000DE1B811109C0B601C8010E94090AF8016A
:10150000828B938B80E001C083E02996CDBFDEBF44
:10151000DF91CF911F910F91FF90EF90DF90CF90CF
:10152000BF90AF9008952091F120EDEAF0E290E0B5
:10153000921781F0A191B19112963C91129733309C
:1015400039F415960D90BC91A02D3C91831721F094
:101550009F5FEECF80E0089581E008958F929F9283
:10156000AF92BF92CF92DF92EF92FF920F931F93B1
:10157000CF93DF93CDB7DEB72697CDBFDEBFFC019B
:1015800080899189892B09F461C1A581B6818C91EB
:10159000811104C08781833009F058C1D62E7F01A4
:1015A000CF0146960E94C21FD70150962D913C91C3
:1015B0005197890120E030E0601771078207930797
:1015C00008F444C1CE0101960E94E50589819A8103
:1015D000AB81BC81F701868B978BA08FB18F878100
:1015E000811151C08DE495E9828B938B0FEF6701D8
:1015F000F8E0CF0ED11C570120E1A20EB11CA601CC
:10160000602FD70113968D919C9114970E94561BC1
:10161000082F82E0800F823070F1F60110E0819196
:10162000180FEA15FB05D9F7F70180850E94C90953
:10163000811103C00111E3CF1EC0D70115968D9013
:101640009C901697F40180818F3F31F4812F0E9486
:10165000930A882309F4F0C0D7011596ED91FC9107
:10166000169780811813E6CF81E017968C93179711
:1016700084E690E0C1C088E893E1F701808B918B0C
:1016800083E08783E3C08130B9F461E0C7010E9441
:10169000D20981110BC088EE93E0D70150968D934B
:1016A0009C93519782E017968C93D0C08AEF90E07C
:1016B000F701808B918BCAC0823009F0A2C0C701AC
:1016C0000E94410A11E0811110E0D7011596ED91B9
:1016D000FC91169782819381892BC9F0C7014A96A4
:1016E0000E94C21F4B015C01D7011596ED91FC9140
:1016F000169722813381A8EEB3E00E94292021E0D1
:1017000086169706A806B90618F420E001C021E065
:101710001223D7011596ED91FC911697848195813E
:10172000892B49F4D7011596ED91FC9116974181CB
:10173000411119C02CC0C7014A960E94C21F4B011B
:101740005C01D7011596ED91FC91169724813581A6
:10175000A8EEB3E00E94292086169706A806B906CF
:1017600008F321E015C0F70182899389248935891E
:10177000821B930B97FF03C0919581959109FAE025
:101780004F9FA001112421E08417950708F420E061
:10179000112359F1222349F1D701ED91FC910280E7
:1017A000F381E02DBE016B5F7F4FC701099500E01B
:1017B00010E09801AE014B5F5F4F682F8D2D0E94A6
:1017C0001F09811112C0F70182899389848B958B3F
:1017D000CE0101960E94E50589819A81AB81BC8189
:1017E000F701828F938FA48FB58F81E0D701179671
:1017F0008C93179788E893E150968D939C9351971B
:1018000025C0833019F50190F081E02D0280F3812D
:10181000E02DBE016F5F7F4FC701099500E010E02A
:101820009801AE014F5F5F4F682F8D2D0E941F09F9
:10183000F701108A118A0AC0198341E050E0BE0105
:101840006F5F7F4FC4010E944C1D06CF2696CDBF0F
:10185000DEBFDF91CF911F910F91FF90EF90DF904E
:10186000CF90BF90AF909F908F900895CF93DF93CC
:10187000EC0101960E94E50587E5FE0111928A952B
:10188000E9F7DF91CF9108954F925F926F927F9227
:10189000AF92BF92CF92DF92EF92FF920F931F937E
:1018A000CF93DF93CDB7DEB7C755D109CDBFDEBF2C
:1018B000182FF62EE42E40900720509008206090BC
:1018C000092070900A20CE0101960E94360C8BE40C
:1018D000888B198B1A8AE11002C082E001C083E074
:1018E0009F2D990F990F890F8B8B88EF8A874B86D5
:1018F0005C866D867E868FEF9FEFDC018E839F83F3
:10190000A887B98784E08F87CE0101960E940318CB
:10191000082F80910722909108220097E1F5E0912D
:101920000222F09103220081B0900422C09007208F
:10193000D0900820E0900920F0900A20CE01019676
:101940000E94360CCB86DC86ED86FE868FEF9FEFFD
:10195000DC018E839F83A887B98788EF8A8781E41B
:10196000888B198BBA8A0B8B81E08C8B81E18D8BF4
:1019700088E48E8B82E48F8B87E5888F8E01005EF2
:101980001F4F5E0189E1A80EB11C8AE0482E512C40
:10199000612C712C0DC0DC01ED91FC910190F08166
:1019A000E02D2E2D4F2D612F09958823F1F0B7CF13
:1019B000C701B601A30192010E940720605DF801F2
:1019C00062938F01C114D104E104F10459F4A0160B
:1019D000B10671F780E18F87CE0101960E9403184E
:1019E000082F03C069017A01F2CF802FC95ADF4F57
:1019F000CDBFDEBFDF91CF911F910F91FF90EF9090
:101A0000DF90CF90BF90AF907F906F905F904F909E
:101A10000895FF920F931F93CF93DF9300D000D0D0
:101A2000CDB7DEB78C01F62E09960E94651EF8012F
:101A3000882391F186859785A089B189892B8A2B86
:101A40008B2B99F040E064818F2D0E94440C811112
:101A50000CC0D80114968C9114978F5F14968C93B8
:101A6000F80116861786108A118AD8011A961D92D7
:101A70001D921D921C921D9717968D919C911897FF
:101A8000009709F468C01596ED91FC911697208196
:101A900027FF61C02FEC53C082859385A485B5854F
:101AA000892B8A2B8B2B71F4CE0101960E94E505C0
:101AB00089819A81AB81BC81F80182879387A48751
:101AC000B5872EC0C8010A960E94C21F64367105F0
:101AD0008105910528F1F80186859785A089B1894E
:101AE000892B8A2B8B2BE1F440E0F80164818F2D48
:101AF0000E94440C811114C0D80114968C91149743
:101B00008F5F14968C93CE0101960E94E505898122
:101B10009A81AB81BC81F80186879787A08BB18BB6
:101B2000D80117968D919C9118970097A1F0159662
:101B3000ED91FC911697208127FF0DC02EEC298393
:101B4000DC01ED91FC910190F081E02DAE014F5F41
:101B50005F4F61E009952496CDBFDEBFDF91CF9145
:101B60001F910F91FF9008958F929F92AF92BF9215
:101B7000FF920F931F93CF93DF9300D000D0CDB788
:101B8000DEB78C01F62E09960E94651ED8011A96C2
:101B90004D915D916D917C911D97882379F1452B35
:101BA000462B472B09F4A3C0C8010A960E94C21F06
:101BB000623371058105910550F0F801868597859E
:101BC000A089B189892B8A2B8B2B09F47BC0D80182
:101BD0001A961D921D921D921C921D9717968D911B
:101BE0009C911897009709F482C01596ED91FC918D
:101BF0001697208127FF7BC02FEC6DC0452B462B0D
:101C0000472B09F442C0F80186859785A089B189E0
:101C1000892B8A2B8B2B59F0C8010E960E94C21F6C
:101C20006C3271408105910508F461C01BC0C80188
:101C30000A960E94C21F4B015C01D8011596ED91D6
:101C4000FC911697218130E0A4E6B0E00E942920A3
:101C500086169706A806B90608F449C0F8018481DB
:101C60008F5F8483CE0101960E94E50589819A8168
:101C7000AB81BC81F80186879787A08BB18B41E04F
:101C800064818F2D0E94440C32C0CE0101960E94C7
:101C9000E50589819A81AB81BC81F80182879387B0
:101CA000A487B58716861786108A118A8781908542
:101CB0000097E9F00580F681E02D208127FF17C00D
:101CC0002EEC09C0F80164816F5F648340E08F2DC2
:101CD0000E94440C7CCF2983DC01ED91FC910190A2
:101CE000F081E02DAE014F5F5F4F61E009952496D2
:101CF000CDBFDEBFDF91CF911F910F91FF90BF90BD
:101D0000AF909F908F900895FC01A581B6819C9122
:101D100093FF0DC08381882351F0977019F4CF0190
:101D20000C94B40D913019F4CF010C94090D089561
:101D30001F93CF93DF93EC01ED81FE819081898524
:101D4000182F1F7082958F7094FF1EC00E94CA1DAD
:101D5000183038F4FC017096E10FF11D80818F7B03
:101D600080838985182F1F7082958F700E94CA1DED
:101D7000183040F5FC017096E10FF11D8081877CE1
:101D80008083808188611DC00E94CA1D183038F48C
:101D9000FC017096E10FF11D80818064808389854C
:101DA000182F1F7082958F700E94CA1D183050F432
:101DB000FC017096E10FF11D8081877C808380811A
:101DC000806180831A861B861C861D861E861F8660
:101DD000188A198A1C82DF91CF911F910895CF92A2
:101DE000DF92EF92FF921F93CF93DF93EC01162FB8
:101DF0006A0179010E94F91085E690E2888399834F
:101E000081E08B831C82CD82DE82EF82F8867E01A8
:101E100089E0E80EF11C412F4F70612F62956F70C1
:101E2000C7010E942B1E8985803E18F4C7010E94BD
:101E3000321ECE010A960E94E505CE010E960E9442
:101E4000E50581E08A83CE01DF91CF911F91FF905C
:101E5000EF90DF90CF900C94980E0F931F93CF9339
:101E6000DF931F92CDB7DEB78C01FC01808186170E
:101E700049F0698341E050E0BE016F5F7F4FC801C8
:101E80000E944C1DC8010F90DF91CF911F910F91BF
:101E90000895CF93DF93EC01ED81FE819181945001
:101EA0009F3280F48D819E81FC016081262F2770F6
:101EB000223018F0687F0E942D0FCE01DF91CF9164
:101EC0000C94980E64E0CF0101960E942D0FEACF8A
:101ED0002F923F924F925F926F927F928F929F923A
:101EE000AF92BF92CF92DF92EF92FF920F931F9328
:101EF000CF93DF93CDB7DEB72697CDBFDEBF7C0192
:101F00003B01342ED22E10E0CE0101965C0122243A
:101F10002A948BECC82E9CEC592E2DEC422ED70126
:101F200012968C91181708F068C0B0E11B9F400111
:101F30001124D7011396ED91FC911497E80DF91D2A
:101F40008481831158C085818D1155C08081918114
:101F5000A281B3818F3F9F4FAF4FBF4F09F44BC05A
:101F6000CF010E947101D3012D913D914D915C9162
:101F70006217730784079507F1F5F50126E01192C2
:101F80002A95E9F72982D7011396ED91FC911497D0
:101F9000E80DF91D90859A8327812B8383858C8397
:101FA00084858D8385858E83002349F092859A836D
:101FB00021852B83868186958695869501C08681AD
:101FC0008770833081F030F4882351F0813099F4A8
:101FD000998307C0843049F0853069F4498206C08E
:101FE000298361E004C0C98201C0598266E0A5016D
:101FF0008D2D0E94FA131F5F92CF2696CDBFDEBFB4
:10200000DF91CF911F910F91FF90EF90DF90CF90D4
:10201000BF90AF909F908F907F906F905F904F9008
:102020003F902F900895FC01809305229093062203
:1020300081E790E280839183628343835483089590
:102040002F923F924F925F926F927F928F929F92C8
:10205000AF92BF92CF92DF92EF92FF920F931F93B6
:10206000CF93DF93CDB7DEB7CF55D109CDBFDEBF5C
:102070006E968EAF9FAF6E97162F6F962FAF6F979E
:10208000440F440F222311F083E001C082E0480F87
:10209000A0964FAFA097E12CF12CC12CD12C8BE056
:1020A0009E012F5F3F4F19016E96AEADBFAD6E978B
:1020B00012962C91129730E0C216D3060CF070C025
:1020C0001396ED91FC911497EE0DFF1D90819F3FAB
:1020D00009F45FC091135DC0CF0101960E947101A8
:1020E0002B013C016C966CAF7DAF8EAF9FAF6C97B0
:1020F0008090072090900820A0900920B0900A209E
:102100006E96EEADFFAD6E978381948148145904AD
:102110006A047B04D9F4DC01AE0DBF1D8091052259
:10212000909106220097A1F1FC0120813181F901F3
:10213000A080B1806F960FAD6F9715962C91412FAF
:10214000BE01685A7F4FF501099522C0FC01EE0DD2
:10215000FF1D05810E94A01FD101E7E51D92EA95B0
:10216000E9F7FBE4F88B198B0A8BA0962FADA097AB
:102170002B8B38EF3A878B869C86AD86BE864E8247
:102180005F826886798684E08F87C1010E94031888
:1021900080E09FEFC91AD90AA6E0EA0EF11C84CFAD
:1021A000C15ADF4FCDBFDEBFDF91CF911F910F919D
:1021B000FF90EF90DF90CF90BF90AF909F908F9067
:1021C0007F906F905F904F903F902F900895FC010B
:1021D000809307229093082287E790E2808391837F
:1021E0006283438354830895089580E00895089599
:1021F00008952DE730E2FC0120833183E091F12046
:1022000021E02E0F2093F120F0E0EE0FFF1FE355A9
:10221000FF4D80839183FC01128208958F929F92DB
:10222000AF92BF92CF92DF92EF92FF920F931F93E4
:10223000CF93DF936B017C01FA0188E4808382E411
:10224000818387E582838A01065F1F4FEA01239617
:102250008AE0882E912CA12CB12C0C171D0791F02F
:10226000C701B601A50194010E940720605DF80135
:1022700062938F01C114D104E104F10471F3690187
:102280007A01EBCFDF91CF911F910F91FF90EF90EB
:10229000DF90CF90BF90AF909F908F900895FC01FA
:1022A0009FB7F8941BBE88ED84BF60839FBF0895DD
:1022B000FC01808180FF03C081E09785961380E058
:1022C0000895FC01818580FD07C08685823020F05D
:1022D00081E09785993609F080E008958091CF01DB
:1022E00087FDFCCF0895682F636080E890E00E942E
:1022F0004F118091820080FDFCCF0895CF92DF9234
:10230000EF92FF920F931F93CF93DF93CDB7DEB77A
:10231000C755D109CDBFDEBF8091012281FF46C0E4
:1023200083EA92E20E94C21F68307105810591051F
:10233000E8F1E0910222F091032210810091042241
:10234000C0900720D0900820E0900920F0900A204B
:10235000CE0101960E94360CCB86DC86ED86FE8689
:102360008FEF9FEFDC018E839F83A887B98788EF6B
:102370008A8781E4888B198A0A8B1B8B81E08C8B7E
:1023800081E18D8BAE014A5E5F4FC701B6010E94AD
:102390000E1180E18F87CE0101960E9403188111F2
:1023A00005C0809101228D7F80930122C95ADF4FA1
:1023B000CDBFDEBFDF91CF911F910F91FF90EF90C6
:1023C000DF90CF900895CF92DF92EF92FF920F931C
:1023D0001F93CF93DF93CDB7DEB72597CDBFDEBF79
:1023E000E0910222F09103221081C680D780E08420
:1023F000F1840091CC010E946E118091CC01877F05
:102400008093CC018FEF0E94931C0E946E1180E399
:102410000E945C1C03FF07C00E946E118091CC01DA
:1024200088608093CC0180910222909103221D83C9
:1024300041E050E0BE016B5F7F4F0E944C1D8091D8
:10244000022290910322C982DA82EB82FC8244E06C
:1024500050E0BE016F5F7F4F06960E944C1D809139
:1024600001228460809301222596CDBFDEBFDF91DB
:10247000CF911F910F91FF90EF90DF90CF90089533
:102480001F93CF93DF9300D000D0CDB7DEB78091FC
:10249000FF2190910022892B09F4BAC08091F72185
:1024A000811107C083EF91E20E94E50581E08093EE
:1024B000F7218091FF2190910022DC01ED91FC91A8
:1024C0000480F581E02D0995182F8091F22182304A
:1024D00009F441C028F4882361F0813001F18BC0F8
:1024E000843009F46AC008F451C0853009F47DC015
:1024F00082C0112319F081E08093F221CE01019670
:102500000E94E50589819A81AB81BC818093F3218A
:102510009093F421A093F521B093F6216CC083EF42
:1025200091E2112351F00E94C21F69387341810565
:10253000910508F460C082E055C00E94C21F653654
:1025400071058105910508F454C0809101228260D3
:10255000809301224EC011114EC083E08093F2217E
:10256000CE0101960E94E50589819A81AB81BC81EB
:102570008093F3219093F421A093F521B093F62159
:102580008091012280618093012235C083EF91E226
:102590000E94C21F643671058105910560F1112307
:1025A00011F084E0A9CF83EF91E20E94C21F693845
:1025B000734181059105E8F41EC083EF91E20E940A
:1025C000C21F6436710581059105A8F0112389F0B9
:1025D00083EF91E20E94C21F693B7B408105910518
:1025E00050F085E08093F22106C0111104C00E94D2
:1025F000E3111092F2218091FF2190910022DC01E1
:10260000ED91FC910680F781E02D6091F221099512
:102610002496CDBFDEBFDF91CF911F9108950F9318
:102620001F93CF93DF9300D000D0CDB7DEB7E091FA
:102630000222F091032286819781A085B18589834A
:102640009A83AB83BC83CE0101960E9471010091F5
:102650000720109108202091092030910A2060174E
:10266000710782079307B9F08B019C011D532F4816
:102670003046003816492849310540F46093072058
:10268000709308208093092090930A208091012262
:10269000826080930122E0910222F09103229181D5
:1026A0009253993CB0F410E08091F1201817E8F4AF
:1026B000E12FF0E0EE0FFF1FE355FF4D8081918188
:1026C000DC01ED91FC910680F781E02D09951F5FFB
:1026D000EBCF82E3898341E050E0BE016F5F7F4F23
:1026E000CF0101960E944C1DDECF2496CDBFDEBFE8
:1026F000DF91CF911F910F910895CF92DF92EF92CA
:10270000FF92CF93DF93CDB7DEB7C755D109CDBFC9
:10271000DEBF8091012280FF07C00E940F138091CD
:1027200001228E7F809301228091012283FF05C0C8
:1027300061E089E790E00E944F118091012282FFC1
:1027400005C0A89588E10E947311FFCF84FF27C0C0
:10275000C0900720D0900820E0900920F0900A2037
:10276000CE0101960E94360CCB86DC86ED86FE8675
:1027700082E090E0A0E0B0E08E839F83A887B987D5
:1027800088EF8A8783E2888B81E08F87CE0101966C
:102790000E940318809101228F7E809301220E9463
:1027A000A01F6D3D75408105910510F00E947E11BE
:1027B000C95ADF4FCDBFDEBFDF91CF91FF90EF90C1
:1027C000DF90CF9008959091F120891778F4E82F49
:1027D000F0E0EE0FFF1FE355FF4D80819181DC019A
:1027E000ED91FC910280F381E02D0994DB011C92B4
:1027F00081E008959091F120891778F4E82FF0E0B6
:10280000EE0FFF1FE355FF4D80819181DC01ED91BB
:10281000FC910190F081E02D099408958F929F9290
:10282000AF92BF92CF92DF92EF92FF920F931F93DE
:10283000CF93DF93EC010E946717182F882309F4C8
:10284000A9C1898580FDA6C163E4CE010E9458110B
:10285000882321F0809101228160E4C067E7CE01E6
:102860000E945811882389F18E85873008F492C11F
:102870008A899B899827892798276C01092E000C43
:10288000EE08FF080C899927402F50E0BE016B5ECF
:102890007F4F8E509F4D0E945F21D701C601800F50
:1028A000911DA11DB11D8111BFC0C701B6016627D1
:1028B0008827992720E031E042EF50E20E94991DDD
:1028C0008115914009F066C1AFC065E7CE010E9455
:1028D0005811882321F0809101228860A3C066E707
:1028E000CE010E945811882321F081E08F8781E179
:1028F0000EC068E6CE010E945811882359F0E0917D
:102900000222F09103228081909104229F87888B7C
:1029100082E00CC162E5CE010E945811882399F033
:102920008E85843009F036C10A89402F50E06889CD
:1029300079897627672776277061CE010F960E94E6
:102940005F210E87F4C065E4CE010E9458118823F0
:1029500009F451C0FA880B89802F86958695869553
:10296000902F977011F48C5F01C08B5F8E8785E686
:102970008F874E8550E04450510960E070E0CE01F1
:1029800043960E9468214F2D50E060E070E180E0A6
:1029900090E0202F30E0812C912C54018394281753
:1029A00039070CF4C4C0DB01E0E0F0E0E417F50700
:1029B000F4F40D910F3FC9F0FC01A3E0F595E79504
:1029C000AA95E1F73496EC0FFD1FDC01A770BB2739
:1029D0007501640104C0CC0CDD1CEE1CFF1CAA9523
:1029E000D2F7A785CA2AC78602C03196DFCF0196E3
:1029F000640F751FD4CF6BE4CE010E945811811172
:102A000015C06BECCE010E94581181110FC026C079
:102A100061E2CE010E945811882309F463C08091BD
:102A2000012284608093012281E082C0809105228E
:102A3000909106220097C1F301E02A89211101C07B
:102A400000E0DC01ED91FC910190F081E02D2989FD
:102A50004889BE01665F7F4F0995E6CF63E5CE01E9
:102A60000E945811882321F0BE016F5E7F4F58C02D
:102A700067E5CE010E9458118823F1F04A892E851E
:102A800030E0842F90E004962817390709F082C0BF
:102A900088899989982789279827BE01009719F076
:102AA0006D5E7F4F05C06C5E7F4F415081E090E0CE
:102AB00050E00E944C1DB8CF6EE6CE010E94581126
:102AC000882309F4A5CF6091072070910820809198
:102AD000092090910A20AE01415F5F4F0E940E11C4
:102AE0008AE024C069E6CE010E94581181119CCF72
:102AF00063E7CE010E945811811107C068E7CE013B
:102B00000E945811882309F445C06E8562507E01E9
:102B1000B1E1EB0EF11CA70188890E94FA13B701FD
:102B200088890E94E31399E69F878E5F8E8780E0F5
:102B30004D815E816F8178854F3F5F4F6F4F7F4F33
:102B400049F14A855B856C857D854D835E836F8306
:102B5000788740910720509108206091092070915A
:102B60000A204A875B876C877D8799859695937045
:102B7000882321F089E189871E8602C088E9898738
:102B80009370892F8295880F807E99859F79982BE5
:102B9000998701C010E0812FDF91CF911F910F9194
:102BA000FF90EF90DF90CF90BF90AF909F908F906D
:102BB00008950F931F93CF93DF93DC0190E09096DD
:102BC0002C919097921740F5FD01E90FF11DE90F47
:102BD000F11DEB010881198140815181041715070E
:102BE000C9F4892F422F50E041505109E82FF0E0FD
:102BF000E417F50754F4EE0FFF1FEA0FFB1FC28125
:102C0000D381C083D1838F5FF1CF915021509096B3
:102C10002C9390979F5FD3CFDF91CF911F910F910E
:102C200008951F93CF93DF9300D0CDB7DEB710E0A8
:102C300080912A221817A0F5E12FF0E0EE0FFF1F78
:102C4000E65FFD4D8081918189839A83FC014181FA
:102C5000528163817481452B462B472BF9F00196F5
:102C60000E94C21F672B682B692BC1F089819A8152
:102C70000E940318E981FA8180818C708C3081F484
:102C8000BE016F5F7F4F8AE092E20E94D91567E52F
:102C900070E089819A810E94B21702C01F5FC8CF7D
:102CA0000F900F90DF91CF911F9108958F929F9277
:102CB000AF92BF92DF92EF92FF920F931F93CF9349
:102CC000DF9300D0CDB7DEB77C01D12C80912A22D2
:102CD000D81608F060C0ED2DF0E0EE0FFF1FE65FA4
:102CE000FD4D0081118109831A83F801818580FDE2
:102CF00050C0F70181858770813071F0F8018685B9
:102D0000843009F046C087858B3409F042C0C70182
:102D10000E9461118823E9F191E0F8018284938493
:102D2000A484B584F7014581568167817085841636
:102D30009506A606B70609F090E081E0F8018580C7
:102D40009680A780B084F701428553856485758598
:102D500084169506A606B70609F080E08923C9F017
:102D6000F801918596959370F701818582958695F6
:102D7000837098130EC0BE016F5F7F4F8AE092E2AE
:102D80000E94D91567E570E089819A810E94B21787
:102D900002C0D3949BCF0F900F90DF91CF911F91E2
:102DA0000F91FF90EF90DF90BF90AF909F908F902A
:102DB00008950F931F93CF93DF93CDB7DEB7C75519
:102DC000D109CDBFDEBF80913B22882309F453C0D7
:102DD0009FB7F89480913B228823C1F0E0913C2278
:102DE00081E08E0F80933C22F0E0EE0FFF1FE55D47
:102DF000FD4D0081118180913C22877080933C229F
:102E000080913B22815080933B2202C000E010E081
:102E10009FBF0115110579F1C8010E94861788230B
:102E200051F0F80181858770813009F1C8010E9455
:102E3000611181111CC0F80181858770813089F092
:102E400087E5DE01119601900D928A95E1F7CE019A
:102E500001960E940E14882321F0CE0101960E9453
:102E6000031867E570E0C8010E94B21704C0C801EA
:102E70000E945616E0CFC95ADF4FCDBFDEBFDF91AB
:102E8000CF911F910F910895CF93C0E08091F120D1
:102E9000C817B0F4EC2FF0E0EE0FFF1FE355FF4D25
:102EA00080819181DC01ED91FC910480F581E02D20
:102EB0006C2F09950E94D9160E941116CF5FE6CF9C
:102EC0000E947D130E944012A895CF910895FC01A5
:102ED000208120FF17C045815681678170858091D0
:102EE000072090910820A0910920B0910A2048174E
:102EF00059076A077B0741F081E04F3F5F4F6F4FF3
:102F00007F4F19F080E0089581E0089521E0FC01F1
:102F100045815681678170858091072090910820B6
:102F2000A0910920B0910A20481759076A077B072A
:102F300009F020E0822F089521E0FC0142855385AD
:102F4000648575858091072090910820A0910920C3
:102F5000B0910A20481759076A077B0709F020E05B
:102F6000822F0895CF93CFB7F8940E943B1C809195
:102F70000922882319F0815080930922CFBFCF9175
:102F80000895DF92EF92FF920F931F93CF93DF93F9
:102F90007C01DFB6F894FC01C685C15FD0E0CE01AC
:102FA0000796887F0E943D1C8C01009749F0AE0176
:102FB000B7010E945F21809109228F5F80930922CF
:102FC000DFBEC801DF91CF911F910F91FF90EF906D
:102FD000DF900895FB0198E0408151819A01220F12
:102FE000331F87FD21602083318357FF08C0208174
:102FF000318142E0242740E1342720833183880F48
:10300000915051F708951F93CF93DF93EC010E94E5
:10301000071A182F888181FF13C0CE0105960E94E0
:1030200071016D837E838F839887CE010A960E94FB
:1030300071016A877B878C879D8788818D7F8883D4
:103040008881982F969596959F5F9370990F990F09
:10305000837F892B88830E94A01FDC01CB018A56C5
:103060009F4FAF4FBF4F89839A83AB83BC838985C2
:1030700080FD33C08D819E81AF81B8858F3F9F4F8A
:10308000AF4FBF4F51F1888186958695837081300F
:1030900021F580912A22803100F5CE010E94C117CE
:1030A0000097D9F0E0912A22AAE0B2E220E0E217EC
:1030B00039F04D915D918417950779F02F5FF7CF27
:1030C000E03158F421E02E0F20932A22F0E0EE0F99
:1030D000FF1FE65FFD4D80839183812FDF91CF91AC
:1030E0001F910895CF93DF93CDB7DEB76397CDBF20
:1030F000DEBFEBE2F2E28FEF828B118A108A8B8BBC
:103100001A8A198A10922A226396CDBFDEBFDF91F8
:10311000CF910895CF93DF93FC01208121FF13C04D
:10312000EC0105960E9471016D837E838F839887E1
:10313000CE010A960E9471016A877B878C879D87E2
:1031400088818D7F8883DF91CF910895CF93C82F99
:103150000E94A01F6093A3227093A4228093A522B3
:103160009093A62280919B22CC3F21F48160809392
:103170009B2279C0CD3FD1F482608E7F80939B22C9
:10318000109299228FEF9FEF80939722909398222D
:1031900080913E228E7F826080933E2210924C224C
:1031A00067E972E28DEF0E94EA175DC081FF5BC0A4
:1031B00080FF04C0C0688E7F80939B2267E972E223
:1031C0008C2F0E94EA1740919922E42FF0E0ED5BEA
:1031D000FD4DC083443049F480914722982F977069
:1031E0009330C9F183FF37C039C080914C224930F8
:1031F00041F4893498F180919B228D7F80939B22AA
:103200002DC050E060E070E090E0A0E0B0E00996F2
:10321000A11DB11D481759076A077B07F9F4809172
:10322000972290919822892BC9F48EE392E20E9412
:103230008A1880914C22825080934C2280919B224C
:103240008D7F80939B2280913E22816080933E22DD
:103250008EE392E20AC088E08093992280919922BD
:103260008F5F8093992280E090E0CF910895EF9254
:10327000FF920F931F93CF93DF93C0919C22D09125
:103280009D22209709F4B6C08C019091A0228091D4
:10329000A222911129C081FD27C082608093A222C1
:1032A0008FEF9FEF80939E2290939F22888181FDD4
:1032B00013C0CE0105960E9471016D837E838F83BA
:1032C0009887CE010A960E9471016A877B878C8756
:1032D0009D878881826088838DEFF80180836EE905
:1032E00072E20E94EA1781C081FF81C07E01F5E091
:1032F000EF0EF11CF701E90FF11D8081F8018083C9
:103300004091A022443049F48985982F97709330DA
:1033100009F472C083FF70C016C0493021F48E5F7B
:10332000F801808310C050E060E070E08E8590E08E
:10333000A0E0B0E00B96A11DB11D84179507A6076C
:10334000B70708F457C08091A22280FD40C06EE903
:1033500072E2F80180810E94EA174091A02250E0B9
:1033600060E070E08E8590E0A0E0B0E00996A11DDD
:10337000B11D481759076A077B07E1F46EE972E24D
:1033800080E00E94EA176EE972E280E00E94EA178C
:103390008091A0228F5FF701E80FF11D80919F229D
:1033A00080838091A0228E5FF701E80FF11D80914C
:1033B0009E228083F80180818C5F833088F4809125
:1033C000A22281608093A2228CEF80830EC0F8013C
:1033D00080818F7780838091A2228E7F8093A2222A
:1033E0008091A0228F5F8093A02281E009C0CE014E
:1033F0000E948A1880E004C088E08093A022A3CFB6
:10340000DF91CF911F910F91FF90EF900895EF9270
:10341000FF921F93CF93DF931F92CDB7DEB77C014E
:103420008091A8229091A922892B81F083EA92E2CF
:103430000E94C21F683071058105910548F4D701CB
:1034400019968C918770813089F702C081E06FC036
:10345000E0929C22F0929D221092A0228091A222C2
:103460008D7F8093A222D70119968C9180FD06C092
:10347000F7019081969596959370B1F18091A8226D
:103480009091A922DC01ED91FC910190F081E02D59
:1034900061E0099510E0CE0101960E943719A091D4
:1034A000A822B091A922882389F089811296ED91F2
:1034B000FC911397948193FD05C012E0ECCF9481A9
:1034C00093FF1BC0918195FFFACF17C01296ED9123
:1034D000FC911397818180648183818186FD0FC077
:1034E000848183FF0CC0F9CF9091A7229370990F2C
:1034F000897F892BF7018187C1CF8083CCCFED9164
:10350000FC9111970190F081E02D60E0CD010995CB
:1035100011110AC0F701818580FD08C08091A722A2
:103520008F5F8093A72202C0812F01C080E00F909F
:10353000DF91CF911F91FF90EF9008951092A322F9
:103540001092A4221092A5221092A6220E94A01FDF
:1035500087E5EEE3F2E2DF011D928A95E9F708952F
:103560000F931F93CF93DF931F92CDB7DEB78C01DC
:103570006983CE0101960E945C1EF80180838981D7
:1035800082958F700E94CA1DF801818392833081D9
:103590002FB7F8943093B00038E1FC01308B2FBF87
:1035A0000F90DF91CF911F910F910895FC018081C1
:1035B000A181B28116968C938081A181B2811196EE
:1035C0008C938FEB92E10197F1F700C000002FB7C9
:1035D000F8948081A181B28112968C93AFE0B2E021
:1035E0001197F1F700C000008081A181B281189687
:1035F0003C91AFEEBCE01197F1F700C00000A18153
:10360000B28118964C919081942311F0832301C0CC
:1036100081E02FBF0895FC01862F2FB7F894908189
:10362000A181B28111969C9395E19A95F1F70000E2
:10363000662329F09081A181B28112969C93A0E823
:10364000AA95F1F7A181B28118963C9190819323BC
:1036500009F480E0A7E6B1E01197F1F700C000009F
:1036600090810180F281E02D9283BAE6BA95F1F75C
:1036700000C02FBF08950F931F93CF93DF938C014A
:10368000C62FD8E06C2F6170C8010E940B1B2C2F35
:1036900030E035952795C22F8111C068D15091F740
:1036A0008C2FDF91CF911F910F910895BF92CF92F0
:1036B000DF92EF92FF920F931F93CF93DF937C01E2
:1036C000C62E8A010E94D61A81113BC060EFC70145
:1036D0000E943B1BD0E0C0E498EFB92EBC0E61E025
:1036E000C7010E940B1BD82E61E0C7010E940B1B73
:1036F000882319F0DD2071F026C0D1100BC0CC1545
:1037000030F0F801808180FF05C0CC1519F0DC2F66
:10371000DD24D3946D2DC7010E940B1BF80120817D
:1037200030E035952795DD2011F02068F8012083E1
:10373000C150CB11D4CF0F5F1F4FC111CDCF8D2FF3
:1037400003C08FEF01C08EEFDF91CF911F910F91DA
:10375000FF90EF90DF90CF90BF900895CF92DF92CF
:10376000FF920F931F93CF93DF93EC01F62E8A0104
:103770000E94D61A0115110591F065E5CE010E944F
:103780003B1B680188E0C80ED11CF80161918F01D4
:10379000CE010E943B1B0C151D05B9F704C06CEC53
:1037A000CE010E943B1B6F2DCE01DF91CF911F9167
:1037B0000F91FF90DF90CF900C943B1BCF93FC01B7
:1037C000680F791F2CEB31E652ECADE9B3E2C6E4A9
:1037D0008CE8E617F707B9F09191942790FF02C0A3
:1037E0004EE501C040E091FD422792FD432793FD45
:1037F000452794FD4A2795FD4B2796FD4C2797FFBB
:10380000E8CF4827E6CF842FCF91089508951F93DE
:10381000CF93DF93EC010E945C1E182F8881829564
:103820008F700E94CA1DFC011683DF91CF911F91FA
:1038300008951F93CF93DF93EC010E945C1E182F15
:10384000888182958F700E94CA1DFC011583DF91CB
:10385000CF911F910895009769F020910B2030912E
:103860000C2042E2883C9407E0F382179307C8F7E4
:103870000C94D62008950C942B1CCF93DF93EC016D
:103880000E943E2020910B2030910C2042E2883C87
:103890009407E0F382179307C8F72197C80FD91F41
:1038A00042E2C83CD407E0F3C217D307C8F7DF9160
:1038B000CF9108950C943D1CCF93DF93E0ECF1E0A1
:1038C00032852FB7F8948287A8E4B0E05C919C9190
:1038D0008C91809589238C93C0EAD0E048819A81AD
:1038E0008A81887F84608A838C9181608C938585AE
:1038F00068ED64BF61E0638763E0658778948895CD
:103900005C9348839A83858732872FBFDF91CF915D
:1039100008950E946E118091CF0181FF03C086E35C
:103920000C945C1C0895CF93DF93D82FC091CA01EB
:103930000E94891C0E946E1183E38093CA01109239
:10394000C2011092C10180E08093C001D093C401F4
:103950008F5F8032C9F7C093CA01DF91CF9108957C
:103960008F929F92AF92BF92CF92DF92EF92FF928F
:103970000F931F93CF93DF938C015B017A019051DA
:103980008115944018F080E090E034C0CA01905155
:10399000800F911F81159440B0F7C12CD12C80E28B
:1039A000982EE114F10429F1802E802F8F71C92DFA
:1039B000C81B8C2F90E0E816F90608F4CE2D0E9463
:1039C000891CD0E0AE01B501C8010E945F211092B0
:1039D000C2011093C1018092C00185E30E945C1C6A
:1039E000AC0EBD1EEC1AFD0ACC0EDD1E0C0F1D1F09
:1039F000D8CFC601DF91CF911F910F91FF90EF902B
:103A0000DF90CF90BF90AF909F908F900895FF92DE
:103A10000F931F93CF93DF931F92CDB7DEB78C0127
:103A200069838091CC0183FF11C0011580E11807E3
:103A300008F4105F41E050E0BE016F5F7F4FC801A6
:103A40000E94B01C21E0892BF9F404C0011584E028
:103A5000180710F020E018C0F090CA010E94891CDD
:103A60000E946E1183E38093CA011092C2011093E9
:103A7000C1010093C00189818093C40185E30E9444
:103A80005C1CF092CA0121E0822F0F90DF91CF9150
:103A90001F910F91FF900895EF92FF920F931F9344
:103AA000CF93DF938A012091CC0123FF0EC08115B3
:103AB00020E1920708F4905FA801DF91CF911F9158
:103AC0000F91FF90EF900C94B01C7B01EC01C61B92
:103AD000D70BCE018E0D9F1D0115110551F0F70179
:103AE00061917F010E94071D882331F00150110967
:103AF000F0CF80E090E001C0C801DF91CF911F912D
:103B00000F91FF90EF9008951F920F920FB60F92B2
:103B100011248F93EF93FF93E0ECF1E085858C7F88
:103B20008587FF91EF918F910F900FBE0F901F909F
:103B30001895CF92DF92EF92FF92CF93DF936111AE
:103B40000DC06B017C01C20ED31EE11CF11CE1E033
:103B5000CE16E0E9DE06E104F10418F080E090E022
:103B600012C0E9016B017C01CA010E94DC1D809139
:103B7000CF0187FDFCCF45E2C701B6010E94DC47BB
:103B80001092CA01CE01DF91CF91FF90EF90DF90AC
:103B9000CF9008958D3048F4E82FF0E0EE0FFF1F2E
:103BA000EB57FF4D8081918108958AEA92E2089552
:103BB0008FEF8093B2220895CF92DF92EF92FF921F
:103BC000CF93DF937C010E946E1146E260E070E0CB
:103BD000CB010E94DC47E701C12CD12C7601888102
:103BE000498150E0542F4427480F511DC701B601A9
:103BF0000E94EB47229682E0C80ED11CE11CF11C0A
:103C0000C11481E0D806E104F10449F7DF91CF91B6
:103C1000FF90EF90DF90CF900895833029F08430AB
:103C200051F0823029F003C080E099E00895FFCF81
:103C300080E098E0089580E09AE00895823041F0B5
:103C4000833019F480E499E0089580E090E00895CD
:103C500080E498E008956295607F4F70642BFC01CA
:103C600060830895CF93DF93FC018081982F9F702C
:103C7000C1E0D0E001C0CC0F9A95EAF782958F7031
:103C80000E94CA1DFC01C283DF91CF910895CF939A
:103C9000DF93FC018081982F9F70C1E0D0E001C0CC
:103CA000CC0F9A95EAF782958F700E94CA1DFC018D
:103CB000C183DF91CF910895FC0190819F7081E0D5
:103CC00001C0880F9A95EAF70895CF93DF93EC012E
:103CD000888182958F700E94CA1DFC0130852881E1
:103CE0002F7081E090E001C0880F2A95EAF78323C6
:103CF000DF91CF910895FC018081282F2F7030E053
:103D00002430310524F482958F700C940D1E80E0D0
:103D100090E00895FC0180819CE0980F9F709230A4
:103D200020F482958F700C941E1E80E090E0089520
:103D3000CF92DF92EF92FF921F93CF93DF936C01AC
:103D4000142F79010E942B1EC6010E94471EC60136
:103D50000E947B1EEC01C6010E948A1EFC01209776
:103D6000B1F08881807F816088838981887F8360CA
:103D70008983EEA2FFA229811C5F81E090E001C04F
:103D8000880F1A95EAF7807F822B898316C0892BCA
:103D9000A1F08081807F816080838181887F8360C2
:103DA0008183E6A2F7A2218181E090E001C0880F23
:103DB0001A95EAF78073822B8183DF91CF911F914F
:103DC000FF90EF90DF90CF9008950F931F93CF93C4
:103DD000DF938C010E947B1EEC01C8010E948A1EA9
:103DE0002097A1F0F80180818F7019F488A599A51A
:103DF0001DC0813019F48AA59BA518C0823019F422
:103E00008CA59DA513C08EA59FA510C0009761F03D
:103E1000F80120812F70FC01243019F480A591A5B0
:103E200005C082A593A502C080E090E0DF91CF910C
:103E30001F910F910895EF92FF920F931F93CF93CD
:103E4000DF937C01EB010E947B1E8C01C7010E9465
:103E50008A1E0115110579F0F70180818F70F80134
:103E600091F0813099F0823019F4C4AFD5AF10C011
:103E7000C6AFD7AF0DC0009759F0F70120812F7062
:103E8000FC01243019F4C0AFD1AF02C0C2AFD3AF30
:103E9000DF91CF911F910F91FF90EF900895909136
:103EA000010490FDFCCF90910004987F892B8093B2
:103EB000000408951F93CF93DF93182FEB0180E048
:103EC0000E944F1F809143008E7F809343001530E6
:103ED00031F4C115D04219F483E09EE002C081E0C4
:103EE00094E020914300217F2160922B9093430026
:103EF00020910804309109043C5F409108045091DE
:103F000009049091010490FDFCCF6FEF7FEF609367
:103F10000A0470930B049091010490FDFCCF409330
:103F20000804509309049091010490FDFCCF209364
:103F30000C0430930D04DF91CF911F910C944F1F0F
:103F400031E02FB7F8944091030440FF0CC040913A
:103F5000C2225091C3224F5F5F4F4093C2225093C1
:103F6000C322309303044091080450910904BA011C
:103F70002FBF2091030420FDE4CF8091C2229091B5
:103F8000C3220895CF92DF92EF92FF920F931F9377
:103F9000CF93DF93EC010E94A01F088119812A8131
:103FA0003B816B017C01C01AD10AE20AF30A601757
:103FB00071078207930760F4C701B6016150710968
:103FC0008109910997FF06C060E070E0CB0102C053
:103FD000C701B601DF91CF911F910F91FF90EF9034
:103FE000DF90CF900895AA1BBB1B51E107C0AA1F09
:103FF000BB1FA617B70710F0A61BB70B881F991F8A
:104000005A95A9F780959095BC01CD010895A1E23C
:104010001A2EAA1BBB1BFD010DC0AA1FBB1FEE1F42
:10402000FF1FA217B307E407F50720F0A21BB30B8D
:10403000E40BF50B661F771F881F991F1A9469F709
:1040400060957095809590959B01AC01BD01CF0165
:104050000895A29FB001B39FC001A39F700D811D61
:104060001124911DB29F700D811D1124911D089581
:10407000EE0FFF1F0590F491E02D09940F931F930D
:10408000CF93DF938230910510F482E090E0E091CD
:10409000C622F091C72220E030E0A0E0B0E03097E7
:1040A00019F1408151810281138148175907C8F0E5
:1040B0008417950769F4109731F012960C931297B4
:1040C00013961C9327C00093C6221093C72222C0C8
:1040D0002115310519F04217530718F49A01BD0153
:1040E000EF01DF01F801DBCF21153105F9F0281BC5
:1040F000390B2430310580F48A819B81611571056B
:1041000021F0FB018283938304C08093C6229093A5
:10411000C722FE01329644C0FE01E20FF31F8193D5
:10412000919322503109288339833AC02091C422C7
:104130003091C522232B41F420910220309103209D
:104140002093C4223093C522209100203091012079
:104150002115310541F42DB73EB74091042050910F
:104160000520241B350BE091C422F091C522E217F3
:10417000F307A0F42E1B3F0B2817390778F0AC018A
:104180004E5F5F4F2417350748F04E0F5F1F409377
:10419000C4225093C5228193919302C0E0E0F0E0E5
:1041A000CF01DF91CF911F910F910895CF93DF93AE
:1041B000009709F481C0FC01329712821382A0910A
:1041C000C622B091C722109781F420813181820FDD
:1041D000931F2091C4223091C5222817390751F529
:1041E000E093C422F093C52267C0ED0120E030E0E7
:1041F000CE17DF0740F44A815B819E0141155105CE
:10420000F1F0EA01F5CFC283D38340815181840F5D
:10421000951FC817D90759F488819981840F951F74
:104220000296808391838A819B8182839383211567
:10423000310529F4E093C622F093C7223DC0E9017D
:10424000EA83FB8349915991C40FD51FEC17FD07F1
:1042500061F480819181840F951F0296E901888322
:104260009983828193818A839B83E0E0F0E01296B8
:104270008D919C911397009719F0FD01DC01F7CF08
:104280008D919C9111979D012E5F3F4F820F931F3F
:104290002091C4223091C5222817390769F430973C
:1042A00029F41092C6221092C72202C012821382F1
:1042B000A093C422B093C522DF91CF910895FB0152
:1042C000DC0102C001900D9241505040D8F7089592
:1042D000DC0101C06D9341505040E0F7089503D0D8
:1042E000808199270895E0ECF1E0378537FDFDCF17
:1042F000348538603487FC01E050F04F0895262F54
:10430000E0ECF1E0378537FDFDCF3485377F34872A
:10431000378531FF09C036E3328738ED34BF31E0ED
:104320003387378537FDFDCF33E332878083918331
:104330001282248325E3228728ED31E024BF3387CE
:0843400001960895F894FFCFE7
:104348000000C822200001003D8F60C82ACC00C8A8
:104358000202FFCC00C80505FF00000000C203BF31
:10436800039201D80200000000C203BF039201D8E3
:104378000200000000061C061C5B035D0300000031
:1043880000C203BF039201D802000000006706BB09
:10439800056D07C10500000000F4109608AE0AA0DC
:1043A8000800000000F410F510840E490F0000000A
:1043B80000680F00000000201000000000F410F555
:1043C80010F710F81000062006400660068006AABE
:1043D80022AA22AA22AA22AA22AA22AA22E0070004
:00000001FF
