:200000000C943D010C94AC010C94AC010C94AC010C94AC010C94AC010C94AC010C94AC01E7
:200020000C94AC010C94AC010C94AC010C94AC010C94AC010C94AC010C94AC010C94AC0158
:200040000C94AC010C94AC010C94AC010C94AC010C94AC010C94AC010C94AC010C94AC0138
:200060000C94AC010C94AC010C94AC010C94AC010C94AC010C94AC010C94AC010C94AC0118
:200080000C94161A0C94AC010C94AC010C94AC010C94AC010C94AC010C94AC010C94AC0175
:2000A0000C94AC010C94AC010C94AC010C9405030C94AC010C94AC010C94AC010C94AC017D
:2000C0000C94AC010C94AC010C94AC010C94AC010C94AC010C94AC010C94AC010C94AC01B8
:2000E0000C94AC010C94AC010C94AD020C94AC010C94AC010C94AC010C94AC010C94AC0196
:200100000C94AC010C94AC010C942B050C94AC010C94AC010C94AC010C94AC010C94AC01F4
:200120000C94AC010C94AC010C94AC010C94AC010C94AC010C94AC010C94AC010C94AC0157
:200140000C94AC010C94AC010C94AC010C9463050C94AC010C94AC010C94AC010C94AC017C
:200160000C94AC010C94AC010C94AC010C94AC010C94AC010C94AC010C94AC010C94AC0117
:200180000C94AC010C94AC010C94AC010C94AC010C94AC010C94AC010C94AC010C94AC01F7
:2001A0000C94AC010C94AC010C94AC010C94AC010C94AC010C94AC010C94AC010C94AC01D7
:2001C0000C94AC010C94AC010C94AC010C94AC010C94AC010C94AC010C94AC010C94AC01B7
:2001E0000C94AC010C94AC010C94AC010C94AC010C94AC010C94AC010C94AC01244D4F44E0
:2002000024204842572D444556202000C83E00000207B0E507020C94CD150C9442030C94B9
:200220009D180C9411180C9451100C9458030C9497020C94DE050C9423180C945B030C940F
:20024000DA050C94AE0F0C94DB050C9499020C94DD050C943A030C94FA100C94B80C0C949A
:2002600051030C943D1A0C9427110C943B130C9431113A03CD1511183D1A11241FBECFEF1C
:20028000CDBFDFE5DEBF00E00CBF80E08CBF67E280E890E00E948E028091820080FDFCCFED
:2002A00060E081E490E00E948E02809150008660809350008091510086708630D9F760917E
:2002C0004000687F616080E490E00E948E0280914000809150008E7F8093500080915000AD
:2002E0008091600081608093600010E2A0E0B0E2EAE5FEE300E00BBF02C007900D92AE36FF
:20030000B107D9F721E2AEE6B0E201C01D92A339B207E1F7E3E9F1E288E491E38193E339A0
:20032000F907E0F383E590E68193E030F907E0F311E0CDE3D1E000E006C021970109802FAC
:20034000FE010E94711DC933D10780E00807A9F70E9443020C942B1F0C940000CF93FC01BB
:20036000680F791F2CEB31E652ECADE9B3E2C6E48CE8E617F707B9F09191942790FF02C0E7
:200380004EE501C040E091FD422792FD432793FD452794FD4A2795FD4B2796FD4C2797FFBB
:2003A000E8CF4827E6CF842FCF910895FC01638172818181908108950F931F93CF93DF9306
:2003C00000D01F92CDB7DEB76115710509F453C0DB01182F6093CC207093CD20609373210E
:2003E000709374211296ED91FC911397178287E6868383E2858388E184831296ED91FC9169
:20040000139793819F7C906193839091CE2091609093CE20ED91FC910280F381E02DCB0111
:2004200019951093D1208093CF209093D020FC0186819781A085B18589839A83AB83BC8358
:20044000CE0101960E94D6018B019C011D532F483046003816492849310540F460930A20A8
:2004600070930B2080930C2090930D208091CE2082608093CE202496CDBFDEBFDF91CF912A
:200480001F910F910895CF93DF93CDB7DEB76897CDBFDEBF60E074E082E00E94EF1C8091A6
:2004A000CF0187FDFCCF8091CC0188608093CC0148E150E0BE016F5F7F4F80E090E00E9451
:2004C000411A489711F080EB8F8B8F890E9499058C01BC018F890E94DC01D801ED91FC913F
:2004E0000280F381E02DC8011995FC01868197810E94E91E8091A2008F7B9FB7F8941BBE45
:2005000028ED24BF8093A2009FBF8091A20087608093A20078940E94950CFDCFFC019FB713
:20052000F8941BBE88ED84BF60839FBF089580E00895089525E130E2FC012083318320EAB0
:200540003AE022833383E0E8F6E081858C7F8160818782858460828708951F920F920FB6E6
:200560000F9211240BB60F922F933F934F935F936F937F938F939F93AF93BF93EF93FF93CB
:200580008091A00A0E940116009761F10E94F714811123C089E091E20E941C159C01892BDC
:2005A000E1F0809106218830C1F0909108219F5F9093082190910821977090930821909177
:2005C00006219F5F90930621E0910821F0E0EE0FFF1FEA50FF4D2083318380918A068460C5
:2005E00080938A06FF91EF91BF91AF919F918F917F916F915F914F913F912F910F900BBE90
:200600000F900FBE0F901F9018951F920F920FB60F9211240BB60F922F933F934F935F93BC
:200620006F937F938F939F93AF93BF93EF93FF930E949C1C60936E2170936F218093702197
:2006400090937121E0E8F6E082858B7F8287FF91EF91BF91AF919F918F917F916F915F913D
:200660004F913F912F910F900BBE0F900FBE0F901F901895E0E8F6E084E0828388E08283C7
:200680008183089580E2662331F08093050682E08093E50708958093060682E08093E60710
:2006A0000895809188068095881F8827881F089580E090E10895CF93C62F80916E20811159
:2006C0000DC00E949C1C6093762070937720809378209093792081E080936E20C53048F436
:2006E000C23070F4CC2341F0C13051F5C093E50727C0C53079F024C081E08093E60720C0A4
:2007000086E790E20E94BE1C653F714081059105B8F009C086E790E20E94BE1C693C710526
:200720008105910568F081E08093E7070E949C1C60937620709377208093782090937920FF
:20074000CF9108950F931F93CF93DF9361E083E00E94791AEC018B81807189688B838981A8
:20076000887F89838FEF9FEF8EA39FA380E590E088AF99AF8CED8093800160E082E00E9442
:20078000791AFC018181887F83608183838180718868838308E210EA06A317A360E083E004
:2007A0000E94791AFC018181887F83608183838180718868838306A317A380E00E942F1A7E
:2007C000FC018FB7F89490E89093B00099E1908B8FBF82858068828787E58093810184E0BF
:2007E00089878881807F866088838E818C7F81608E8381858C7F82608187DF91CF911F9169
:200800000F910895EF92FF920F931F93CF93DF931F921F92CDB7DEB77C010E949A0281E2C8
:2008200090E2F7018083918343E060E0CE0101960E94A51A43E062E0CE0102960E94A51AE0
:200840000DEC20E130E149816A81C70104960E94E40C42E060E0CE0101960E94A51A42E099
:2008600062E0CE0102960E94A51A22E130E149816A81C70181960E94E40C41E060E0CE0104
:2008800001960E94A51A41E062E0CE0102960E94A51A24E130E149816A81C701CE960E949C
:2008A000E40C40E060E0CE0101960E94A51A40E062E0CE0102960E94A51A26E130E1498115
:2008C0006A81C701855A9F4F0E94E40C43E061E0CE0101960E94A51A43E063E0CE0102960E
:2008E0000E94A51A28E130E149816A81C70188589F4F0E94E40C42E061E0CE0101960E9435
:20090000A51A42E063E0CE0102960E94A51A2AE130E149816A81C7018B569F4F0E94E40CF1
:2009200041E061E0CE0101960E94A51A41E063E0CE0102960E94A51A2CE130E149816A818F
:20094000C7018E549F4F0E94E40C40E061E0CE0101960E94A51A40E063E0CE0102960E94D9
:20096000A51A2EE130E149816A81C70181539F4F0E94E40C44E064E0CE0101960E94A51A98
:20098000870104511F4F6981C8010E94DF1A40EE56E1B801C70181519F4F0E942D1246EE03
:2009A00056E1B801C701825F9E4F0E942D124CEE56E1B801C701835D9E4F0E942D1242EFFF
:2009C00056E1B801C701845B9E4F0E942D1248EF56E1B801C70185599E4F0E942D124EEFDA
:2009E00056E1B801C70186579E4F0E942D12E0E0F6E080E28283818380E48283818300EE38
:200A000017E082E0F8018283818381E08283818380E88093820640E250E160E2C7018255DA
:200A20009E4F0E949018F80180898064808BE7E9F6E08081877C8083808188618083C7012C
:200A40000E94A2030F900F90DF91CF911F910F91FF90EF9008951F920F920FB60F92112459
:200A60000BB60F922F933F934F935F936F937F938F939F93AF93BF93EF93FF9360E082E0FA
:200A80000E94791AFC019081907F9460908360E083E00E94791AFC019081907F9460908301
:200AA000FF91EF91BF91AF919F918F917F916F915F914F913F912F910F900BBE0F900FBE02
:200AC0000F901F9018951F920F920FB60F9211240BB60F922F933F934F935F936F937F9350
:200AE0008F939F93AF93BF93EF93FF9360E082E00E94791AFC019081907F908360E083E050
:200B00000E94791AFC019081907F9083FF91EF91BF91AF919F918F917F916F915F914F91A0
:200B20003F912F910F900BBE0F900FBE0F901F9018950F931F93CF93DF931F92CDB7DEB764
:200B4000182F809100108F3F51F4198241E050E0BE016F5F7F4F80E090E10E94DE19183B16
:200B600021F480910010882359F08091CF0187FDFCCF40E260E070E0CB010F94DE8FFFCFBF
:200B800083EB91E00E94F1188C010E940204C8010F90DF91CF911F910F910895CF93DF939D
:200BA000EC010E949C1C688379838A839B83DF91CF910895089580E0089508950895DC01BE
:200BC0008DE290E28D939C93119712961C921297E091BE201396EC93139788EE93E014968A
:200BE0008D939C93159781E08E0F8093BE20F0E0EE0FFF1FE658FF4DA083B18308959B0106
:200C00003F7364E0769F612D772711246130710509F158F06230710511F5D90120E030EA1D
:200C20004FE050E00E94661D0895C901A0E0B0E0BC01CD012AE0660F771F881F991F2A95FB
:200C4000D1F72AE030E040E050E00E94351DCA01B9010895A0E0B0EF0E94571D089560E03A
:200C600070E0CB0108958F929F92AF92BF92CF92DF92EF92FF920F931F93CF93DF936B015F
:200C80007C01FA0188E4808382E4818387E582838A01065F1F4FEA0123968AE0882E912CB3
:200CA000A12CB12C0C171D0791F0C701B601A50194010E94351D605DF80162938F01C11404
:200CC000D104E104F10471F369017A01EBCFDF91CF911F910F91FF90EF90DF90CF90BF9017
:200CE000AF909F908F900895CF93DF93EC0101960E94CE0587E5FE0111928A95E9F7DF9180
:200D0000CF910895FC01808180FF03C081E09785961380E00895FC01818580FD07C0868521
:200D2000823020F081E09785993609F080E008958091CF0187FDFCCF0895CF92DF92EF928F
:200D4000FF920F931F93CF93DF93CDB7DEB7C755D109CDBFDEBF8091CE2081FF53C00E946E
:200D6000E51E182F0FB7F8948EE691E20E94BE1C0FBF212F2F70295F022F10E020E030E0FE
:200D80000617170728073907E8F5E091CF20F091D02010810091D120C0900A20D0900B20E3
:200DA000E0900C20F0900D20CE0101960E947406CB86DC86ED86FE868FEF9FEFDC018E83C4
:200DC0009F83A887B98788EF8A8781E4888B198A0A8B1B8B82E08C8B87E08D8BAE014A5E55
:200DE0005F4FC701B6010E94330680E18F87CE0101960E945E15811105C08091CE208D7F97
:200E00008093CE20C95ADF4FCDBFDEBFDF91CF911F910F91FF90EF90DF90CF900895CF925D
:200E2000DF92EF92FF920F931F93CF93DF93CDB7DEB72597CDBFDEBFE091CF20F091D02038
:200E40001081C680D780E084F1840091CC010E9498068091CC01877F8093CC018FEF0E9409
:200E60002E190E94980680E30E94F31803FF07C00E9498068091CC0188608093CC0180911B
:200E8000CF209091D0201D8341E050E0BE016B5F7F4F0E94DE198091CF209091D020C98215
:200EA000DA82EB82FC8244E050E0BE016F5F7F4F06960E94DE198091CE2084608093CE2023
:200EC0002596CDBFDEBFDF91CF911F910F91FF90EF90DF90CF9008951F93CF93DF9300D03F
:200EE0001F92CDB7DEB78091CC209091CD20892B09F4BAC08091C420811107C080EC90E2C6
:200F00000E94CE0581E08093C4208091CC209091CD20DC01ED91FC910480F581E02D19955C
:200F2000182F8091BF20823009F441C028F4882361F0813001F18BC0843009F46AC008F4ED
:200F400051C0853009F47DC082C0112319F081E08093BF20CE0101960E94CE0589819A81BF
:200F6000AB81BC818093C0209093C120A093C220B093C3206CC080EC90E2112351F00E94B5
:200F8000BE1C693873418105910508F460C082E055C00E94BE1C653671058105910508F4CE
:200FA00054C08091CE2082608093CE204EC011114EC083E08093BF20CE0101960E94CE05CD
:200FC00089819A81AB81BC818093C0209093C120A093C220B093C3208091CE20806280935D
:200FE000CE2035C080EC90E20E94BE1C643671058105910560F1112311F084E0A9CF80ECBA
:2010000090E20E94BE1C6938734181059105E8F41EC080EC90E20E94BE1C643671058105C7
:201020009105A8F0112389F080EC90E20E94BE1C693B7B408105910550F085E08093BF2069
:2010400006C0111104C00E940F071092BF208091CC209091CD20DC01ED91FC910680F781BA
:20106000E02D6091BF2019952496CDBFDEBFDF91CF911F9108950F931F93CF93DF9300D0ED
:201080001F92CDB7DEB7E091CF20F091D02086819781A085B18589839A83AB83BC83CE01D6
:2010A00001960E94D60100910A2010910B2020910C2030910D206017710782079307B9F013
:2010C0008B019C011D532F483046003816492849310540F460930A2070930B2080930C208E
:2010E00090930D208091CE2082608093CE20E091CF20F091D02091819253993CB0F410E08D
:201100008091BE201817E8F4E12FF0E0EE0FFF1FE658FF4D80819181DC01ED91FC910680CF
:20112000F781E02D19951F5FEBCF82E3898341E050E0BE016F5F7F4FCF0101960E94DE1927
:20114000DECF2496CDBFDEBFDF91CF911F910F910895CF92DF92EF92FF92CF93DF93CDB706
:20116000DEB7C755D109CDBFDEBF8091CE2080FF07C00E943B088091CE208E7F8093CE2084
:201180008091CE2083FF09C08FB7F8941BBE98ED94BF91E0909379008FBF8091CE2082FFA7
:2011A0000FC0A8958FB7F8941BBE98ED94BF9BE1909380008FBF8091820080FDFCCFFFCF8A
:2011C00085FF27C0C0900A20D0900B20E0900C20F0900D20CE0101960E947406CB86DC8621
:2011E000ED86FE8682E090E0A0E0B0E08E839F83A887B98788EF8A8783E2888B81E08F87FD
:20120000CE0101960E945E158091CE208F7D8093CE200E949C1C6D3D75408105910510F072
:201220000E949D06C95ADF4FCDBFDEBFDF91CF91FF90EF90DF90CF9008959091BE20891707
:2012400078F4E82FF0E0EE0FFF1FE658FF4D80819181DC01ED91FC910280F381E02D1994EB
:20126000DB011C9281E008959091BE20891778F4E82FF0E0EE0FFF1FE658FF4D808191813C
:20128000DC01ED91FC910190F081E02D19940895DF92EF92FF920F931F93CF93DF93EC0175
:2012A0000E94C214D82E811102C0D12CC8C1898580FDFBCF65E7CE010E948206882321F080
:2012C0008091CE208860B7C062E5CE010E948206882391F08E85843041F71A89412F50E002
:2012E000688979897627672776277061CE010F960E94F41E1E87A1C163E4CE010E948206F3
:20130000882321F08091CE20816095C066E7CE010E948206882389F080910A2090910B20EB
:20132000A0910C20B0910D208D839E83AF83B88782E08F8797E0988B69C168E6CE010E9445
:201340008206882359F0E091CF20F091D02080819091D1209F87888B82E058C165E4CE0161
:201360000E948206882309F44FC00A891B89812F869586958695912F977011F48C5F01C0DC
:201380008B5F8E8785E68F874E8550E04450510960E070E0CE0143960E94FD1E402F50E048
:2013A00060E070E180E090E0212F30E001E010E0281739070CF441C1DB01E0E0F0E0E417B3
:2013C000F507F4F4FD90EE24EA94FE14B9F0FC01A3E0F595E795AA95E1F73496EC0FFD1FD3
:2013E000DC01A770BB27780102C0EE0CFF1CAA95E2F7D701B785AB2BA78702C03196DFCF60
:201400000196640F751FD4CF6BE4CE010E9482068111BDC06BECCE010E9482068111B7C0DB
:201420005FC061E2CE010E948206882309F49CC08091CE2084608093CE2011E08D819E814B
:20144000AF81B8858F3F9F4FAF4FBF4F09F42DCF8091CE2086FF07C065E7CE010E948206CE
:20146000882309F422CF2985822F8770833021F023FB222720F901C020E08A859B85AC8518
:20148000BD858D839E83AF83B88780910A2090910B20A0910C20B0910D208A879B87AC87B0
:2014A000BD87898586958370112321F099E199871E8602C098E999878370982F9295990F5D
:2014C000907E89858F79892B8987211102C0877F898781E02827888120FB84F98883AFC04F
:2014E00063E5CE010E948206882321F0BE016F5E7F4F86C067E5CE010E9482068823F1F07E
:201500004A892E8530E0842F90E004962817390709F0CBCE88899989982789279827BE0147
:20152000009719F06D5E7F4F05C06C5E7F4F415081E090E050E00E94DE197FCF6EE6CE0179
:201540000E948206882309F46CCF60910A2070910B2080910C2090910D20AE01415F5F4FAF
:201560000E9433068AE052C069E6CE010E948206811163CF63E7CE010E948206811135C03E
:2015800068E7CE010E94820681112FC041C09A89892F8370833051F04D815E816F81788525
:2015A0004F3F5F4F6F4F7F4F09F447CFA091D220B091D320109709F440CFE92EF12CF59489
:2015C000E794F594E79401E0833009F000E0ED91FC9111970190F081E02D29894889BE011B
:2015E000665F7F4FCD01199528CF6E8562507E0181E1E80EF11CA70188890E943409B7010C
:2016000088890E941D0999E69F878E5F8E8715C06AE7CE010E948206882321F08091CE2070
:20162000806409CF6AE5CE010E948206882309F43CCE8091CE208F7BFECE10E0FFCE8D2DA8
:20164000DF91CF911F910F91FF90EF90DF9008950F931F93CF93DF93DC0190E090962C91F8
:201660009097921740F5FD01E90FF11DE90FF11DEB01088119814081518104171507C9F4C5
:20168000892F422F50E041505109E82FF0E0E417F50754F4EE0FFF1FEA0FFB1FC281D3811B
:2016A000C083D1838F5FF1CF9150215090962C9390979F5FD3CFDF91CF911F910F9108952A
:2016C0001F93CF93DF931F921F92CDB7DEB710E08091F5201817A0F5E12FF0E0EE0FFF1F34
:2016E000EB52FF4D8081918189839A83FC014181528163817481452B462B472BF9F00196E7
:201700000E94BE1C672B682B692BC1F089819A810E945E15E981FA8180818C708C3081F496
:20172000BE016F5F7F4F85ED90E20E94280B67E570E089819A810E940D1502C01F5FC8CF39
:201740000F900F90DF91CF911F9108958F929F92AF92BF92DF92EF92FF920F931F93CF9311
:20176000DF931F921F92CDB7DEB77C01D12C8091F520D81608F060C0ED2DF0E0EE0FFF1FD1
:20178000EB52FF4D0081118109831A83F801818580FD50C0F70181858770813071F0F801F8
:2017A0008685843009F046C087858B3409F042C0C7010E948B068823E9F191E0F8018284B5
:2017C0009384A484B584F701458156816781708584169506A606B70609F090E081E0F801BE
:2017E00085809680A780B084F701428553856485758584169506A606B70609F080E0892356
:20180000C9F0F801918596959370F701818582958695837098130EC0BE016F5F7F4F85ED69
:2018200090E20E94280B67E570E089819A810E940D1502C0D3949BCF0F900F90DF91CF913B
:201840001F910F91FF90EF90DF90BF90AF909F908F9008950F931F93CF93DF93CDB7DEB701
:20186000C755D109CDBFDEBF80910621882309F453C09FB7F894809106218823C1F0E0916F
:20188000072181E08E0F80930721F0E0EE0FFF1FEA50FF4D00811181809107218770809320
:2018A00007218091062181508093062102C000E010E09FBF0115110579F1C8010E94E114D7
:2018C000882351F0F80181858770813009F1C8010E948B0681111CC0F8018185877081306A
:2018E00089F087E5DE01119601900D928A95E1F7CE0101960E944809882321F0CE010196DB
:201900000E945E1567E570E0C8010E940D1504C0C8010E94A60BE0CFC95ADF4FCDBFDEBF80
:20192000DF91CF911F910F910895CF93C0E08091BE20C817B0F4EC2FF0E0EE0FFF1FE65832
:20194000FF4D80819181DC01ED91FC910480F581E02D6C2F19950E942A0C0E94600BCF5FDD
:20196000E6CF0E94A9080E946C07A895CF910895FC018185FB01808381E00895CF93DF933C
:20198000D62FFC018081C82FCF7082958F700E942F1AC83060F44096EC2FF0E0E80FF91FF1
:2019A0008081DD2311F0806401C08F7B8083DF91CF910895FC018689861304C0128A138A64
:2019C000148A158A668B0895CF92DF92EF92FF920F931F93CF93DF93EC01F62EE42E6901A3
:2019E0000E94DF0589E390E2888399830E838E01095F1F4F4F2D4F706F2D62956F70C801F0
:201A00000E94A51A8F81803E18F4C8010E94AC1A8F81803E18F4C8010E94C11AE8868FED50
:201A20008E1520F0CE0108960E94AC1A8885803E20F4CE0108960E94C11A1986CA86DB8605
:201A40001C861D861E861F86188A198A1A8A1B8A1C8A1D8A188E83E08A83F601808183701C
:201A600061E0823009F060E0C8010E94BE0C67E0CE01DF91CF911F910F91FF90EF90DF9052
:201A8000CF900C94DA0CFC019185292F30E00484F585E02D6623C9F08389981758F5948970
:201AA000290F311D290F311D482F50E02417350708F5818190E082179307D8F48281482F14
:201AC00050E024173507A8F408958289891790F4948942E0949F201931091124482F50E036
:201AE0004217530738F48281482F50E02417350708F0822F0895EF92FF920F931F93CF93D8
:201B0000DF93EC01162F8985861304C08E89873009F05AC0CE010896112319F00E94B018C1
:201B200002C00E949E181987EA85FB85808183709E01295F3F4F79018230B8F1823019F4BF
:201B400088EC811B182F6E81169FB0011124C7010E94381C8E859F85A889B989892B8A2BD3
:201B60008B2B91F5EA85FB85808187FF2DC00E949C1C6E877F87888B998BE091CF20F09159
:201B8000D020218144E6249F900111248901330F220B330BDC01CB01800F911FA21FB31F4E
:201BA0008E879F87A88BB98B0FC060E070E0C9010E94381C112321F0C7010E94B018CACF44
:201BC000C7010E949E18C6CFDF91CF911F910F91FF90EF9008958F929F92AF92BF92EF9220
:201BE000FF920F93CF93DF93EC018E89813019F0843009F065C0EC84FD84F70103819181CF
:201C0000091B0F8B4085518560E070E0498F5A8F6B8F7C8F843041F486859785A0E0B0E0F5
:201C2000898F9A8FAB8FBC8F898D9A8DAB8DBC8DBC01CD013AE0660F771F881F991F3A9542
:201C4000D1F72AE030E040E050E00E94351DCA01B901F8E00F9F40011124092C000CAA08EA
:201C6000BB08281539054A055B0568F0202F30E040E050E00E94351D298F3A8F4B8F5C8F36
:201C800081E08F8B1DC0298F3A8F4B8F5C8F898D9A8DAB8DBC8D80319105A105B10580F0D5
:201CA0002F89F7013489231758F026952F8BB695A79597958795898F9A8FAB8FBC8FE7CF75
:201CC000DF91CF910F91FF90EF90BF90AF909F908F9008950F931F93CF93DF93EC01162FB3
:201CE0000E949C1C6A8B7B8B8C8B9D8B111124C0EC85FD8566817781CB0101978F3F9F4B5C
:201D000010F011E0EDCFCE010E94FF050A891B892C893D89DC01CB01800F911FA21FB31F74
:201D20008A8B9B8BAC8BBD8B60E0CE01DF91CF911F910F910C94DA0C113061F4EC85FD85AB
:201D40008085918501978F3F9F4B10F012E0C8CF61E02DC0123049F462E0CE010E94DA0C49
:201D6000EC85FD85628573853BC0133099F4EC85FD858485958501978F3F9F4B10F014E06C
:201D8000AFCF63E0CE010E94DA0CEC85FD85648575852BC01430A9F4EC85FD85868597856F
:201DA00001978F3F9F4B10F015E09ACF64E0CE010E94DA0CCE01DF91CF911F910F910C944B
:201DC000EB0D153029F01A8A1B8A1C8A1D8A1EC065E0CE010E94DA0CEC85FD8560897189C7
:201DE000CB0101978F3F9F4B70F7CE010E94FF050A891B892C893D89DC01CB01800F911F51
:201E0000A21FB31F8A8B9B8BAC8BBD8BDF91CF911F910F910895CF93DF93EC01EC85FD8504
:201E20008E89309769F4873009F095C060E0CE010E947B0D65E0CE01DF91CF910C94DA0CBF
:201E4000823009F441C028F4882399F08130D1F082C0843009F445C008F43EC0853009F070
:201E60007AC06181CE010E947B0DEC85FD85678936C0662391F065896F70CE01DF91CF91FE
:201E80000C946A0E662349F099856381961728F4AA85BB858C91837051F4658962956F7015
:201EA000CE010E946A0EEC85FD8563813AC08F89282F30E0290F311D462F50E02417350747
:201EC00080F5692F680F34C06381CE010E947B0DEC85FD856689D0CF662371F0668962955C
:201EE000CBCF662349F089856181681728F4AA85BB859C91937049F467896F70CE010E94DF
:201F00006A0EEC85FD8561810CC09F89981748F4282F30E0291B3109462F50E04217530758
:201F20002CF0CE01DF91CF910C947B0D682F691BCE010E947B0D4A895B896C897D89898DE2
:201F40009A8DAB8DBC8D840F951FA61FB71F8A8B9B8BAC8BBD8BDF91CF9108957F928F929E
:201F60009F92AF92BF92CF92DF92EF92FF920F931F93CF93DF93CDB7DEB7CB55D109CDBFF3
:201F8000DEBF8C01762EFC0182899389A489B589892B8A2B8B2B29F4F8018689873069F48C
:201FA00008C0C80142960E94BE1C672B682B692B99F361E0C8010E940B0FF8018685978511
:201FC000A089B189892B8A2B8B2B09F458C0C8010E960E94BE1C672B682B692B09F44FC0BC
:201FE000E091CF20F091D02082819381A481B5816C968CAF9DAFAEAFBFAF6C97CE01885A96
:202000009F4F0E94D6016B017C0180900A2090900B20A0900C20B0900D200E949C1CCE01F9
:20202000019627E5FC0111922A95E9F729E6288B798AF80121852A8B28EF2A878B869C86AA
:20204000AD86BE86CE82DF82E886F98623E02F870E945E15882371F0F80186859785A08948
:20206000B18986509F4FAF4FBF4F86879787A08BB18B05C0F80116861786108A118AC55A79
:20208000DF4FCDBFDEBFDF91CF911F910F91FF90EF90DF90CF90BF90AF909F908F907F9002
:2020A0000895EF92FF920F931F93CF93DF93EC017A016130D9F4DA016C91693C08F077C0D7
:2020C0000E947B0D1A8A1B8A1C8A1D8AF7018081882311F062E001C065E0CE01DF91CF91B4
:2020E0001F910F91FF90EF900C94DA0C633009F05EC0DA011196ED91FC911297EC87FD8725
:202100009081892F8F706C91823070F00A891B892C893D89012B022B032B91F4288D26133C
:2021200013C094FD11C00CC0888D861302C094FF07C09F70913021F460E0CE010E940B0F24
:20214000F7018081888F33C0853011F460E006C0863028F58330C9F0E0F061E0CE010E94FB
:20216000430D182F193C60F7612FCE010E947B0D1A8A1B8A1C8A1D8A112311F062E001C0C5
:2021800065E0CE010E94DA0CDBCF60FF06C01181E9CF8230A9F660FFFACF1381E3CF883013
:2021A00010F46170DBCF883059F66095FACFDF91CF911F910F91FF90EF9008950F931F93BC
:2021C000CF93DF931F92CDB7DEB78C01FC018081861749F0698341E050E0BE016F5F7F4F68
:2021E000C8010E94DE19C8010F90DF91CF911F910F9108950F931F93CF93DF938C01DC01C6
:202200001A96CD91DC911B9788818C778C3721F06FEFCE010E94DE1089818F3F29F06FEFA5
:20222000CE0101960E94DE10D8011A96ED91FC911B978081837061E0823009F060E0C80179
:202240000796DF91CF911F910F910C94BE0CFC012489FB012083FC018389FB01818382E0A3
:2022600008950F931F93CF93DF93CDB7DEB72797CDBFDEBF8C01DC0118968D919C91199786
:20228000FC0121812B3F50F025E02F8341E050E0BE01695F7F4F01960E94DE19D8011896E1
:2022A0008D919C911997FC01228133812115310529F0255031092C303E4060F5D8011896E5
:2022C0008D919C911997FC01248135812115310529F0255031092C303E4048F5D8011896D9
:2022E000ED91FC91199784819581009729F0228133818217930740F1F801128684EF91E028
:20230000848395832796CDBFDEBFDF91CF911F910F9108952AE030E02D833E8342E050E01E
:20232000BE016B5F7F4F02960E94DE19C7CF26E930E02B833C8342E050E0BE016D5F7F4F48
:2023400004960E94DE19CACF19821A8242E050E0BE016F5F7F4FCF0104960E94DE19CCCF2F
:202360004F925F926F927F928F929F92AF92BF92CF92DF92EF92FF920F931F93CF93DF9389
:20238000CDB7DEB7CB55D109CDBFDEBF882EF62E6A010115110521053105C1F4E091CF201F
:2023A000F091D02082819381A481B5816C968CAF9DAFAEAFBFAF6C97CE01885A9F4F0E94A2
:2023C000D601962EA72EB82EE92E04C0902EA12EB22EE32E40900A2050900B2060900C202D
:2023E00070900D20CE0102960E94CE058E010F5F1F4F87E5F80111928A95E9F789E6888BE0
:20240000898A4F2D50E0B601CE0142960E94F41E88EF8A874B865C866D867E869E82AF8268
:20242000B886E986F394F394FF86C8010E945E15C55ADF4FCDBFDEBFDF91CF911F910F91E8
:20244000FF90EF90DF90CF90BF90AF909F908F907F906F905F904F900895EF92FF920F9397
:202460001F93CF93DF93EC017B018A010E94DF0585E490E288839983EE82FF821A86CE01FA
:2024800047960E94CE05CE014B960E94CE0584E08A83088719871F8A188E198E1A8EDF9117
:2024A000CF911F910F91FF90EF900895982F81E0983221F0903111F080E0089508951F93B0
:2024C000CF93DF93EC01162F8E819F810E94051B8E819F81DC011196ED91FC9112973085E9
:2024E0002C912323E1F0111104C0AE01455F5F4F02C040E050E064E40E94DE1B80910E20ED
:2025000081110FC0EE81FF818081A181B28115968C9380810180F281E02D818302C081E022
:2025200001C080E0DF91CF911F910895FB0120813181DC011B968C91803161F42E7F43E08D
:20254000220F331F4A95E1F78681281B3109245F3F4F10C0883271F48481982F9076903625
:2025600049F086FF02C02E7F05C085FF02C02C7F01C0287FC90134E0969587953A95E1F744
:20258000B4E68B02C0011124322F23FDC29632FD499631FD0D9630FD06960895AF92BF926E
:2025A000CF92DF92EF92FF920F931F93CF93DF93CDB7DEB72997CDBFDEBF8C01FC0186817C
:2025C00097810E94051BA801455F5F4F6EEBF801868197810E94DE1BCE0101967C015E01D8
:2025E0009AE0A90EB11C67016FEFF801868197810E946B1BF70181937F01EA15FB05A1F7B4
:2026000040E069E070E0C6010E94AE01811109C0B601C8010E949612F801838B948B80E03E
:2026200001C083E02996CDBFDEBFDF91CF911F910F91FF90EF90DF90CF90BF90AF90089567
:202640002091BE20EAE7F0E290E0921781F0A191B19112963C911297343039F418960D9050
:20266000BC91A02D3C91831721F09F5FEECF80E0089581E008958F929F92AF92BF92CF92CD
:20268000DF92EF92FF920F931F93CF93DF9300D000D0CDB7DEB7FC0184819581892B09F40D
:2026A00061C1A085B1858C91811104C08285833009F058C1D62E7F01CF0147960E94BE1CB1
:2026C000D70114962D913C911597890120E030E0601771078207930708F444C1CE0101962E
:2026E0000E94CE0589819A81AB81BC81F701878B908FA18FB28F8285811151C08DE495E9A4
:20270000838B948B0FEF6701FBE0CF0ED11C570123E1A20EB11CA601602FD70116968D91D0
:202720009C9117970E94861B082F82E0800F823070F1F60110E08191180FEA15FB05D9F751
:20274000F70183850E945612811103C00111E3CF1EC0D70118968D909C901997F401808103
:202760008F3F31F4812F0E942013882309F4F0C0D7011896ED91FC91199780811813E6CF67
:2027800081E01A968C931A9784E690E0C1C088E893E1F7018483958383E08287E3C0813042
:2027A000B9F461E0C7010E945F1281110BC088EE93E0D70114968D939C93159782E01A967B
:2027C0008C93D0C08AEF90E0F70184839583CAC0823009F0A2C0C7010E94CE1211E08111E6
:2027E00010E0D7011896ED91FC91199782819381892BC9F0C7014B960E94BE1C4B015C0156
:20280000D7011896ED91FC91199722813381A8EEB3E00E94571D21E086169706A806B9063A
:2028200018F420E001C021E01223D7011896ED91FC91199784819581892B49F4D7011896C2
:20284000ED91FC9119974181411119C02CC0C7014B960E94BE1C4B015C01D7011896ED9112
:20286000FC91199724813581A8EEB3E00E94571D86169706A806B90608F321E015C0F70112
:202880008389948925893689821B930B97FF03C0919581959109FAE04F9FA001112421E099
:2028A0008417950708F420E0112359F1222349F1D701ED91FC910280F381E02DBE016B5F79
:2028C0007F4FC701199500E010E09801AE014B5F5F4F682F8D2D0E94B011811112C0F70134
:2028E00083899489858B968BCE0101960E94CE0589819A81AB81BC81F701838F948FA58FB4
:20290000B68F81E0D7011A968C931A9788E893E114968D939C93159725C0833019F50190F9
:20292000F081E02D0280F381E02DBE016F5F7F4FC701199500E010E09801AE014F5F5F4FD1
:20294000682F8D2D0E94B011F701148215820AC0198341E050E0BE016F5F7F4FC4010E9425
:20296000DE1906CF2696CDBFDEBFDF91CF911F910F91FF90EF90DF90CF90BF90AF909F90ED
:202980008F900895FC01208120FF17C0458156816781708580910A2090910B20A0910C2089
:2029A000B0910D20481759076A077B0741F081E04F3F5F4F6F4F7F4F19F080E0089581E036
:2029C000089521E0FC01458156816781708580910A2090910B20A0910C20B0910D20481731
:2029E00059076A077B0709F020E0822F089521E0FC01428553856485758580910A20909161
:202A00000B20A0910C20B0910D20481759076A077B0709F020E0822F0895CF93CFB7F89453
:202A20000E94D2188091D420882319F081508093D420CFBFCF910895DF92EF92FF920F93C9
:202A40001F93CF93DF937C01DFB6F894FC01C685C15FD0E0CE010796887F0E94D4188C01AC
:202A6000009749F0AE01B7010E94F41E8091D4208F5F8093D420DFBEC801DF91CF911F918B
:202A80000F91FF90EF90DF900895FB0198E0408151819A01220F331F87FD216020833183FB
:202AA00057FF08C02081318142E0242740E1342720833183880F915051F708951F93CF93F4
:202AC000DF93EC010E946B17182F888181FF13C0CE0105960E94D6016D837E838F839887CB
:202AE000CE010A960E94D6016A877B878C879D8788818D7F88838881982F969596959F5F80
:202B00009370990F990F837F892B88830E949C1CDC01CB018A569F4FAF4FBF4F89839A839B
:202B2000AB83BC83898580FD33C08D819E81AF81B8858F3F9F4FAF4FBF4F51F188818695E2
:202B400086958370813021F58091F520803100F5CE010E941C150097D9F0E091F520A5EDBA
:202B6000B0E220E0E21739F04D915D918417950779F02F5FF7CFE03158F421E02E0F209393
:202B8000F520F0E0EE0FFF1FEB52FF4D80839183812FDF91CF911F910895CF93DF93CDB770
:202BA000DEB76397CDBFDEBFE6EFF0E28FEF828B118A108A8B8B1A8A198A1092F5206396E9
:202BC000CDBFDEBFDF91CF910895CF93DF93FC01208121FF13C0EC0105960E94D6016D8309
:202BE0007E838F839887CE010A960E94D6016A877B878C879D8788818D7F8883DF91CF91A1
:202C00000895CF93C82F0E949C1C60936E2170936F21809370219093712180916621CC3F53
:202C200021F481608093662179C0CD3FD1F482608E7F80936621109264218FEF9FEF80932B
:202C4000622190936321809109218E7F8260809309211092172162E671E28DEF0E944515F6
:202C60005DC081FF5BC080FF04C0C0688E7F8093662162E671E28C2F0E94451540916421E2
:202C8000E42FF0E0E25FFE4DC083443049F480911221982F97709330C9F183FF37C039C0D0
:202CA00080911721493041F4893498F1809166218D7F809366212DC050E060E070E090E07C
:202CC000A0E0B0E00996A11DB11D481759076A077B07F9F48091622190916321892BC9F470
:202CE00089E091E20E94E51580911721825080931721809166218D7F80936621809109217D
:202D000081608093092189E091E20AC088E080936421809164218F5F8093642180E090E003
:202D2000CF9108950F931F93CF93DF93C0916721D0916821209709F4BCC08C0190916B2141
:202D400080916D2191112EC081FD2CC0826080936D218FEF9FEF8093692190936A218881F7
:202D600081FD13C0CE0105960E94D6016D837E838F839887CE010A960E94D6016A877B8722
:202D80008C879D87888182608883888184FD02C08DEF01C08EEFF801808369E671E20E94C0
:202DA000451582C081FF82C0888184FF84C0911182C0F801108283E080936B2140916B2117
:202DC000443049F48985982F9770933009F47AC083FF78C017C0493029F4F80180818E5F5E
:202DE000808310C050E060E070E08E8590E0A0E0B0E00B96A11DB11D84179507A607B707DE
:202E000008F457C080916D2180FD40C069E671E2F80180810E94451540916B2150E060E01E
:202E200070E08E8590E0A0E0B0E00996A11DB11D481759076A077B07E1F469E671E280E0FB
:202E40000E94451569E671E280E00E944515259680916B218F5FFE01E80FF11D80916A2192
:202E6000808380916B218E5FC80FD11D809169218883F80180818C5F833088F480916D21A7
:202E8000816080936D218CEF80830EC0F80180818F77808380916D218E7F80936D21809103
:202EA0006B218F5F80936B2181E010C0CE010E94E51580E00BC0FE01E90FF11D8581F8012E
:202EC00080837CCF88E080936B219CCFDF91CF911F910F910895EF92FF920F931F93CF93AD
:202EE000DF931F92CDB7DEB77C018091732190917421892BE9F00E94E51E182F0FB7F894F3
:202F00008EE691E20E94BE1C0FBF212F2F70295F022F10E020E030E006171707280739072E
:202F200048F0D70119968C918770813021F702C081E06FC0E0926721F092682110926B2170
:202F400080916D218D7F80936D21D70119968C9180FD06C0F7019081969596959370B1F13A
:202F60008091732190917421DC01ED91FC910190F081E02D61E0199510E0CE0101960E9418
:202F80009216A0917321B0917421882389F089811296ED91FC911397948193FD05C012E007
:202FA000ECCF948193FF1BC0918195FFFACF17C01296ED91FC911397818180648183818145
:202FC00086FD0FC0848183FF0CC0F9CF909172219370990F897F892BF7018187C1CF8083D6
:202FE000CCCFED91FC9111970190F081E02D60E0CD01199511110AC0F701818580FD08C089
:20300000809172218F5F8093722102C0812F01C080E00F90DF91CF911F910F91FF90EF9018
:20302000089510926E2110926F2110927021109271210E949C1C87E5E9E0F1E2DF011D9238
:203040008A95E9F708957F928F929F92AF92BF92CF92DF92EF92FF920F931F93CF93DF93D3
:2030600000D0CDB7DEB75C014B01742EF22E10E0D50112968C91181708F041C0B6E31B9FF6
:2030800060011124D5011396ED91FC911497EC0DFD1D8481871131C085818F112EC080812F
:2030A0009181A281B3818F3F9F4FAF4FBF4F29F1CF010E94D601D4012D913D914D915C9150
:2030C0006217730784079507C1F4E982F50183819481C80ED91E002321F0FEE1CF0ED11CFD
:2030E00003C026E0C20ED11CCA82DB82AE014F5F5F4F63E08F2D0E9434091F5FB9CF2396F9
:20310000CDBFDEBFDF91CF911F910F91FF90EF90DF90CF90BF90AF909F908F907F90089502
:20312000FC018093D2209093D32081E590E280839183628343835483089508951F93CF93B8
:20314000DF93EC010E94D61A182F888182958F700E942F1AFC011683DF91CF911F9108957A
:203160001F93CF93DF93EC010E94D61A182F888182958F700E942F1AFC011583DF91CF9194
:203180001F910895009769F020910F203091102041E283399407E0F382179307C8F70C9442
:2031A000111E08950C94C218CF93DF93EC010E94791D20910F203091102041E28339940785
:2031C000E0F382179307C8F72197C80FD91F41E2C339D407E0F3C217D307C8F7DF91CF9194
:2031E00008950C94D4181F93CF93DF93E0ECF1E022851FB7F8948287A8E4B0E04C919C914B
:203200008C91809589238C93C0EAD0E038819A818A81887F84608A838C9181608C93858559
:2032200058ED54BF51E0538753E05587789488954C9338839A83858722870E9498061FBF69
:20324000DF91CF911F9108950E9498068091CF0181FF03C086E30C94F3180895CF93DF9368
:20326000D82FC091CA010E94241983E38093CA011092C2011092C10180E08093C001D093A8
:20328000C4018F5F8032C9F7C093CA01DF91CF910C9498068F929F92AF92BF92CF92DF9227
:2032A000EF92FF920F931F93CF93DF938C015B017A0190518115984018F080E090E034C055
:2032C000CA019051800F911F81159840B0F7C12CD12C80E2982EE114F10429F1802E802F7B
:2032E0008F71C92DC81B8C2F90E0E816F90608F4CE2D0E942419D0E0AE01B501C8010E9477
:20330000F41E1092C2011093C1018092C00185E30E94F318AC0EBD1EEC1AFD0ACC0EDD1E72
:203320000C0F1D1FD8CFC601DF91CF911F910F91FF90EF90DF90CF90BF90AF909F908F90F0
:2033400008950F931F93CF93DF931F92CDB7DEB78C0169838091CC0183FF11C0011580E1BD
:20336000180708F4105F41E050E0BE016F5F7F4FC8010E944A1921E0892BC9F404C00115FD
:2033800088E0180710F020E012C00E94241983E38093CA011092C2011093C1010093C00193
:2033A00089818093C40185E30E94F31821E0822F0F90DF91CF911F910F910895EF92FF92F6
:2033C0000F931F93CF93DF938A012091CC0123FF0EC0811520E1920708F4905FA801DF9198
:2033E000CF911F910F91FF90EF900C944A197B01EC01C61BD70BCE018E0D9F1D011511058E
:2034000051F0F70161917F010E94A119882331F001501109F0CF80E090E001C0C801DF91E5
:20342000CF911F910F91FF90EF9008951F920F920FB60F9211240BB60F928F93EF93FF93AC
:20344000E0ECF1E085858C7F8587FF91EF918F910F900BBE0F900FBE0F901F9018958D30F2
:2034600048F4E82FF0E0EE0FFF1FED5AFF4D80819181089585E791E208958FEF80937D2120
:203480000895CF92DF92EF92FF920F931F93CF93DF939C01240F351F2130324098F48A0185
:2034A000EB016B01C40ED51E7C01E61AF70AB7016C0F7D1FCC15DD0541F081E00E946F1A22
:2034C0008993F5CF80E090E001C0C801DF91CF911F910F91FF90EF90DF90CF900895409148
:2034E000CA01E62FF72F8093CA0184914093CA010895611115C0833069F028F48230F9F48A
:2035000080E098E00895843041F08530C1F480E09BE0089580E099E0089580E09AE0089582
:20352000613069F4833029F0843031F0823039F409C080E499E0089580E49AE0089580E0FF
:2035400090E0089580E498E008956295607F4F70642BFC0160830895CF93DF93FC01808172
:20356000982F9F70C1E0D0E001C0CC0F9A95EAF782958F700E942F1AFC01C283DF91CF9165
:203580000895CF93DF93FC018081982F9F70C1E0D0E001C0CC0F9A95EAF782958F700E9431
:2035A0002F1AFC01C183DF91CF910895FC0190819F7081E001C0880F9A95EAF708950F93EF
:2035C0001F93CF93DF931F92CDB7DEB78C016983CE0101960E94D61AF8018083898182950D
:2035E0008F700E942F1AF8018183928330812FB7F8943093B00038E1FC01308B2FBF0F90DB
:20360000DF91CF911F910F910895FC018081A181B28116968C938081A181B28111968C93B3
:203620008FEB92E10197F1F700C000009FB7F8948081A181B28112968C93AFE0B2E0119795
:20364000F1F700C000002081A181B28118968C919FBFAFEEBCE01197F1F700C00000A181F8
:20366000B28118963C919081932311F08223089581E00895FC01862F2FB7F8949081A1813D
:20368000B28111969C9395E19A95F1F70000662329F09081A181B28112969C93AAE8AA95E4
:2036A000F1F700C0A181B28118963C919081932309F480E0A7E6B1E01197F1F700C0000000
:2036C00090810180F281E02D9283BAE6BA95F1F700C02FBF08950F931F93CF93DF938C01EC
:2036E000C62FD8E06C2F6170C8010E943A1B2C2F30E035952795C22F8111C068D15091F7AC
:203700008C2FDF91CF911F910F910895BF92CF92DF92EF92FF920F931F93CF93DF937C0157
:20372000C62E8A010E94051B81113BC060EFC7010E946B1BD0E0C0E498EFB92EBC0E61E0AF
:20374000C7010E943A1BD82E61E0C7010E943A1B882319F0DD2071F026C0D1100BC0CC151F
:2037600030F0F801808180FF05C0CC1519F0DC2FDD24D3946D2DC7010E943A1BF80120819B
:2037800030E035952795DD2011F02068F8012083C150CB11D4CF0F5F1F4FC111CDCF8D2FDB
:2037A00003C08FEF01C08EEFDF91CF911F910F91FF90EF90DF90CF90BF900895CF92DF92D0
:2037C000FF920F931F93CF93DF93EC01F62E8A010E94051B0115110591F065E5CE010E946A
:2037E0006B1B680188E0C80ED11CF80161918F01CE010E946B1B0C151D05B9F704C06CEC2E
:20380000CE010E946B1B6F2DCE01DF91CF911F910F91FF90DF90CF900C946B1BCF93FC0144
:203820008081C82FCF7082958F700E942F1AC83038F4FC017096EC0FF11D8081807401C06A
:2038400080E0CF910895FC018081282F2F7030E02430310514F460E004C0263031052CF4C5
:2038600061E082958F700C94791A80E090E008950F931F93CF93DF93EC018B010E94231CCF
:20388000FC0188818F70843008F084503097D1F0482F50E09A01220F331FDF01D896A20F57
:2038A000B31F0D931C939081992331F10115110519F1218180E190E001C0880F4A95EAF737
:2038C000822B26C0CE01012B29F00E940E1C882329F00BC00E940E1C882339F0CE01DF9107
:2038E000CF911F910F910C94B018CE01DF91CF911F910F910C949E18418120E130E0B901DE
:2039000002C0660F771F8A95E2F7CB0180958423818380818823B1F2DF91CF911F910F91E7
:2039200008959091010490FDFCCF90910004987F892B80930004089531E02FB7F894409174
:20394000030440FF0CC040918D2150918E214F5F5F4F40938D2150938E213093030440913C
:20396000080450910904BA012FBF2091030420FDE4CF80918D2190918E210895CF92DF921E
:20398000EF92FF920F931F93CF93DF93EC010E949C1C088119812A813B816B017C01C01A59
:2039A000D10AE20AF30A601771078207930760F4C701B601615071098109910997FF06C0B3
:2039C00060E070E0CB0102C0C701B601DF91CF911F910F91FF90EF90DF90CF9008951F93FF
:2039E000CF93DF93182FEB0180E00E94911C809143008E7F80934300153031F4C115D04208
:203A000019F483E09EE002C081E094E020914300217F2160922B909343002091080430916B
:203A200009043C5F40910804509109049091010490FDFCCF6FEF7FEF60930A0470930B04B6
:203A40009091010490FDFCCF40930804509309049091010490FDFCCF20930C0430930D0404
:203A6000DF91CF911F910C94911CA1E21A2EAA1BBB1BFD010DC0AA1FBB1FEE1FFF1FA217C1
:203A8000B307E407F50720F0A21BB30BE40BF50B661F771F881F991F1A9469F76095709589
:203AA000809590959B01AC01BD01CF010895A29FB001B39FC001A39F700D811D1124911D13
:203AC000B29F700D811D1124911D08950E94571DA59F900DB49F900DA49F800D911D112460
:203AE0000895EE0FFF1F881F8BBF0790F691E02D19940F931F93CF93DF938230910510F4D1
:203B000082E090E0E0919121F091922120E030E0A0E0B0E0309719F14081518102811381E1
:203B200048175907C8F08417950769F4109731F012960C93129713961C9327C0009391213E
:203B40001093922122C02115310519F04217530718F49A01BD01EF01DF01F801DBCF2115F7
:203B60003105F9F0281B390B2430310580F48A819B816115710521F0FB018283938304C0A2
:203B80008093912190939221FE01329644C0FE01E20FF31F81939193225031092883398372
:203BA0003AC020918F2130919021232B41F4209102203091032020938F2130939021209176
:203BC0000020309101202115310541F42DB73EB74091042050910520241B350BE0918F21CE
:203BE000F0919021E217F307A0F42E1B3F0B2817390778F0AC014E5F5F4F2417350748F0DB
:203C00004E0F5F1F40938F21509390218193919302C0E0E0F0E0CF01DF91CF911F910F9138
:203C20000895CF93DF93009709F481C0FC01329712821382A0919121B0919221109781F45C
:203C400020813181820F931F20918F21309190212817390751F5E0938F21F093902167C0B8
:203C6000ED0120E030E0CE17DF0740F44A815B819E0141155105F1F0EA01F5CFC283D3832A
:203C800040815181840F951FC817D90759F488819981840F951F0296808391838A819B81FE
:203CA000828393832115310529F4E0939121F09392213DC0E901EA83FB8349915991C40F9C
:203CC000D51FEC17FD0761F480819181840F951F0296E90188839983828193818A839B834F
:203CE000E0E0F0E012968D919C911397009719F0FD01DC01F7CF8D919C9111979D012E5F38
:203D00003F4F820F931F20918F21309190212817390769F4309729F4109291211092922196
:203D200002C012821382A0938F21B0939021DF91CF9108958F929F92AF92BF92CF92DF929E
:203D4000EF92FF92CF93DF93EC01688179818A819B81611571058105910521F464E279EDBD
:203D60008BE597E02DE133EF41E050E00E94041F49015A019B01AC01A7EAB1E40E94661DDD
:203D80006B017C01ACEEB4EFA50194010E94261FDC01CB018C0D9D1DAE1DBF1DB7FF03C0BF
:203DA0000197A109B04888839983AA83BB839F77DF91CF91FF90EF90DF90CF90BF90AF90E7
:203DC0009F908F9008950C949A1E86E090E20C949A1EA0E0B0E08093062090930720A093AA
:203DE0000820B09309200895FB01DC0102C001900D9241505040D8F70895DC0101C06D939C
:203E000041505040E0F70895052E97FB1EF400940E941B1F57FD07D00E94351D07FC03D0D1
:203E20004EF40C941B1F50954095309521953F4F4F4F5F4F089590958095709561957F4FB7
:203E40008F4F9F4F0895B7FF0C94661D0E94661D821B930B0895F894FFCF000093212000F5
:203E600001000000003D8F60019331000000009D189D1897029902000000004203580351C1
:203E8000035B0300000000DA05DB05DD05DE05000000005110B80CAE0FFA1000000000DA77
:203EA0000527113B13311100000000231800062006400660068006A00675217521752175BF
:0C3EC0002175217521E00700F070F90069
:00000001FF
