:200000000C943D010C94AC010C94AC010C94AC010C94AC010C94AC010C94AC010C94AC01E7
:200020000C94AC010C94AC010C94AC010C94AC010C94AC010C94AC010C94AC010C94AC0158
:200040000C94AC010C94AC010C94AC010C94AC010C94AC010C94AC010C94AC010C94AC0138
:200060000C94AC010C94AC010C94AC010C94AC010C94AC010C94AC010C94AC010C94AC0118
:200080000C94AA1A0C94AC010C94AC010C94AC010C94AC010C94AC010C94AC010C94AC01E1
:2000A0000C94AC010C94AC010C94AC010C9405030C94AC010C94AC010C94AC010C94AC017D
:2000C0000C94AC010C94AC010C94AC010C94AC010C94AC010C94AC010C94AC010C94AC01B8
:2000E0000C94AC010C94AC010C94AD020C94AC010C94AC010C94AC010C94AC010C94AC0196
:200100000C94AC010C94AC010C942C050C94AC010C94AC010C94AC010C94AC010C94AC01F3
:200120000C94AC010C94AC010C94AC010C94AC010C94AC010C94AC010C94AC010C94AC0157
:200140000C94AC010C94AC010C94AC010C9464050C94AC010C94AC010C94AC010C94AC017B
:200160000C94AC010C94AC010C94AC010C94AC010C94AC010C94AC010C94AC010C94AC0117
:200180000C94AC010C94AC010C94AC010C94AC010C94AC010C94AC010C94AC010C94AC01F7
:2001A0000C94AC010C94AC010C94AC010C94AC010C94AC010C94AC010C94AC010C94AC01D7
:2001C0000C94AC010C94AC010C94AC010C94AC010C94AC010C94AC010C94AC010C94AC01B7
:2001E0000C94AC010C94AC010C94AC010C94AC010C94AC010C94AC010C94AC01244D4F44E0
:2002000024204842572D444556202000F03F00000232B0E532020C94D11A0C94D2050C949F
:2002200042030C9458030C9497020C9431190C9401120C945B030C942A0F0C94B7180C94C2
:20024000A5180C9499020C94E80D0C943A030C9461160C940B120C94D0050C94D3050C94D3
:2002600051030C9451110C94AD130C94CF050C9474113A036116A518D11A11241FBECFEF03
:20028000CDBFDFE5DEBF00E00CBF80E08CBF67E280E890E00E948E028091820080FDFCCFED
:2002A00060E081E490E00E948E02809150008660809350008091510086708630D9F760917E
:2002C0004000687F616080E490E00E948E0280914000809150008E7F8093500080915000AD
:2002E0008091600081608093600010E2A0E0B0E2E2E8FFE300E00BBF02C007900D92AE3603
:20030000B107D9F721E2AEE6B0E201C01D92A339B207E1F7E3E9F1E288E491E38193E339A0
:20032000F907E0F383E590E68193E030F907E0F311E0CDE3D1E000E006C021970109802FAC
:20034000FE010E94051EC933D10780E00807A9F70E9443020C94BF1F0C940000CF93FC0192
:20036000680F791F2CEB31E652ECADE9B3E2C6E48CE8E617F707B9F09191942790FF02C0E7
:200380004EE501C040E091FD422792FD432793FD452794FD4A2795FD4B2796FD4C2797FFBB
:2003A000E8CF4827E6CF842FCF910895FC01638172818181908108950F931F93CF93DF9306
:2003C00000D01F92CDB7DEB76115710509F453C0DB01182F6093CC207093CD20609373210E
:2003E000709374211296ED91FC911397178287E6868383E2858388E184831296ED91FC9169
:20040000139793819F7C906193839091CE2091609093CE20ED91FC910280F381E02DCB0111
:2004200019951093D1208093CF209093D020FC0186819781A085B18589839A83AB83BC8358
:20044000CE0101960E94D6018B019C011D532F483046003816492849310540F460930A20A8
:2004600070930B2080930C2090930D208091CE2082608093CE202496CDBFDEBFDF91CF912A
:200480001F910F910895CF93DF93CDB7DEB76897CDBFDEBF60E074E082E00E946F1D809125
:2004A000CF0187FDFCCF8091CC0188608093CC0148E150E0BE016F5F7F4F80E090E00E9451
:2004C000D51A489711F080EB8F8B8F890E949A058C01BC018F890E94DC01D801ED91FC91AA
:2004E0000280F381E02DC8011995FC01868197810E947D1F8091A2008F7B9FB7F8941BBEB0
:2005000028ED24BF8093A2009FBF8091A20087608093A20078940E94C50DFDCFFC019FB7E2
:20052000F8941BBE88ED84BF60839FBF089580E00895089526E130E2FC012083318320EAAF
:200540003AE022833383E0E8F6E081858C7F8160818782858460828708951F920F920FB6E6
:200560000F9211240BB60F922F933F934F935F936F937F938F939F93AF93BF93EF93FF93CB
:200580008091A00A0E949516009761F10E948B15811123C089E091E20E94B0159C01892B1F
:2005A000E1F0809106218830C1F0909108219F5F9093082190910821977090930821909177
:2005C00006219F5F90930621E0910821F0E0EE0FFF1FEA50FF4D2083318380918A068460C5
:2005E00080938A06FF91EF91BF91AF919F918F917F916F915F914F913F912F910F900BBE90
:200600000F900FBE0F901F9018951F920F920FB60F9211240BB60F922F933F934F935F93BC
:200620006F937F938F939F93AF93BF93EF93FF930E941C1D60936E2170936F218093702116
:2006400090937121E0E8F6E082858B7F8287FF91EF91BF91AF919F918F917F916F915F913D
:200660004F913F912F910F900BBE0F900FBE0F901F901895E0E8F6E084E0828388E08283C7
:200680008183089580E2662331F08093050682E08093E50708958093060682E08093E60710
:2006A0000895809188068095881F8827881F089580E090E10895CF93C62F80916E20811159
:2006C0000DC00E941C1D6093762070937720809378209093792081E080936E20C53048F4B5
:2006E000C23070F4CC2341F0C13051F5C093E50727C0C53079F024C081E08093E60720C0A4
:2007000086E790E20E943E1D653F714081059105B8F009C086E790E20E943E1D693C710524
:200720008105910568F081E08093E7070E941C1D609376207093772080937820909379207E
:20074000CF9108950F931F93CF93DF9361E083E00E940D1BEC018B81807189688B83898113
:20076000887F89838FEF9FEF8EA39FA380E590E088AF99AF8CED8093800160E082E00E9442
:200780000D1BFC018181887F83608183838180718868838308E210EA06A317A360E083E06F
:2007A0000E940D1BFC018181887F83608183838180718868838306A317A380E00E94C31A55
:2007C000FC018FB7F89490E89093B00099E1908B8FBF82858068828787E58093810184E0BF
:2007E00089878881807F866088838E818C7F81608E8381858C7F82608187DF91CF911F9169
:200800000F910895EF92FF920F931F93CF93DF931F921F92CDB7DEB77C010E949A0282E2C7
:2008200090E2F7018083918343E060E0CE0101960E943A1B43E062E0CE0102960E943A1BB4
:200840000DEC20E130E149816A81C70104960E94C90E42E060E0CE0101960E943A1B42E01C
:2008600062E0CE0102960E943A1B22E130E149816A81C70184960E94C90E41E060E0CE0184
:2008800001960E943A1B41E062E0CE0102960E943A1B24E130E149816A81C7018C5B9F4FA1
:2008A0000E94C90E40E060E0CE0101960E943A1B40E062E0CE0102960E943A1B26E130E12A
:2008C00049816A81C7018C599F4F0E94C90E43E061E0CE0101960E943A1B43E063E0CE0159
:2008E00002960E943A1B28E130E149816A81C7018C579F4F0E94C90E42E061E0CE010196BF
:200900000E943A1B42E063E0CE0102960E943A1B2AE130E149816A81C7018C559F4F0E9413
:20092000C90E41E061E0CE0101960E943A1B41E063E0CE0102960E943A1B2CE130E1498177
:200940006A81C7018C539F4F0E94C90E40E061E0CE0101960E943A1B40E063E0CE01029616
:200960000E943A1B2EE130E149816A81C7018C519F4F0E94C90E44E064E0CE0101960E942F
:200980003A1B87010C5F1E4F6981C8010E94741B40EE56E1B801C701895F9E4F0E94A512AA
:2009A00046EE56E1B801C7018A5D9E4F0E94A5124CEE56E1B801C7018B5B9E4F0E94A51200
:2009C00042EF56E1B801C7018C599E4F0E94A51248EF56E1B801C7018D579E4F0E94A512EA
:2009E0004EEF56E1B801C7018E559E4F0E94A512E0E0F6E080E28283818380E4828381836B
:200A000000EE17E082E0F8018283818381E08283818380E88093820640E250E160E2C701C3
:200A20008A539E4F0E942419F80180898064808BE7E9F6E08081877C808380818861808382
:200A4000C7010E94A2030F900F90DF91CF911F910F91FF90EF9008951F920F920FB60F92C6
:200A600011240BB60F922F933F934F935F936F937F938F939F93AF93BF93EF93FF9360E027
:200A800082E00E940D1BFC019081907F9460908360E083E00E940D1BFC019081907F946088
:200AA0009083FF91EF91BF91AF919F918F917F916F915F914F913F912F910F900BBE0F90BC
:200AC0000FBE0F901F9018951F920F920FB60F9211240BB60F922F933F934F935F936F9395
:200AE0007F938F939F93AF93BF93EF93FF9360E082E00E940D1BFC019081907F908360E00C
:200B000083E00E940D1BFC019081907F9083FF91EF91BF91AF919F918F917F916F915F9188
:200B20004F913F912F910F900BBE0F900FBE0F901F9018950F931F93CF93DF931F92CDB719
:200B4000DEB7182F809100108F3F51F4198241E050E0BE016F5F7F4F80E090E10E94721A3F
:200B6000183B21F480910010882359F08091CF0187FDFCCF40E260E070E0CB010F94DE8F3A
:200B8000FFCF8BEC91E00E9485198C010E940204C8010F90DF91CF911F910F910895089568
:200BA00080E0089508950895DC018EE290E28D939C93119712961C921297E091BE20139651
:200BC000EC93139788EE93E014968D939C93159716961D921D921D921C92199781E08E0F49
:200BE0008093BE20F0E0EE0FFF1FE658FF4DA083B18308959B013F7364E0769F612D7727C8
:200C000011246130710509F158F06230710511F5D90120E030EA4FE050E00E94FA1D08959F
:200C2000C901A0E0B0E0BC01CD012AE0660F771F881F991F2A95D1F72AE030E040E050E0EA
:200C40000E94C91DCA01B9010895A0E0B0EF0E94EB1D089560E070E0CB0108950F931F9337
:200C6000CF93DF93FC010681178120853185012B022B032BE1F46623D1F0EC010E941C1DBB
:200C8000E091CF20F091D0202181F4E62F9FA00111248A01550F220B330BAB01BC01400F51
:200CA000511F621F731F4E835F8368877987DF91CF911F910F9108952F923F924F925F92EE
:200CC0006F927F928F929F92AF92BF92CF92DF92EF92FF920F931F93CF93DF93CDB7DEB7F9
:200CE000CD57D109CDBFDEBFDC0116960D911D912D913C911997012B022B032B09F478C001
:200D00006A017B018C0106960E943E1D672B682B692B09F46DC0D801ED91FC910280F38109
:200D2000E02DBE01685A7F4FC8011995ED968FAFED97F801F381EE96FFAFEE97E091CF2017
:200D4000F091D02082819381A481B581EC968CAF9DAFAEAFBFAFEC97CE0188589F4F0E941A
:200D6000D6014B015C0140900A2050900B2060900C2070900D200E941C1DCE0101961C0147
:200D800087E5D1011D928A95E9F789E6888BEE96BFADEE97B98BED96EFADED974E2F50E0DC
:200DA000BE01685A7F4FCE0142960E94881F88EF8A874B865C866D867E868E829F82A88663
:200DC000B986ED968FADED978E5F8F87C1010E94F215882379F0F80186819781A085B1859C
:200DE00086509F4FAF4FBF4F86839783A087B18780E019C0C114D104E104F10461F00E94F1
:200E00001C1DC60ED71EE81EF91EF801C682D782E086F18607C0D80116961D921D921D92E3
:200E20001C92199781E0C358DF4FCDBFDEBFDF91CF911F910F91FF90EF90DF90CF90BF9036
:200E4000AF909F908F907F906F905F904F903F902F9008958F929F92AF92BF92CF92DF9248
:200E6000EF92FF920F931F93CF93DF936B017C01FA0188E4808382E4818387E582838A017F
:200E8000065F1F4FEA0123968AE0882E912CA12CB12C0C171D0791F0C701B601A5019401D2
:200EA0000E94C91D605DF80162938F01C114D104E104F10471F369017A01EBCFDF91CF9118
:200EC0001F910F91FF90EF90DF90CF90BF90AF909F908F900895CF93DF93EC010E941C1DD1
:200EE000688379838A839B83DF91CF910895CF93DF93EC0101960E946B0787E5FE011192F9
:200F00008A95E9F7DF91CF910895FC01808180FF03C081E09785961380E00895FC018185FF
:200F200080FD07C08685823020F081E09785993609F080E008958091CF0187FDFCCF089591
:200F4000CF92DF92EF92FF920F931F93CF93DF93CDB7DEB7C755D109CDBFDEBF8091CE204E
:200F600081FF53C00E94791F182F0FB7F8948EE691E20E943E1D0FBF212F2F70295F022FB1
:200F800010E020E030E00617170728073907E8F5E091CF20F091D02010810091D120C09096
:200FA0000A20D0900B20E0900C20F0900D20CE0101960E947707CB86DC86ED86FE868FEF85
:200FC0009FEFDC018E839F83A887B98788EF8A8781E4888B198A0A8B1B8B82E08C8B82E348
:200FE0008D8BAE014A5E5F4FC701B6010E942A0780E18F87CE0101960E94F215811105C0A5
:201000008091CE208D7F8093CE20C95ADF4FCDBFDEBFDF91CF911F910F91FF90EF90DF90AD
:20102000CF900895CF92DF92EF92FF920F931F93CF93DF93CDB7DEB72597CDBFDEBFE09139
:20104000CF20F091D0201081C680D780E084F1840091CC010E949B078091CC01877F809390
:20106000CC018FEF0E94C2190E949B0780E30E94871903FF07C00E949B078091CC018860EC
:201080008093CC018091CF209091D0201D8341E050E0BE016B5F7F4F0E94721A8091CF20E9
:2010A0009091D020C982DA82EB82FC8244E050E0BE016F5F7F4F06960E94721A8091CE2015
:2010C00084608093CE202596CDBFDEBFDF91CF911F910F91FF90EF90DF90CF9008951F93FC
:2010E000CF93DF9300D01F92CDB7DEB78091CC209091CD20892B09F4BAC08091C4208111C5
:2011000007C080EC90E20E946B0781E08093C4208091CC209091CD20DC01ED91FC91048047
:20112000F581E02D1995182F8091BF20823009F441C028F4882361F0813001F18BC08430DD
:2011400009F46AC008F451C0853009F47DC082C0112319F081E08093BF20CE0101960E9492
:201160006B0789819A81AB81BC818093C0209093C120A093C220B093C3206CC080EC90E233
:20118000112351F00E943E1D693873418105910508F460C082E055C00E943E1D65367105CB
:2011A0008105910508F454C08091CE2082608093CE204EC011114EC083E08093BF20CE01BF
:2011C00001960E946B0789819A81AB81BC818093C0209093C120A093C220B093C320809193
:2011E000CE2080628093CE2035C080EC90E20E943E1D643671058105910560F1112311F09C
:2012000084E0A9CF80EC90E20E943E1D6938734181059105E8F41EC080EC90E20E943E1D11
:201220006436710581059105A8F0112389F080EC90E20E943E1D693B7B408105910550F0A7
:2012400085E08093BF2006C0111104C00E9412081092BF208091CC209091CD20DC01ED91E8
:20126000FC910680F781E02D6091BF2019952496CDBFDEBFDF91CF911F9108950F931F9304
:20128000CF93DF9300D01F92CDB7DEB7E091CF20F091D02086819781A085B18589839A836C
:2012A000AB83BC83CE0101960E94D60100910A2010910B2020910C2030910D2060177107A1
:2012C00082079307B9F08B019C011D532F483046003816492849310540F460930A2070932A
:2012E0000B2080930C2090930D208091CE2082608093CE20E091CF20F091D020918192538A
:20130000993CB0F410E08091BE201817E8F4E12FF0E0EE0FFF1FE658FF4D80819181DC01F5
:20132000ED91FC910680F781E02D19951F5FEBCF82E3898341E050E0BE016F5F7F4FCF01C4
:2013400001960E94721ADECF2496CDBFDEBFDF91CF911F910F910895CF92DF92EF92FF9297
:201360001F93CF93DF93CDB7DEB7C755D109CDBFDEBF8091CE2080FF07C00E943E09809170
:20138000CE208E7F8093CE208091CE2083FF09C08FB7F8941BBE98ED94BF91E09093790077
:2013A0008FBF8091CE2082FF0FC0A8958FB7F8941BBE98ED94BF9BE1909380008FBF809152
:2013C000820080FDFCCFFFCF85FF27C0C0900A20D0900B20E0900C20F0900D20CE01019656
:2013E0000E947707CB86DC86ED86FE8682E090E0A0E0B0E08E839F83A887B98788EF8A8717
:2014000083E2888B81E08F87CE0101960E94F2158091CE208F7D8093CE200E941C1D6D3D3D
:2014200075408105910568F180917800882339F110917800C0900A20D0900B20E0900C206A
:20144000F0900D20CE0101960E947707CB86DC86ED86FE868FEF9FEFDC018E839F83A88764
:20146000B98788EF8A878FEF888B198B82E08F87CE0101960E94F2158FE7809378000E9445
:20148000A007C95ADF4FCDBFDEBFDF91CF911F91FF90EF90DF90CF9008959091BE20891793
:2014A00078F4E82FF0E0EE0FFF1FE658FF4D80819181DC01ED91FC910280F381E02D199489
:2014C000DB011C9281E008959091BE20891778F4E82FF0E0EE0FFF1FE658FF4D80819181DA
:2014E000DC01ED91FC910190F081E02D19940895DF92EF92FF920F931F93CF93DF93EC0113
:201500000E945615D82E811102C0D12CC8C1898580FDFBCF65E7CE010E948507882321F084
:201520008091CE208860B7C062E5CE010E948507882391F08E85843041F71A89412F50E09B
:20154000688979897627672776277061CE010F960E94881F1E87A1C163E4CE010E948507F7
:20156000882321F08091CE20816095C066E7CE010E948507882389F080910A2090910B2085
:20158000A0910C20B0910D208D839E83AF83B88782E08F8792E3988B69C168E6CE010E94E5
:2015A0008507882359F0E091CF20F091D02080819091D1209F87888B82E058C165E4CE01FB
:2015C0000E948507882309F44FC00A891B89812F869586958695912F977011F48C5F01C076
:2015E0008B5F8E8785E68F874E8550E04450510960E070E0CE0143960E94911F402F50E051
:2016000060E070E180E090E0212F30E001E010E0281739070CF441C1DB01E0E0F0E0E41750
:20162000F507F4F4FD90EE24EA94FE14B9F0FC01A3E0F595E795AA95E1F73496EC0FFD1F70
:20164000DC01A770BB27780102C0EE0CFF1CAA95E2F7D701B785AB2BA78702C03196DFCFFD
:201660000196640F751FD4CF6BE4CE010E9485078111BDC06BECCE010E9485078111B7C071
:201680005FC061E2CE010E948507882309F49CC08091CE2084608093CE2011E08D819E81E5
:2016A000AF81B8858F3F9F4FAF4FBF4F09F42DCF8091CE2086FF07C065E7CE010E94850768
:2016C000882309F422CF2985822F8770833021F023FB222720F901C020E08A859B85AC85B6
:2016E000BD858D839E83AF83B88780910A2090910B20A0910C20B0910D208A879B87AC874E
:20170000BD87898586958370112321F099E199871E8602C098E999878370982F9295990FFA
:20172000907E89858F79892B8987211102C0877F898781E02827888120FB84F98883AFC0EC
:2017400063E5CE010E948507882321F0BE016F5E7F4F86C067E5CE010E9485078823F1F013
:201760004A892E8530E0842F90E004962817390709F0CBCE88899989982789279827BE01E5
:20178000009719F06D5E7F4F05C06C5E7F4F415081E090E050E00E94721A7FCF6EE6CE0182
:2017A0000E948507882309F46CCF60910A2070910B2080910C2090910D20AE01415F5F4F49
:2017C0000E942A078AE052C069E6CE010E948507811163CF63E7CE010E948507811135C0DC
:2017E00068E7CE010E94850781112FC041C09A89892F8370833051F04D815E816F817885BF
:201800004F3F5F4F6F4F7F4F09F447CFA091D220B091D320109709F440CFE92EF12CF59426
:20182000E794F594E79401E0833009F000E0ED91FC9111970190F081E02D29894889BE01B8
:20184000665F7F4FCD01199528CF6E8562507E0181E1E80EF11CA70188890E94640AB70178
:2018600088890E944D0A99E69F878E5F8E8715C06AE7CE010E948507882321F08091CE20D9
:20188000806409CF6AE5CE010E948507882309F43CCE8091CE208F7BFECE10E0FFCE8D2D42
:2018A000DF91CF911F910F91FF90EF90DF9008950F931F93CF93DF93DC0190E090962C9196
:2018C0009097921740F5FD01E90FF11DE90FF11DEB01088119814081518104171507C9F463
:2018E000892F422F50E041505109E82FF0E0E417F50754F4EE0FFF1FEA0FFB1FC281D381B9
:20190000C083D1838F5FF1CF9150215090962C9390979F5FD3CFDF91CF911F910F910895C7
:201920001F93CF93DF931F921F92CDB7DEB710E08091F5201817A0F5E12FF0E0EE0FFF1FD1
:20194000EB52FF4D8081918189839A83FC014181528163817481452B462B472BF9F0019684
:201960000E943E1D672B682B692BC1F089819A810E94F215E981FA8180818C708C3081F41F
:20198000BE016F5F7F4F85ED90E20E94580C67E570E089819A810E94A11502C01F5FC8CF12
:2019A0000F900F90DF91CF911F9108958F929F92AF92BF92DF92EF92FF920F931F93CF93AF
:2019C000DF931F921F92CDB7DEB77C01D12C8091F520D81608F060C0ED2DF0E0EE0FFF1F6F
:2019E000EB52FF4D0081118109831A83F801818580FD50C0F70181858770813071F0F80196
:201A00008685843009F046C087858B3409F042C0C7010E948E078823E9F191E0F80182844E
:201A20009384A484B584F701458156816781708584169506A606B70609F090E081E0F8015B
:201A400085809680A780B084F701428553856485758584169506A606B70609F080E08923F3
:201A6000C9F0F801918596959370F701818582958695837098130EC0BE016F5F7F4F85ED07
:201A800090E20E94580C67E570E089819A810E94A11502C0D3949BCF0F900F90DF91CF9114
:201AA0001F910F91FF90EF90DF90BF90AF909F908F9008950F931F93CF93DF93CDB7DEB79F
:201AC000C755D109CDBFDEBF80910621882309F453C09FB7F894809106218823C1F0E0910D
:201AE000072181E08E0F80930721F0E0EE0FFF1FEA50FF4D008111818091072187708093BE
:201B000007218091062181508093062102C000E010E09FBF0115110579F1C8010E947515DF
:201B2000882351F0F80181858770813009F1C8010E948E0781111CC0F80181858770813003
:201B400089F087E5DE01119601900D928A95E1F7CE0101960E94780A882321F0CE01019647
:201B60000E94F21567E570E0C8010E94A11504C0C8010E94D60CE0CFC95ADF4FCDBFDEBFC5
:201B8000DF91CF911F910F910895CF93C0E08091BE20C817B0F4EC2FF0E0EE0FFF1FE658D0
:201BA000FF4D80819181DC01ED91FC910480F581E02D6C2F19950E945A0D0E94900CCF5F19
:201BC000E6CF0E94AC090E946F08A895CF910895FC018089FB01808381E00895CF93DF93CF
:201BE000D62FFC018081C82FCF7082958F700E94C31AC83060F44096EC2FF0E0E80FF91FFB
:201C00008081DD2311F0806401C08F7B8083DF91CF910895FC01808183700895FC01818D0A
:201C2000861304C0158A168A178A108E618F0895FC019089292F30E00388F489E02D662320
:201C4000C9F08389981758F59489290F311D290F311D482F50E02417350708F5818190E00D
:201C600082179307D8F48281482F50E024173507A8F408958289891790F4948942E0949F6A
:201C8000201931091124482F50E04217530738F48281482F50E02417350708F0822F0895AF
:201CA0001F93CF93DF93EC01162F8889861303C0898D8730B9F5CE010F96112319F00E9431
:201CC000441902C00E943219188B89899A890E940A0E282FCE010E962230F8F0223019F403
:201CE00028EC211B122F111103C060E070E007C02B856C857D85129F600D711D11240E94F1
:201D0000B81CE989FA896081661F6627661FCE01DF91CF911F910C942E06112331F30E9465
:201D20004419EFCFDF91CF911F910895FC01A189B2899C91292F26952695237083E0382FB1
:201D4000321B92959370891B2285239FB001112494E1969FA001979F500D1124448755875F
:201D600090E0830F911D289FA001299F500D11243CEE3403C001359F900D112438EC239F43
:201D8000800D911D112468EC70E00E94B51D63870895CF92DF92EF92FF920F931F93CF939A
:201DA000DF93EC01F62EE42E69010E94D4058AE390E2888399830A870B871C861D868E01AC
:201DC000025F1F4F4F2D4F706F2D62956F70C8010E943A1B8E85803E18F4C8010E94411B23
:201DE0008E85803E18F4C8010E94561BEF868FED8E1520F0CE010F960E94411B8F85803E42
:201E000020F4CE010F960E94561B188AC98ADA8A1B8A1C8A1D8A1E8A1F8A188E1B8E83E0D9
:201E20008A83C6010E940A0E61E0823009F060E0C8010E94EE0DCE010E94960E67E0CE0157
:201E4000DF91CF911F910F91FF90EF90DF90CF900C940E0EEF92FF920F931F93CF93DF9390
:201E60001F921F92CDB7DEB78C01FC01E188F288F701808186FD0BC0809111208A8341E0C3
:201E800050E0BE016E5F7F4FC7010E94721AF70181818F3F59F08FEF898341E050E0BE0117
:201EA0006F5F7F4FC70101960E94721AF801818992890E940A0E61E0823009F060E0C8012C
:201EC0000E960E94EE0DC8010E94960E0F900F90DF91CF911F910F91FF90EF9008958F9288
:201EE0009F92AF92BF92EF92FF920F93CF93DF93EC01898D813019F0843009F065C0EB8895
:201F0000FC88F70103819181091B0A8F4085518560E070E04C8F5D8F6E8F7F8F843041F40C
:201F200086859785A0E0B0E08C8F9D8FAE8FBF8F8C8D9D8DAE8DBF8DBC01CD013AE0660FB4
:201F4000771F881F991F3A95D1F72AE030E040E050E00E94C91DCA01B901F8E00F9F4001B7
:201F60001124092C000CAA08BB08281539054A055B0568F0202F30E040E050E00E94C91DBD
:201F80002C8F3D8F4E8F5F8F81E08A8F1DC02C8F3D8F4E8F5F8F8C8D9D8DAE8DBF8D8031CB
:201FA0009105A105B10580F02A8DF7013489231758F026952A8FB695A795979587958C8F73
:201FC0009D8FAE8FBF8FE7CFDF91CF910F91FF90EF90BF90AF909F908F9008950F931F9349
:201FE000CF93DF93EC01162F0E941C1D6D8B7E8B8F8B988F111124C0EB89FC8966817781E0
:20200000CB0101978F3F9F4B10F011E0EDCFCE010E94FA050D891E892F89388DDC01CB0124
:20202000800F911FA21FB31F8D8B9E8BAF8BB88F60E0CE01DF91CF911F910F910C940E0E21
:20204000113061F4EB89FC898085918501978F3F9F4B10F012E0C8CF61E02DC0123049F450
:2020600062E0CE010E940E0EEB89FC89628573853BC0133099F4EB89FC898485958501973A
:202080008F3F9F4B10F014E0AFCF63E0CE010E940E0EEB89FC89648575852BC01430A9F49E
:2020A000EB89FC898685978501978F3F9F4B10F015E09ACF64E0CE010E940E0ECE01DF9142
:2020C000CF911F910F910C946F0F153029F01D8A1E8A1F8A188E1EC065E0CE010E940E0E86
:2020E000EB89FC8960897189CB0101978F3F9F4B70F7CE010E94FA050D891E892F89388D57
:20210000DC01CB01800F911FA21FB31F8D8B9E8BAF8BB88FDF91CF911F910F910895EF9244
:20212000FF920F931F93CF93DF93EC010B891C89898D0115110589F4873009F0ABC060E0A6
:20214000CE010E94500E65E0CE01DF91CF911F910F91FF90EF900C940E0E823009F449C0FA
:2021600028F48823A1F0813001F194C0843009F44FC008F447C0853009F08CC0F801618178
:20218000CE010E94500EEB89FC8967893FC06623C9F0F80165896F70CE01DF91CF911F9131
:2021A0000F91FF90EF900C94EE0F662359F0F888F801E380FE1430F489899A890E940A0E01
:2021C00081110BC0F801658962956F70CE010E94EE0FEB89FC8963813FC06A8D862F90E07F
:2021E0008F0D911D2E2D30E082179307A0F56F0D3EC0F8016381CE010E94500EEB89FC8943
:202200006689C9CF662389F0F80166896295C3CF662359F0F888F801E180EF1430F48989DF
:202220009A890E940A0E81110AC0F80167896F70CE010E94EE0FEB89FC8961810DC08A8D70
:202240008F1548F42F2D30E0281B31094E2D50E04217530754F06E2DCE01DF91CF911F9129
:202260000F91FF90EF900C94500E6F2D681BCE010E94500E4D895E896F89788D8C8D9D8DC7
:20228000AE8DBF8D840F951FA61FB71F8D8B9E8BAF8BB88FDF91CF911F910F91FF90EF90E5
:2022A0000895CF93DF93EC018D899E89AF89B88D892B8A2B8B2B21F4898D873069F408C0E0
:2022C000CE0145960E943E1D672B682B692BA1F361E0CE010E948F1040E050E0BA01CE01DF
:2022E000DF91CF910C945C06EF92FF920F931F93CF93DF93EC017A016130D9F4DA016C9134
:20230000693C08F077C00E94500E1D8A1E8A1F8A188EF7018081882311F062E001C065E05E
:20232000CE01DF91CF911F910F91FF90EF900C940E0E633009F05EC0DA011196ED91FC91AD
:202340001297EB8BFC8B9081892F8F706C91823070F00D891E892F89388D012B022B032BBF
:2023600091F42B8D261313C094FD11C00CC08B8D861302C094FF07C09F70913021F460E0F4
:20238000CE010E948F10F70180818B8F33C0853011F460E006C0863028F58330C9F0E0F058
:2023A00061E0CE010E94180E182F193C60F7612FCE010E94500E1D8A1E8A1F8A188E112321
:2023C00011F062E001C065E0CE010E940E0EDBCF60FF06C01181E9CF8230A9F660FFFACF95
:2023E0001381E3CF883010F46170DBCF883059F66095FACFDF91CF911F910F91FF90EF906D
:202400000895FC01208DFB012083FC018789FB01818382E008950F931F93CF93DF93CDB71E
:20242000DEB72797CDBFDEBF8C01DC011C968D919C911D97FC0121812B3F50F025E02F8305
:2024400041E050E0BE01695F7F4F01960E94721AD8011C968D919C911D97FC012281338133
:202460002115310531F0255031092C303E4008F046C0D8011C968D919C911D97FC0124811C
:2024800035812115310531F0255031092C303E4008F042C0D8011C96ED91FC911D97848127
:2024A0009581009731F0228133818217930708F440C0F801168684EF91E0848395830E948E
:2024C0001C1DD8011C96ED91FC911D97428120E030E0342F330F330FDC01CB01820F931FD3
:2024E000A11DB11DF80186839783A087B1872796CDBFDEBFDF91CF911F910F9108952AE028
:2025000030E02D833E8342E050E0BE016B5F7F4F02960E94721AADCF26E930E02B833C83C3
:2025200042E050E0BE016D5F7F4F04960E94721AB1CF19821A8242E050E0BE016F5F7F4FC4
:20254000CF0104960E94721AB4CFEF92FF920F931F93CF93DF93EC017B018A010E94D405B7
:2025600086E490E288839983EA86FB861E860E941C1D84E08A830C871D871B8E1C8E1D8E42
:202580001E8EDF91CF911F910F91FF90EF900895982F81E0983221F0903111F080E0089502
:2025A00008951F93CF93DF93EC01162F8A859B850E949A1B8A859B85DC011196ED91FC9182
:2025C000129730852C912323E1F0111104C0AE01415F5F4F02C040E050E064E40E94731C5B
:2025E00080910E2081110FC0EA85FB858081A181B28115968C9380810180F281E02D818326
:2026000002C081E001C080E0DF91CF911F910895FB0120813181DC011F968C91803161F455
:202620002E7F43E0220F331F4A95E1F78681281B3109245F3F4F10C0883271F48481982F40
:202640009076903649F086FF02C02E7F05C085FF02C02C7F01C0287FC90134E0969587953E
:202660003A95E1F7B4E68B02C0011124322F23FDC29632FD499631FD0D9630FD0696089578
:20268000AF92BF92CF92DF92EF92FF920F931F93CF93DF93CDB7DEB72997CDBFDEBF8C010D
:2026A000FC01828593850E949A1BA801415F5F4F6EEBF801828593850E94731CCE010196A8
:2026C0007C015E019AE0A90EB11C67016FEFF801828593850E94001CF70181937F01EA15F9
:2026E000FB05A1F740E069E070E0C6010E94AE01811109C0B601C8010E940813F801878BCE
:20270000908F80E001C083E02996CDBFDEBFDF91CF911F910F91FF90EF90DF90CF90BF90E3
:20272000AF9008952091BE20EAE7F0E290E0921781F0A191B19112963C911297343039F4DE
:202740001C960D90BC91A02D3C91831721F09F5FEECF80E0089581E008954F925F926F920F
:202760007F928F929F92AF92BF92CF92DF92EF92FF920F931F93CF93DF93CDB7DEB7CD551D
:20278000D109CDBFDEBFFC0184819581892B09F478C1A485B5858C91811104C086858330A0
:2027A00009F06FC1E62E8F01CF014B960E943E1DD80114962D913C9115974901A12CB12CF0
:2027C000681579058A059B0508F45BC10E941C1DD8015B966D937D938D939C935E971E960A
:2027E0008C911E97811158C08DE495E957968D939C935897EE24EA946801BFE0CB0ED11CE5
:202800005801E7E1AE0EB11CA6016E2DD8011A968D919C911B970E941B1CE82E82E08E0D5A
:20282000823090F1F601F12C8191F80EEA15FB05D9F7F80187850E94C812811103C0E110A3
:20284000E3CF22C0D8011C968D909C901D97F40180818F3F31F48F2D0E949213882309F4C8
:2028600000C1D8011C96ED91FC911D978081F812E6CF81E01E968C931E9784E690E0149620
:202880008D939C931597FDC088E893E1F8018483958383E08687F5C08130A9F461E0C80107
:2028A0000E94D11281110BC088EE93E0D80114968D939C93159782E01E968C93E2C08AEF7F
:2028C00090E0F80175C0823009F075C0C8010E944013FF24F3948111F12CD8011C96ED915A
:2028E000FC911D9784819581892B49F4D8011C96ED91FC911D974181411122C03DC0C80185
:2029000006960E943E1DD8011C96ED91FC911D97AB01BC018AE076956795579547958A9513
:20292000D1F78481958122813381821B930BA0E0B0E0481759076A077B07C0F221E01DC0D0
:20294000F8018789908D218D328D821B930B092E000CAA0BBB0BB7FF07C0B095A0959095CF
:2029600081959F4FAF4FBF4FFAE04F9FA001112421E08417950708F420E0FF20A1F0222380
:2029800091F0D8011C96ED91FC911D97828140E050E0582F550F550F60E070E0C8010E94CF
:2029A0005C06811168C081E0F801868788E893E18483958366C0833009F063C0D801ED9145
:2029C000FC910280F381E02DBE01645A7F4FC8011995F82EE091CF20F091D0208281938197
:2029E000A481B5816C968CAF9DAFAEAFBFAF6C97CE01885A9F4F0E94D6014B015C01409094
:202A00000A2050900B2060900C2070900D200E941C1DFE0131966F0187E5DF011D928A950D
:202A2000E9F789E6888BE98A4F2D50E0BE01645A7F4FCE0142960E94881F88EF8A874B8681
:202A40005C866D867E868E829F82A886B986F394F394FF86C6010E94F215F80114821582D6
:202A600010C0F98241E050E0BE016F5F7F4FC4010E94721AF6CEF8018789908D818F928F51
:202A800092CFC35ADF4FCDBFDEBFDF91CF911F910F91FF90EF90DF90CF90BF90AF909F90A8
:202AA0008F907F906F905F904F900895FC01208120FF17C0458156816781708580910A2035
:202AC00090910B20A0910C20B0910D20481759076A077B0741F081E04F3F5F4F6F4F7F4FD3
:202AE00019F080E0089581E0089521E0FC01458156816781708580910A2090910B20A091A2
:202B00000C20B0910D20481759076A077B0709F020E0822F089521E0FC014285538564859C
:202B2000758580910A2090910B20A0910C20B0910D20481759076A077B0709F020E0822FED
:202B40000895CF93CFB7F8940E9466198091D420882319F081508093D420CFBFCF91089527
:202B6000DF92EF92FF920F931F93CF93DF937C01DFB6F894FC01C685C15FD0E0CE01079688
:202B8000887F0E9468198C01009749F0AE01B7010E94881F8091D4208F5F8093D420DFBE67
:202BA000C801DF91CF911F910F91FF90EF90DF900895FB0198E0408151819A01220F331FED
:202BC00087FD21602083318357FF08C02081318142E0242740E1342720833183880F915070
:202BE00051F708951F93CF93DF93EC010E94FF17182F888181FF13C0CE0105960E94D6013F
:202C00006D837E838F839887CE010A960E94D6016A877B878C879D8788818D7F8883888157
:202C2000982F969596959F5F9370990F990F837F892B88830E941C1DDC01CB018A569F4F13
:202C4000AF4FBF4F89839A83AB83BC83898580FD33C08D819E81AF81B8858F3F9F4FAF4F00
:202C6000BF4F51F18881869586958370813021F58091F520803100F5CE010E94B015009772
:202C8000D9F0E091F520A5EDB0E220E0E21739F04D915D918417950779F02F5FF7CFE031CE
:202CA00058F421E02E0F2093F520F0E0EE0FFF1FEB52FF4D80839183812FDF91CF911F9107
:202CC0000895CF93DF93CDB7DEB76397CDBFDEBFE6EFF0E28FEF828B118A108A8B8B1A8A26
:202CE000198A1092F5206396CDBFDEBFDF91CF910895CF93DF93FC01208121FF13C0EC0199
:202D000005960E94D6016D837E838F839887CE010A960E94D6016A877B878C879D87888162
:202D20008D7F8883DF91CF910895CF93C82F0E941C1D60936E2170936F21809370219093FF
:202D4000712180916621CC3F21F481608093662179C0CD3FD1F482608E7F80936621109279
:202D600064218FEF9FEF8093622190936321809109218E7F8260809309211092172162E6FC
:202D800071E28DEF0E94D9155DC081FF5BC080FF04C0C0688E7F8093662162E671E28C2FB4
:202DA0000E94D91540916421E42FF0E0E25FFE4DC083443049F480911221982F97709330F5
:202DC000C9F183FF37C039C080911721493041F4893498F1809166218D7F809366212DC05F
:202DE00050E060E070E090E0A0E0B0E00996A11DB11D481759076A077B07F9F48091622135
:202E000090916321892BC9F489E091E20E94791680911721825080931721809166218D7F85
:202E2000809366218091092181608093092189E091E20AC088E080936421809164218F5F75
:202E40008093642180E090E0CF9108950F931F93CF93DF93C0916721D0916821209709F46E
:202E6000BCC08C0190916B2180916D2191112EC081FD2CC0826080936D218FEF9FEF809361
:202E8000692190936A21888181FD13C0CE0105960E94D6016D837E838F839887CE010A962C
:202EA0000E94D6016A877B878C879D87888182608883888184FD02C08DEF01C08EEFF8017A
:202EC000808369E671E20E94D91582C081FF82C0888184FF84C0911182C0F801108283E017
:202EE00080936B2140916B21443049F48985982F9770933009F47AC083FF78C017C0493045
:202F000029F4F80180818E5F808310C050E060E070E08E8590E0A0E0B0E00B96A11DB11D5A
:202F200084179507A607B70708F457C080916D2180FD40C069E671E2F80180810E94D91594
:202F400040916B2150E060E070E08E8590E0A0E0B0E00996A11DB11D481759076A077B07E4
:202F6000E1F469E671E280E00E94D91569E671E280E00E94D915259680916B218F5FFE0113
:202F8000E80FF11D80916A21808380916B218E5FC80FD11D809169218883F80180818C5FB3
:202FA000833088F480916D21816080936D218CEF80830EC0F80180818F77808380916D21D3
:202FC0008E7F80936D2180916B218F5F80936B2181E010C0CE010E94791680E00BC0FE01BE
:202FE000E90FF11D8581F80180837CCF88E080936B219CCFDF91CF911F910F910895EF92CE
:20300000FF920F931F93CF93DF931F92CDB7DEB77C018091732190917421892BE9F00E9426
:20302000791F182F0FB7F8948EE691E20E943E1D0FBF212F2F70295F022F10E020E030E005
:20304000061717072807390748F0D70119968C918770813021F702C081E06FC0E0926721DE
:20306000F092682110926B2180916D218D7F80936D21D70119968C9180FD06C0F7019081DB
:20308000969596959370B1F18091732190917421DC01ED91FC910190F081E02D61E01995F4
:2030A00010E0CE0101960E942617A0917321B0917421882389F089811296ED91FC911397B5
:2030C000948193FD05C012E0ECCF948193FF1BC0918195FFFACF17C01296ED91FC911397B4
:2030E000818180648183818186FD0FC0848183FF0CC0F9CF909172219370990F897F892B5C
:20310000F7018187C1CF8083CCCFED91FC9111970190F081E02D60E0CD01199511110AC017
:20312000F701818580FD08C0809172218F5F8093722102C0812F01C080E00F90DF91CF9112
:203140001F910F91FF90EF90089510926E2110926F2110927021109271210E941C1D87E563
:20316000E9E0F1E2DF011D928A95E9F708957F928F929F92AF92BF92CF92DF92EF92FF92AF
:203180000F931F93CF93DF9300D0CDB7DEB75C014B01742EF22E10E0D50112968C911817F9
:2031A00008F041C0B6E31B9F60011124D5011396ED91FC911497EC0DFD1D8481871131C057
:2031C00085818F112EC080819181A281B3818F3F9F4FAF4FBF4F29F1CF010E94D601D401F1
:2031E0002D913D914D915C916217730784079507C1F4E982F50183819481C80ED91E00233F
:2032000021F0FEE1CF0ED11C03C026E0C20ED11CCA82DB82AE014F5F5F4F63E08F2D0E9419
:20322000640A1F5FB9CF2396CDBFDEBFDF91CF911F910F91FF90EF90DF90CF90BF90AF90AE
:203240009F908F907F900895FC018093D2209093D32082E590E280839183628343835483EA
:20326000089508951F93CF93DF93EC010E946B1B182F888182958F700E94C31AFC011683FE
:20328000DF91CF911F9108951F93CF93DF93EC010E946B1B182F888182958F700E94C31A91
:2032A000FC011583DF91CF911F910895009769F020910F203091102041E283399407E0F34E
:2032C00082179307C8F70C94A51E08950C945619CF93DF93EC010E940D1E20910F203091BE
:2032E000102041E283399407E0F382179307C8F72197C80FD91F41E2C339D407E0F3C21732
:20330000D307C8F7DF91CF9108950C9468191F93CF93DF93E0ECF1E022851FB7F894828751
:20332000A8E4B0E04C919C918C91809589238C93C0EAD0E038819A818A81887F84608A8339
:203340008C9181608C93858558ED54BF51E0538753E05587789488954C9338839A838587E8
:2033600022870E949B071FBFDF91CF911F9108950E949B078091CF0181FF03C086E30C94F4
:2033800087190895CF93DF93D82FC091CA010E94B81983E38093CA011092C2011092C10179
:2033A00080E08093C001D093C4018F5F8032C9F7C093CA01DF91CF910C949B078F929F92CF
:2033C000AF92BF92CF92DF92EF92FF920F931F93CF93DF938C015B017A019051811598409C
:2033E00018F080E090E034C0CA019051800F911F81159840B0F7C12CD12C80E2982EE114FA
:20340000F10429F1802E802F8F71C92DC81B8C2F90E0E816F90608F4CE2D0E94B819D0E025
:20342000AE01B501C8010E94881F1092C2011093C1018092C00185E30E948719AC0EBD1E39
:20344000EC1AFD0ACC0EDD1E0C0F1D1FD8CFC601DF91CF911F910F91FF90EF90DF90CF90C9
:20346000BF90AF909F908F9008950F931F93CF93DF931F92CDB7DEB78C0169838091CC018A
:2034800083FF11C0011580E1180708F4105F41E050E0BE016F5F7F4FC8010E94DE1921E0C9
:2034A000892BC9F404C0011588E0180710F020E012C00E94B81983E38093CA011092C2014C
:2034C0001093C1010093C00189818093C40185E30E94871921E0822F0F90DF91CF911F91D6
:2034E0000F910895EF92FF920F931F93CF93DF938A012091CC0123FF0EC0811520E192072C
:2035000008F4905FA801DF91CF911F910F91FF90EF900C94DE197B01EC01C61BD70BCE0157
:203520008E0D9F1D0115110551F0F70161917F010E94351A882331F001501109F0CF80E016
:2035400090E001C0C801DF91CF911F910F91FF90EF9008951F920F920FB60F9211240BB6F8
:203560000F928F93EF93FF93E0ECF1E085858C7F8587FF91EF918F910F900BBE0F900FBEB2
:203580000F901F9018958D3048F4E82FF0E0EE0FFF1FEC5AFF4D80819181089585E791E214
:2035A00008958FEF80937D210895CF92DF92EF92FF920F931F93CF93DF939C01240F351F72
:2035C0002130324098F48A01EB016B01C40ED51E7C01E61AF70AB7016C0F7D1FCC15DD05E4
:2035E00041F081E00E94031B8993F5CF80E090E001C0C801DF91CF911F910F91FF90EF9011
:20360000DF90CF9008954091CA01E62FF72F8093CA0184914093CA010895611112C0843042
:2036200069F038F48230E9F08330F1F480E099E008958530C9F480E09BE0089580E09AE0A8
:203640000895613089F4833049F018F4823079F00BC0843049F480E49AE0089580E499E098
:20366000089580E098E0089580E090E0089580E498E008956295607F4F70642BFC0160834E
:203680000895CF93DF93FC018081982F9F70C1E0D0E001C0CC0F9A95EAF782958F700E9430
:2036A000C31AFC01C283DF91CF910895CF93DF93FC018081982F9F70C1E0D0E001C0CC0FE9
:2036C0009A95EAF782958F700E94C31AFC01C183DF91CF910895FC0190819F7081E001C058
:2036E000880F9A95EAF708950F931F93CF93DF931F92CDB7DEB78C016983CE0101960E9413
:203700006B1BF8018083898182958F700E94C31AF8018183928330812FB7F8943093B000E0
:2037200038E1FC01308B2FBF0F90DF91CF911F910F910895FC018081A181B28116968C9350
:203740008081A181B28111968C938FEB92E10197F1F700C000009FB7F8948081A181B281E8
:2037600012968C93AFE0B2E01197F1F700C000002081A181B28118968C919FBFAFEEBCE0B9
:203780001197F1F700C00000A181B28118963C919081932311F08223089581E00895FC0104
:2037A000862F2FB7F8949081A181B28111969C9395E19A95F1F70000662329F09081A18144
:2037C000B28112969C93AAE8AA95F1F700C0A181B28118963C919081932309F480E0A7E6E5
:2037E000B1E01197F1F700C0000090810180F281E02D9283BAE6BA95F1F700C02FBF08959F
:203800000F931F93CF93DF938C01C62FD8E06C2F6170C8010E94CF1B2C2F30E03595279594
:20382000C22F8111C068D15091F78C2FDF91CF911F910F910895BF92CF92DF92EF92FF9287
:203840000F931F93CF93DF937C01C62E8A010E949A1B81113BC060EFC7010E94001CD0E0DB
:20386000C0E498EFB92EBC0E61E0C7010E94CF1BD82E61E0C7010E94CF1B882319F0DD208B
:2038800071F026C0D1100BC0CC1530F0F801808180FF05C0CC1519F0DC2FDD24D3946D2DFF
:2038A000C7010E94CF1BF801208130E035952795DD2011F02068F8012083C150CB11D4CFD2
:2038C0000F5F1F4FC111CDCF8D2F03C08FEF01C08EEFDF91CF911F910F91FF90EF90DF90C6
:2038E000CF90BF900895CF92DF92FF920F931F93CF93DF93EC01F62E8A010E949A1B0115E9
:20390000110591F065E5CE010E94001C680188E0C80ED11CF80161918F01CE010E94001C9D
:203920000C151D05B9F704C06CECCE010E94001C6F2DCE01DF91CF911F910F91FF90DF9062
:20394000CF900C94001CFC018081282F2F7030E02430310514F460E004C0263031052CF406
:2039600061E082958F700C940D1B80E090E008950F931F93CF93DF93EC018B010E94A31CB9
:20398000FC0198819F70943008F094503097D9F0492F50E09A01220F331FDF01D896A20F0D
:2039A000B31F0D931C9380818823E1F001151105C9F0818120E130E0092E01C0220F0A94AA
:2039C000EAF7282B19C0CE01012B31F0DF91CF911F910F910C944419DF91CF911F910F9181
:2039E0000C943219818120E130E0092E01C0220F0A94EAF7209528232183218140E150E08A
:203A0000BA0102C0660F771F9A95E2F7CB0130E082239323892BB9F2DF91CF911F910F9160
:203A200008959091010490FDFCCF90910004987F892B80930004089531E02FB7F894409173
:203A4000030440FF0CC040918D2150918E214F5F5F4F40938D2150938E213093030440913B
:203A6000080450910904BA012FBF2091030420FDE4CF80918D2190918E210895CF92DF921D
:203A8000EF92FF920F931F93CF93DF93EC010E941C1D088119812A813B816B017C01C01AD7
:203AA000D10AE20AF30A601771078207930760F4C701B601615071098109910997FF06C0B2
:203AC00060E070E0CB0102C0C701B601DF91CF911F910F91FF90EF90DF90CF9008951F93FE
:203AE000CF93DF93182FEB0180E00E94111D809143008E7F80934300153031F4C115D04286
:203B000019F483E09EE002C081E094E020914300217F2160922B909343002091080430916A
:203B200009043C5F40910804509109049091010490FDFCCF6FEF7FEF60930A0470930B04B5
:203B40009091010490FDFCCF40930804509309049091010490FDFCCF20930C0430930D0403
:203B6000DF91CF911F910C94111DAA1BBB1B51E107C0AA1FBB1FA617B70710F0A61BB70BC2
:203B8000881F991F5A95A9F780959095BC01CD010895A1E21A2EAA1BBB1BFD010DC0AA1FDB
:203BA000BB1FEE1FFF1FA217B307E407F50720F0A21BB30BE40BF50B661F771F881F991FB2
:203BC0001A9469F760957095809590959B01AC01BD01CF010895A29FB001B39FC001A39FE8
:203BE000700D811D1124911DB29F700D811D1124911D08950E94EB1DA59F900DB49F900D60
:203C0000A49F800D911D11240895EE0FFF1F881F8BBF0790F691E02D19940F931F93CF93BA
:203C2000DF938230910510F482E090E0E0919121F091922120E030E0A0E0B0E0309719F1AC
:203C4000408151810281138148175907C8F08417950769F4109731F012960C93129713964E
:203C60001C9327C0009391211093922122C02115310519F04217530718F49A01BD01EF01B4
:203C8000DF01F801DBCF21153105F9F0281B390B2430310580F48A819B816115710521F0A3
:203CA000FB018283938304C08093912190939221FE01329644C0FE01E20FF31F8193919389
:203CC00022503109288339833AC020918F2130919021232B41F42091022030910320209317
:203CE0008F213093902120910020309101202115310541F42DB73EB7409104205091052078
:203D0000241B350BE0918F21F0919021E217F307A0F42E1B3F0B2817390778F0AC014E5F76
:203D20005F4F2417350748F04E0F5F1F40938F21509390218193919302C0E0E0F0E0CF01DA
:203D4000DF91CF911F910F910895CF93DF93009709F481C0FC01329712821382A09191212B
:203D6000B0919221109781F420813181820F931F20918F21309190212817390751F5E09392
:203D80008F21F093902167C0ED0120E030E0CE17DF0740F44A815B819E0141155105F1F048
:203DA000EA01F5CFC283D38340815181840F951FC817D90759F488819981840F951F0296D1
:203DC000808391838A819B81828393832115310529F4E0939121F09392213DC0E901EA8352
:203DE000FB8349915991C40FD51FEC17FD0761F480819181840F951F0296E901888399835B
:203E0000828193818A839B83E0E0F0E012968D919C911397009719F0FD01DC01F7CF8D91D4
:203E20009C9111979D012E5F3F4F820F931F20918F21309190212817390769F4309729F41E
:203E4000109291211092922102C012821382A0938F21B0939021DF91CF9108958F929F9238
:203E6000AF92BF92CF92DF92EF92FF92CF93DF93EC01688179818A819B816115710581058F
:203E8000910521F464E279ED8BE597E02DE133EF41E050E00E94981F49015A019B01AC011C
:203EA000A7EAB1E40E94FA1D6B017C01ACEEB4EFA50194010E94BA1FDC01CB018C0D9D1D4B
:203EC000AE1DBF1DB7FF03C00197A109B04888839983AA83BB839F77DF91CF91FF90EF9002
:203EE000DF90CF90BF90AF909F908F9008950C942E1F86E090E20C942E1FA0E0B0E08093A6
:203F0000062090930720A0930820B09309200895FB01DC0102C001900D9241505040D8F712
:203F20000895DC0101C06D9341505040E0F70895052E97FB1EF400940E94AF1F57FD07D0AB
:203F40000E94C91D07FC03D04EF40C94AF1F50954095309521953F4F4F4F5F4F0895909582
:203F60008095709561957F4F8F4F9F4F0895B7FF0C94FA1D0E94FA1D821B930B0895F89470
:203F8000FFCF00009321200001000000003D8F60019331FF000000003119311997029902C6
:203FA000000000004203580351035B0300000000CF05D005D205D305000000007411E80DDD
:203FC00051112A0F00000000CF050112AD130B1200000000B7180006200640066006800655
:143FE000A006752175217521752175217521E007427DF50008
:00000001FF
